:020000040800F2
:1000000000000320C1020008013A0008033A00087A
:10001000053A0008073A0008093A00080000000005
:100020000000000000000000000000000B3A000883
:100030000D3A0008000000000F3A0008113A0008CD
:10004000E9240008E9240008E9240008E92400085C
:10005000E9240008E9240008E9240008E92400084C
:10006000E9240008E9240008E9240008E92400083C
:10007000E9240008E9240008E9240008E92400082C
:10008000E9240008E9240008E9240008E92400081C
:10009000E9240008E9240008E9240008E92400080C
:1000A000E9240008E9240008E9240008E9240008FC
:1000B000E9240008E9240008E9240008E9240008EC
:1000C000E9240008E9240008E9240008E9240008DC
:1000D000E9240008E9240008E9240008E9240008CC
:1000E000E9240008E9240008E9240008E9240008BC
:1000F000E9240008E9240008E9240008E9240008AC
:10010000E9240008E9240008E9240008E92400089B
:10011000E9240008E9240008E9240008E92400088B
:10012000E9240008E9240008E9240008E92400087B
:10013000E9240008E9240008E9240008E92400086B
:10014000E9240008E9240008E9240008E92400085B
:10015000E9240008E9240008E9240008E92400084B
:10016000E9240008E9240008E9240008E92400083B
:10017000E9240008E9240008E92400080000000040
:10018000E9240008E9240008E9240008E92400081B
:10019000E9240008E9240008E9240008E92400080B
:1001A000E9240008E9240008E924000800B583B028
:1001B00002F000F9304B314A1360314A1360314B81
:1001C000314A03E052F8041B43F8041B2F498B42C9
:1001D000F8D32A4B1A682E4B9A4200D0FEE7284BE0
:1001E0001A682C4B9A42F9D1234B2B4A13602B4AA5
:1001F00013602B4B02E0002243F8042B294A934260
:10020000F9D3254B1B6813B9244B1B6803B1FEE7D8
:1002100002F0DCF8694601A802F076F8224C234B84
:10022000E41AA410002504E0204B53F82530984729
:100230000135AC42F8DC1E4C1E4BE41AA41000251C
:1002400004E01C4B53F8253098470135AC42F8DCEC
:100250000099019803F042FB0546174C174BE41A2E
:10026000A41004E0013C154B53F824309847002CAF
:10027000F8DC284603F0D8FBBABADECA000000203A
:10028000E80100200000002058780008EC01002060
:100290007856341232547698EC0100208C040020F9
:1002A000EC0100209004002014040008140400084D
:1002B00014040008140400081404000814040008BE
:1002C00008B5FFF773FF00BEFEE71EF0040F0CBF7A
:1002D000EFF30880EFF309807146414A10472DE99A
:1002E000F04182B004460D46124B5F6BD3F8388064
:1002F0009E6A1B6B13F0020F03D00E4BDB6A002BC0
:100300000BDB0D4802F008F8009543463A463146AB
:10031000204602F05FF800BEFEE74BF6AB6102F04C
:10032000D3F80028EDD0034B4FF00042DA6202B060
:10033000BDE8F08100ED00E0A075000800BEFEE71A
:100340001EF0040F0CBFEFF30880EFF30980714635
:10035000244A10472DE9F04182B004460D46084B6F
:100360005F6BD3F838809E6A064801F0D5FF009590
:1003700043463A463146204602F02CF800BEFEE7DE
:1003800000ED00E0B07500081EF0040F0CBFEFF3A5
:100390000880EFF309807146134A10472DE9F041B8
:1003A00082B004460D46084B5F6BD3F838809E6AD6
:1003B000064801F0B1FF009543463A4631462046D3
:1003C00002F008F800BEFEE700ED00E0BC75000892
:1003D00000BEFEE700BEFEE700BEFEE7704700007D
:0C03E000DF020008550300089D03000820
:1003EC005878000800000020EC0100205878000824
:1003FC000000001000000010EC0100209004002010
:08040C000000001000000010C8
:1004200010B504460E4B18784FF47A73B3FBF0F313
:100430000C4A1068B0FBF3F000F09EF868B90F2C7E
:1004400001D901200AE0002221464FF0FF3000F0E0
:100450005FF8054B1C60002000E0012010BD00BFCC
:1004600004000020140000200800002008B50B4BF9
:100470001A6842F400721A601A6842F480621A60C4
:100480001A6842F480721A60032000F02FF80020EE
:10049000FFF7C6FF03F098FA002008BD003C0240B9
:1004A000034A1168034B1B780B441360704700BF6D
:1004B000F002002004000020014B1868704700BFC4
:1004C000F002002038B50446FFF7F6FF0546B4F108
:1004D000FF3F02D0044B1B781C44FFF7EDFF401B8D
:1004E000A042FAD338BD00BF04000020074AD368F9
:1004F00023F4E0631B041B0C000200F4E0600343E0
:1005000043F0BF6343F40033D360704700ED00E075
:1005100030B4174BDB68C3F30223C3F10704042C88
:1005200028BF04241D1D062D18D9033B4FF0FF35AD
:1005300005FA04F421EA0401994005FA03F322EADA
:100540000303194300280BDB0901C9B200F1604025
:1005500000F5614080F8001330BC70470023E5E7E8
:1005600000F00F000901C9B2024B1954F4E700BFB3
:1005700000ED00E014ED00E00138B0F1807F0AD218
:10058000064B5860064AF02182F82310002098603C
:1005900007221A6070470120704700BF10E000E09A
:1005A00000ED00E0042805D0054A136823F0040399
:1005B00013607047024A136843F0040313607047E6
:1005C00010E000E000230F2B00F2E580F0B583B0CF
:1005D00039E0092200E00022B2403A4302346E4E74
:1005E00046F824206D4A1468EA4324EA05064F6859
:1005F00017F4803F01D045EA0406684C2660646821
:1006000002EA04064F6817F4003F01D045EA0406E9
:10061000624C6660A46802EA04064F6817F4801F03
:1006200001D045EA04065D4CA660E46822404E68AD
:1006300016F4001F01D045EA0402584CE260013371
:100640000F2B00F2A68001229A400C6804EA0205F2
:1006500032EA0404F3D14C68661E012E03D9112C32
:1006600001D0122C12D186685F000324BC4026EA18
:100670000406CC68BC4034438460466826EA02061F
:100680004C68C4F300129A4032434260C7685E006F
:100690000324B440E24327EA04078C68B4403C4397
:1006A000C4604C68022C01D0122C13D1DF0808372B
:1006B00050F827E003F007044FEA840C0F2404FAF3
:1006C0000CF42EEA040E0C6904FA0CF444EA0E044D
:1006D00040F82740046814404A6802F00302B24020
:1006E000224302604A6812F0805FA8D00022019283
:1006F0002B4A546C44F480445464526C02F480429B
:100700000192019A9C08A61C234A52F8267003F015
:10071000030296000F22B24027EA0207214A9042C4
:100720003FF459AF02F58062904222D002F5806218
:10073000904220D002F5806290421ED002F5806285
:1007400090421CD002F5806290421AD002F580627D
:10075000904218D002F58062904216D002F5806275
:10076000904214D002F5806290423FF432AF0A22E8
:1007700032E7012230E702222EE703222CE704228F
:100780002AE7052228E7062226E7072224E708228F
:1007900022E703B0F0BD704700380140003C014043
:1007A00000380240000002400369194201D00120D4
:1007B0007047002070470AB1816170470904816168
:1007C000704703685A6912F4806F01D100207047A6
:1007D0006FF480625A6100230363202280F83D2079
:1007E00080F83E30026C42F00402026480F83C3033
:1007F000012070472DE9F04107460D4690461E4600
:1008000022E0FFF759FE069BC01AB04200D8DEB9BD
:1008100000233B63202287F83D2087F83E303A6C66
:1008200042F020023A6487F83C3001201AE03B682D
:100830009C6925EA0404A4B2B4FA84F46409A045CE
:100840000FD1B6F1FF3FDCD1C5F30743012BEED149
:100850003B685C6925EA0404A4B2B4FA84F4640930
:10086000EDE70020BDE8F0812DE9F04105460E4698
:10087000174698463DE01A6842F400721A602B68E9
:100880006FF480625A6100232B63202285F83D209B
:1008900085F83E302A6C42F004022A6485F83C3028
:1008A000012034E0FFF708FEA0EB0800B84200D8B2
:1008B000FFB900232B63202285F83D2085F83E30C8
:1008C0002A6C42F020022A6485F83C3001201EE0A8
:1008D0002B689C6926EA0404A4B2003C18BF0124DA
:1008E000A4B12B685A6912F4806FC4D1B7F1FF3FED
:1008F000D8D1C6F30743012BEAD12B685C6926EAFD
:100900000404A4B2003C18BF0124E9E70020BDE8BC
:10091000F0810000F0B583B004460D4616461F4630
:10092000C36A082B0DD0012B0BD013F5803F08D0E4
:10093000036B122B0AD10268136843F480731360AF
:1009400004E02268136843F4807313600097334611
:1009500000224FF001112046FFF74CFF80B92369B8
:10096000B3F5804F16D1236805F0FE051D613B46A7
:10097000324613492046FFF777FFF8B903B0F0BDC0
:1009800023681B6813F4807F02D04FF40073236444
:100990000320F3E7EB11226803F0060343F0F003B2
:1009A00013613B46324607492046FFF75DFF18B901
:1009B0002368EDB21D61DAE70120DFE70120DDE702
:1009C000020001000800010070B504460D461646FD
:1009D00023685B6913F0800F1CD12046FFF7F1FEFE
:1009E000D0B9B5F1FF3FF3D0FFF766FD801BA842F9
:1009F00001D8002DECD100232363202284F83D2070
:100A000084F83E30226C42F02002226484F83C30AC
:100A1000012000E0002070BD0120FCE72DE9F04737
:100A200084B004460D46164699460C9FDDF8348086
:100A30000268136843F4806313600368196841F423
:100A400080711960CDF800803B4600224FF0011103
:100A5000FFF7D0FE70B95FFA85FA236805F0FE054E
:100A60001D6143463A4641492046FFF7FDFE68B105
:100A7000012008E023681B6813F4807F02D04FF444
:100A800000732364032004B0BDE8F08700230393C0
:100A900023685A6903929B690393039B4246394634
:100AA0002046FFF791FF80B9B9F1010F18D12368F3
:100AB000F6B21E61424639462046FFF785FF68B30D
:100AC000236C042B24D00120DDE7236C042B01D000
:100AD0000120D8E72268136843F400731360F7E736
:100AE0002368320A1A61424639462046FFF76CFFF6
:100AF00018B92368F6B21E61DCE7236C042B01D021
:100B00000120C0E72268136843F400731360F7E71D
:100B10002268136843F400731360D4E722681368F3
:100B200043F480731360CDF800803B4600224FF001
:100B300001112046FFF75EFE68B922684AF0010302
:100B4000136143463A4609492046FFF78DFE0028C7
:100B500099D0012097E723681B6813F4807F02D0A7
:100B60004FF40073236403208DE700BF02000100EF
:100B700070B504460D46164623685B6913F0040FF2
:100B80001CD12046FFF71DFED0B9B5F1FF3FF3D0D1
:100B9000FFF792FC801BA84201D8002DECD1002366
:100BA0002363202284F83D2084F83E30226C42F0FA
:100BB0002002226484F83C30012000E0002070BD57
:100BC0000120FCE770B505460C4616462B685969AE
:100BD00011F0400F29D1596911F0100F15D1FFF70D
:100BE0006BFC801BA04201D8002CEFD100232B63AB
:100BF000202285F83D2085F83E302A6C42F0200204
:100C00002A6485F83C30012070BD6FF010025A61F3
:100C100000232B63202285F83D2085F83E302A6C86
:100C20002A6485F83C300120EEE70020ECE77047AD
:100C3000002800F0CC80F8B5044690F83D30002B39
:100C400077D0242384F83D302268136823F0010311
:100C500013602268136843F400431360226813682A
:100C600023F40043136000F041FE62685A4B9A423D
:100C700064D85A4B98428CBF00230123002B40F0CC
:100C8000A880574DA5FB0035AF0C2668716821F090
:100C90003F0141EA9541716021680B6A23F03F03EF
:100CA00065684D4A95424FD87A1C13430B622568FC
:100CB000E96921F44F4121F0FF016368464A9342FC
:100CC0004CD801385B00B0FBF3F0013040F6FC7308
:100CD000184278D0C0F30B030B43EB6121680B681B
:100CE00023F0C003E269206A024313430B602168CA
:100CF0008B6823F4034323F0FF032269E068024377
:100D000013438B602168CB6823F0FF036269A069FD
:100D100002431343CB602268136843F0010313605E
:100D200000202064202384F83D30206384F83E00B6
:100D3000F8BD80F83C30FFF77AFF82E7294B9842F4
:100D40008CBF0023012399E74FF4967202FB07F250
:100D5000254DA5FB025292090132A6E7A268BAB955
:100D6000461E03EB4307B6FBF7F60136C6F30B0648
:100D7000B6FA86F6760946BBC2B9421E03EB4303B8
:100D8000B2FBF3F20132C2F30B0242F40043A3E7D9
:100D9000461E03EB830707EB8707B6FBF7F6013622
:100DA000C6F30B06B6FA86F67609E4E7421E03EBB5
:100DB000830303EB8303B2FBF3F20132C2F30B02B2
:100DC00042F4404388E7042386E7012384E70120B7
:100DD00070470120ACE700BFA08601007F841E00A1
:100DE00083DE1B43FF083D00D34D62102DE9F04325
:100DF00085B004460F46914698460C9EFFF75CFB73
:100E0000054694F83D00C0B2202804D00227384699
:100E100005B0BDE8F0830095192301224F49204613
:100E2000FFF7E8FC002840F0928094F83C30012B5A
:100E300000F08F80012384F83C3023681A6812F098
:100E4000010F03D11A6842F001021A602268136888
:100E500023F400631360212384F83D30102384F8C9
:100E60003E3000232364C4F82490A4F82A80638DC4
:100E700023853B4BE3622B46324639462046FFF73B
:100E800049FD0746002866D10023039323685A6969
:100E900003929B690393039B11E0236C042B01D005
:100EA0000127B4E72268136843F400731360F7E77F
:100EB0002A4631462046FFF75BFE00282ED1238DBF
:100EC000002B36D02A4631462046FFF77DFD00280C
:100ED000E3D1626A236812781A61616A4B1C63620B
:100EE000638D9BB2013B9BB26385238D013B9BB21B
:100EF00023852268506910F0040FD9D0002BD7D079
:100F00004B781361636A01336362638D9BB2013B6B
:100F10009BB26385238D013B2385C9E7236C042B9A
:100F200001D0012773E72268136843F4007313604C
:100F3000F7E72268136843F400731360202384F8F2
:100F40003D30002384F83E3084F83C305FE70227D0
:100F50005DE702275BE7012759E700BF02001000A9
:100F60000000FFFF2DE9F04387B004460F4690468E
:100F70009946109EFFF7A0FA054694F83D00C0B2CE
:100F8000202804D00227384607B0BDE8F08300953A
:100F9000192301229D492046FFF72CFC002840F030
:100FA000448194F83C30012B00F04181012384F806
:100FB0003C3023681A6812F0010F03D11A6842F01E
:100FC00001021A602268136823F40063136022236D
:100FD00084F83D30402384F83E30002323640E9B88
:100FE0006362BDF83C306385638D2385884BE36283
:100FF000019500964B46424639462046FFF70EFDC6
:101000000746002840F01581238D5BB902932368C1
:101010005A6902929A690292029A1A6842F400721C
:101020001A6098E0012B0AD0022B1AD000230593F6
:1010300023685A6905929B690593059B8BE022689A
:10104000136823F4806313600023039323685A69B1
:1010500003929A690392039A1A6842F400721A6022
:1010600079E02268136823F48063136022681368B0
:1010700043F4006313600023049323685A690492C5
:101080009B690493049B66E02A4631462046FFF79D
:1010900099FD002840F0CF8023681A69636A1A70AE
:1010A000636A01336362238D013B2385638D9BB2A9
:1010B000013B9BB263854EE00095334600225549C3
:1010C0002046FFF797FB002840F0B780226813689E
:1010D00043F40073136023681A69636A1A70626AC2
:1010E000531C6362238D013B2385638D9BB2013BBF
:1010F0009BB2638523681B695370636A0133636223
:10110000238D013B2385638D9BB2013B9BB263859D
:1011100021E02268136843F40073136023681A699E
:10112000636A1A70626A531C6362238D013B2385D4
:10113000638D9BB2013B9BB2638523681B6953702F
:10114000636A01336362238D013B2385638D9BB208
:10115000013B9BB26385238D002B5DD0032B2BD8E5
:10116000012B91D0022BA7D00095334600222949AC
:101170002046FFF73FFB002861D12268136823F463
:101180008063136023681A69636A1A70636A0133A3
:101190006362238D013B2385638D9BB2013B9BB230
:1011A00063850095334600221A492046FFF722FB4B
:1011B0000028AED00127E6E62A4631462046FFF752
:1011C00001FD00283DD123681A69636A1A70626ABA
:1011D000531C6362238D013B2385638D9BB2013BCE
:1011E0009BB263852368596911F0040FB3D01B6962
:1011F0005370636A01336362238D013B2385638DE2
:101200009BB2013B9BB26385A5E700BF02001000C3
:101210000000FFFF04000100202384F83D3000237C
:1012200084F83E3084F83C30ADE60227ABE6022776
:10123000A9E60127A7E60127A5E60127A3E60127DE
:10124000A1E601279FE600BF10B582B000230193FD
:10125000194B1A6C42F080521A641B6C03F08053D5
:101260000193019B154B01221A60FFF725F90446F3
:10127000134B5B6813F4803F08D1FFF71DF9001B87
:10128000B0F57A7FF4D9032002B010BD0D4B0122D6
:101290001A60FFF711F90446094B5B6813F4003F2D
:1012A00007D1FFF709F9001BB0F57A7FF4D90320C5
:1012B000EAE70020E8E700BF0038024040000E42A5
:1012C0000070004044000E42002800F0D98170B543
:1012D00082B00446036813F0010F3BD0A64B9B6815
:1012E00003F00C03042B2CD0A34B9B6803F00C03DE
:1012F000082B21D06368B3F5803F4FD0B3F5A02F02
:1013000052D09D4B1A6822F480321A601A6822F477
:1013100080221A606368002B50D0FFF7CDF8054695
:10132000954B1B6813F4003F14D1FFF7C5F8401B21
:101330006428F5D90320AAE18F4B5B6813F4800F72
:10134000D8D08D4B1B6813F4003F03D06368002B8B
:1013500000F09881236813F0020F54D0864B9B68ED
:1013600013F00C0F3ED0844B9B6803F00C03082B4A
:1013700033D0E368002B67D0804B01221A60FFF75F
:101380009BF805467C4B1B6813F0020F53D1FFF707
:1013900093F8401B0228F5D9032078E1764A1368B8
:1013A00043F480331360B5E7734B1A6842F480222C
:1013B0001A601A6842F480321A60ABE7FFF77CF8D3
:1013C00005466D4B1B6813F4003FC3D0FFF774F85C
:1013D000401B6428F5D9032059E1674B5B6813F47F
:1013E000800FC6D1644B1B6813F0020F03D0E36873
:1013F000012B40F04981604A136823F0F80321690A
:1014000043EAC1031360236813F0080F40D06369F7
:1014100063B35B4B01221A60FFF74EF80546564B4B
:101420005B6F13F0020F33D1FFF746F8401B022821
:10143000F5D903202BE1504A136823F0F803216902
:1014400043EAC1031360DEE74C4B00221A60FFF74A
:1014500033F80546484B1B6813F0020FD3D0FFF753
:101460002BF8401B0228F5D9032010E1444B002241
:101470001A60FFF721F805463F4B5B6F13F0020F30
:1014800006D0FFF719F8401B0228F5D90320FEE02B
:10149000236813F0040F78D0374B1B6C13F0805F78
:1014A0000DD100230193344B1A6C42F080521A6420
:1014B0001B6C03F080530193019B012500E0002584
:1014C000304B1B6813F4807F21D0A368012B32D0EE
:1014D000052B36D0284B1A6F22F001021A671A6FBB
:1014E00022F004021A67A368002B34D0FEF7E4FF51
:1014F0000646214B1B6F13F0020F45D1FEF7DCFFB0
:10150000801B41F288339842F3D90320BFE01D4A83
:10151000136843F480731360FEF7CEFF0646194B41
:101520001B6813F4807FD0D1FEF7C6FF801B022812
:10153000F5D90320ABE0104A136F43F001031367A2
:10154000D1E70D4B1A6F42F004021A671A6F42F08E
:1015500001021A67C7E7FEF7AFFF0646064B1B6F8F
:1015600013F0020F10D0FEF7A7FF801B41F2883363
:101570009842F3D903208AE0003802400000474235
:10158000800E474200700040E5B9A369002B7DD072
:10159000464A926802F00C02082A51D0022B17D05A
:1015A000434B00221A60FEF787FF04463F4B1B683F
:1015B00013F0007F42D0FEF77FFF001B0228F5D911
:1015C000032064E0394A136C23F080531364DCE792
:1015D000374B00221A60FEF76FFF0546334B1B683E
:1015E00013F0007F06D0FEF767FF401B0228F5D9F5
:1015F00003204CE0E369226A1343626A43EA8213E0
:10160000A26A5208013A43EA0243E26A43EA0263E9
:10161000264A5360264B01221A60FEF74DFF04460E
:10162000224B1B6813F0007F06D1FEF745FF001B1D
:101630000228F5D903202AE0002028E0002026E037
:10164000012B26D0194B9B6803F48001E26991427B
:1016500021D103F03F02216A8A421ED1616A47F616
:10166000C0721A408A421AD103F44032A16A8A42F7
:1016700017D103F07063E26A934214D1002006E0B0
:1016800001207047012002E0012000E0002002B0AC
:1016900070BD0120FBE70120F9E70120F7E70120F9
:1016A000F5E70120F3E70120F1E700BF0038024031
:1016B00060004742F8B52F4B9B6803F00C03042BE6
:1016C00053D0082B53D12B4B5A6802F03F025B6872
:1016D00013F4800F28D0274B5B68C3F3881358019D
:1016E0000021C01A61F100018E0146EA906687016F
:1016F0003C1A66EB0105E90041EA5471E000C018AC
:1017000041F100014B0243EAD053440220461946FE
:10171000002303F02BF9174B5B68C3F3014301333C
:101720005B00B0FBF3F023E0124B5B68C3F388135C
:101730005C010025E41A65F10005AE0146EA9466F5
:10174000A701381B66EB0501CC0044EA5074C500C4
:10175000E81844F100018B0243EA905384022046CA
:101760001946002303F002F9D5E7034800E00348D7
:10177000F8BD00BF0038024000127A000024F400D7
:10178000002800F09B8070B50D4604464F4B1B6847
:1017900003F00F038B4208D2CBB24C4A137013688C
:1017A00003F00F038B4240F08B80236813F0020F8D
:1017B00017D013F0040F04D0454A936843F4E05364
:1017C0009360236813F0080F04D0414A936843F4F0
:1017D000604393603E4A936823F0F003A1680B4393
:1017E0009360236813F0010F32D06368012B21D07E
:1017F0009A1E012A25D9364A126812F0020F61D0CA
:1018000033498A6822F0030213438B60FEF754FECB
:1018100006462F4B9B6803F00C036268B3EB820F04
:1018200016D0FEF749FE801B41F288339842F0D96A
:10183000032042E0264A126812F4003FE0D1012062
:101840003BE0234A126812F0007FD9D1012034E036
:101850001E4B1B6803F00F03AB4207D9EAB21B4BC8
:101860001A701B6803F00F03AB422DD1236813F0ED
:10187000040F06D0164A936823F4E053E1680B4343
:101880009360236813F0080F07D0114A936823F47C
:101890006043216943EAC1039360FFF70BFF0C4BE0
:1018A0009B68C3F303130B4AD35CD8400A4B186000
:1018B0000A4B1868FEF7B4FD002070BD0120704788
:1018C0000120FAE70120F8E70120F6E7003C02409A
:1018D00000380240DC7500081400002008000020D9
:1018E000014B1868704700BF1400002008B5FFF7CF
:1018F000F7FF044B9B68C3F38223034AD35CD840B1
:1019000008BD00BF00380240EC75000830B583B058
:101910000446036813F0430F14D1236813F00C0F2F
:1019200069D1236813F0200F40F0BE80236813F0C4
:10193000100F00F0208194F82C20904B1A600020AA
:1019400003B030BD8E4B00221A60FEF7B5FD054690
:101950008C4B1B6813F0006F06D0FEF7ADFD431BE8
:10196000022BF5D90320EBE7236813F0010F07D012
:101970006268A3681B0743EA8213824AC2F8843074
:10198000236813F0020F15D07E4AD2F884106068E5
:10199000E3681B0643EA801301F0E0410B43C2F801
:1019A0008430D2F88C3023F01F03E16901390B43F6
:1019B000C2F88C30236813F0400F0AD06268E368E5
:1019C0001B0643EA8213A26843EA02736D4AC2F817
:1019D00084306B4B01221A60FEF76EFD0546694BA1
:1019E0001B6813F0006F98D1FEF766FD401B0228BC
:1019F000F5D90320A4E7644B00221A60FEF75CFDD2
:101A00000546604B1B6813F0005F06D0FEF754FDDF
:101A1000431B022BF5D9032092E7236813F0040F30
:101A200016D0584AD2F88810206963691B0643EA29
:101A3000801301F0E0410B43C2F88830D2F88C30BB
:101A400023F4F853216A013943EA0123C2F88C30A8
:101A5000236813F0080F14D04A4AD2F8883021695D
:101A600003F0706343EA8113A16943EA0173C2F88A
:101A70008830D2F88C3023F44033616A0B43C2F8CB
:101A80008C30414B01221A60FEF716FD05463D4B96
:101A90001B6813F0005F7FF444AFFEF70DFD401BA1
:101AA0000228F4D903204BE700230193354B1A6C2D
:101AB00042F080521A641B6C03F080530193019B27
:101AC000324A136843F480731360FEF7F5FC054651
:101AD0002E4B1B6813F4807F06D1FEF7EDFC401BF4
:101AE0000228F5D903202BE7264B1B6F13F4407314
:101AF00012D0A26A02F440729A420DD0214B1A6FA2
:101B000022F44072224901200860002008601A6710
:101B10001B6F13F0010F12D1A36A03F44072B2F5E8
:101B2000407F1DD0174A936823F4F813936015493A
:101B30000B6FA26AC2F30B0213430B67F6E6FEF7C4
:101B4000BBFC05460F4B1B6F13F0020FE4D1FEF7F1
:101B5000B3FC401B41F288339842F3D90320EFE6EF
:101B600008498A6822F4F81223F0704323F4407382
:101B700013438B60DBE70020E2E600BFE011474241
:101B80006800474200380240700047420070004041
:101B9000400E474230B4036A23F001030362056A32
:101BA0004268846924F073040B681C4325F0020525
:101BB0008B682B43104DA84203D005F58065A842E1
:101BC00005D123F00803CD682B4323F004030A4D0D
:101BD000A84203D005F58065A84205D122F44072E1
:101BE0004D6915438A692A43426084614A684263A9
:101BF000036230BC704700BF0000014030B4036A8C
:101C000023F480730362036A4268C46924F0730496
:101C10000D682C4323F400738D6843EA0523124DAD
:101C2000A84203D005F58065A84206D123F40063DD
:101C3000CD6843EA052323F480630B4DA84203D00B
:101C400005F58065A84207D122F440524D6942EA69
:101C500005128D6942EA05124260C4614A68C26396
:101C6000036230BC704700BF0000014030B4036A1B
:101C700023F480530362036A4468C26922F4E64293
:101C80000D6842EA052223F400538D6843EA0533C8
:101C9000094DA84203D005F58065A84204D124F47B
:101CA00080444D6944EA85144460C2614A68026414
:101CB000036230BC704700BF0000014030B4036ACB
:101CC000056A25F001050562846924F0F00444EA00
:101CD000021423F00A030B438461036230BC704793
:101CE00030B4056A25F0100505628469036A24F49E
:101CF000704444EA023423F0A00343EA01138461F0
:101D0000036230BC7047836823F070030B4343F0D9
:101D100007038360704770477047704790F83D0035
:101D2000704700000368304A904212D0B0F1804FF3
:101D30000FD0A2F57C4290420BD002F58062904217
:101D400007D002F58062904203D002F578429042BB
:101D500003D123F070034A681343234A90422AD0E8
:101D6000B0F1804F27D0A2F57C42904223D002F5FB
:101D7000806290421FD002F5806290421BD002F533
:101D80007842904217D002F57052904213D002F57B
:101D9000806290420FD002F5806290420BD0A2F593
:101DA0009832904207D002F58062904203D002F54B
:101DB0008062904203D123F44073CA68134323F036
:101DC00080034A69134303608B68C3620B688362B4
:101DD000054B984203D003F58063984201D10B690B
:101DE000036301234361704700000140B0B110B5A7
:101DF000044690F83D3063B1022384F83D3021461B
:101E000051F8040BFFF78EFF012384F83D300020CA
:101E100010BD80F83C30FFF77EFFEDE701207047F2
:101E2000B0B110B5044690F83D3063B1022384F898
:101E30003D30214651F8040BFFF774FF012384F86D
:101E40003D30002010BD80F83C30FFF765FFEDE726
:101E500001207047002849D0F8B50C46054690F897
:101E60003D30002B3DD0022385F83D302A68936831
:101E700023F4804323F007039360294651F8040BB1
:101E8000FFF750FF29688A688E690F6A206810433F
:101E900026F4407626F00306A268A36942EA0323EB
:101EA000334323F47C4323F0FC03E668E26946EA0B
:101EB00002261E43226A1303226943EA02133343B4
:101EC00027F0AA076268646942EA04123A4388600C
:101ED00029688B612B681A62012385F83D30002048
:101EE000F8BD80F83C30FFF718FFBCE701207047D1
:101EF00030B4036A23F010030362036A4468826902
:101F000022F4E6420D6842EA052223F020038D68A0
:101F100043EA0513114DA84203D005F58065A84298
:101F200006D123F08003CD6843EA051323F0400374
:101F30000A4DA84203D005F58065A84207D124F4D4
:101F400040644D6944EA85048D6944EA850444602F
:101F500082614A688263036230BC704700000140BE
:101F600038B590F83C30012B66D004460D4601236D
:101F700080F83C30022380F83D300C2A1AD8DFE884
:101F800002F00719191920191919341919194700DC
:101F90000068FFF7FFFD2268936943F0080393612F
:101FA0002268936923F00403936122689369296985
:101FB0000B439361012384F83D30002084F83C00FA
:101FC00038BD0068FFF794FF2268936943F400630B
:101FD00093612268936923F4806393612268936913
:101FE000296943EA01239361E4E70068FFF706FEED
:101FF0002268D36943F00803D3612268D36923F0D0
:102000000403D3612268D36929690B43D361D1E703
:102010000068FFF72BFE2268D36943F40063D361A5
:102020002268D36923F48063D3612268D369296964
:1020300043EA0123D361BDE70220C1E710B48468FD
:1020400024F47F4442EA03220A432243826010BC04
:10205000704790F83C30012B66D010B50446012340
:1020600080F83C30022380F83D300268936823F406
:102070007F4323F0770393600B68602B40D022D816
:10208000402B47D00BD9502B0ED1CA684968006845
:10209000FFF714FE50212068FFF735FE04E0202BE7
:1020A0000CD008D9302B09D0012384F83D30002012
:1020B00084F83C0010BD0BB1102BF5D119462068F7
:1020C000FFF721FEF0E7702B0ED0B3F5005FEBD1E8
:1020D000CB684A6889680068FFF7B0FF2268936898
:1020E00043F480439360DFE7CB684A6889680068FF
:1020F000FFF7A4FF2268936843F077039360D3E768
:10210000CA6849680068FFF7EBFD60212068FFF7A7
:10211000FAFDC9E7CA6849680068FFF7CFFD4021AA
:102120002068FFF7F0FDBFE70220704710B401F010
:102130001F01012303FA01F4036A23EA0403036283
:10214000036A02FA01F10B43036210BC70470000FE
:1021500010B5044601220068FFF7E8FF23680B4A28
:10216000934203D002F58062934203D15A6C42F449
:1021700000425A642268936803F00703062B03D0D9
:10218000136843F001031360002010BD00000140FC
:1021900010B5044600220068FFF7C8FF2368154AFF
:1021A000934217D002F58062934213D02368196AD4
:1021B00041F21112114208D1196A40F2444211420F
:1021C00003D11A6822F001021A60012384F83D301D
:1021D000002010BD196A41F211121142E6D1196AAC
:1021E00040F244421142E1D15A6C22F400425A6456
:1021F000DCE700BF0000014010B5044661B10429CE
:1022000016D0012200210068FFF790FF012204216F
:102210002068FFF78BFF04E0012200210068FFF730
:1022200085FF2268136843F001031360002010BD8E
:10223000012204210068FFF779FFF2E790F83C30B3
:10224000012B3BD030B4012380F83C30022380F8CE
:102250003D3003685C689D6824F070040A6822437E
:102260005A600368164A93421AD0B3F1804F17D0D0
:10227000A2F57C42934213D002F5806293420FD0C4
:1022800002F5806293420BD002F57842934207D068
:1022900002F57052934203D0A2F59432934204D1D6
:1022A00025F080054A6815439D60012380F83D3084
:1022B000002380F83C30184630BC7047022070473D
:1022C0000000014008B503460C4A12685AB10B4A97
:1022D0001068033323F003030344094A934206D8EA
:1022E000064A136008BD054A06491160EFE702F08F
:1022F000B7FC0C2303604FF0FF30F3E7F001002040
:1023000000FC02209004002001230360014B0B60BD
:10231000704700BF0C0000200FB400B583B004ABC1
:1023200053F8042B01938021074803F065F9002836
:1023300004DC03B05DF804EB04B0704701460248CA
:1023400000F034F8F5E700BFF80100202DE9F04374
:1023500085B004460F46435633BB04252846214624
:10236000ABBE0446384605B0BDE8F08314F9010B56
:1023700004AA1A4402F8100C0133AB42F6D304AAA3
:102380001344002203F8102C4FF00408E94640469D
:102390004946ABBE8046761B002EE3D03546102E54
:1023A00028BF10250023E8E70E46F5E708B5FFF73C
:1023B000CDFF08BD08B501F0CBFD024A024B9A6083
:1023C00008BD00BF0000000800ED00E008B501F006
:1023D000C7FD08BDF8B504460D4617461E462748FA
:1023E000FFF79AFF21682648FFF796FF61682548A6
:1023F000FFF792FFA1682448FFF78EFFE1682348AA
:10240000FFF78AFF21692248FFF786FF61692148AB
:10241000FFF782FFA1692048FFF77EFFE1691F48AF
:10242000FFF77AFF1E48FFF777FF29461D48FFF7A1
:1024300073FF1D4CE16A1D48FFF76EFF216B1C48BE
:10244000FFF76AFFE16B1B48FFF766FF15F0800F8F
:102450000AD115F4004F0CD11748FFF75DFF06991C
:102460001648FFF759FFF8BD39461548FFF754FFE6
:10247000EFE731461348FFF74FFFEDE7847400089C
:1024800094740008A4740008B4740008C4740008AC
:10249000D4740008E4740008F4740008047500089B
:1024A000147500082075000800ED00E03075000884
:1024B0004075000850750008807500088875000890
:1024C000607500087075000883691A888A4201D017
:1024D000002070470268033A012A01D900207047A2
:1024E0000233836101207047FEE7000000B585B02C
:1024F00020F00F03000140B243F00C028DF80C20D5
:1025000043F008038DF80D3040F00C038DF80E30C9
:1025100040F008008DF80F0064230093042303AA01
:102520004E210348FEF762FC05B05DF804FB00BFD6
:102530008C03002000B585B020F00F03000140B2ED
:1025400043F00D028DF80C2043F009038DF80D3097
:1025500040F00D038DF80E3040F009008DF80F00AB
:1025600064230093042303AA4E210348FEF73EFC94
:1025700005B05DF804FB00BF8C03002008B528B14E
:10258000012806D048B2FFF7B1FF08BD41F0800135
:10259000F8E741F0C001F5E708B53220FDF792FFFA
:1025A0003020FFF7A3FF0520FDF78CFF3020FFF759
:1025B0009DFF0120FDF786FF3020FFF797FF0A20DF
:1025C000FDF780FF2020FFF791FF0A20FDF77AFF3B
:1025D0002820FFF78BFF0120FDF774FF0820FFF78D
:1025E00085FF0120FDF76EFF0120FFF77FFF01202F
:1025F000FDF768FF0120FDF765FF0620FFF776FF76
:102600000120FDF75FFF0C20FFF770FF08BD10B53C
:10261000044694F9000018B10134FFF78BFFF8E786
:1026200010BD030903EB830300F00F0000EB430030
:102630007047000010B586B04FF47A7302930723F9
:10264000019304AB009301230022D0211448FEF72C
:1026500089FC9DF81000FFF7E4FF124C20709DF8F4
:102660001100FFF7DEFF60709DF81200FFF7D9FF41
:10267000A0709DF81300FFF7D4FFE0709DF81400E0
:10268000FFF7CFFF20719DF81500FFF7CAFF6071BB
:102690009DF81600FFF7C5FFA07106B010BD00BF82
:1026A000380300203404002038B54FF40061AB48F3
:1026B000FEF77AF8012840F09B8000245AE0FDF7ED
:1026C000FBFEA74B1860A74D01224FF4006128467E
:1026D000FEF771F800224FF400512846FEF76BF820
:1026E00000224FF480612846FEF765F800224FF47F
:1026F00000412846FEF75FF847E0FDF7DDFE9A4B04
:102700001860984D00224FF400612846FEF753F8F8
:1027100001224FF400512846FEF74DF800224FF4F5
:1027200080612846FEF747F800224FF40041284612
:10273000FEF741F830E0FDF7BFFE8C4B1860894D85
:1027400000224FF400612846FEF735F800224FF4CE
:1027500000512846FEF72FF801224FF480612846E9
:10276000FEF729F800224FF400412846FEF723F82F
:1027700019E00134B4F5007F80F2E980FDF79CFE9A
:10278000774B1B68C01A012899D8FDF795FE764B48
:102790001B68C01A0128B0D8FDF78EFE734B1B686A
:1027A000C01A0128C7D8FDF787FE714B1B68C01AF5
:1027B0000128DED9FDF780FE6D4B1860694D0022BF
:1027C0004FF400612846FDF7F6FF00224FF4005158
:1027D0002846FDF7F0FF00224FF480612846FDF700
:1027E000EAFF01224FF400412846FDF7E4FFC0E76D
:1027F0004FF400415948FDF7D7FF012840F0A08071
:102800005C4B1C68002C40F09B8001221A605AE04F
:10281000FDF752FE524B1860524D01224FF4004119
:102820002846FDF7C8FF00224FF480612846FDF7D7
:10283000C2FF00224FF400512846FDF7BCFF0022E2
:102840004FF400612846FDF7B6FF46E0FDF734FE81
:10285000454B1860434D00224FF400412846FDF7D8
:10286000AAFF01224FF480612846FDF7A4FF002251
:102870004FF400512846FDF79EFF00224FF40061FF
:102880002846FDF798FF2FE0FDF716FE374B18603E
:10289000344D00224FF400412846FDF78CFF002202
:1028A0004FF480612846FDF786FF01224FF4005166
:1028B0002846FDF780FF00224FF400612846FDF70F
:1028C0007AFF18E00134B4F5007F40DAFDF7F4FD3B
:1028D000234B1B68C01A01289AD8FDF7EDFD224B47
:1028E0001B68C01A0128B1D8FDF7E6FD1F4B1B6815
:1028F000C01A0128C8D8FDF7DFFD1D4B1B68C01AA0
:102900000128DFD9FDF7D8FD194B1860154D0022BD
:102910004FF400412846FDF74EFF00224FF480613E
:102920002846FDF748FF00224FF400512846FDF7E6
:1029300042FF01224FF400612846FDF73CFFC1E74A
:102940004FF400410548FDF72FFF012800D038BDA6
:102950004FF400610148FDF727FFF8E7001402403B
:10296000840200200018024094020020A4020020EB
:10297000B4020020C002002070B506460D4601F0EA
:1029800017F8002800F068813146284601F0B4FFAE
:1029900020B1B349284601F0A5FF68B900212846B7
:1029A00001F0AAFF002800F0A880AE49284601F0F7
:1029B00099FF002800F0A180AB4B1C68002C40F070
:1029C0009C8001221A605AE0FDF776FDA74B186043
:1029D000A74D01224FF400412846FDF7ECFE0022EE
:1029E0004FF480612846FDF7E6FE00224FF40051C7
:1029F0002846FDF7E0FE00224FF400612846FDF76F
:102A0000DAFE47E0FDF758FD9A4B1860984D00221A
:102A10004FF400412846FDF7CEFE01224FF48061BD
:102A20002846FDF7C8FE00224FF400512846FDF766
:102A3000C2FE00224FF400612846FDF7BCFE30E0E4
:102A4000FDF73AFD8C4B1860894D00224FF4004190
:102A50002846FDF7B0FE00224FF480612846FDF7BE
:102A6000AAFE01224FF400512846FDF7A4FE0022E1
:102A70004FF400612846FDF79EFE19E00134B4F5DD
:102A8000007F80F2EB80FDF717FD784B1B68C01AC2
:102A9000012899D8FDF710FD764B1B68C01A012854
:102AA000B0D8FDF709FD744B1B68C01A0128C7D8C0
:102AB000FDF702FD714B1B68C01A0128DED9FDF736
:102AC000FBFC6E4B18606A4D00224FF40041284613
:102AD000FDF771FE00224FF480612846FDF76BFE82
:102AE00000224FF400512846FDF765FE01224FF405
:102AF00000612846FDF75FFEC0E75A49284601F00D
:102B0000FBFE002800F0AA803146284601F0EAFECC
:102B1000002800F0A380544B1B68012B40F09E80DE
:102B20000024514B1C605AE0FDF7C6FC4F4B186067
:102B30004F4D01224FF400612846FDF73CFE002274
:102B40004FF400512846FDF736FE00224FF4806115
:102B50002846FDF730FE00224FF400412846FDF7DD
:102B60002AFE46E0FDF7A8FC424B1860404D0022CB
:102B70004FF400612846FDF71EFE01224FF400517C
:102B80002846FDF718FE00224FF480612846FDF725
:102B900012FE00224FF400412846FDF70CFE2FE004
:102BA000FDF78AFC344B1860314D00224FF4006170
:102BB0002846FDF700FE00224FF400512846FDF79D
:102BC000FAFD01224FF480612846FDF7F4FD002252
:102BD0004FF400412846FDF7EEFD18E00134B4F54E
:102BE000007F3BDAFDF768FC204B1B68C01A012808
:102BF0009AD8FDF761FC1F4B1B68C01A0128B1D899
:102C0000FDF75AFC1C4B1B68C01A0128C8D8FDF7F9
:102C100053FC1A4B1B68C01A0128DFD9FDF74CFC86
:102C2000164B1860124D00224FF400612846FDF744
:102C3000C2FD00224FF400512846FDF7BCFD0022E2
:102C40004FF480612846FDF7B6FD01224FF40041A4
:102C50002846FDF7B0FDC1E7FFF726FD70BD00BFB8
:102C6000C1CABC410000C0407802002080020020A0
:102C70000018024090020020A0020020B0020020B4
:102C800038B54FF40061AB48FDF78EFD012840F0E8
:102C90009B8000245AE0FDF70FFCA74B1860A74D5E
:102CA00001224FF400612846FDF785FD00224FF414
:102CB00000512846FDF77FFD00224FF48061284631
:102CC000FDF779FD00224FF400412846FDF773FD22
:102CD00047E0FDF7F1FB9A4B1860984D00224FF446
:102CE00000612846FDF767FD01224FF40051284698
:102CF000FDF761FD00224FF480612846FDF75BFD82
:102D000000224FF400412846FDF755FD30E0FDF765
:102D1000D3FB8C4B1860894D00224FF4006128468C
:102D2000FDF749FD00224FF400512846FDF743FD11
:102D300001224FF480612846FDF73DFD00224FF44B
:102D400000412846FDF737FD19E00134B4F5007F56
:102D500080F2E980FDF7B0FB774B1B68C01A0128B1
:102D600099D8FDF7A9FB764B1B68C01A0128B0D88B
:102D7000FDF7A2FB734B1B68C01A0128C7D8FDF7EB
:102D80009BFB714B1B68C01A0128DED9FDF794FB31
:102D90006D4B1860694D00224FF400612846FDF725
:102DA0000AFD00224FF400512846FDF704FD0022E1
:102DB0004FF480612846FDF7FEFC01224FF40041EC
:102DC0002846FDF7F8FCC0E74FF400415948FDF7ED
:102DD000EBFC012840F0A0805C4B1C68002C40F00C
:102DE0009B8001221A605AE0FDF766FB524B186087
:102DF000524D01224FF400412846FDF7DCFC002231
:102E00004FF480612846FDF7D6FC00224FF40051B4
:102E10002846FDF7D0FC00224FF400612846FDF75C
:102E2000CAFC46E0FDF748FB454B1860434D0022C5
:102E30004FF400412846FDF7BEFC01224FF48061AB
:102E40002846FDF7B8FC00224FF400512846FDF754
:102E5000B2FC00224FF400612846FDF7ACFC2FE0E5
:102E6000FDF72AFB374B1860344D00224FF4004128
:102E70002846FDF7A0FC00224FF480612846FDF7AC
:102E80009AFC01224FF400512846FDF794FC0022E1
:102E90004FF400612846FDF78EFC18E00134B4F5CC
:102EA000007F40DAFDF708FB234B1B68C01A01289E
:102EB0009AD8FDF701FB224B1B68C01A0128B1D834
:102EC000FDF7FAFA1F4B1B68C01A0128C8D8FDF796
:102ED000F3FA1D4B1B68C01A0128DFD9FDF7ECFA85
:102EE000194B1860154D00224FF400412846FDF79C
:102EF00062FC00224FF480612846FDF75CFC002252
:102F00004FF400512846FDF756FC01224FF40061B2
:102F10002846FDF750FCC1E74FF400410548FDF796
:102F200043FC012800D038BD4FF400610148FDF793
:102F30003BFCF8E7001402408C020020001802401D
:102F40009C020020AC020020BC020020C402002031
:102F500070B506460D4600F02BFD002800F0688194
:102F60003146284601F0C8FC20B1B349284601F09B
:102F7000B9FC68B90021284601F0BEFC002800F029
:102F8000A880AE49284601F0ADFC002800F0A180E1
:102F9000AB4B1C68002C40F09C8001221A605AE068
:102FA000FDF78AFAA74B1860A74D01224FF40041A4
:102FB0002846FDF700FC00224FF480612846FDF70B
:102FC000FAFB00224FF400512846FDF7F4FB0022E3
:102FD0004FF400612846FDF7EEFB47E0FDF76CFA81
:102FE0009A4B1860984D00224FF400412846FDF797
:102FF000E2FB01224FF480612846FDF7DCFB002252
:103000004FF400512846FDF7D6FB00224FF4006133
:103010002846FDF7D0FB30E0FDF74EFA8C4B1860E8
:10302000894D00224FF400412846FDF7C4FB0022E1
:103030004FF480612846FDF7BEFB01224FF400519A
:103040002846FDF7B8FB00224FF400612846FDF743
:10305000B2FB19E00134B4F5007F80F2EB80FDF79C
:103060002BFA784B1B68C01A012899D8FDF724FA6F
:10307000764B1B68C01A0128B0D8FDF71DFA744BB7
:103080001B68C01A0128C7D8FDF716FA714B1B68D8
:10309000C01A0128DED9FDF70FFA6E4B18606A4D91
:1030A00000224FF400412846FDF785FB00224FF433
:1030B00080612846FDF77FFB00224FF4005128462F
:1030C000FDF779FB01224FF400612846FDF773FB01
:1030D000C0E75A49284601F00FFC002800F0AA80FA
:1030E0003146284601F0FEFB002800F0A380544B37
:1030F0001B68012B40F09E800024514B1C605AE05D
:10310000FDF7DAF94F4B18604F4D01224FF4006183
:103110002846FDF750FB00224FF400512846FDF7EA
:103120004AFB00224FF480612846FDF744FB002251
:103130004FF400412846FDF73EFB46E0FDF7BCF9A1
:10314000424B1860404D00224FF400612846FDF7C5
:1031500032FB01224FF400512846FDF72CFB0022E0
:103160004FF480612846FDF726FB00224FF4004112
:103170002846FDF720FB2FE0FDF79EF9344B186041
:10318000314D00224FF400612846FDF714FB002268
:103190004FF400512846FDF70EFB01224FF48061E9
:1031A0002846FDF708FB00224FF400412846FDF7B2
:1031B00002FB18E00134B4F5007F3BDAFDF77CF93F
:1031C000204B1B68C01A01289AD8FDF775F91F4BD0
:1031D0001B68C01A0128B1D8FDF76EF91C4B1B689B
:1031E000C01A0128C8D8FDF767F91A4B1B68C01A26
:1031F0000128DFD9FDF760F9164B1860124D002247
:103200004FF400612846FDF7D6FA00224FF4005132
:103210002846FDF7D0FA00224FF480612846FDF7DA
:10322000CAFA01224FF400412846FDF7C4FAC1E76B
:10323000FFF726FD70BD00BFC1CABC410000C04001
:103240007C02002088020020001802409802002022
:10325000A8020020B802002030B589B0FFF7EAF9D3
:10326000AC4B5B79013B0B2B00F2AA81DFE813F03A
:103270000C004700540073009200B100CA00E30044
:103280000201210140018F01A24B187901F02AF9B6
:10329000A14901F07FF9002101F074F801F040FB31
:1032A000AF2800F38F819D4B83FB00231A18C317AF
:1032B000C3EB62131A46C3EB0313A0EB8303103274
:1032C0000392163304933B2B03DD3C3B0493013202
:1032D0000392934B039A1A60049A5A60904D28689F
:1032E00001F004F90446686801F000F98D4901F025
:1032F00005FA0146204601F045F809B030BD854B7E
:10330000187901F0EFF8844901F044F9864901F099
:1033100039F801F005FBC3E77E4B9B7913F0030FEF
:103320000CD17C4B187901F0DDF8804901F032F9BD
:103330007F4901F027F801F0F3FAB1E7754B1879EE
:1033400001F0D0F8794901F025F97A4901F01AF82D
:1033500001F0E6FAA4E76F4B9B7913F0030F0CD151
:103360006C4B187901F0BEF8704901F013F97249FD
:1033700001F008F801F0D4FA92E7664B187901F0F1
:10338000B1F86A4901F006F96C4900F0FBFF01F061
:10339000C7FA85E75F4B9B7913F0030F0CD15D4BA8
:1033A000187901F09FF85C4901F0F4F8644900F0E5
:1033B000E9FF01F0B5FA73E7564B187901F092F87E
:1033C000554901F0E7F85F4900F0DCFF01F0A8FA89
:1033D00066E7504B9B7913F0030F09D14D4B1879D9
:1033E00001F080F8584900F0CDFF01F099FA57E755
:1033F000484B187901F076F8544900F0C3FF01F00A
:103400008FFA4DE7434B9B7913F0030F09D1414BE2
:10341000187901F067F84E4900F0B4FF01F080FA26
:103420003EE73C4B187901F05DF84A4900F0AAFFED
:1034300001F076FA34E7374B9B7913F0030F0CD188
:10344000344B187901F04EF8334901F0A3F84249A2
:1034500000F098FF01F064FA22E72E4B187901F092
:1034600041F82D4901F096F83C4900F08BFF01F03E
:1034700057FA15E7274B9B7913F0030F0CD1254B17
:10348000187901F02FF8294901F084F8344900F047
:1034900079FF01F045FA03E71E4B187901F022F895
:1034A000579901F077F82F4900F06CFF01F038FAD6
:1034B000F6E6184B9B7913F0030F0CD1154B1879D6
:1034C00001F010F8194901F065F8274900F05AFF9A
:1034D00001F026FAE4E60F4B187901F003F81349DE
:1034E00001F058F8214900F04DFF01F019FAD7E634
:1034F000084B9B7913F0030F3CD1064B187900F071
:10350000F1FF054901F046F8194900F03BFF01F0D1
:1035100007FAC5E6340400206666A63F89888888D5
:10352000D00200200000C84233332142CDCCCC3F32
:103530000000704200006C420000B6420000B4423D
:103540000000F2420000F042000018430000174360
:10355000000036430000354300005543000054434B
:1035600000007443000073430000894300808843D7
:1035700000809843304B187900F0B4FF2F4901F0D8
:1035800009F82F4900F0FEFE01F0CAF988E62A4B3F
:103590009B7913F0030F09D1274B187900F0A2FF94
:1035A000284900F0EFFE01F0BBF979E6224B1879CB
:1035B00000F098FF244900F0E5FE01F0B1F96FE654
:1035C00001206DE6B02822DDB0F5AC7F1FDCB038FD
:1035D0001E4B83FB00231A18C317C3EB62131A4652
:1035E000C3EB0313A0EB8303C2F113020192C3F1F7
:1035F00033030293002B05DB154B019A1A60029AE4
:103600005A606BE63C330293013A0192F4E7A0F270
:1036100059100E4B83FB00231A18C317C3EB621318
:103620001A46C3EB0313A0EB830310320C33084993
:103630000A604B6052E600BF340400206666A63F75
:10364000000098430080A7430000A743898888882A
:10365000D002002038B505460C460146204601F050
:103660004BF928B92946204601F046F970B938BD12
:103670004FF480610C48FDF797F80128F2D1012240
:103680004FF400610848FDF796F8F0E74FF48061C9
:103690000548FDF789F80028E9D100224FF40061C0
:1036A0000148FDF788F8E2E7000C024008B500F099
:1036B0007FF968B320212448FDF776F8012802D16C
:1036C000224B1B68DBB120211F48FDF76DF860BB62
:1036D0001E4B1B68012B28D1FCF7EEFE1C4B1B6810
:1036E000C01AB0F5FA7F20D3FCF7E6FE184B18603D
:1036F00000224FF400511448FDF75DF815E0012257
:10370000124B1A604FF400510F48FDF754F80CE0CB
:103710004FF400710C48FDF747F8012806D04FF42C
:1037200000710948FDF740F838B108BD01224FF497
:1037300000510548FDF73FF8F7E700224FF400512C
:103740000148FDF738F8F0E7000C0240D8020020ED
:10375000CC02002038B505460C4600F029F90028B7
:103760002DD02946204601F0C7F838B12649204619
:1037700001F0B8F810B1254B1B68A3B129462046CB
:1037800001F0B0F828B30021204601F0B5F800B3ED
:103790001E4B1B68012B1CD100211C4B19601C48BF
:1037A000FEF7F6FC15E0194B01221A60184C0021B7
:1037B0002046FEF7CDFC236832225A6309E04021FF
:1037C0001448FCF7F1FF012804D0134B1B68012BB0
:1037D00010D038BD104B1B68002BF6D10E4B0122C8
:1037E0001A600B4C00212046FEF7B2FC23685A6A8F
:1037F0005A63EEE70128ECD10021074B1960044819
:10380000FEF7C6FCE5E700BFC1CABC41DC020020F0
:10381000E0030020000C0240E002002038B505461D
:1038200000F0C6F8044680212548FCF7BDFF24BB04
:103830000346012802D0012B13D038BD214A12685B
:10384000002AF8D11F4B01221A601F4C0421204688
:10385000FEF77EFC1D4B1B685B6ADBB2226853637C
:10386000EBE7184B1B68012BE7D1164B00221A60BF
:1038700004211548FEF78CFCDFE71348FEF74EFAEB
:103880000128DAD10021284601F036F80028D4D0EA
:103890000F49284601F026F80028CED0FCF70CFE90
:1038A0000C4B1B68C01A0C4B9842C6D3FCF704FEA5
:1038B000084B186004210448FEF76AFCBDE700BF0E
:1038C000000C0240E4020020E0030020F802002087
:1038D0000000C040C802002080EE3600F0B589B07C
:1038E000FCF7C4FD00F0A6F800F020F900F0CAF9DA
:1038F00000F004FAFEF750FE00F046FA00F086FAF7
:1039000000F0C8FA0127002640E0254B5B78002B29
:1039100042D1234B1A78059B9A423DD1FFF79CFC7C
:10392000064600271E4DA87800F0DCFD04466878A6
:1039300000F0D8FD1B4900F0E1FE0146204600F0F2
:1039400021FD044601463046FFF784FEFFF7AEFE38
:1039500021463046FFF7FEFE2046FFF75FFF214677
:103960003046FFF709F821463046FFF7F1FA2B7889
:1039700000936B78AA780C4905A801F0E9FD0021B5
:103980000846FEF7FBFD05A8FEF741FEFEF752FED6
:10399000034B9B78032BB8D0002FC3D0BEE700BFEA
:1039A000340400200000C842CC75000870470000B5
:1039B00008B54FF400410348FCF7F6FE012800D09B
:1039C000002008BD000C024082B0002100910B4B8A
:1039D0005A6C42F480425A645A6C02F4804200925B
:1039E000009A01911A6C42F080521A641B6C03F029
:1039F00080530193019B02B0704700BF0038024022
:103A00007047FEE7FEE7FEE7FEE770477047704746
:103A100008B5FCF745FD08BD08B501F021F91623EE
:103A200003604FF0FF3008BD08B54FF0FF31FFF7DE
:103A3000F3FFFEE730B5A1B030252A46002114A8D7
:103A400001F022F900240F9410941194129413940D
:103A50002A46214603A801F017F90194304B1A6C4D
:103A600042F080521A641B6C03F080530193019B57
:103A700002942C4B1A6842F440421A601B6803F40B
:103A800040430293029B012314934FF48033159318
:103A900002221A924FF480031B9304231C93B42137
:103AA0001D911E921F9314A8FDF70EFC70BBFDF72D
:103AB000CBFB70BB0F230F930223109300231193B2
:103AC0004FF4A05312934FF48053139305210FA882
:103AD000FDF756FE00BB202303934FF480730D9334
:103AE00003A8FDF713FFFDF7FBFE0F4BA3FB003010
:103AF0008009FCF741FD0420FCF754FD002211462B
:103B00004FF0FF30FCF704FD21B030BDFFF74EFF52
:103B1000CDE7FFF74BFFCDE7FFF748FFDBE700BF3F
:103B20000038024000700040D34D62102DE9F04192
:103B300086B0002501954F4B1A6B42F002021A63C2
:103B40001A6B02F002020192019A02951A6B42F07E
:103B500008021A631A6B02F008020292029A039595
:103B60001A6B42F020021A631A6B02F020020392D1
:103B7000039A04951A6B42F040021A631A6B02F022
:103B800040020492049A05951A6B42F080021A636F
:103B90001B6B03F080030593059BDFF8E4802A4646
:103BA0004FF400614046FCF706FE334C48F2E063F8
:103BB000236065600226A66021464046FCF702FDB0
:103BC0004FF4F043236001276760A560E56021465C
:103BD0004046FCF7F7FC302323606660A560E56093
:103BE0002661A8F5006821464046FCF7EBFCC0239F
:103BF00023606660A560E560266121464046FCF7CB
:103C0000E1FC4FF4404323606660A560E560092352
:103C1000236121464046FCF7D5FC4AF60243236067
:103C20006760A560E56008F5A05821464046FCF7AE
:103C3000C9FC4FF4417323606760A560E5600F4FD6
:103C400021463846FCF7BEFC4FF4384323606560DC
:103C5000A66021463846FCF7B5FC4FF4805323603C
:103C60006560A66021464046FCF7ACFC06B0BDE8A6
:103C7000F08100BF00380240200400200014024000
:103C8000000C024010B582B000230193154A116C5C
:103C900041F400111164126C02F400120192019AB5
:103CA000114C124A2260124A62604FF48042A260B4
:103CB000E36022616361A361E36123620D494FF414
:103CC00010730B6004230B6112234B6001238B6084
:103CD0000323CB600848FCF775FC2046FCF7A8FFDF
:103CE00002B010BD003802403803002000540040EC
:103CF000801A0600200400200004024010B582B0A3
:103D0000002300931A4A116B41F002011163116BF9
:103D100001F00201009100990193116C41F48001BE
:103D20001164126C02F480020192019A114C124A41
:103D30002260124A6260A360E3604FF48042226115
:103D40006361A361E36123620D494FF440630B603B
:103D500004230B6112234B6001238B600323CB6090
:103D60000848FCF72FFC2046FCF762FF02B010BDAC
:103D7000003802408C03002000580040A08601005B
:103D8000200400200004024000B58DB00023009301
:103D90001B4A116C41F002011164126C02F0020224
:103DA0000092009A019302931648174A02604360FA
:103DB00083606422C26003618361012203920493E1
:103DC000059206930793089309920A930B9303A90C
:103DD000FEF740F870B900230193029301A9094846
:103DE000FEF72CFA48B93C210648FEF705FA0DB05B
:103DF0005DF804FBFFF7DAFDEDE7FFF7D7FDF2E72B
:103E000000380240E00300200004004000B58DB0FF
:103E1000002300931C4A116C41F004011164126CE0
:103E200002F004020092009A019302931748184A84
:103E30000260436083604FF6FF72C260036183617A
:103E40000122039204930592069307930893099223
:103E50000A930B9303A9FDF7FDFF70B900230193AB
:103E6000029301A90948FEF7E9F948B93C2107483E
:103E7000FEF7C2F90DB05DF804FBFFF797FDEDE723
:103E8000FFF794FDF2E700BF00380240F80200207F
:103E90000008004000B58DB000230093294A116C42
:103EA00041F040011164126C02F040020092009A4D
:103EB000089309930A930B9301930293039304933A
:103EC0000593069307932048204A026040F2C112EE
:103ED0004260836040F2F312C26003618361FDF7C8
:103EE00085FF00BB4FF48053089308A91648FEF7DE
:103EF000B0F8D8B91448FDF793FFD0B96023019307
:103F0000002202920392059201A90F48FEF728F8B9
:103F100090B904220DEB02010B48FEF721F870B9AD
:103F20000DB05DF804FBFFF741FDDBE7FFF73EFD59
:103F3000E0E7FFF73BFDE1E7FFF738FDE9E7FFF7D3
:103F400035FDEDE7003802403C0400200018004039
:103F5000024B4FF000629A60704700BF00ED00E036
:103F6000224B9B6803F00C03042B14D0082B16D0B3
:103F70001BB11F4B1F4A1A6002E01D4B1D4A1A60FD
:103F80001A4B9B68C3F303131B4AD15C184A13688E
:103F9000CB4013607047164B184A1A60F0E7134B7A
:103FA0005A685B6803F03F0312F4800F13D0134A82
:103FB000B2FBF3F20D4B5B68C3F3881303FB02F310
:103FC0000A4A5268C2F3014201325200B3FBF2F3D3
:103FD000074A1360D4E7074AB2FBF3F2034B5B686E
:103FE000C3F3881303FB02F3EAE700BF0038024083
:103FF000140000200024F400DC75000840787D01E6
:1040000081F0004102E000BF83F0004330B54FEA89
:1040100041044FEA430594EA050F08BF90EA020FF6
:104020001FBF54EA000C55EA020C7FEA645C7FEA89
:10403000655C00F0E2804FEA5454D4EB5555B8BFAC
:104040006D420CDD2C4480EA020281EA030382EA1D
:10405000000083EA010180EA020281EA0303362DAF
:1040600088BF30BD11F0004F4FEA01314FF4801C82
:104070004CEA113102D0404261EB410113F0004F94
:104080004FEA03334CEA133302D0524263EB43034B
:1040900094EA050F00F0A780A4F10104D5F1200EE9
:1040A0000DDB02FA0EFC22FA05F2801841F1000144
:1040B00003FA0EF2801843FA05F359410EE0A5F118
:1040C00020050EF1200E012A03FA0EFC28BF4CF049
:1040D000020C43FA05F3C01851EBE37101F00045FF
:1040E00007D54FF0000EDCF1000C7EEB00006EEB0C
:1040F0000101B1F5801F1BD3B1F5001F0CD3490896
:104100005FEA30004FEA3C0C04F101044FEA4452EC
:1041100012F5800F80F09A80BCF1004F08BF5FEA73
:10412000500C50F1000041EB045141EA050130BD53
:104130005FEA4C0C404141EB0101013C28BFB1F565
:10414000801FE9D291F0000F04BF01460020B1FAB0
:1041500081F308BF2033A3F10B03B3F120020CDA83
:104160000C3208DD02F1140CC2F10C0201FA0CF061
:1041700021FA02F10CE002F11402D8BFC2F1200CC6
:1041800001FA02F120FA0CFCDCBF41EA0C0190407C
:10419000E41AA2BF01EB0451294330BD6FEA0404C5
:1041A0001F3C1CDA0C340EDC04F11404C4F12002B0
:1041B00020FA04F001FA02F340EA030021FA04F3C2
:1041C00045EA030130BDC4F10C04C4F1200220FA19
:1041D00002F001FA04F340EA0300294630BD21FA57
:1041E00004F0294630BD94F0000F83F4801306BF1D
:1041F00081F480110134013D4EE77FEA645C18BF11
:104200007FEA655C29D094EA050F08BF90EA020FA7
:1042100005D054EA000C04BF1946104630BD91EA9F
:10422000030F1EBF0021002030BD5FEA545C05D1A2
:104230004000494128BF41F0004130BD14F58004E1
:104240003CBF01F5801130BD01F0004545F0FE4155
:1042500041F470014FF0000030BD7FEA645C1ABF8A
:10426000194610467FEA655C1CBF0B46024650EAC1
:10427000013406BF52EA033591EA030F41F40021ED
:1042800030BD00BF90F0000F04BF0021704730B573
:104290004FF4806404F132044FF000054FF0000148
:1042A00050E700BF90F0000F04BF0021704730B509
:1042B0004FF4806404F1320410F0004548BF4042DE
:1042C0004FF000013EE700BF42004FEAE2014FEA33
:1042D00031014FEA02701FBF12F07F4393F07F4F0E
:1042E00081F06051704732F07F4208BF704793F011
:1042F0007F4F04BF41F40021704730B54FF4607424
:1043000001F0004521F000411CE700BF50EA010226
:1043100008BF704730B54FF000050AE050EA0102CF
:1043200008BF704730B511F0004502D5404261EB3F
:1043300041014FF4806404F132045FEA915C3FF480
:10434000D8AE4FF003025FEADC0C18BF03325FEA1D
:10435000DC0C18BF033202EBDC02C2F1200300FACE
:1043600003FC20FA02F001FA03FE40EA0E0021FAF3
:1043700002F11444BDE600BF80F0004002E000BF3F
:1043800081F0004142001FBF5FEA410392EA030F40
:104390007FEA226C7FEA236C6AD04FEA1262D2EB8A
:1043A0001363C1BFD218414048404140B8BF5B428F
:1043B000192B88BF704710F0004F40F4000020F028
:1043C0007F4018BF404211F0004F41F4000121F03E
:1043D0007F4118BF494292EA030F3FD0A2F1010288
:1043E00041FA03FC10EB0C00C3F1200301FA03F1C6
:1043F00000F0004302D5494260EB4000B0F5000FE9
:1044000013D3B0F1807F06D340084FEA310102F1A7
:104410000102FE2A51D2B1F1004F40EBC25008BF59
:1044200020F0010040EA03007047490040EB000023
:10443000013A28BFB0F5000FEDD2B0FA80FCACF124
:10444000080CB2EB0C0200FA0CF0AABF00EBC25051
:1044500052421843BCBFD0401843704792F0000F3F
:1044600081F4000106BF80F400000132013BB5E792
:104470004FEA41037FEA226C18BF7FEA236C21D008
:1044800092EA030F04D092F0000F08BF084670476D
:1044900090EA010F1CBF0020704712F07F4F04D13B
:1044A000400028BF40F00040704712F100723CBF4E
:1044B00000F50000704700F0004343F0FE4040F478
:1044C000000070477FEA226216BF08467FEA236336
:1044D0000146420206BF5FEA412390EA010F40F421
:1044E000800070474FF0000304E000BF10F000436D
:1044F00048BF40425FEA000C08BF704743F0964354
:1045000001464FF000001CE050EA010208BF70476E
:104510004FF000030AE000BF50EA010208BF7047F5
:1045200011F0004302D5404261EB41015FEA010C0A
:1045300002BF84460146002043F0B64308BFA3F102
:104540008053A3F50003BCFA8CF2083AA3EBC253E4
:1045500010DB01FA02FC634400FA02FCC2F1200203
:10456000BCF1004F20FA02F243EB020008BF20F03A
:104570000100704702F1200201FA02FCC2F12002A0
:1045800050EA4C0021FA02F243EB020008BF20EA95
:10459000DC7070474FF0FF0C1CEAD0521EBF1CEAC3
:1045A000D15392EA0C0F93EA0C0F6FD01A4480EAB1
:1045B000010C400218BF5FEA41211ED04FF000639A
:1045C00043EA501043EA5111A0FB01310CF00040C6
:1045D000B1F5000F3EBF490041EAD3715B0040EAEC
:1045E000010062F17F02FD2A1DD8B3F1004F40EBBC
:1045F000C25008BF20F00100704790F0000F0CF08F
:10460000004C08BF49024CEA502040EA51207F3A52
:10461000C2BFD2F1FF0340EAC250704740F400002D
:104620004FF00003013A5DDC12F1190FDCBF00F01E
:1046300000407047C2F10002410021FA02F1C2F1CC
:10464000200200FA02FC5FEA310040F1000053EA68
:104650004C0308BF20EADC70704792F0000F00F0B6
:10466000004C02BF400010F4000F013AF9D040EABC
:104670000C0093F0000F01F0004C02BF490011F450
:10468000000F013BF9D041EA0C018FE70CEAD1534E
:1046900092EA0C0F18BF93EA0C0F0AD030F0004CCE
:1046A00018BF31F0004CD8D180EA010000F0004082
:1046B000704790F0000F17BF90F0004F084691F040
:1046C000000F91F0004F14D092EA0C0F01D142027A
:1046D0000FD193EA0C0F03D14B0218BF084608D143
:1046E00080EA010000F0004040F0FE4040F400008D
:1046F000704740F0FE4040F4400070474FF0FF0C20
:104700001CEAD0521EBF1CEAD15392EA0C0F93EA66
:104710000C0F69D0A2EB030280EA010C49024FEAB8
:10472000402037D04FF0805343EA111143EA101371
:104730000CF000408B4238BF5B0042F17D024FF429
:10474000000C8B4224BF5B1A40EA0C00B3EB510F04
:1047500024BFA3EB510340EA5C00B3EB910F24BFED
:10476000A3EB910340EA9C00B3EBD10F24BFA3EB72
:10477000D10340EADC001B0118BF5FEA1C1CE0D13A
:10478000FD2A3FF650AF8B4240EBC25008BF20F0ED
:10479000010070470CF0004C4CEA50207F32C2BF41
:1047A000D2F1FF0340EAC250704740F400004FF0DE
:1047B0000003013A37E792F0000F00F0004C02BF0F
:1047C000400010F4000F013AF9D040EA0C0093F0D9
:1047D000000F01F0004C02BF490011F4000F013B33
:1047E000F9D041EA0C0195E70CEAD15392EA0C0F9B
:1047F00008D142027FF47DAF93EA0C0F7FF470AFD3
:10480000084676E793EA0C0F04D14B023FF44CAF15
:1048100008466EE730F0004C18BF31F0004CCAD1AA
:1048200030F000427FF45CAF31F000437FF43CAFE6
:104830005FE700BF4FF0FF3C06E000BF4FF0010C08
:1048400002E000BF4FF0010C4DF804CD4FEA4002EA
:104850004FEA41037FEA226C18BF7FEA236C11D034
:1048600001B052EA530C18BF90EA010F58BFB2EBE7
:10487000030088BFC81738BF6FEAE17018BF40F067
:10488000010070477FEA226C02D15FEA402C05D11B
:104890007FEA236CE4D15FEA412CE1D05DF8040BA0
:1048A000704700BF844608466146FFE70FB5FFF733
:1048B000C9FF002848BF10F1000F0FBD4DF808EDEB
:1048C000FFF7F4FF0CBF012000205DF808FB00BFDC
:1048D0004DF808EDFFF7EAFF34BF012000205DF836
:1048E00008FB00BF4DF808EDFFF7E0FF94BF012083
:1048F00000205DF808FB00BF4DF808EDFFF7D2FF80
:1049000094BF012000205DF808FB00BF4DF808EDC2
:10491000FFF7C8FF34BF012000205DF808FB00BF8F
:104920004FEA4002B2F1FE4F0FD34FF09E03B3EBBC
:1049300012620DD94FEA002343F0004310F0004FFC
:1049400023FA02F018BF404270474FF00000704752
:1049500012F1610F01D1420205D110F0004008BFF1
:104960006FF0004070474FF00000704753B94AB9EC
:10497000002908BF00281CBF4FF0FF314FF0FF3067
:1049800000F06CB9ADF1080C6DE904CE00F006F84A
:10499000DDF804E0DDE9022304B070472DE9F047BB
:1049A000089E0D4604468E46002B40F082808A42C7
:1049B000174646D9B2FA82F24AB1C2F1200105FA8D
:1049C00002F320FA01F1974041EA030E94404FEAC6
:1049D0001748230CBEFBF8FCB9B208FB1CEE43EAF7
:1049E0000E430CFB01F098420AD9FB180CF1FF357D
:1049F00080F01681984240F21381ACF1020C3B44E6
:104A00001B1AA4B2B3FBF8F008FB103344EA0344CA
:104A100000FB01F1A14209D93C1900F1FF3380F0FC
:104A20000181A14240F2FE8002383C44641A40EA0F
:104A30000C4000211EB1D4400023C6E90043BDE86C
:104A4000F08702B9FFDEB2FA82F2002A4FD1CB1B07
:104A50004FEA174E1FFA87F80121B3FBFEFC250C25
:104A60000EFB1C3345EA034508FB0CF3AB4207D9A8
:104A70007D190CF1FF3002D2AB4200F2E780844690
:104A8000ED1AA3B2B5FBFEF00EFB105543EA054448
:104A900008FB00F8A04507D93C1900F1FF3302D20A
:104AA000A04500F2D7801846A4EB080440EA0C4069
:104AB000C0E78B4208D9002E00F0AF800021C6E984
:104AC00000050846BDE8F087B3FA83F100294BD111
:104AD000AB4202D3824200F2B780841A65EB030333
:104AE00001209E46002EAAD0C6E9004EA7E7C2F1DB
:104AF000200C01FA02F3974020FA0CF04FEA174E0F
:104B000021FA0CFC1843BCFBFEF1050C0EFB11CC8A
:104B10001FFA87F845EA0C4501FB08F3AB4204FA9B
:104B200002F409D97D1901F1FF3C80F08B80AB4282
:104B300040F2888002393D44EB1A85B2B3FBFEF0A7
:104B40000EFB103345EA034500FB08F3AB4207D9DF
:104B50007D1900F1FF3C71D2AB426FD902383D4460
:104B6000EB1A40EA014178E7C1F1200C8B4022FAB0
:104B70000CF71F4320FA0CF405FA01F34FEA174E25
:104B800025FA0CF51C43230CB5FBFEF91FFA87F838
:104B90000EFB195543EA054509FB08FAAA4502FA36
:104BA00001F200FA01F308D97D1909F1FF3047D26B
:104BB000AA4545D9A9F102093D44A5EB0A05A4B2CD
:104BC000B5FBFEF00EFB105544EA054400FB08F867
:104BD000A04507D93C1900F1FF352DD2A0452BD9AE
:104BE00002383C4440EA0940A4EB0804A0FB0289D7
:104BF0004C45C6464D4619D316D05EB1B3EB0E02F6
:104C000064EB050404FA0CFCCA404CEA0202CC40F6
:104C1000C6E900240021BDE8F087314630460EE7A2
:104C2000AC46EDE6184601E74345E6D2B8EB020E86
:104C300069EB07050138E0E72846D3E760468FE7D0
:104C40008146BAE7614677E708464BE7ACF1020CCC
:104C50003D4415E702383C4426E700BF704700BFDB
:104C6000014B1868704700BF180000200A449142A9
:104C700000F1FF3300D1704710B511F8014B03F874
:104C8000014F9142F9D110BD02440346934200D135
:104C9000704703F8011BF9E72DE9F04788B0002BB6
:104CA0001F461446B8BF03F10043129A109DDDF869
:104CB0004CA0B6BF1F4600232D231370149B23F076
:104CC0002008B8F1460F05D0B8F1450F00D10135E5
:104CD000022300E0032307AA049206AACDE902A258
:104CE000CDE9003522463B4600F022FDB8F1470FE2
:104CF000064602D1119BDB0722D5B8F1460F06EB21
:104D0000050910D13378302B0AD100220023204628
:104D1000394602F047FB18B9C5F10105CAF8005041
:104D2000DAF800309944002200232046394602F088
:104D300039FB08B1CDF81C903022079B4B4507D3B7
:104D4000079B159A9B1B3046136008B0BDE8F0879F
:104D5000591C07911A70F0E7F7B503460029B8BF50
:104D6000494203F8022BB4BF2D222B22092942709D
:104D70002ADD0DF10704A4460A27A6460A4691FB40
:104D8000F7F607FB16153035632A04F1FF340EF8E9
:104D9000015C3146F1DC3031AEF1020504F8011C52
:104DA000441C294661450AD30DF10902A2EB0E020B
:104DB000654588BF00221344181A03B0F0BD11F8EE
:104DC000012B04F8012FEDE7302330318370C170DF
:104DD000031DF1E72DE9F04F91B00C46DDF8688036
:104DE00016461F46054601F075FA036809931846F2
:104DF00000F0CEFB00230E93D8F800300A90073362
:104E000023F0070303F1080294F81890D4F800B0D7
:104E1000C8F80020D3E90023C4E91223D4E9128A98
:104E20002AF000430B930B999C4B4FF0FF32404606
:104E300002F0EAFA70BB994B0B994FF0FF324046F3
:104E400002F0C4FA30BB002200234046514602F073
:104E5000B3FA10B12D2384F84330914B9148B9F146
:104E6000470F94BF98468046032323612BF0040329
:104E700023604FF0000A009733460FAA21462846C8
:104E800000F0D2F9013040F08F804FF0FF3011B0C8
:104E9000BDE8F08F424653464046514602F0B4FA10
:104EA00040B1BAF1000FBCBF2D2384F843307E48D7
:104EB0007E4BD4E763685A1C09F0DF0142D1062318
:104EC0006360002206920EAACDE904920DAA4BF46B
:104ED000806303920DF13302CDE9013223606368F0
:104EE00000934246534628460B91FFF7D5FE0B9997
:104EF000472980460D9908D1C81C02DB6368994296
:104F000040DDA9F102095FFA89F9B9F1650F1FD8EF
:104F100001394A4604F150000D91FFF71DFF0E9A2A
:104F20001318012A8246236102DC2268D20701D5C8
:104F3000013323619DF83330002B9CD02D2384F85E
:104F4000433098E74729BCD1002BBAD10123B7E7FA
:104F5000B9F1660F18D1002963680BDD216113B91F
:104F60002268D00702D501330B442361A1654FF0BD
:104F7000000ADFE713B92268D20701D50233F4E74C
:104F80000123F2E74FF067090E9B994205DB236886
:104F90002161D807EAD54B1CE7E70029D4BFC1F14E
:104FA000020201221344E0E723685A0507D423696B
:104FB000424631462846B84701302BD165E7B9F162
:104FC000650F40F2DC80D4E912010022002302F0D8
:104FD000E9F9002833D0364A012331462846B8473C
:104FE00001303FF452AFDDE90D239A4202DB236822
:104FF000D8070FD5DDE9092331462846B8470130E7
:105000003FF443AF4FF0000804F11A090E9B013B37
:10501000434509DC23689B0700F10181E0680F9B91
:105020009842B8BF184632E701234A46314628461F
:10503000B84701303FF429AF08F10108E6E70D9BBE
:10504000002B37DC1A4A012331462846B847013085
:105050003FF41BAFDDE90D23134302D12368D907C9
:10506000D8D5DDE9092331462846B84701303FF459
:105070000CAF4FF0000904F11A0A0D9B5B424B453F
:1050800001DC0E9B94E70123524631462846B8477F
:1050900001303FF4FAAE09F10109EEE7FFFFEF7FBF
:1050A000F4750008F875000800760008FC75000823
:1050B000047600080E9AA36D9A42A8BF1A46002AE9
:1050C000914637DC4FF0000B29EAE97904F11A0226
:1050D000D4F858A0AAEB09035B4533DCDDE90D23C6
:1050E0009A423BDB2368DA0738D40E9A0D99A2EB7B
:1050F0000A03A2EB01099945A8BF9946B9F1000F2F
:1051000034DC4FF0000829EAE97904F11A0ADDE9F4
:105110000D239B1AA3EB090343457FF77BAF0123C4
:10512000524631462846B84701303FF4AEAE08F14A
:105130000108ECE71346314642462846B84701309D
:10514000C0D1A2E60123314628460B92B847013070
:105150003FF49BAE0B9A0BF1010BB9E7DDE9092394
:1051600031462846B8470130BFD18EE64B4608EBA2
:105170000A0231462846B8470130C2D185E60E9A68
:10518000012A01DCDB0737D5012342463146284698
:10519000B84701303FF479AEDDE9092331462846AE
:1051A000B84701303FF471AED4E912010022002368
:1051B00002F0F8F8D8B90E9B08F10102013B314624
:1051C0002846B84701300ED15FE601234A463146F2
:1051D0002846B84701303FF458AE08F101080E9B4D
:1051E000013B4345F1DC534604F15002E1E64FF048
:1051F000000804F11A09F2E701234246DFE7012320
:105200004A4631462846B84701303FF43EAE08F1E1
:105210000108E3680F995B1A4345F0DCFEE64FF0A6
:10522000000804F11909F4E72DE9F04716469946FC
:105230008A680B69DDF820809342B8BF134633605B
:1052400091F8432007460C460AB1013333602368C6
:10525000990642BF336802333360256815F00605AE
:1052600006D104F1190AE36832689B1AAB4226DCC6
:1052700094F84320131E226818BF012392062BD4F2
:1052800004F1430249463846C04701301ED0236826
:10529000E568326803F00603042B08BFAD1AA36863
:1052A00022690CBF25EAE57500259342C4BF9B1A0D
:1052B000ED1800261A34B5421AD1002008E0012367
:1052C000524649463846C047013003D14FF0FF30BF
:1052D000BDE8F0870135C6E7E1185A1C302081F897
:1052E0004300224494F8451082F843100233C7E784
:1052F0000123224649463846C0470130E6D00136F0
:10530000D9E700002DE9FF470C469146277E0C990E
:10531000782F80469A4604F1430207D8622F0AD8B4
:10532000002F00F0D880582F00F0A38004F142062F
:1053300084F842703AE0A7F16303152BF6D801A078
:1053400050F823F09D530008B15300082D53000876
:105350002D5300082D5300082D530008B1530008A9
:105360002D5300082D5300082D5300082D5300081D
:10537000BD540008E15300089F5400082D53000855
:105380002D530008DF5400082D530008E153000896
:105390002D5300082D530008A75400080B681A1D50
:1053A0001B680A6004F1420684F842300123A3E03E
:1053B000256808682E0600F104030AD505680B600D
:1053C000002D03DA2D236D4284F843305E480A2312
:1053D00019E015F0400F05680B6018BF2DB2EFE71C
:1053E0000B682568181D0860280601D51D6802E0B5
:1053F0006906FBD51D8854486F2F0CBF08230A236C
:10540000002184F843106668A660002EA2BF2168C0
:1054100021F0040121600DB9002E4DD01646B5FBD8
:10542000F3F103FB1157C75D06F8017D2F46BB4220
:105430000D46F4D9082B0BD12368DF0708D5236963
:1054400061689942DEBF302306F8013C06F1FF3661
:10545000921B2261CDF800A04B4603AA214640468C
:10546000FFF7E2FE01304CD14FF0FF3004B0BDE851
:10547000F087354884F8457023680E681F0656F893
:10548000045B0E6014D5D90744BF43F020032360AA
:105490001DB9236823F0200323601023B0E723689D
:1054A00043F0200323607823284884F84530E3E75D
:1054B0005E0648BFADB2E6E71646BBE70B68266856
:1054C00060691D1D0D6035061B6801D5186002E07E
:1054D0007106FBD51880002323611646BAE70B68D6
:1054E0001A1D0A601E6862680021304600F000FF45
:1054F00008B1801B606063682361002384F8433037
:10550000A8E72369324649464046D0470130ABD030
:1055100023689B0713D4E068039B9842B8BF1846E2
:10552000A4E70123324649464046D04701309BD08C
:105530000135E36803995B1AAB42F2DCEBE7002527
:1055400004F11906F5E700BF067600081776000893
:105550000EB400B59CB01DAB029006906FF00041F8
:10556000094807910491094953F8042B05910068F3
:10557000019302A901F028FB029B00221A701CB0C3
:105580005DF804EB03B07047180000200802FFFF2D
:10559000034613F8012B002AFBD1181A0138704773
:1055A00030B5141E05469BB0184605DA8B232B60D8
:1055B0004FF0FF301BB030BD4FF40273ADF80C302C
:1055C00014BF04F1FF332346029305934FF6FF7394
:1055D00000910491ADF80E3002461E9B69462846A4
:1055E00001F0F2FA431CBCBF8B232B60002CE1D0EE
:1055F000009B00221A70DDE707B5009313460A46A8
:10560000014603480068FFF7CBFF03B05DF804FBD9
:10561000180000202DE9F74F03690C69A3420746E3
:10562000C0F28180013C01F1140800F1140505EB82
:105630008403019358F8243055F8242001339A420A
:105640004FEA840B08EB8409B2FBF3F631D34FF039
:10565000000E4046AC46F24650F8042B93B206FBCF
:1056600003E34FEA134E9BB2AAEB0303120CDCF8E0
:1056700000A006FB02E213FA8AF34FEA124E1FFA69
:1056800082FADCF80020CAEB124202EB23429BB202
:1056900043EA024381454CF8043B4FEA224ADBD2FD
:1056A00055F80B302BB9019B043B9D421A462ED373
:1056B0003C61384601F095F8002824DB0136284685
:1056C0004FF0000C58F8042BD0F800E093B2ACEB8C
:1056D0000303120C13FA8EF3C2EB1E4202EB2342B9
:1056E0009BB243EA0243C14540F8043B4FEA224CD7
:1056F000E8D255F8242005EB840322B9043B9D42EF
:105700001A460AD33C61304603B0BDE8F08F1268F8
:10571000043B002ACCD1013CC7E71268043B002AB5
:10572000F0D1013CEBE70020EEE7000000000000B4
:105730002DE9F04F446A99B016461F46CDE904673B
:10574000DDF8948005463CB9102000F0C7FDC0E9A3
:10575000014468620460C4606B6A196851B15A6898
:105760004A60012393408B60284600F045FE6B6A37
:1057700000221A603B1EB9BF23F0004305930023AB
:10578000C8F80030DDF81490A74BBCBF0122C8F860
:10579000002033EA090319D1249A42F20F731360EF
:1057A000C9F31303334300F06D85269B53B99F4B18
:1057B00023E09F4B03930833269A1360039819B094
:1057C000BDE8F08F994B03930333F5E7DDE904342B
:1057D000CDE90C34DDE90C010022002301F0E2FDEB
:1057E000804660B1249A01231360269B002B00F0B1
:1057F0004685904B269A1360013B0393DEE716AB78
:10580000019317AB00932846DDE90C2301F07AF8E9
:10581000C9F30A548346002C7ED00D9BCDF84C80F2
:10582000C3F31303DDE90C0143F07F5141F4401150
:10583000A4F2FF34804B0022FEF7E6FB74A3D3E909
:10584000002301F047FB74A3D3E90023FEF7DEFB3E
:10585000064620460F46FEF725FD71A3D3E9002337
:1058600001F038FB02460B4630463946FEF7CEFBC8
:1058700006460F4601F0DEFD002282460023304638
:10588000394601F099FD48B15046FEF70BFD32460E
:105890003B4601F087FD08B90AF1FF3ABAF1160F4D
:1058A00057D8664B03EBCA03D3E90023DDE90C01AB
:1058B00001F082FD00284ED00AF1FF3A00230F9339
:1058C000169B1C1B631E099345BFC4F1010306937D
:1058D000002300234CBF09930693BAF1000F3CDB71
:1058E000099BCDF838A05344099300230A93229BC7
:1058F000092B00F2B580052BC4BF043B2293229BE9
:10590000A3F10203CCBF00240124032B00F2B480D6
:10591000DFE803F02D987AA4DDE916431C4404F275
:105920003243202BC3BFC3F1400304F2124009FAF3
:1059300003F3C3F12003C6BF26FA00F0184306FAAA
:1059400003F0FEF79FFC0123A1F1F871013C1393D2
:1059500070E70123B3E70F90B2E7069BA3EB0A03BE
:105960000693CAF100030A9300230E93BFE70023B6
:105970000B93239B002B00F382804FF00109CDF89D
:1059800020904B46CDF88C906E6A00227260042203
:1059900002F114009842716877D9284600F0F8FCAB
:1059A0006B6A30601B680393089B0E2B00F2EE803D
:1059B000002C00F0EB80BAF1000F7ADD1F4A0AF0EC
:1059C0000F0302EBC303D3E900341AF4807FCDE95F
:1059D00010344FEA2A145CD0194BDDE90C01D3E9ED
:1059E000082301F0A1FBCDE9040104F00F04032713
:1059F000134E002C4FD1DDE91023DDE9040101F045
:105A000093FBCDE904016EE00123B1E7AFF3008021
:105A100061436F63A787D23FB3C8608B288AC63FB4
:105A2000FB799F501344D33F0000F07F317600088C
:105A300028760008057600080000F83F6076000828
:105A40003876000800230B93239B0AEB030909F126
:105A50000103012B0893B8BF012395E70123F2E767
:105A60000124002322930B944FF0FF390022CDF83C
:105A700020901223239287E701230B93F4E7DDF8AC
:105A80008C90CDF820904B467EE70131716052003A
:105A90007EE70227ACE7E10708D5DDE91001D6E98A
:105AA000002301F017FACDE9100101376410083620
:105AB0009FE700F0A580CAF10004A44BA44E04F0B7
:105AC0000F0203EBC203D3E90023DDE90C0101F06F
:105AD00001FACDE90401241100230227002C40F033
