:020000040800F2
:1000000000000320C1020008094300080B43000858
:100010000D4300080F4300081143000800000000D2
:100020000000000000000000000000001343000872
:10003000154300080000000017430008194300089A
:10004000CD2B0008CD2B0008CD2B0008CD2B0008B0
:10005000CD2B0008CD2B0008CD2B0008CD2B0008A0
:10006000CD2B0008CD2B0008CD2B0008CD2B000890
:10007000CD2B0008CD2B0008CD2B0008CD2B000880
:1000800021430008CD2B0008CD2B0008CD2B000804
:10009000CD2B0008CD2B0008CD2B0008CD2B000860
:1000A000CD2B0008CD2B0008CD2B0008CD2B000850
:1000B000CD2B0008CD2B0008CD2B0008CD2B000840
:1000C000CD2B0008CD2B0008CD2B0008CD2B000830
:1000D000CD2B0008CD2B0008CD2B0008CD2B000820
:1000E000CD2B0008CD2B0008CD2B0008CD2B000810
:1000F000CD2B0008CD2B0008CD2B0008CD2B000800
:10010000CD2B0008CD2B0008CD2B0008CD2B0008EF
:10011000CD2B0008CD2B0008CD2B0008CD2B0008DF
:10012000CD2B0008CD2B0008CD2B0008CD2B0008CF
:10013000CD2B0008CD2B0008CD2B0008CD2B0008BF
:10014000CD2B0008CD2B0008CD2B0008CD2B0008AF
:10015000CD2B0008CD2B0008CD2B0008CD2B00089F
:10016000CD2B0008CD2B0008CD2B0008CD2B00088F
:10017000CD2B0008CD2B0008CD2B0008000000007F
:10018000CD2B0008CD2B0008CD2B0008CD2B00086F
:10019000CD2B0008CD2B0008CD2B0008CD2B00085F
:1001A000CD2B0008CD2B0008CD2B000800B583B067
:1001B00002F072FC304B314A1360314A1360314B0C
:1001C000314A03E052F8041B43F8041B2F498B42C9
:1001D000F8D32A4B1A682E4B9A4200D0FEE7284BE0
:1001E0001A682C4B9A42F9D1234B2B4A13602B4AA5
:1001F00013602B4B02E0002243F8042B294A934260
:10020000F9D3254B1B6813B9244B1B6803B1FEE7D8
:1002100002F04EFC694601A802F0E8FB224C234B99
:10022000E41AA410002504E0204B53F82530984729
:100230000135AC42F8DC1E4C1E4BE41AA41000251C
:1002400004E01C4B53F8253098470135AC42F8DCEC
:100250000099019803F08AFE0546174C174BE41AE3
:10026000A41004E0013C154B53F824309847002CAF
:10027000F8DC284604F064F8BABADECA00000020B0
:10028000E801002000000020209B0008EC01002075
:100290007856341232547698EC010020340600204F
:1002A000EC010020380600201404000814040008A3
:1002B00014040008140400081404000814040008BE
:1002C00008B5FFF773FF00BEFEE71EF0040F0CBF7A
:1002D000EFF30880EFF309807146414A10472DE99A
:1002E000F04182B004460D46124B5F6BD3F8388064
:1002F0009E6A1B6B13F0020F03D00E4BDB6A002BC0
:100300000BDB0D4802F07AFB009543463A46314636
:10031000204602F0D1FB00BEFEE74BF6AB6102F0D7
:1003200045FC0028EDD0034B4FF00042DA6202B0EA
:10033000BDE8F08100ED00E07496000800BEFEE725
:100340001EF0040F0CBFEFF30880EFF30980714635
:10035000244A10472DE9F04182B004460D46084B6F
:100360005F6BD3F838809E6A064802F047FB009521
:1003700043463A463146204602F09EFB00BEFEE769
:1003800000ED00E0849600081EF0040F0CBFEFF3B0
:100390000880EFF309807146134A10472DE9F041B8
:1003A00082B004460D46084B5F6BD3F838809E6AD6
:1003B000064802F023FB009543463A463146204664
:1003C00002F07AFB00BEFEE700ED00E09096000828
:1003D00000BEFEE700BEFEE700BEFEE7704700007D
:0C03E000DF020008550300089D03000820
:1003EC00209B000800000020EC010020209B00084E
:1003FC000000001000000010EC0100203806002066
:08040C000000001000000010C8
:1004200010B504460E4B18784FF47A73B3FBF0F313
:100430000C4A1068B0FBF3F000F0ACF868B90F2C70
:1004400001D901200AE0002221464FF0FF3000F0E0
:100450005FF8054B1C60002000E0012010BD00BFCC
:1004600004000020140000200800002008B50B4BF9
:100470001A6842F400721A601A6842F480621A60C4
:100480001A6842F480721A60032000F02FF80020EE
:10049000FFF7C6FF03F088FE002008BD003C0240C5
:1004A000034A1168034B1B780B441360704700BF6D
:1004B000FC02002004000020014B1868704700BFB8
:1004C000FC02002038B50446FFF7F6FF0546B4F1FC
:1004D000FF3F02D0044B1B781C44FFF7EDFF401B8D
:1004E000A042FAD338BD00BF04000020074AD368F9
:1004F00023F4E0631B041B0C000200F4E0600343E0
:1005000043F0BF6343F40033D360704700ED00E075
:1005100030B4174BDB68C3F30223C3F10704042C88
:1005200028BF04241D1D062D18D9033B4FF0FF35AD
:1005300005FA04F421EA0401994005FA03F322EADA
:100540000303194300280BDB0901C9B200F1604025
:1005500000F5614080F8001330BC70470023E5E7E8
:1005600000F00F000901C9B2024B1954F4E700BFB3
:1005700000ED00E014ED00E0002807DB00F01F02B2
:10058000400901239340024A42F82030704700BFDF
:1005900000E100E00138B0F1807F0AD2064B5860DC
:1005A000064AF02182F823100020986007221A6082
:1005B00070470120704700BF10E000E000ED00E050
:1005C000042805D0054A136823F00403136070471C
:1005D000024A136843F004031360704710E000E020
:1005E00070B110B50446037933B1022323710020A2
:1005F00020610123237110BD437103F0F1FDF4E785
:100600000120704770B504460D461146049A4079A2
:1006100001285DD00120607102202071002D30D1B1
:10062000A0682C4EC663A0682B4E0664A0682B4EB3
:10063000C6642668306840F480503060042A1AD0BE
:10064000082A1BD0A2B12A46002D38D1266830686E
:1006500040F400503060A06800F0AAF922681368E6
:10066000012101FA05F51D4315600020607170BD80
:1006700022680832E8E722680C32E5E72268103287
:10068000E2E7E068164EC663E068164E0664E0686E
:10069000154EC6642668306840F080503060042AE9
:1006A00007D0082A08D00AB10022CDE72268143208
:1006B000CAE722681832C7E722681C32C4E72668F6
:1006C000306840F000503060E06800F071F9C5E734
:1006D0000220CCE72F070008410700084D0700085B
:1006E000B5070008C5070008CF07000810B5044685
:1006F000006803684FF480528A4023EA02030360D3
:100700002068036801228A4023EA0203036031B9AA
:10071000A06800F082F930B10423237110BDE068B5
:1007200000F07BF9F7E701232371F7E7704710B575
:10073000846B2046FFF7FAFF0123237110BD704739
:1007400008B5806BFFF7FBFF08BD704710B5846BE1
:10075000236943F0040323612046FFF7F6FF0123DA
:10076000237110BD4379012B1FD070B40125457151
:10077000022303710668336840F6FE74944023EA4E
:1007800004040B6849680B439340234333600468B7
:100790002368C02101FA02F223EA020222600571F5
:1007A00000234371184670BC7047022070477047A1
:1007B0007047704710B5846B2046FFF7F8FF0123A0
:1007C000237110BD08B5806BFFF7F2FF08BD10B5AF
:1007D000846B236943F0040323612046FFF7E9FF9C
:1007E0000123237110BD30B405682C6824F48024E3
:1007F0002C60046863608368402B05D003689960AF
:100800000368DA6030BC704703689A600368D96097
:10081000F8E7000010B40368D9B210390B4AA2FB04
:10082000014212090A4CA25CC2655F2908D923F46F
:100830007F7323F0030304338365806D10BC70471E
:1008400023F47F7323F003038365F6E7ABAAAAAA18
:1008500050950008836A826992B9012B0AD0022B55
:1008600002D00BB100207047C36A13F0807F28D1FB
:1008700000207047C36AB3F1C07F24D000207047C6
:10088000B2F5005F09D0022B25D9032B25D1C36A0D
:1008900013F0807F23D100207047032B03D8DFE8BB
:1008A00003F01404140A00207047C36A13F0807F19
:1008B0000DD100207047C36AB3F1C07F09D000207A
:1008C00070470120704701207047012070470120C8
:1008D00070470120704701207047002070470120B9
:1008E0007047000070B50446FFF7E6FD002C5BD0B2
:1008F0000546002384F83430022384F8353022681A
:10090000136823F00103136023681A6812F0010FC3
:100910000AD0FFF7D1FD431B052BF5D920236365D2
:10092000032084F8350070BD1A68204810406168C3
:10093000A2680A43E1680A4321690A4361690A43DC
:10094000A1690A43E1690A43216A0A430243616AD1
:1009500004291ED01A602668756925F00705636AA8
:100960001D43042B07D1A36A1D43E36A1BB1204634
:10097000FFF770FF90B975612046FFF74BFFE26DFE
:100980003F239340836000206065012384F8353065
:10099000C9E7E16A206B01430A43DBE74023636553
:1009A000012084F83500BEE70120BCE73F8010F04D
:1009B00038B50446856D90F8340001282BD001200D
:1009C00084F8340094F83500C0B2012804D0002324
:1009D00084F83430022038BD022084F8350000202D
:1009E00060652046FFF7FFFEE26D3F239340AB605A
:1009F0002268136843F016031360236C23B1226846
:100A0000136843F0080313602268136843F001037E
:100A100013600020DFE70220DDE770B50446866D35
:100A2000FFF74AFD94F83530DBB2022B06D0802365
:100A30006365002384F83430012070BD05462268C8
:100A4000136823F0160313602268536923F08003B0
:100A50005361236CE3B12268136823F00803136029
:100A60002268136823F00103136023681B6813F0E6
:100A7000010F11D0FFF720FD431B052BF5D92023D3
:100A80006365002384F83430032084F83500D4E70C
:100A9000A36C002BDFD1E3E7E26D3F239340B3600B
:100AA000002084F83400012384F83530C5E70000C5
:100AB000F0B583B0044600230193724B1D68724B5E
:100AC000A3FB0535AD0A876D3E68C26D08239340D0
:100AD000334210D003681A6812F0040F0BD01A6862
:100AE00022F004021A60C26D08239340BB60436D7C
:100AF00043F001034365E26D01239340334209D083
:100B00002268526912F0800F04D0BB60636D43F01D
:100B100002036365E26D04239340334209D02268E7
:100B2000126812F0020F04D0BB60636D43F004033F
:100B30006365E26D10239340334224D0226812682B
:100B400012F0080F1FD0BB6023681A6812F4802FC0
:100B50000DD01B6813F4002F04D1236C9BB12046E9
:100B6000984710E0A36C73B1204698470BE01A68D1
:100B700012F4807F03D11A6822F008021A60236CF5
:100B80000BB120469847E26D20239340334255D065
:100B90002268126812F0100F50D0BB6094F8353004
:100BA000DBB2052B0ED023681A6812F4802F33D0E5
:100BB0001B6813F4002F2AD1636C002B3ED0204613
:100BC00098473BE02268136823F0160313602268FD
:100BD000536923F080035361236CA3B12268136827
:100BE00023F008031360E26D3F239340BB600023B2
:100BF00084F83430012384F83530236D002B3FD046
:100C0000204698473CE0A36C002BE7D1EBE7E36B71
:100C1000A3B12046984711E01A6812F4807F09D1E9
:100C20001A6822F010021A60002384F8343001237D
:100C300084F83530E36B0BB120469847636DFBB108
:100C4000636D13F0010F17D0052384F83530226847
:100C5000136823F001031360019B01330193AB423E
:100C600004D823681B6813F0010FF5D1002384F822
:100C70003430012384F83530E36C0BB120469847BB
:100C800003B0F0BD14000020B5814E1B00230F2BD4
:100C900000F2E580F0B583B039E0092200E00022DF
:100CA000B2403A4302346E4E46F824206D4A14682E
:100CB000EA4324EA05064F6817F4803F01D045EA6D
:100CC0000406684C2660646802EA04064F6817F45C
:100CD000003F01D045EA0406624C6660A46802EA5F
:100CE00004064F6817F4801F01D045EA04065D4CE6
:100CF000A660E46822404E6816F4001F01D045EA61
:100D00000402584CE26001330F2B00F2A68001224E
:100D10009A400C6804EA020532EA0404F3D14C68F4
:100D2000661E012E03D9112C01D0122C12D1866817
:100D30005F000324BC4026EA0406CC68BC40344370
:100D40008460466826EA02064C68C4F300129A40A2
:100D500032434260C7685E000324B440E24327EA9E
:100D600004078C68B4403C43C4604C68022C01D03A
:100D7000122C13D1DF08083750F827E003F00704DE
:100D80004FEA840C0F2404FA0CF42EEA040E0C69CA
:100D900004FA0CF444EA0E0440F8274004681440B6
:100DA0004A6802F00302B240224302604A6812F02D
:100DB000805FA8D0002201922B4A546C44F48044F6
:100DC0005464526C02F480420192019A9C08A61C61
:100DD000234A52F8267003F0030296000F22B24015
:100DE00027EA0207214A90423FF459AF02F5806298
:100DF000904222D002F58062904220D002F58062BB
:100E000090421ED002F5806290421CD002F58062B2
:100E100090421AD002F58062904218D002F58062AA
:100E2000904216D002F58062904214D002F58062A2
:100E300090423FF432AF0A2232E7012230E7022229
:100E40002EE703222CE704222AE7052228E70622C0
:100E500026E7072224E7082222E703B0F0BD704707
:100E600000380140003C01400038024000000240D0
:100E70000369194201D001207047002070470AB170
:100E80008161704709048161704703685A6912F4EF
:100E9000806F01D1002070476FF480625A61002397
:100EA0000363202280F83D2080F83E30026C42F03F
:100EB0000402026480F83C30012070472DE9F041C3
:100EC00007460D4690461E4622E0FFF7F5FA069BC0
:100ED000C01AB04200D8DEB900233B63202287F855
:100EE0003D2087F83E303A6C42F020023A6487F8A1
:100EF0003C3001201AE03B689C6925EA0404A4B256
:100F0000B4FA84F46409A0450FD1B6F1FF3FDCD1F7
:100F1000C5F30743012BEED13B685C6925EA040465
:100F2000A4B2B4FA84F46409EDE70020BDE8F081CE
:100F30002DE9F04105460E46174698463DE01A68F1
:100F400042F400721A602B686FF480625A610023C9
:100F50002B63202285F83D2085F83E302A6C42F034
:100F600004022A6485F83C30012034E0FFF7A4FA3B
:100F7000A0EB0800B84200D8FFB900232B63202261
:100F800085F83D2085F83E302A6C42F020022A6424
:100F900085F83C3001201EE02B689C6926EA040499
:100FA000A4B2003C18BF0124A4B12B685A6912F402
:100FB000806FC4D1B7F1FF3FD8D1C6F30743012BEF
:100FC000EAD12B685C6926EA0404A4B2003C18BF8D
:100FD0000124E9E70020BDE8F0810000F0B583B00E
:100FE00004460D4616461F46C36A082B0DD0012B3A
:100FF0000BD013F5803F08D0036B122B0AD1026887
:10100000136843F48073136004E02268136843F4A8
:10101000807313600097334600224FF00111204681
:10102000FFF74CFF80B92369B3F5804F16D12368D1
:1010300005F0FE051D613B46324613492046FFF789
:1010400077FFF8B903B0F0BD23681B6813F4807F05
:1010500002D04FF4007323640320F3E7EB112268FE
:1010600003F0060343F0F00313613B4632460749A1
:101070002046FFF75DFF18B92368EDB21D61DAE77E
:101080000120DFE70120DDE7020001000800010088
:1010900070B504460D46164623685B6913F0800F51
:1010A0001CD12046FFF7F1FED0B9B5F1FF3FF3D0D8
:1010B000FFF702FA801BA84201D8002DECD10023D3
:1010C0002363202284F83D2084F83E30226C42F0D5
:1010D0002002226484F83C30012000E0002070BD32
:1010E0000120FCE72DE9F04784B004460D46164682
:1010F00099460C9FDDF834800268136843F48063DE
:1011000013600368196841F480711960CDF800809C
:101110003B4600224FF00111FFF7D0FE70B95FFA95
:1011200085FA236805F0FE051D6143463A464149AC
:101130002046FFF7FDFE68B1012008E023681B6828
:1011400013F4807F02D04FF400732364032004B0B3
:10115000BDE8F0870023039323685A6903929B69D3
:101160000393039B424639462046FFF791FF80B91F
:10117000B9F1010F18D12368F6B21E614246394613
:101180002046FFF785FF68B3236C042B24D0012091
:10119000DDE7236C042B01D00120D8E72268136817
:1011A00043F400731360F7E72368320A1A6142467A
:1011B00039462046FFF76CFF18B92368F6B21E6166
:1011C000DCE7236C042B01D00120C0E72268136800
:1011D00043F400731360F7E72268136843F4007365
:1011E0001360D4E72268136843F480731360CDF86A
:1011F00000803B4600224FF001112046FFF75EFEC3
:1012000068B922684AF00103136143463A46094926
:101210002046FFF78DFE002899D0012097E723682C
:101220001B6813F4807F02D04FF400732364032003
:101230008DE700BF0200010070B504460D4616465A
:1012400023685B6913F0040F1CD12046FFF71DFED5
:10125000D0B9B5F1FF3FF3D0FFF72EF9801BA842BC
:1012600001D8002DECD100232363202284F83D20F7
:1012700084F83E30226C42F02002226484F83C3034
:10128000012000E0002070BD0120FCE770B505469C
:101290000C4616462B68596911F0400F29D159693F
:1012A00011F0100F15D1FFF707F9801BA04201D8EC
:1012B000002CEFD100232B63202285F83D2085F8F8
:1012C0003E302A6C42F020022A6485F83C3001202E
:1012D00070BD6FF010025A6100232B63202285F845
:1012E0003D2085F83E302A6C2A6485F83C30012088
:1012F000EEE70020ECE70000002800F0CC80F8B515
:10130000044690F83D30002B77D0242384F83D30FC
:101310002268136823F0010313602268136843F402
:10132000004313602268136823F40043136000F045
:1013300041FE62685A4B9A4264D85A4B98428CBF1D
:1013400000230123002B40F0A880574DA5FB00355A
:10135000AF0C2668716821F03F0141EA9541716048
:1013600021680B6A23F03F0365684D4A95424FD8C8
:101370007A1C13430B622568E96921F44F4121F07F
:10138000FF016368464A93424CD801385B00B0FBCA
:10139000F3F0013040F6FC73184278D0C0F30B0331
:1013A0000B43EB6121680B6823F0C003E269206AFC
:1013B000024313430B6021688B6823F4034323F03B
:1013C000FF032269E068024313438B602168CB6806
:1013D00023F0FF036269A06902431343CB602268D4
:1013E000136843F00103136000202064202384F875
:1013F0003D30206384F83E00F8BD80F83C3002F0B8
:1014000047FF82E7294B98428CBF0023012399E7CD
:101410004FF4967202FB07F2254DA5FB025292098A
:101420000132A6E7A268BAB9461E03EB4307B6FB32
:10143000F7F60136C6F30B06B6FA86F6760946BB12
:10144000C2B9421E03EB4303B2FBF3F20132C2F313
:101450000B0242F40043A3E7461E03EB830707EBAE
:101460008707B6FBF7F60136C6F30B06B6FA86F623
:101470007609E4E7421E03EB830303EB8303B2FB2D
:10148000F3F20132C2F30B0242F4404388E7042333
:1014900086E7012384E7012070470120ACE700BF05
:1014A000A08601007F841E0083DE1B43FF083D00F1
:1014B000D34D62102DE9F04385B004460F469146A6
:1014C00098460C9EFEF7F8FF054694F83D00C0B222
:1014D000202804D00227384605B0BDE8F0830095E7
:1014E000192301224F492046FFF7E8FC002840F06D
:1014F000928094F83C30012B00F08F80012384F817
:101500003C3023681A6812F0010F03D11A6842F0C8
:1015100001021A602268136823F400631360212318
:1015200084F83D30102384F83E3000232364C4F84F
:101530002490A4F82A80638D23853B4BE3622B46DD
:10154000324639462046FFF749FD0746002866D156
:101550000023039323685A6903929B690393039BB7
:1015600011E0236C042B01D00127B4E72268136833
:1015700043F400731360F7E72A4631462046FFF72D
:101580005BFE00282ED1238D002B36D02A46314613
:101590002046FFF77DFD0028E3D1626A23681278B8
:1015A0001A61616A4B1C6362638D9BB2013B9BB203
:1015B0006385238D013B9BB223852268506910F01F
:1015C000040FD9D0002BD7D04B781361636A013355
:1015D0006362638D9BB2013B9BB26385238D013BAC
:1015E0002385C9E7236C042B01D0012773E7226808
:1015F000136843F400731360F7E72268136843F439
:1016000000731360202384F83D30002384F83E30BB
:1016100084F83C305FE702275DE702275BE701279C
:1016200059E700BF020010000000FFFF2DE9F04362
:1016300087B004460F4690469946109EFEF73CFF41
:10164000054694F83D00C0B2202804D00227384651
:1016500007B0BDE8F0830095192301229D4920467B
:10166000FFF72CFC002840F0448194F83C30012B1B
:1016700000F04181012384F83C3023681A6812F09D
:10168000010F03D11A6842F001021A602268136840
:1016900023F400631360222384F83D30402384F850
:1016A0003E30002323640E9B6362BDF83C306385AB
:1016B000638D2385884BE362019500964B46424635
:1016C00039462046FFF70EFD0746002840F01581F9
:1016D000238D5BB9029323685A6902929A69029238
:1016E000029A1A6842F400721A6098E0012B0AD03C
:1016F000022B1AD00023059323685A6905929B692F
:101700000593059B8BE02268136823F480631360C4
:101710000023039323685A6903929A690392039AF8
:101720001A6842F400721A6079E02268136823F4A0
:10173000806313602268136843F40063136000231E
:10174000049323685A6904929B690493049B66E09E
:101750002A4631462046FFF799FD002840F0CF8009
:1017600023681A69636A1A70636A01336362238D9E
:10177000013B2385638D9BB2013B9BB263854EE0A9
:1017800000953346002255492046FFF797FB002875
:1017900040F0B7802268136843F400731360236835
:1017A0001A69636A1A70626A531C6362238D013B73
:1017B0002385638D9BB2013B9BB2638523681B69C4
:1017C0005370636A01336362238D013B2385638D0C
:1017D0009BB2013B9BB2638521E02268136843F40E
:1017E0000073136023681A69636A1A70626A531C73
:1017F0006362238D013B2385638D9BB2013B9BB2CA
:10180000638523681B695370636A01336362238DA8
:10181000013B2385638D9BB2013B9BB26385238D86
:10182000002B5DD0032B2BD8012B91D0022BA7D0FE
:1018300000953346002229492046FFF73FFB002848
:1018400061D12268136823F48063136023681A69E6
:10185000636A1A70636A01336362238D013B2385D7
:10186000638D9BB2013B9BB263850095334600229A
:101870001A492046FFF722FB0028AED00127E6E6F2
:101880002A4631462046FFF701FD00283DD1236856
:101890001A69636A1A70626A531C6362238D013B82
:1018A0002385638D9BB2013B9BB263852368596995
:1018B00011F0040FB3D01B695370636A0133636284
:1018C000238D013B2385638D9BB2013B9BB26385D6
:1018D000A5E700BF020010000000FFFF04000100A8
:1018E000202384F83D30002384F83E3084F83C30D7
:1018F000ADE60227ABE60227A9E60127A7E6012706
:10190000A5E60127A3E60127A1E601279FE600BF80
:1019100010B582B000230193194B1A6C42F080522B
:101920001A641B6C03F080530193019B154B012239
:101930001A60FEF7C1FD0446134B5B6813F4803F49
:1019400008D1FEF7B9FD001BB0F57A7FF4D903206A
:1019500002B010BD0D4B01221A60FEF7ADFD04462A
:10196000094B5B6813F4003F07D1FEF7A5FD001B90
:10197000B0F57A7FF4D90320EAE70020E8E700BF5A
:101980000038024040000E420070004044000E4209
:10199000002800F0D98170B582B00446036813F0C6
:1019A000010F3BD0A64B9B6803F00C03042B2CD0FB
:1019B000A34B9B6803F00C03082B21D06368B3F59D
:1019C000803F4FD0B3F5A02F52D09D4B1A6822F420
:1019D00080321A601A6822F480221A606368002B31
:1019E00050D0FEF769FD0546954B1B6813F4003F88
:1019F00014D1FEF761FD401B6428F5D90320AAE14C
:101A00008F4B5B6813F4800FD8D08D4B1B6813F499
:101A1000003F03D06368002B00F09881236813F027
:101A2000020F54D0864B9B6813F00C0F3ED0844BB2
:101A30009B6803F00C03082B33D0E368002B67D0BE
:101A4000804B01221A60FEF737FD05467C4B1B6870
:101A500013F0020F53D1FEF72FFD401B0228F5D9DA
:101A6000032078E1764A136843F480331360B5E7C6
:101A7000734B1A6842F480221A601A6842F480326A
:101A80001A60ABE7FEF718FD05466D4B1B6813F4B3
:101A9000003FC3D0FEF710FD401B6428F5D903209A
:101AA00059E1674B5B6813F4800FC6D1644B1B6828
:101AB00013F0020F03D0E368012B40F04981604A24
:101AC000136823F0F803216943EAC1031360236814
:101AD00013F0080F40D0636963B35B4B01221A60B7
:101AE000FEF7EAFC0546564B5B6F13F0020F33D14D
:101AF000FEF7E2FC401B0228F5D903202BE1504AF7
:101B0000136823F0F803216943EAC1031360DEE799
:101B10004C4B00221A60FEF7CFFC0546484B1B6871
:101B200013F0020FD3D0FEF7C7FC401B0228F5D9F3
:101B3000032010E1444B00221A60FEF7BDFC05466D
:101B40003F4B5B6F13F0020F06D0FEF7B5FC401B56
:101B50000228F5D90320FEE0236813F0040F78D0A3
:101B6000374B1B6C13F0805F0DD100230193344B76
:101B70001A6C42F080521A641B6C03F0805301937C
:101B8000019B012500E00025304B1B6813F4807F8A
:101B900021D0A368012B32D0052B36D0284B1A6FE9
:101BA00022F001021A671A6F22F004021A67A36872
:101BB000002B34D0FEF780FC0646214B1B6F13F040
:101BC000020F45D1FEF778FC801B41F28833984222
:101BD000F3D90320BFE01D4A136843F480731360F8
:101BE000FEF76AFC0646194B1B6813F4807FD0D1C0
:101BF000FEF762FC801B0228F5D90320ABE0104AF7
:101C0000136F43F001031367D1E70D4B1A6F42F0D6
:101C100004021A671A6F42F001021A67C7E7FEF75B
:101C20004BFC0646064B1B6F13F0020F10D0FEF75D
:101C300043FC801B41F288339842F3D903208AE0A9
:101C40000038024000004742800E474200700040CA
:101C5000E5B9A369002B7DD0464A926802F00C02D8
:101C6000082A51D0022B17D0434B00221A60FEF7EE
:101C700023FC04463F4B1B6813F0007F42D0FEF765
:101C80001BFC001B0228F5D9032064E0394A136CC1
:101C900023F080531364DCE7374B00221A60FEF711
:101CA0000BFC0546334B1B6813F0007F06D0FEF794
:101CB00003FC401B0228F5D903204CE0E369226AAB
:101CC0001343626A43EA8213A26A5208013A43EA62
:101CD0000243E26A43EA0263264A5360264B01222A
:101CE0001A60FEF7E9FB0446224B1B6813F0007FE5
:101CF00006D1FEF7E1FB001B0228F5D903202AE0FC
:101D0000002028E0002026E0012B26D0194B9B68FC
:101D100003F48001E269914221D103F03F02216A7C
:101D20008A421ED1616A47F6C0721A408A421AD1AD
:101D300003F44032A16A8A4217D103F07063E26A69
:101D4000934214D1002006E001207047012002E0F8
:101D5000012000E0002002B070BD0120FBE701205F
:101D6000F9E70120F7E70120F5E70120F3E701207B
:101D7000F1E700BF0038024060004742F8B52F4B42
:101D80009B6803F00C03042B53D0082B53D12B4B2F
:101D90005A6802F03F025B6813F4800F28D0274B8B
:101DA0005B68C3F3881358010021C01A61F1000178
:101DB0008E0146EA906687013C1A66EB0105E90050
:101DC00041EA5471E000C01841F100014B0243EABE
:101DD000D053440220461946002305F0EBF8174B78
:101DE0005B68C3F3014301335B00B0FBF3F023E016
:101DF000124B5B68C3F388135C010025E41A65F19C
:101E00000005AE0146EA9466A701381B66EB0501A2
:101E1000CC0044EA5074C500E81844F100018B027C
:101E200043EA9053840220461946002305F0C2F885
:101E3000D5E7034800E00348F8BD00BF0038024082
:101E400000127A000024F400002800F09B8070B596
:101E50000D4604464F4B1B6803F00F038B4208D21C
:101E6000CBB24C4A1370136803F00F038B4240F05F
:101E70008B80236813F0020F17D013F0040F04D0E7
:101E8000454A936843F4E0539360236813F0080FC6
:101E900004D0414A936843F4604393603E4A936898
:101EA00023F0F003A1680B439360236813F0010F44
:101EB00032D06368012B21D09A1E012A25D9364AD7
:101EC000126812F0020F61D033498A6822F00302CF
:101ED00013438B60FEF7F0FA06462F4B9B6803F026
:101EE0000C036268B3EB820F16D0FEF7E5FA801B95
:101EF00041F288339842F0D9032042E0264A126822
:101F000012F4003FE0D101203BE0234A126812F0B6
:101F1000007FD9D1012034E01E4B1B6803F00F0372
:101F2000AB4207D9EAB21B4B1A701B6803F00F03D0
:101F3000AB422DD1236813F0040F06D0164A9368E4
:101F400023F4E053E1680B439360236813F0080F18
:101F500007D0114A936823F46043216943EAC1031F
:101F60009360FFF70BFF0C4B9B68C3F303130B4A03
:101F7000D35CD8400A4B18600A4B1868FEF750FA39
:101F8000002070BD012070470120FAE70120F8E72A
:101F90000120F6E7003C024000380240C4960008E9
:101FA0001400002008000020014B1868704700BF93
:101FB0001400002008B5FFF7F7FF044B9B68C3F33C
:101FC0008223034AD35CD84008BD00BF00380240DA
:101FD000D496000830B583B00446036813F0430F6D
:101FE00014D1236813F00C0F69D1236813F0200F6C
:101FF00040F0BE80236813F0100F00F0208194F8A9
:102000002C20904B1A60002003B030BD8E4B002274
:102010001A60FEF751FA05468C4B1B6813F0006FEF
:1020200006D0FEF749FA431B022BF5D90320EBE754
:10203000236813F0010F07D06268A3681B0743EA07
:102040008213824AC2F88430236813F0020F15D03D
:102050007E4AD2F884106068E3681B0643EA801366
:1020600001F0E0410B43C2F88430D2F88C3023F009
:102070001F03E16901390B43C2F88C30236813F068
:10208000400F0AD06268E3681B0643EA8213A26825
:1020900043EA02736D4AC2F884306B4B01221A6026
:1020A000FEF70AFA0546694B1B6813F0006F98D1DA
:1020B000FEF702FA401B0228F5D90320A4E7644B7F
:1020C00000221A60FEF7F8F90546604B1B6813F012
:1020D000005F06D0FEF7F0F9431B022BF5D9032071
:1020E00092E7236813F0040F16D0584AD2F88810EC
:1020F000206963691B0643EA801301F0E0410B434A
:10210000C2F88830D2F88C3023F4F853216A0139B0
:1021100043EA0123C2F88C30236813F0080F14D06F
:102120004A4AD2F88830216903F0706343EA811388
:10213000A16943EA0173C2F88830D2F88C3023F4E5
:102140004033616A0B43C2F88C30414B01221A6064
:10215000FEF7B2F905463D4B1B6813F0005F7FF4B4
:1021600044AFFEF7A9F9401B0228F4D903204BE73E
:1021700000230193354B1A6C42F080521A641B6C99
:1021800003F080530193019B324A136843F4807338
:102190001360FEF791F905462E4B1B6813F4807F00
:1021A00006D1FEF789F9401B0228F5D903202BE759
:1021B000264B1B6F13F4407312D0A26A02F44072D4
:1021C0009A420DD0214B1A6F22F44072224901200D
:1021D0000860002008601A671B6F13F0010F12D10E
:1021E000A36A03F44072B2F5407F1DD0174A93688A
:1021F00023F4F813936015490B6FA26AC2F30B0224
:1022000013430B67F6E6FEF757F905460F4B1B6FB6
:1022100013F0020FE4D1FEF74FF9401B41F288336F
:102220009842F3D90320EFE608498A6822F4F812AD
:1022300023F0704323F4407313438B60DBE70020EB
:10224000E2E600BFE0114742680047420038024022
:102250007000474200700040400E474230B4036AAD
:1022600023F001030362056A4268846924F0730461
:102270000B681C4325F002058B682B43104DA842C8
:1022800003D005F58065A84205D123F00803CD6889
:102290002B4323F004030A4DA84203D005F58065C3
:1022A000A84205D122F440724D6915438A692A4338
:1022B000426084614A684263036230BC704700BF79
:1022C0000000014030B4036A23F480730362036AA0
:1022D0004268C46924F073040D682C4323F400732E
:1022E0008D6843EA0523124DA84203D005F58065A9
:1022F000A84206D123F40063CD6843EA052323F402
:1023000080630B4DA84203D005F58065A84207D134
:1023100022F440524D6942EA05128D6942EA0512E3
:102320004260C4614A68C263036230BC704700BF48
:102330000000014030B4036A23F480530362036A4F
:102340004468C26922F4E6420D6842EA052223F499
:1023500000538D6843EA0533094DA84203D005F5C3
:102360008065A84204D124F480444D6944EA851470
:102370004460C2614A680264036230BC704700BFB7
:102380000000014030B4036A056A25F001050562CA
:10239000846924F0F00444EA021423F00A030B4396
:1023A0008461036230BC704730B4056A25F01005C3
:1023B00005628469036A24F4704444EA023423F019
:1023C000A00343EA01138461036230BC7047836851
:1023D00023F070030B4343F007038360704702232D
:1023E00080F83D300268936803F00703062B03D0A2
:1023F000136843F001031360012380F83D3000208F
:1024000070477047704700000368304A904212D00E
:10241000B0F1804F0FD0A2F57C4290420BD002F574
:102420008062904207D002F58062904203D002F5AC
:102430007842904203D123F070034A681343234A41
:1024400090422AD0B0F1804F27D0A2F57C42904232
:1024500023D002F5806290421FD002F58062904244
:102460001BD002F57842904217D002F5705290428C
:1024700013D002F5806290420FD002F58062904244
:102480000BD0A2F59832904207D002F580629042BC
:1024900003D002F58062904203D123F44073CA68EE
:1024A000134323F080034A69134303608B68C362BC
:1024B0000B688362054B984203D003F58063984212
:1024C00001D10B69036301234361704700000140A0
:1024D000B0B110B5044690F83D3063B1022384F8E2
:1024E0003D30214651F8040BFFF78EFF012384F89D
:1024F0003D30002010BD80F83C3001F0CBFEEDE710
:1025000001207047B0B110B5044690F83D3063B17A
:10251000022384F83D30214651F8040BFFF774FF85
:10252000012384F83D30002010BD80F83C30FFF7D7
:1025300068FFEDE701207047002849D0F8B50C4648
:10254000054690F83D30002B3DD0022385F83D3004
:102550002A68936823F4804323F007039360294695
:1025600051F8040BFFF750FF29688A688E690F6ADB
:102570002068104326F4407626F00306A268A3697B
:1025800042EA0323334323F47C4323F0FC03E6684D
:10259000E26946EA02261E43226A1303226943EADD
:1025A0000213334327F0AA076268646942EA0412FF
:1025B0003A43886029688B612B681A62012385F889
:1025C0003D300020F8BD80F83C30FFF71BFFBCE732
:1025D0000120704730B4036A23F010030362036ADA
:1025E0004468826922F4E6420D6842EA052223F03B
:1025F00020038D6843EA0513114DA84203D005F569
:102600008065A84206D123F08003CD6843EA051314
:1026100023F040030A4DA84203D005F58065A84287
:1026200007D124F440644D6944EA85048D6944EA85
:102630008504446082614A688263036230BC7047EB
:102640000000014038B590F83C30012B66D00446BC
:102650000D46012380F83C30022380F83D300C2ADF
:102660001AD8DFE802F007191919201919193419B5
:10267000191947000068FFF7F1FD2268936943F0DC
:10268000080393612268936923F00403936122682D
:10269000936929690B439361012384F83D3000203D
:1026A00084F83C0038BD0068FFF794FF2268936906
:1026B00043F4006393612268936923F48063936118
:1026C00022689369296943EA01239361E4E700687A
:1026D000FFF7F8FD2268D36943F00803D36122684D
:1026E000D36923F00403D3612268D36929690B43BA
:1026F000D361D1E70068FFF71DFE2268D36943F478
:102700000063D3612268D36923F48063D3612268B4
:10271000D369296943EA0123D361BDE70220C1E7F8
:1027200010B4846824F47F4442EA03220A4322431B
:10273000826010BC704790F83C30012B66D010B519
:102740000446012380F83C30022380F83D300268C3
:10275000936823F47F4323F0770393600B68602B27
:1027600040D022D8402B47D00BD9502B0ED1CA686D
:1027700049680068FFF706FE50212068FFF727FE32
:1027800004E0202B0CD008D9302B09D0012384F889
:102790003D30002084F83C0010BD0BB1102BF5D16A
:1027A00019462068FFF713FEF0E7702B0ED0B3F543
:1027B000005FEBD1CB684A6889680068FFF7B0FF1B
:1027C0002268936843F480439360DFE7CB684A68EC
:1027D00089680068FFF7A4FF2268936843F07703D5
:1027E0009360D3E7CA6849680068FFF7DDFD6021A0
:1027F0002068FFF7ECFDC9E7CA6849680068FFF781
:10280000C1FD40212068FFF7E2FDBFE702207047CD
:1028100010B401F01F01012303FA01F4036A23EA53
:1028200004030362036A02FA01F10B43036210BC62
:102830007047000010B5044601220068FFF7E8FF6A
:1028400023680B4A934203D002F58062934203D17E
:102850005A6C42F400425A642268936803F00703FA
:10286000062B03D0136843F001031360002010BD52
:102870000000014010B5044600220068FFF7C8FFC1
:102880002368154A934217D002F58062934213D011
:102890002368196A41F21112114208D1196A40F2F3
:1028A0004442114203D11A6822F001021A60012346
:1028B00084F83D30002010BD196A41F21112114216
:1028C000E6D1196A40F244421142E1D15A6C22F435
:1028D00000425A64DCE700BF0000014010B5044626
:1028E00061B1042916D0012200210068FFF790FF92
:1028F000012204212068FFF78BFF04E00122002160
:102900000068FFF785FF2268136843F00103136036
:10291000002010BD012204210068FFF779FFF2E7D3
:1029200090F83C30012B3BD030B4012380F83C3090
:10293000022380F83D3003685C689D6824F07004D1
:102940000A6822435A600368164A93421AD0B3F1C8
:10295000804F17D0A2F57C42934213D002F58062DB
:1029600093420FD002F5806293420BD002F5784279
:10297000934207D002F57052934203D0A2F59432ED
:10298000934204D125F080054A6815439D600123D8
:1029900080F83D30002380F83C30184630BC70474A
:1029A000022070470000014008B503460C4A126837
:1029B0005AB10B4A1068033323F003030344094A56
:1029C000934206D8064A136008BD054A06491160BD
:1029D000EFE704F069FC0C2303604FF0FF30F3E7EE
:1029E000F001002000FC02203806002001230360D3
:1029F000014B0B60704700BF0C0000200FB400B506
:102A000083B004AB53F8042B01938021074805F0F1
:102A100017F9002804DC03B05DF804EB04B070473C
:102A20000146024800F034F8F5E700BFF801002045
:102A30002DE9F04385B004460F46435633BB0425C9
:102A400028462146ABBE0446384605B0BDE8F083B3
:102A500014F9010B04AA1A4402F8100C0133AB421A
:102A6000F6D304AA1344002203F8102C4FF00408F4
:102A7000E94640464946ABBE8046761B002EE3D071
:102A80003546102E28BF10250023E8E70E46F5E74F
:102A900008B5FFF7CDFF08BD08B502F08DF8024A72
:102AA000024B9A6008BD00BF0000000800ED00E086
:102AB00008B502F089F808BDF8B504460D4617467A
:102AC0001E462748FFF79AFF21682648FFF796FF22
:102AD00061682548FFF792FFA1682448FFF78EFF41
:102AE000E1682348FFF78AFF21692248FFF786FF44
:102AF00061692148FFF782FFA1692048FFF77EFF47
:102B0000E1691F48FFF77AFF1E48FFF777FF294664
:102B10001D48FFF773FF1D4CE16A1D48FFF76EFF6C
:102B2000216B1C48FFF76AFFE16B1B48FFF766FF4C
:102B300015F0800F0AD115F4004F0CD11748FFF79C
:102B40005DFF06991648FFF759FFF8BD394615484D
:102B5000FFF754FFEFE731461348FFF74FFFEDE76C
:102B60005895000868950008789500088895000831
:102B700098950008A8950008B8950008C895000821
:102B8000D8950008E8950008F495000800ED00E0ED
:102B9000049600081496000824960008549600082D
:102BA0005C960008349600084496000883691A88E9
:102BB0008A4201D0002070470268033A012A01D9F5
:102BC000002070470233836101207047FEE7000058
:102BD00008B5054901230B6000234B608B60034857
:102BE000FEF754F808BD00BF400500200010024069
:102BF00008B5054901230B604B6000238B60CB6057
:102C00000248FEF743F808BD4005002000100240CE
:102C100008B5FFF7EDFF002201210348FEF72FF969
:102C20001420FDF74FFC08BD0010024010B5FFF75F
:102C3000CFFF322001F0AEFA01210C48FEF718F95F
:102C400040B1002401210948FEF712F90028F9D10A
:102C5000204610BD502001F09DFA01210348FEF7E7
:102C600007F904460128EDD0FF24EBE700100240ED
:102C700038B5002425460DE0C4F107020123934036
:102C80002B43DDB201211048FEF7F2F80028F9D1FC
:102C90000134E4B2072C15D801210B48FEF7E8F8FF
:102CA0000028F9D0282001F075FA01210648FEF726
:102CB000DFF80028E0D1C4F107020123934025EAA0
:102CC0000305DFE7284638BD0010024010B5FFF7C6
:102CD0009FFFFFF7ABFFFFF7CBFF0E4C2070FFF716
:102CE000C7FF6070FFF7C4FFA070FFF7C1FFE0707F
:102CF000FFF7BEFF2071237862781344A278134453
:102D0000E2781344984202D04FF0FF3010BD01200A
:102D1000FCE700BFD405002000B585B020F00F030C
:102D2000000140B243F00C028DF80C2043F0080380
:102D30008DF80D3040F00C038DF80E3040F0080097
:102D40008DF80F0064230093042303AA4E21034847
:102D5000FEF7B0FB05B05DF804FB00BFEC030020FC
:102D600000B585B020F00F03000140B243F00D0222
:102D70008DF80C2043F009038DF80D3040F00D0361
:102D80008DF80E3040F009008DF80F006423009399
:102D9000042303AA4E210348FEF78CFB05B05DF81F
:102DA00004FB00BFEC03002008B53220FDF78AFBCE
:102DB0003020FFF7B1FF0520FDF784FB3020FFF73F
:102DC000ABFF0120FDF77EFB3020FFF7A5FF0A20B7
:102DD000FDF778FB2020FFF79FFF0A20FDF772FB2D
:102DE0002020FFF799FF0120FDF76CFB0820FFF77B
:102DF00093FF0120FDF766FB0120FFF78DFF012007
:102E0000FDF760FB0120FDF75DFB0620FFF784FF67
:102E10000120FDF757FB0C20FFF77EFF08BD10B522
:102E2000044694F9000018B10134FFF799FFF8E760
:102E300010BD000000B585B020F00F03000140B2C6
:102E400043F00C028DF80C2043F008038DF80D3090
:102E500040F00C038DF80E3040F008008DF80F00A4
:102E600064230093042303AA4E210348FEF722FBA8
:102E700005B05DF804FB00BF0403002000B585B079
:102E800020F00F03000140B243F00D028DF80C203A
:102E900043F009038DF80D3040F00D038DF80E302E
:102EA00040F009008DF80F0064230093042303AA67
:102EB0004E210348FEF7FEFA05B05DF804FB00BFA3
:102EC0000403002008B53220FDF7FCFA3020FFF79C
:102ED000B1FF0520FDF7F6FA3020FFF7ABFF012028
:102EE000FDF7F0FA3020FFF7A5FF0A20FDF7EAFA18
:102EF0002020FFF79FFF0A20FDF7E4FA2820FFF7C4
:102F000099FF0120FDF7DEFA0820FFF793FF01206B
:102F1000FDF7D8FA0120FFF78DFF0120FDF7D2FA67
:102F20000120FDF7CFFA0620FFF784FF0120FDF70F
:102F3000C9FA0C20FFF77EFF08BD10B5044694F9CE
:102F4000000018B10134FFF799FFF8E710BD03093D
:102F500003EB830300F00F0000EB43007047000019
:102F600010B586B04FF47A7302930723019304AB34
:102F7000009301230022D0211448FEF757FB9DF84F
:102F80001000FFF7E4FF124C20709DF81100FFF7CE
:102F9000DEFF60709DF81200FFF7D9FFA0709DF86A
:102FA0001300FFF7D4FFE0709DF81400FFF7CFFF88
:102FB00020719DF81500FFF7CAFF60719DF816009B
:102FC000FFF7C5FFA07106B010BD00BF9803002039
:102FD000DC0500200000000010B5ADF51C3DC2B0BE
:102FE000002449F63F439C421CDC600003F09CF93E
:102FF0002DA3D3E9002303F001FA00222C4B03F0A8
:1030000027FB01F0AFFE00222A4B03F041F800221B
:10301000294B03F0F3F903F0B3FC02AB43F82400AF
:103020000134DEE7FDF748FA244B1B68C31AB3F5F9
:10303000FA7F02D3224B1B68BBB1FDF73DFA1F4B51
:103040001B68C31AB3F57A7F02D31E4B1B68C3B14A
:10305000FDF732FA194B1B68C31A40F2EA32934269
:1030600017D80DF51C3D42B010BD154B01221A605A
:103070000021009149F6404302AA1348FDF7C2FA25
:10308000EFE7104B01221A6000210F48FDF72EFBDD
:10309000E7E7FDF711FA094B18600023084A1360AF
:1030A000084A1360DDE700BF4AD8124DFB210940F2
:1030B000000079400000F03F0000A04078020020AE
:1030C00080020020880200202805002008B54FF467
:1030D00080510748FDF7CCFE012801D0002008BD33
:1030E00002210348FDF7C4FE0128F7D10120F6E7CD
:1030F0000018024038B5FFF7E9FF002865D000F05E
:103100004DF9FFF769FF1CE0344B01221A60344C83
:103110004FF480412046FFF78DFB236864255D63F3
:103120004FF400412046FFF785FB23689D6308E0CC
:10313000FDF7C2F92B4B1B68C01A40F2ED339842E1
:103140003BD8FFF7C3FF002842D0FDF7B5F9254B68
:103150001B68C01AB0F5FA7F0BD3FDF7ADF9214B10
:103160001B68C01AB0F57A7F03D81C4B1B68002B74
:10317000CAD0FDF7A1F91B4B1B68C01AB0F57A7FC6
:10318000D6D3FDF799F9174B1B68C01A40F2ED33FF
:103190009842CDD8144B1B68002BC9D1124B012289
:1031A0001A600F4C4FF480412046FFF763FB4FF449
:1031B00000412046FFF75EFBC3E7FDF77DF9094BB1
:1031C0001860064B00221A60BBE7FFF77FFF00B1D3
:1031D00038BD00210548FDF789FAF9E7840200208F
:1031E000E40500207C0200208C020020280500203D
:1031F00070B5634B1B68B3F5007F06DBB3F5007F4A
:1032000000F0B8800024204670BDFDF755F95D4BF5
:103210001B68C01A012802D95B4B1C684CB3FDF730
:103220004BF9584B1B68C01A032803D9574B1C682D
:10323000002C39D0FDF740F9524B1B68C01A052805
:1032400003D9534B1C68002C4AD0FDF735F94D4B80
:103250001B68C01A072803D94E4B1C68002C5BD092
:10326000FDF72AF9474B1B68C01A092870D80024BB
:10327000C9E701221A60484D4FF400412846FDF786
:10328000FEFD00224FF480612846FDF7F8FD002284
:103290004FF400512846FDF7F2FD00224FF4006183
:1032A0002846FDF7ECFDAEE701261E603A4D0022F0
:1032B0004FF400412846FDF7E2FD32464FF48061AD
:1032C0002846FDF7DCFD00224FF400512846FDF7AB
:1032D000D6FD00224FF400612846FDF7D0FD92E7AD
:1032E00001261E602C4D00224FF400412846FDF7B8
:1032F000C6FD00224FF480612846FDF7C0FD32462E
:103300004FF400512846FDF7BAFD00224FF400614A
:103310002846FDF7B4FD76E701261E601E4D00220B
:103320004FF400412846FDF7AAFD00224FF48061CA
:103330002846FDF7A4FD00224FF400512846FDF772
:103340009EFD32464FF400612846FDF798FD5AE78E
:10335000FDF7B2F80B4B186000240B4B1C600B4BB5
:103360001C600B4B1C600B4B1C60054A136801333F
:10337000136048E7024B00221A60012443E700BFB4
:1033800098020020A0020020A8020020B002002025
:10339000B8020020C00200200018024070B5634B44
:1033A0001B68B3F5007F06DBB3F5007F00F0B88043
:1033B0000024204670BDFDF77FF85D4B1B68C01AE6
:1033C000012802D95B4B1C684CB3FDF775F8584BCC
:1033D0001B68C01A032803D9574B1C68002C39D02E
:1033E000FDF76AF8524B1B68C01A052803D9534BE6
:1033F0001C68002C4AD0FDF75FF84D4B1B68C01AC3
:10340000072803D94E4B1C68002C5BD0FDF754F8FD
:10341000474B1B68C01A092870D80024C9E701224D
:103420001A60484D4FF400612846FDF728FD002240
:103430004FF400512846FDF722FD00224FF4806131
:103440002846FDF71CFD00224FF400412846FDF7F9
:1034500016FDAEE701261E603A4D00224FF40061D2
:103460002846FDF70CFD32464FF400512846FDF783
:1034700006FD00224FF480612846FDF700FD002282
:103480004FF400412846FDF7FAFC92E701261E6042
:103490002C4D00224FF400612846FDF7F0FC00227D
:1034A0004FF400512846FDF7EAFC32464FF48061A4
:1034B0002846FDF7E4FC00224FF400412846FDF7C2
:1034C000DEFC76E701261E601E4D00224FF40061EF
:1034D0002846FDF7D4FC00224FF400512846FDF7A2
:1034E000CEFC00224FF480612846FDF7C8FC32462E
:1034F0004FF400412846FDF7C2FC5AE7FCF7DCFF19
:103500000B4B186000240B4B1C600B4B1C600B4BCF
:103510001C600B4B1C60054A13680133136048E7BD
:10352000024B00221A60012443E700BF9C020020E6
:10353000A4020020AC020020B4020020BC02002043
:10354000C40200200018024008B54FF4006118487A
:10355000FDF78EFC012803D1164B1B68012B11D0FF
:103560004FF400411248FDF783FC012802D1114BB2
:103570001B687BB14FF400410D48FDF779FC012831
:1035800010D008BDFFF70AFF0128FAD1094B00222D
:103590001A60F6E7FFF72CFE0128F2D1054B012255
:1035A0001A60EEE74FF400610148FDF761FCE8E7BF
:1035B000001402409402002038B505460C4600F085
:1035C000DDFD002834D02946204603F0B9FC20B1A7
:1035D0001949204603F0AAFC48B90021204603F00F
:1035E000AFFC38B11549204603F0A0FC10B1144BD4
:1035F0001B68ABB11149204603F0A2FCD0B12946AB
:10360000204603F093FCA8B10D4B1B68012B11D190
:10361000FFF7C4FE01280DD1094B00221A6009E012
:10362000FFF7E6FD012805D1054B01221A6001E0F4
:10363000FFF78AFF38BD00BFC1CABC410000C040CF
:1036400090020020084BDB6813F0807F0BD1064A04
:10365000D36843F08073D360044B1A6842F00102D0
:103660001A6000225A607047F0ED00E0001000E0A0
:1036700030B585B0FFF774FCAC4B5B79013B0B2B8D
:1036800000F2C281DFE813F00C004800560075001C
:103690009400B500D400F300140133018001A101AE
:1036A000A24B187903F042FA4FF07F5103F096FADB
:1036B000002103F08BF903F057FCAF2800F3A6813B
:1036C0009B4B83FB00231A18C317C3EB62131A46E4
:1036D000C3EB0313A0EB8303103202921633039360
:1036E0003B2B03DD3C3B039301320292914B029A48
:1036F0001A60039A5A608F4D286803F01BFA04463B
:10370000686803F017FA8C4903F01CFB0146204659
:1037100003F05CF905B030BD844B187903F006FA6C
:103720004FF07F5103F05AFA844903F04FF903F048
:103730001BFCC2E77D4B9B7913F0030F0CD17B4B35
:10374000187903F0F3F97E4903F048FA7D4903F054
:103750003DF903F009FCB0E7744B187903F0E6F982
:10376000774903F03BFA784903F030F903F0FCFBAA
:10377000A3E76E4B9B7913F0030F0CD16B4B1879B9
:1037800003F0D4F96E4903F029FA704903F01EF9E9
:1037900003F0EAFB91E7654B187903F0C7F9684934
:1037A00003F01CFA6A4903F011F903F0DDFB84E72A
:1037B0005E4B9B7913F0030F0DD15C4B187903F02E
:1037C000B5F94FF07F5103F009FA624903F0FEF8B2
:1037D00003F0CAFB71E7554B187903F0A7F94FF0D6
:1037E0007F5103F0FBF95C4903F0F0F803F0BCFBF8
:1037F00063E74E4B9B7913F0030F0CD14B4B1879B9
:1038000003F094F9554903F0E9F9554903F0DEF85E
:1038100003F0AAFB51E7454B187903F087F94F49AC
:1038200003F0DCF94F4903F0D1F803F09DFB44E7C6
:103830003E4B9B7913F0030F0CD13C4B187903F0EE
:1038400075F9464903F0CAF9474903F0BFF803F098
:103850008BFB32E7354B187903F068F93F4903F0E9
:10386000BDF9424903F0B2F803F07EFB25E72F4B88
:103870009B7913F0030F0DD12C4B187903F056F9F7
:103880004FF07F5103F0AAF9394903F09FF803F094
:103890006BFB12E7254B187903F048F94FF07F5185
:1038A00003F09CF9334903F091F803F05DFB04E762
:1038B0001E4B9B7913F0030F0CD11C4B187903F0AE
:1038C00035F91F4903F08AF92B4903F07FF803F01B
:1038D0004BFBF2E6154B187903F028F9184903F071
:1038E0007DF9264903F072F803F03EFBE5E60F4B45
:1038F0009B7913F0030F0CD10C4B187903F016F9D8
:103900000F4903F06BF91E4903F060F803F02CFB3C
:10391000D3E6064B187903F009F9094903F05EF97B
:10392000184903F053F803F01FFBC6E6DC0500203E
:1039300089888888D00200200000C84200003A42EE
:10394000CDCC2C400000704200006C420000B6421A
:103950000000B4420000F2420000F0429A99993F00
:1039600000001843000017430000364300003543B1
:1039700000005543000054430000744300007343AB
:1039800000008943008088433D4B9B7913F0030F6F
:103990000DD13B4B187903F0C9F84FF07F5103F07C
:1039A0001DF9384903F012F803F0DEFA85E6344BCE
:1039B000187903F0BBF84FF07F5103F00FF932494B
:1039C00003F004F803F0D0FA77E62D4B9B7913F05F
:1039D000030F0CD12A4B187903F0A8F82B4903F0F8
:1039E000FDF82B4902F0F2FF03F0BEFA65E6244B26
:1039F000187903F09BF8254903F0F0F8254902F007
:103A0000E5FF03F0B1FA58E6012056E6B02822DDC2
:103A1000B0F5AC7F1FDCB0381F4B83FB00231A18B6
:103A2000C317C3EB62131A46C3EB0313A0EB830364
:103A3000C2F113020092C3F133030193002B05DBA3
:103A4000164B009A1A60019A5A6054E63C3301936F
:103A5000013A0092F4E7A0F259100F4B83FB0023C8
:103A60001A18C317C3EB62131A46C3EB0313A0EB78
:103A7000830310320C3309490A604B603BE600BFF8
:103A8000DC05002000809843000098439A99993FF4
:103A90000080A7430000A74389888888D0020020BF
:103AA00038B505460C460146204603F049FA28B9C8
:103AB0002946204603F044FA70B938BD4FF48061BE
:103AC0000C48FDF7D5F90128F2D101224FF400612D
:103AD0000848FDF7D4F9F0E74FF480610548FDF799
:103AE000C7F90028E9D100224FF400610148FDF731
:103AF000C6F9E2E7000C024010B500F03FFB0028D9
:103B00003CD020212A48FDF7B3F9012802D1294BE6
:103B10001B682BB101212648FDF7AAF9012808D11D
:103B20000122244B1A604FF480412148FDF7A7F988
:103B300010BD20211E48FDF79BF918B91D4B1B68CD
:103B4000012B05D001211A48FDF792F90028EFD189
:103B5000FCF7B2FC184B1B68C01AB0F5FA7FE7D32C
:103B60000024144B1C60FCF7A7FC134B1860224682
:103B70004FF480410E48FDF782F9D9E701210C4846
:103B8000FDF776F901280CD001210948FDF770F9FD
:103B90000028CDD100224FF480410548FDF76FF990
:103BA000C6E701224FF480410148FDF768F9BFE7FD
:103BB000000C0240D8020020CC02002038B5054697
:103BC0000C4600F0DBFA002800F08E8040215E48B1
:103BD000FDF74EF901280CD12946204603F0B0F933
:103BE00038B15A49204603F0A1F910B1584B1B686F
:103BF00033B14FF480615748FDF73AF901281AD1E3
:103C00004FF480615348FDF733F901280FD0504B32
:103C100001221A60FCF750FC4F4B18604F4C0021FA
:103C20002046FEF707FE236832225A636DE04C4BB4
:103C300001221A60EBE740214348FDF719F90128FA
:103C400026D02946204603F07BF940B13F49204663
:103C500003F06CF918B13E4B1B68012B25D02946A7
:103C6000204603F063F940B10021204603F068F9D3
:103C700018B1374B1B68012B2FD04FF480613548AA
:103C8000FDF7F6F8012840D1354B00221A603CE0E0
:103C90002F4B1B68012BD4D1314B1B68002BD0D18B
:103CA000FCF70AFC2C4B18602FE0FCF705FC2A4BB4
:103CB0001B68C31A4EF65F229342D0D9284B1B686B
:103CC000002BCCD1FCF7F8FB234B18600021204BD4
:103CD00019602248FEF7CEFD17E000211C4B196049
:103CE0001E48FEF7C7FD10E01A4C4FF480612046D5
:103CF000FDF7BEF84FF480612046FDF7B9F80128C2
:103D000004D0174B1B68012B10D038BD144B1B6817
:103D1000002BF6D1124B01221A60104C00212046D4
:103D2000FEF788FD236864225A63EEE74FF4806152
:103D30000848FDF79DF80028E7D10021084B1960DD
:103D40000648FEF797FDE0E700140240C1CABC41F7
:103D5000E002002000080240DC020020E405002010
:103D6000E402002070B506460D4600F007FA04464E
:103D70004FF480517448FDF77BF80CBB734A12680E
:103D8000526A01280CD048BB714B1B68012B25D10E
:103D90006F4B00221A6004216E48FEF76BFD1DE098
:103DA0006B4A1268002AEED1694B01221A60694CF5
:103DB00004212046FEF73EFD236864229A630DE04D
:103DC00001280CD001286BD0614B1C68012C73D0EA
:103DD000012C00F09380012C00F0A38070BD5C4AA0
:103DE0001268002AEED15C49284603F0A9F828B1F0
:103DF0005A49284603F09AF800282DD157492846F9
:103E000003F09EF828B13146284603F08FF80028C9
:103E10002ED13146284603F093F828B15049284660
:103E200003F084F800282FD10021284603F088F8F9
:103E30000028D3D04849284603F078F80028CDD090
:103E4000434B01221A60434C04212046FEF7F2FC4A
:103E500023680F229A63C1E73D4B01221A603D4C53
:103E600004212046FEF7E6FC236823229A63B5E787
:103E7000374B01221A60374C04212046FEF7DAFC4A
:103E8000236832229A63A9E7314B01221A60314C30
:103E900004212046FEF7CEFC236823229A639DE787
:103EA0002B4B1B68012B8FD1294B00221A60042158
:103EB0002848FEF7DFFC91E70021284603F040F890
:103EC000002885D02449284603F030F800283FF424
:103ED0007FAFFCF7F1FA234B1B68C01A224B9842C4
:103EE0007FF67CAF1A4B00221A60FCF7E5FA1D4BF7
:103EF000186004211748FEF7BDFC6FE731462846DD
:103F000003F01EF800283FF466AF1549284603F079
:103F10000DF800283FF45FAF0E4B1B6823229A6315
:103F20005CE70021284603F00BF800283FF456AF69
:103F30000949284602F0FAFF00283FF44FAF054B2D
:103F40001B680F229A6349E70008024058030020CB
:103F5000E8020020E40500200000C04000004041CD
:103F6000C1CABC41C8020020DF9304002DE9F04F14
:103F700089B0FCF77BFA00F0E9F900F063FA00F091
:103F8000B1FB00F0EBFB00F02FFCFEF70DFFFEF79E
:103F900099FF00F097FD00F091FC00F0D1FC00F0DB
:103FA000E1FD00F00FFD00F0C3FD00F069FDFFF73B
:103FB00049FB6548FEF713FA6448FEF710FA4FF024
:103FC0000008C34647464FF0010ADFF8A8910026D3
:103FD00019E05F4B5B78E3B95D4B1A78059B9A4219
:103FE00017D1FFF745FB06464FF0000A14E0FCF737
:103FF00063FA8046FEF76AFE07464FF0000B47E083
:10400000484600F067FEFEF7ABFF514B9B78032B51
:10401000DFD0BAF1000FE4D14D4DA87802F086FD53
:104020000446687802F082FD4A4902F08BFE0146A0
:10403000204602F0CBFC044601463046FFF730FD37
:10404000FFF75AFD21463046FFF7B8FD21463046BE
:10405000FFF788FE21463046FFF7AEFAFFF74AF831
:1040600000F00EFE2B7800936B78AA783A4905A8E9
:1040700003F092FD6FF07F00FEF74EFE05A8FEF7FD
:10408000CEFEFCF719FAA0EB0800B0F5C86FAED26F
:10409000012FB5D1BBF1000FB2D1304DA878304C13
:1040A000A4FB0030C0083030EB78A4FB0312D20828
:1040B00002EB8202A3EB4203DBB23033184402F07E
:1040C00039FD81460120FEF7B5FE0220FCF7FAF922
:1040D0000420FEF7AFFE2348FEF72FFFA878A4FBCD
:1040E0000030C0083030FEF7C9FEE878A4FB00239A
:1040F000DB0803EB8303A0EB4300303040B2FEF754
:10410000BDFE1948FEF719FF4120FEF793FE174840
:10411000FEF713FF2878A4FB0030C0083030FEF70C
:10412000ADFE6878A4FB0034E40804EB8404A0EB43
:10413000440404F1300040B2FEF7A0FE0C48FEF744
:10414000FCFEBB465CE700BF940500205405002040
:10415000DC0500200000C842A0960008D40500201D
:10416000CDCCCCCCB0960008B4960008B896000828
:10417000C09600080000A0417047000008B54FF449
:1041800000410348FCF774FE012800D0002008BD60
:10419000000C0240034B1A6800235362536A8342A7
:1041A000FCD370475405002082B0002100910B4BD6
:1041B0005A6C42F480425A645A6C02F48042009273
:1041C000009A01911A6C42F080521A641B6C03F041
:1041D00080530193019B02B0704700BF003802403A
:1041E00030B589B000230393049305930693079396
:1041F0000268234B9A4201D009B030BD0446002525
:10420000019503F5E2331A6C42F000521A641A6CFD
:1042100002F000520192019A02951A6B42F00102DB
:104220001A631B6B03F001030293029B1023039399
:1042300003230493059503A91248FCF727FD1248B0
:10424000124B03604FF06063436040238360C5609E
:104250004FF4806303614FF4805343614FF4804314
:1042600083614FF48073C36105624562FCF73AFBDA
:1042700018B9054BA3609C63BEE7FFF77DFFF8E725
:104280000074004000000240C80400208860024022
:104290007047000084B00368B3F1804F07D0174A1D
:1042A000934211D0164A93421BD004B070470023AA
:1042B0000193144B1A6C42F001021A641B6C03F058
:1042C00001030193019BF0E7002302930D4B1A6C4D
:1042D00042F008021A641B6C03F008030293029B6D
:1042E000E3E700230393074B5A6C42F480325A648D
:1042F0005B6C03F480330393039BD6E7000C004010
:1043000000400140003802407047FEE7FEE7FEE74C
:10431000FEE770477047704708B5FCF7C1F808BD65
:1043200008B50248FCF7C4FB08BD00BFC804002064
:1043300008B502F0B9FF162303604FF0FF3008BD47
:1043400008B54FF0FF31FFF7F3FFFEE730B5A1B03E
:1043500030252A46002114A802F0BAFF00240F9449
:1043600010941194129413942A46214603A802F043
:10437000AFFF0194304B1A6C42F080521A641B6CF0
:1043800003F080530193019B02942C4B1A6842F472
:1043900040421A601B6803F440430293029B0123CE
:1043A00014934FF48033159302221A924FF4800332
:1043B0001B9304231C93B4211D911E921F9314A8D8
:1043C000FDF7E6FA70BBFDF7A3FA70BB0F230F935E
:1043D00002231093002311934FF4A05312934FF430
:1043E0008053139305210FA8FDF72EFD00BB20235A
:1043F00003934FF480730D9303A8FDF7EBFDFDF7D6
:10440000D3FD0F4BA3FB00308009FCF7C3F8042059
:10441000FCF7D6F8002211464FF0FF30FCF778F891
:1044200021B030BDFFF7A8FECDE7FFF7A5FECDE731
:10443000FFF7A2FEDBE700BF00380240007000403B
:10444000D34D62102DE9F04F89B0002500959B4BAC
:104450001A6B42F001021A631A6B02F00102009219
:10446000009A01951A6B42F002021A631A6B02F06D
:1044700002020192019A02951A6B42F004021A6339
:104480001A6B02F004020292029A03951A6B42F030
:1044900008021A631A6B02F008020392039A049549
:1044A0001A6B42F010021A631A6B02F010020492A7
:1044B000049A05951A6B42F020021A631A6B02F0F7
:1044C00020020592059A06951A6B42F040021A6383
:1044D0001A6B02F040020692069A07951A6B42F098
:1044E00080021A631B6B03F080030793079BDFF8BE
:1044F000E4B12A464FF490415846FCF7C0FCDFF87F
:10450000D8812A464AF602414046FCF7B8FCDFF85B
:10451000CC912A464FF441714846FCF7B0FC2A463C
:1045200004216748FCF7ABFCDFF8B4A12A4614214C
:104530005046FCF7A4FC2A460C214046FCF79FFCA1
:10454000604C48F22143236065600227A760214642
:104550005846FCF79BFB4023236065600126A6605C
:1045600021464846FCF792FB4FF4A0532360656058
:10457000A76021465448FCF789FB4FF49043236021
:104580006660A560E56021465846FCF77FFB302356
:1045900023606760A560E560276121464B48FCF712
:1045A00075FB4FF4015323606760A560E5602761E8
:1045B00021465846FCF76AFB4FF44043236067608E
:1045C000A560E5600923236121464048FCF75EFBB6
:1045D0004FF42C4323606660A560E56021464046A9
:1045E000FCF754FB4FF4384323606560A760214615
:1045F0004846FCF74BFB4FF4805323606560A7608F
:1046000021464046FCF742FB4FF0040BC4F800B0D3
:104610006660A560E56021462948FCF737FB276006
:104620006560A76021464046FCF730FB40232360CD
:104630006560A66021465046FCF728FB14232360E2
:104640006660A560E56021465046FCF71FFB20230D
:1046500023606560A66021465046FCF717FB4FF4C7
:10466000417323606560A66021464846FCF70EFB57
:104670000C2323606660A560E56021464046FCF798
:1046800005FB134F2A4659463846FCF7F8FBC4F899
:1046900000B06660A560E56021463846FCF7F6FA92
:1046A0004FF4405323606660A560E56021460648EC
:1046B000FCF7ECFA09B0BDE8F08F00BF003802400B
:1046C000001C024040050020000802400004024097
:1046D00000000240000C024000180240001402409A
:1046E0000010024010B582B000230193154A116CEE
:1046F00041F400111164126C02F400120192019A4B
:10470000114C124A2260124A62604FF48042A26049
:10471000E36022616361A361E36123620D494FF4A9
:1047200010730B6004230B6112234B6001238B6019
:104730000323CB600848FCF7A9FA2046FCF7DCFD10
:1047400002B010BD00380240980300200054004021
:10475000801A0600400500200004024010B582B017
:10476000002300931A4A116B41F002011163116B8F
:1047700001F00201009100990193116C41F4800154
:104780001164126C02F480020192019A114C124AD7
:104790002260124A6260A360E3604FF480422261AB
:1047A0006361A361E36123620D494FF440630B60D1
:1047B00004230B6112234B6001238B600323CB6026
:1047C0000848FCF763FA2046FCF796FD02B010BDDE
:1047D00000380240EC03002000580040A086010091
:1047E00040050020000402402DE9F04385B000237D
:1047F00001932B4A116B41F004011163116B01F01D
:104800000401019101990293116B41F001011163BF
:10481000116B01F00101029102990393116C41F4B3
:1048200000011164126C02F400020392039A1D4D00
:104830001D4A2A601D4A6A60AB60EB604FF48042FB
:104840002A616B61AB61EB612B62194C4FF4007311
:1048500023604FF01209C4F804904FF00108C4F827
:1048600008800327E7600426266121461148FCF7EB
:104870000DFA4FF480732360C4F80490C4F80880E4
:10488000E760266121460C48FCF700FA2846FCF751
:1048900033FD10B905B0BDE8F083FFF76DFCF9E713
:1048A0000038024004030020005C0040A0860100A4
:1048B00040050020000802400000024000B58DB015
:1048C000002300931B4A116C41F002011164126C29
:1048D00002F002020092009A019302931648174ACE
:1048E0000260436083606422C260036183610122CD
:1048F00003920493059206930793089309920A93EF
:104900000B9303A9FDF718FE70B9002301930293DE
:1049100001A90948FEF704F848B93C210648FDF70B
:10492000DDFF0DB05DF804FBFFF726FCEDE7FFF7B8
:1049300023FCF2E700380240880400200004004015
:1049400000B58DB0002300931B4A116C41F00401A7
:104950001164126C02F004020092009A0193029317
:104960001648174A0260436083606422C260036194
:10497000836101220392049305920693079308939F
:1049800009920A930B9303A9FDF7D6FD70B9002392
:104990000193029301A90948FDF7C2FF48B93C21E0
:1049A0000648FDF79BFF0DB05DF804FBFFF7E4FB45
:1049B000EDE7FFF7E1FBF2E7003802405803002083
:1049C0000008004000B58DB000230093294A116C07
:1049D00041F040011164126C02F040020092009A12
:1049E000089309930A930B930193029303930493FF
:1049F0000593069307932048204A026040F2C112B3
:104A00004260836040F2F312C26003618361FDF78C
:104A10005FFD00BB4FF48053089308A91648FDF7CB
:104A20008AFED8B91448FDF76DFDD0B96023019313
:104A3000002202920392059201A90F48FDF702FE9F
:104A400090B904220DEB02010B48FDF7FBFD70B994
:104A50000DB05DF804FBFFF78FFBDBE7FFF78CFB86
:104A6000E0E7FFF789FBE1E7FFF786FBE9E7FFF700
:104A700083FBEDE700380240E40500200018004009
:104A800000B583B00023009301930C480C4B0360E6
:104A9000FBF7A6FD58B92423009300220192694632
:104AA0000648FBF75FFE28B903B05DF804FBFFF78B
:104AB00063FBF0E7FFF760FBF6E700BF2805002087
:104AC0000074004000B587B0002302930393049361
:104AD00005930093019315484FF0804202604360B4
:104AE00083605922C26003618361FDF7F1FC98B9CC
:104AF0004FF48053029302A90C48FDF71CFE70B9D5
:104B0000202300930023019369460848FDF708FF1E
:104B100040B907B05DF804FBFFF72EFBE8E7FFF7AD
:104B20002BFBEDE7FFF728FBF3E700BF9405002020
:104B300000B583B000210191094B1A6B42F40012B9
:104B40001A631B6B03F400130193019B0A461020A8
:104B5000FBF7DEFC1020FBF70FFD03B05DF804FB54
:104B60000038024000B585B0002300930193029302
:104B700003930F480F4A0260B322426083604FF6EE
:104B8000FE72C26003618361FDF7A2FC50B94FF46D
:104B90008053009369460648FDF7CDFD28B905B05E
:104BA0005DF804FBFFF7E8FAF1E7FFF7E5FAF6E74F
:104BB0005405002000400140024B4FF000629A6013
:104BC000704700BF00ED00E0224B9B6803F00C0330
:104BD000042B14D0082B16D01BB11F4B1F4A1A6090
:104BE00002E01D4B1D4A1A601A4B9B68C3F3031366
:104BF0001B4AD15C184A1368CB4013607047164BB0
:104C0000184A1A60F0E7134B5A685B6803F03F03D9
:104C100012F4800F13D0134AB2FBF3F20D4B5B6812
:104C2000C3F3881303FB02F30A4A5268C2F301423A
:104C300001325200B3FBF2F3074A1360D4E7074A8C
:104C4000B2FBF3F2034B5B68C3F3881303FB02F37D
:104C5000EAE700BF00380240140000200024F400FE
:104C6000C496000840787D0108B54FF48051034890
:104C7000FCF7FEF8012800D0002008BD0018024013
:104C800008B5FFF7F1FF10B1104B1B683BB1FFF700
:104C9000EBFF18B90D4B1B68012B08D008BD012292
:104CA0000A4B1A6004210A48FCF7E9F8F6E7FBF71B
:104CB00003FC4EF65F239842F0D90022034B1A60A2
:104CC00004210348FCF7DBF8E8E700BFF00200200E
:104CD000001C024010B50446FFF750FA00282ED001
:104CE0001C49204602F022F910B11B4B1B68F3B19E
:104CF0001A49204602F024F910B1174B1B68FBB18A
:104D00001449204602F01CF9C8B11449204602F0AB
:104D10000DF9A0B1104B1B68012B10D100220E4BD6
:104D20001A604FF400510E48FCF7A9F807E0012281
:104D3000094B1A604FF400510948FCF7A0F810BD68
:104D40000122054B1A604FF400510548FCF797F813
:104D5000F5E700BF0000A041EC0200200000C841C0
:104D600000080240F0B5294D21F00043AB4287B066
:104D700020DD274DAB4209DD02460B4601F086F9E6
:104D800002460B461046194607B0F0BD02AA00F0D5
:104D900043F800F00300012818D002282AD0F0B10F
:104DA000DDE90423DDE9020100F05AFA024601F1CF
:104DB0000043E7E7002300930022002300F0A4FF54
:104DC0000B4602461046194607B0F0BDDDE9042344
:104DD000DDE9020100F044FA0B460246D2E7012366
:104DE0000093DDE90201DDE9042300F08DFF0B46AD
:104DF0000246C7E701230093DDE90201DDE9042350
:104E000000F082FF024601F10043BBE7FB21E93FCE
:104E1000FFFFEF7F000000002DE9F04F8C4F21F0E5
:104E20000045BD428DB01446064640F38680894A4F
:104E300095428B4627DC00297BA3D3E9002340F36E
:104E4000B88101F023F9844B9D4206460F4600F0DD
:104E50008B8077A3D3E9002301F018F902460B46B3
:104E6000C4E900233046394601F010F970A3D3E9B4
:104E7000002301F00BF9C4E902014FF0010A50468A
:104E80000DB0BDE8F08F754A954240F38E80744AAC
:104E900095425EDC4FEA255AAAF2164AA5EB0A5162
:104EA0000F4601F045FD01F03FFA80468946304645
:104EB000394642464B46CDE9068901F0E7F8694B91
:104EC000002201F09BFA0F46064601F031FD05462F
:104ED00001F02AFA02460B4630463946CDE908234E
:104EE00001F0D4F85F4B002201F088FA02460B462D
:104EF000CDE90A230022002301F0E8FC002800F09D
:104F00005681002D0CBF01230223574A0192022132
:104F10005246009106A8214600F0CEFABBF1000FE0
:104F20008246ACDA6268E36802F1004203F10043B2
:104F3000C0F1000A6260E360A1E74FF0000AC4E933
:104F40000001002200235046C4E902230DB0BDE851
:104F5000F08F02465B4601F099F84FF0000AC4E971
:104F60000201C4E900018AE733A3D3E9002301F079
:104F70008DF833A3D3E9002306460F4601F086F8E7
:104F800002460B46C4E900233046394601F07EF85C
:104F90002BA3D3E9002301F079F84FF0010AC4E90B
:104FA000020150460DB0BDE8F08F00F06FFF26A360
:104FB000D3E9002306460F4601F020FA2B4B0022CE
:104FC00001F066F801F0B4FC824601F0ADF916A3D9
:104FD000D3E9002380468946CDE9048901F00EFA21
:104FE00002460B463046394601F050F806460F4659
:104FF00040464946B046B9460DA3D3E90023CDE962
:10500000028901F0FBF9BAF11F0F06460F4631DCA9
:10501000174B0AF1FF3253F82230AB422AD0024636
:105020000B46404649469EE000004054FB21F93FB4
:105030003163621A61B4D03D0000601A61B4D03DA2
:105040007370032E8A19A33B83C8C96D305FE43F98
:10505000FB21E93F7BD90240FB21F93FFB2139418C
:10506000FFFFEF7F000070415C9700080000E03F09
:10507000DC9600083B46DDE90201324601F006F805
:10508000C1F30A53C3EB1553102B894680464FEAF0
:1050900025556CDD66A3D3E90023DDE9040101F0A9
:1050A000ADF906460F4602460B46DDE9020100F067
:1050B000EDFF8046894642464B46DDE9020100F09D
:1050C000E5FF32463B4600F0E1FF5BA3D3E9002356
:1050D00006460F46DDE9040101F090F932463B46F1
:1050E00000F0D4FF0B46024606460F4640464946AE
:1050F000CDE9028900F0CAFFC1F30A53ED1A312D40
:105100008946804633DD4EA3D3E90023DDE904015F
:1051100001F074F9DDE9025602460B4680468946E5
:105120002846314600F0B2FF02460B46284631467B
:10513000CDE9022300F0AAFF42464B4600F0A6FF4D
:1051400041A3D3E9002306460F46DDE9040101F03F
:1051500055F932463B4600F099FF06460F46024697
:105160000B46DDE9020100F091FF80468946424688
:105170004B46C4E90023DDE9020100F087FF324617
:105180003B4600F083FFBBF1000F02460B46C4E92B
:1051900002230546BFF673AE09F1004301F1004159
:1051A000C4E90083C4E90251CAF1000A67E6032397
:1051B000ABE600F06DFF284B9D4206460F4616D029
:1051C00023A3D3E9002300F063FF02460B46C4E9A2
:1051D00000233046394600F059FF1DA3D3E90023D0
:1051E00000F056FF4FF0FF3AC4E9020147E610A372
:1051F000D3E9002300F04CFF0FA3D3E900230646B8
:105200000F4600F045FF02460B46C4E90023304636
:10521000394600F03BFF08A3D3E9002300F038FF34
:105220004FF0FF3AC4E9020129E600BFAFF3008066
:105230000000601A61B4D03D7370032E8A19A33B3D
:105240000000002E8A19A33BC14920259A837B398F
:105250003163621A61B4D03DFB21F93F00000000C8
:105260002DE9F04D21F0004786B0B7F1795FCDE927
:105270000023884606466DDA01F05AFB002800F04C
:10528000EF80324643463046414601F0B7F878A3F6
:10529000D3E9002304460D4601F0B0F876A3D3E924
:1052A000002300F0F5FE22462B4601F0A7F874A378
:1052B000D3E9002300F0EAFE22462B4601F09EF8D7
:1052C00071A3D3E9002300F0E3FE22462B4601F050
:1052D00095F86FA3D3E9002300F0D8FE22462B46B1
:1052E00001F08CF86CA3D3E9002300F0D1FE224634
:1052F0002B4601F083F8CDE90201694B00222046DC
:10530000294601F07BF8DDE9022382468B462046E0
:10531000294601F073F802460B461F4630464146C7
:105320001646DDE9002301F069F802460B463046D7
:10533000394600F0ABFE02460B465046594600F097
:10534000A5FE02460B460020564900F09FFE06B01F
:10535000BDE8F08D02460B4601F050F844A3D3E9B6
:10536000002304460D4601F049F843A3D3E9002386
:1053700000F08EFE22462B4601F040F840A3D3E910
:10538000002300F083FE22462B4601F037F83EA3AF
:10539000D3E9002300F07CFE22462B4601F02EF8D4
:1053A0003BA3D3E9002300F071FE22462B4601F017
:1053B00025F839A3D3E9002300F06AFE2B462246E4
:1053C00001F01CF8384B9F42CDE9020195DD374BC7
:1053D0009F423CDC4FF0000AA7F5001B31495246C2
:1053E0005B46002000F052FECDE904012C4B002268
:1053F0002046294601F002F852465B4600F046FE80
:10540000DDE9022382468B462046294600F0F6FF5E
:1054100002460B461F46304641461646DDE900234C
:1054200000F0ECFF02460B463046394600F02EFEF7
:1054300002460B465046594600F028FE02460B46EF
:10544000DDE9040100F022FE06B0BDE8F08D184B46
:10545000DFF860B00022CDE904234FF0000AC5E771
:105460001049002006B0BDE8F08D00BFAFF300800A
:10547000D43888BEE9FAA8BDC4B1B4BD9EEE213EC1
:10548000AD529C804F7E923E9015CB19A001FA3E02
:105490007751C1166CC1563F4C5555555555A53FD2
:1054A0000000E03F0000F03F3233D33F0000E93F0F
:1054B0000000E73F0000D23F2DE9F04FADF5197D28
:1054C000BA4CA29D089354F825400594013B12F173
:1054D000140F07460B910393C0F24283B449D31EC5
:1054E00081FB0301DB17C3EBA10307930133A3EB9C
:1054F0008303DB00D3180693079A039BD61A059AF9
:1055000012EB03091BD409F10109DDF88CA2B144A7
:105510000DF180080024002508E05AF8260000F06C
:1055200003FF01364E45E8E8020108D0002EF4DA08
:105530000136204629464E45E8E80201F6D1059B92
:10554000002BA7F108030493C0F2BA831946089B05
:10555000DDF80C90DA000292059A01EBC30820A94D
:1055600001EBC30AD3180DF5E07B0193039B002BDD
:10557000C0F2B181049E57460024002577E902233A
:10558000F6E9020100F03AFF02460B4620462946A2
:1055900000F07EFD464504460D46EFD1019B09F122
:1055A00001099945EBE802450AF1080ADED1059A9E
:1055B00004980CA901EB820302990144083B8B4635
:1055C0000BA90993134601EB82020A920193019AF7
:1055D00098A901EBC203002A53E928452ADD0DF5FD
:1055E000E07A0AEBC2080DF13009724B0022204626
:1055F000294600F003FF01F09BF900F095FE6E4B89
:10560000002206460F4600F0F9FE02460B462046F1
:10561000294600F03BFD01F08BF9044678E90223AE
:1056200049F8044B3046394600F032FDD045044677
:105630000D46DAD1DDF81890204629464A4600F09A
:10564000A7FC00224FF07F5304460D4600F0D6FE23
:1056500000F022FC594B002200F0D0FE02460B461F
:105660002046294600F012FD0D46044601F060F97F
:10567000804600F059FE0B4602462946204600F0BF
:1056800005FD4B46002B06460F4640F39980019AD4
:105690000CA9013AC9F1180351F8225045FA03F157
:1056A00001FA03F3EB1AC9F117050CA843FA05F543
:1056B000002D40F82230884400F38C800022002323
:1056C0003046394601F002F9002800F05082019B73
:1056D000059A03F1FF3A524510DC03F180430CAA0E
:1056E000013B0A9802EB8303002253F8041983421A
:1056F00042EA0102F9D1002A40F0F080059B0CAA91
:10570000013B52F82330002B40F0E080099A01233E
:1057100052F8041901330029FAD001994A1CCB1818
:1057200002939146079B089902EB030A019B0B44E5
:10573000984620AB0AF1804A03EBC808A39B0AF104
:10574000FF3A03EB8A0A70AB03EBC20301935AF8EA
:10575000040F00F0E9FD039B002BC8E90001474658
:1057600008F108081EDB049E083F0024002501E024
:1057700077E80201F6E9022300F040FE02460B46FC
:105780002046294600F084FC5E4504460D46EFD1D4
:10579000019BE3E802450193029B09F10109994548
:1057A000D5DD13E700240025F2E700BFA898000824
:1057B000ABAAAA2A0000703E000070410000204001
:1057C0006BD1019B0CAA013B52F82350ED15002D23
:1057D0007FF774AF019B002B08F1010840F3C581EE
:1057E0000C9C002C51D1019B012B20D00CAB012231
:1057F00053F8044F002C4BD0531C0CA9C4F18074F7
:1058000041F822400199994210DD0CAA0CA852F8E7
:10581000232000EB830300EB81006FF07F4100E069
:105820001A688A1A43F8042B8342F9D10124069B93
:10583000002B0EDD012B00F07A81022B09D1019B98
:105840005A1E0CAB0CA953F82230C3F3150341F8D0
:105850002230022D7FF432AF32463B46BC49002055
:1058600000F014FC06460F46002C3FF427AF069AC2
:10587000B749002000F08CFB02460B463046394603
:1058800000F004FC06460F4618E701230022B4E7A7
:10589000019901328A42ABD1C9E7AE4B002201F037
:1058A00033F8054600283FF409AF019B002B08F1AF
:1058B0000108C8BF022593DC32463B46A4490020BC
:1058C00000F0E4FB022506460F46F7E6019B5A1C52
:1058D0009146029226E7002400255FE60CAB069A6B
:1058E00053F82A30CDF81C80183A0395069273B904
:1058F000019B03F18043023B0CA901EB830353F8A6
:1059000004190AF1FF3A183A0029F8D00692069ACB
:105910008F49002000F03CFBBAF1000F04460D4611
:10592000C0F2D28170AB03EBCA0B0CAA0AF10103DF
:10593000069302EB83084FEACA030BF108090493AC
:1059400058F8040D00F0F0FC22462B4600F056FDFE
:1059500006460F46804B2046294669E90267002229
:1059600000F04CFD0CAB984504460D46E8D148AB21
:10597000CDE9013ADDF814A0BAF1000F4FF00009AB
:105980002CDB71A3D3E90023DFF8D0815F4600242C
:105990000025002603E0B14510DBF8E80223F7E814
:1059A000020100F02BFD02460B462046294600F07E
:1059B0006FFB0136B24504460D46ECDA019B029AB4
:1059C00003EBC9039145C3E90045ABF1080B09F1AD
:1059D000010306D0BAF1000F9946D2DA002400255F
:1059E000ECE7A29BDDF808A0022B23DC002B00F3E0
:1059F000F18018D1049CA29A019D08342C441346CE
:105A00001046194674E9022300F042FBA542024603
:105A10000B46F5D1039909B103F1004319460B9BDD
:105A20001046C3E90001079B03F007000DF5197D3F
:105A3000BDE8F08FA29B032BF5D1BAF1000F00F067
:105A40005981019B049A03EB020BDBE900455BE9FA
:105A500002672046294632463B4600F019FBA04625
:105A6000A94604460D4622462B463046394600F0EC
:105A70000DFB4B46424600F00BFBCBE900016BE906
:105A80000245019B5B45E2D1BAF1010F40F332813F
:105A9000049B019A1344D3E9004502939A460DF5FD
:105AA000947B5AE902672046294632463B4600F07D
:105AB000EFFAA046A94604460D4622462B4630463C
:105AC000394600F0E3FA42464B4600F0E1FACAE9F3
:105AD00000016AE90245D345E3D1029C0199002304
