:020000040800F2
:1000000000000320C1020008212300082323000868
:1000100025230008272300082923000800000000EA
:100020000000000000000000000000002B2300087A
:100030002D230008000000002F23000831230008B2
:10004000E51F0008E51F0008E51F0008E51F000880
:10005000E51F0008E51F0008E51F0008E51F000870
:10006000E51F0008E51F0008E51F0008E51F000860
:10007000E51F0008E51F0008E51F0008E51F000850
:10008000E51F0008E51F0008E51F0008E51F000840
:10009000E51F0008E51F0008E51F0008E51F000830
:1000A000E51F0008E51F0008E51F0008E51F000820
:1000B000E51F0008E51F0008E51F0008E51F000810
:1000C000E51F0008E51F0008E51F0008E51F000800
:1000D000E51F0008E51F0008E51F0008E51F0008F0
:1000E000E51F0008E51F0008E51F0008E51F0008E0
:1000F000E51F0008E51F0008E51F0008E51F0008D0
:10010000E51F0008E51F0008E51F0008E51F0008BF
:10011000E51F0008E51F0008E51F0008E51F0008AF
:10012000E51F0008E51F0008E51F0008E51F00089F
:10013000E51F0008E51F0008E51F0008E51F00088F
:10014000E51F0008E51F0008E51F0008E51F00087F
:10015000E51F0008E51F0008E51F0008E51F00086F
:10016000E51F0008E51F0008E51F0008E51F00085F
:10017000E51F0008E51F0008E51F0008000000005B
:10018000E51F0008E51F0008E51F0008E51F00083F
:10019000E51F0008E51F0008E51F0008E51F00082F
:1001A000E51F0008E51F0008E51F000800B583B043
:1001B00001F07EFE304B314A1360314A1360314BFF
:1001C000314A03E052F8041B43F8041B2F498B42C9
:1001D000F8D32A4B1A682E4B9A4200D0FEE7284BE0
:1001E0001A682C4B9A42F9D1234B2B4A13602B4AA5
:1001F00013602B4B02E0002243F8042B294A934260
:10020000F9D3254B1B6813B9244B1B6803B1FEE7D8
:1002100001F05AFE694601A801F0F4FD224C234B7F
:10022000E41AA410002504E0204B53F82530984729
:100230000135AC42F8DC1E4C1E4BE41AA41000251C
:1002400004E01C4B53F8253098470135AC42F8DCEC
:100250000099019802F00AF80546174C174BE41A6A
:10026000A41004E0013C154B53F824309847002CAF
:10027000F8DC284602F068F8BABADECA00000020AE
:10028000E80100200000002020590008EC010020B7
:100290007856341232547698EC0100204C0300203A
:1002A000EC0100205003002014040008140400088E
:1002B00014040008140400081404000814040008BE
:1002C00008B5FFF773FF00BEFEE71EF0040F0CBF7A
:1002D000EFF30880EFF309807146414A10472DE99A
:1002E000F04182B004460D46124B5F6BD3F8388064
:1002F0009E6A1B6B13F0020F03D00E4BDB6A002BC0
:100300000BDB0D4801F086FD009543463A46314629
:10031000204601F0DDFD00BEFEE74BF6AB6101F0CB
:1003200051FE0028EDD0034B4FF00042DA6202B0DC
:10033000BDE8F08100ED00E06056000800BEFEE779
:100340001EF0040F0CBFEFF30880EFF30980714635
:10035000244A10472DE9F04182B004460D46084B6F
:100360005F6BD3F838809E6A064801F053FD009514
:1003700043463A463146204601F0AAFD00BEFEE75C
:1003800000ED00E0705600081EF0040F0CBFEFF304
:100390000880EFF309807146134A10472DE9F041B8
:1003A00082B004460D46084B5F6BD3F838809E6AD6
:1003B000064801F02FFD009543463A463146204657
:1003C00001F086FD00BEFEE700ED00E07C5600086F
:1003D00000BEFEE700BEFEE700BEFEE7704700007D
:0C03E000DF020008550300089D03000820
:1003EC002059000800000020EC01002020590008D2
:1003FC000000001000000010EC0100205003002051
:08040C000000001000000010C8
:1004200010B504460E4B18784FF47A73B3FBF0F313
:100430000C4A1068B0FBF3F000F09EF868B90F2C7E
:1004400001D901200AE0002221464FF0FF3000F0E0
:100450005FF8054B1C60002000E0012010BD00BFCC
:1004600004000020140000200800002008B50B4BF9
:100470001A6842F400721A601A6842F480621A60C4
:100480001A6842F480721A60032000F02FF80020EE
:10049000FFF7C6FF01F028FF002008BD003C024026
:1004A000034A1168034B1B780B441360704700BF6D
:1004B0008002002004000020014B1868704700BF34
:1004C0008002002038B50446FFF7F6FF0546B4F178
:1004D000FF3F02D0044B1B781C44FFF7EDFF401B8D
:1004E000A042FAD338BD00BF04000020074AD368F9
:1004F00023F4E0631B041B0C000200F4E0600343E0
:1005000043F0BF6343F40033D360704700ED00E075
:1005100030B4174BDB68C3F30223C3F10704042C88
:1005200028BF04241D1D062D18D9033B4FF0FF35AD
:1005300005FA04F421EA0401994005FA03F322EADA
:100540000303194300280BDB0901C9B200F1604025
:1005500000F5614080F8001330BC70470023E5E7E8
:1005600000F00F000901C9B2024B1954F4E700BFB3
:1005700000ED00E014ED00E00138B0F1807F0AD218
:10058000064B5860064AF02182F82310002098603C
:1005900007221A6070470120704700BF10E000E09A
:1005A00000ED00E0042805D0054A136823F0040399
:1005B00013607047024A136843F0040313607047E6
:1005C00010E000E000230F2B00F2E580F0B583B0CF
:1005D00039E0092200E00022B2403A4302346E4E74
:1005E00046F824206D4A1468EA4324EA05064F6859
:1005F00017F4803F01D045EA0406684C2660646821
:1006000002EA04064F6817F4003F01D045EA0406E9
:10061000624C6660A46802EA04064F6817F4801F03
:1006200001D045EA04065D4CA660E46822404E68AD
:1006300016F4001F01D045EA0402584CE260013371
:100640000F2B00F2A68001229A400C6804EA0205F2
:1006500032EA0404F3D14C68661E012E03D9112C32
:1006600001D0122C12D186685F000324BC4026EA18
:100670000406CC68BC4034438460466826EA02061F
:100680004C68C4F300129A4032434260C7685E006F
:100690000324B440E24327EA04078C68B4403C4397
:1006A000C4604C68022C01D0122C13D1DF0808372B
:1006B00050F827E003F007044FEA840C0F2404FAF3
:1006C0000CF42EEA040E0C6904FA0CF444EA0E044D
:1006D00040F82740046814404A6802F00302B24020
:1006E000224302604A6812F0805FA8D00022019283
:1006F0002B4A546C44F480445464526C02F480429B
:100700000192019A9C08A61C234A52F8267003F015
:10071000030296000F22B24027EA0207214A9042C4
:100720003FF459AF02F58062904222D002F5806218
:10073000904220D002F5806290421ED002F5806285
:1007400090421CD002F5806290421AD002F580627D
:10075000904218D002F58062904216D002F5806275
:10076000904214D002F5806290423FF432AF0A22E8
:1007700032E7012230E702222EE703222CE704228F
:100780002AE7052228E7062226E7072224E708228F
:1007900022E703B0F0BD704700380140003C014043
:1007A00000380240000002400AB18161704709042C
:1007B0008161704703685A6912F4806F01D100208B
:1007C00070476FF480625A6100230363202280F82F
:1007D0003D2080F83E30026C42F00402026480F852
:1007E0003C30012070472DE9F04107460D46904608
:1007F0001E4622E0FFF760FE069BC01AB04200D8FA
:10080000DEB900233B63202287F83D2087F83E3085
:100810003A6C42F020023A6487F83C3001201AE03A
:100820003B689C6925EA0404A4B2B4FA84F4640920
:10083000A0450FD1B6F1FF3FDCD1C5F30743012B33
:10084000EED13B685C6925EA0404A4B2B4FA84F4EE
:100850006409EDE70020BDE8F0812DE9F04105468F
:100860000E46174698463DE01A6842F400721A6038
:100870002B686FF480625A6100232B63202285F875
:100880003D2085F83E302A6C42F004022A6485F847
:100890003C30012034E0FFF70FFEA0EB0800B84227
:1008A00000D8FFB900232B63202285F83D2085F86E
:1008B0003E302A6C42F020022A6485F83C30012048
:1008C0001EE02B689C6926EA0404A4B2003C18BF11
:1008D0000124A4B12B685A6912F4806FC4D1B7F116
:1008E000FF3FD8D1C6F30743012BEAD12B685C69DF
:1008F00026EA0404A4B2003C18BF0124E9E7002062
:10090000BDE8F081F0B583B004460D4616461F469B
:10091000C36A082B0DD0012B0BD013F5803F08D0F4
:10092000036B122B0AD10268136843F480731360BF
:1009300004E02268136843F4807313600097334621
:1009400000224FF001112046FFF74DFF80B92369C7
:10095000B3F5804F16D1236805F0FE051D613B46B7
:10096000324613492046FFF778FFF8B903B0F0BDCF
:1009700023681B6813F4807F02D04FF40073236454
:100980000320F3E7EB11226803F0060343F0F003C2
:1009900013613B46324607492046FFF75EFF18B910
:1009A0002368EDB21D61DAE70120DFE70120DDE712
:1009B000020001000800010070B504460D4616460D
:1009C00023685B6913F0800F1CD12046FFF7F2FE0D
:1009D000D0B9B5F1FF3FF3D0FFF76EFD801BA84201
:1009E00001D8002DECD100232363202284F83D2080
:1009F00084F83E30226C42F02002226484F83C30BD
:100A0000012000E0002070BD0120FCE72DE9F0434B
:100A100085B004460D4691461F46DDF830800D9E98
:100A20000368196841F480711960009643460022FA
:100A30004FF00111FFF7D7FE60B9236805F0FE05FE
:100A40001D613346424626492046FFF706FF68B13E
:100A5000012008E023681B6813F4807F02D04FF464
:100A600000732364032005B0BDE8F08300230393E3
:100A700023685A6903929B690393039B324641465C
:100A80002046FFF799FF30B9012F0FD123685FFA95
:100A900089F61E61E7E7236C042B01D00120E2E711
:100AA0002268136843F400731360F7E723684FEA82
:100AB00019221A61324641462046FFF77DFF20B9D0
:100AC00023685FFA89F61E61CDE7236C042B01D001
:100AD0000120C8E72268136843F400731360F7E746
:100AE000020001002DE9F04784B004460D46164689
:100AF00099460C9FDDF834800268136843F48063E4
:100B000013600368196841F480711960CDF80080A2
:100B10003B4600224FF00111FFF765FE70B95FFA06
:100B200085FA236805F0FE051D6143463A464149B2
:100B30002046FFF792FE68B1012008E023681B6899
:100B400013F4807F02D04FF400732364032004B0B9
:100B5000BDE8F0870023039323685A6903929B69D9
:100B60000393039B424639462046FFF725FF80B991
:100B7000B9F1010F18D12368F6B21E614246394619
:100B80002046FFF719FF68B3236C042B24D0012003
:100B9000DDE7236C042B01D00120D8E7226813681D
:100BA00043F400731360F7E72368320A1A61424680
:100BB00039462046FFF700FF18B92368F6B21E61D8
:100BC000DCE7236C042B01D00120C0E72268136806
:100BD00043F400731360F7E72268136843F400736B
:100BE0001360D4E72268136843F480731360CDF870
:100BF00000803B4600224FF001112046FFF7F3FD35
:100C000068B922684AF00103136143463A4609492C
:100C10002046FFF722FE002899D0012097E723689D
:100C20001B6813F4807F02D04FF400732364032009
:100C30008DE700BF0200010070B504460D46164660
:100C400023685B6913F0040F1CD12046FFF7B2FD47
:100C5000D0B9B5F1FF3FF3D0FFF72EFC801BA842BF
:100C600001D8002DECD100232363202284F83D20FD
:100C700084F83E30226C42F02002226484F83C303A
:100C8000012000E0002070BD0120FCE770B50546A2
:100C90000C4616462B68596911F0400F29D1596945
:100CA00011F0100F15D1FFF707FC801BA04201D8EF
:100CB000002CEFD100232B63202285F83D2085F8FE
:100CC0003E302A6C42F020022A6485F83C30012034
:100CD00070BD6FF010025A6100232B63202285F84B
:100CE0003D2085F83E302A6C2A6485F83C3001208E
:100CF000EEE70020ECE77047002800F0CC80F8B564
:100D0000044690F83D30002B77D0242384F83D3002
:100D10002268136823F0010313602268136843F408
:100D2000004313602268136823F40043136000F04B
:100D3000F3FE62685A4B9A4264D85A4B98428CBF71
:100D400000230123002B40F0A880574DA5FB003560
:100D5000AF0C2668716821F03F0141EA954171604E
:100D600021680B6A23F03F0365684D4A95424FD8CE
:100D70007A1C13430B622568E96921F44F4121F085
:100D8000FF016368464A93424CD801385B00B0FBD0
:100D9000F3F0013040F6FC73184278D0C0F30B0337
:100DA0000B43EB6121680B6823F0C003E269206A02
:100DB000024313430B6021688B6823F4034323F041
:100DC000FF032269E068024313438B602168CB680C
:100DD00023F0FF036269A06902431343CB602268DA
:100DE000136843F00103136000202064202384F87B
:100DF0003D30206384F83E00F8BD80F83C30FFF7BA
:100E00007AFF82E7294B98428CBF0023012399E7A0
:100E10004FF4967202FB07F2254DA5FB0252920990
:100E20000132A6E7A268BAB9461E03EB4307B6FB38
:100E3000F7F60136C6F30B06B6FA86F6760946BB18
:100E4000C2B9421E03EB4303B2FBF3F20132C2F319
:100E50000B0242F40043A3E7461E03EB830707EBB4
:100E60008707B6FBF7F60136C6F30B06B6FA86F629
:100E70007609E4E7421E03EB830303EB8303B2FB33
:100E8000F3F20132C2F30B0242F4404388E7042339
:100E900086E7012384E7012070470120ACE700BF0B
:100EA000A08601007F841E0083DE1B43FF083D00F7
:100EB000D34D62102DE9F04385B004460F469146AC
:100EC00098460C9EFFF7F8FA054694F83D00C0B22C
:100ED000202804D00227384605B0BDE8F0830095ED
:100EE000192301224F492046FFF77DFC002840F0DE
:100EF000928094F83C30012B00F08F80012384F81D
:100F00003C3023681A6812F0010F03D11A6842F0CE
:100F100001021A602268136823F40063136021231E
:100F200084F83D30102384F83E3000232364C4F855
:100F30002490A4F82A80638D23853B4BE3622B46E3
:100F4000324639462046FFF7DDFC0746002866D1C9
:100F50000023039323685A6903929B690393039BBD
:100F600011E0236C042B01D00127B4E72268136839
:100F700043F400731360F7E72A4631462046FFF733
:100F80005BFE00282ED1238D002B36D02A46314619
:100F90002046FFF711FD0028E3D1626A236812782A
:100FA0001A61616A4B1C6362638D9BB2013B9BB209
:100FB0006385238D013B9BB223852268506910F025
:100FC000040FD9D0002BD7D04B781361636A01335B
:100FD0006362638D9BB2013B9BB26385238D013BB2
:100FE0002385C9E7236C042B01D0012773E722680E
:100FF000136843F400731360F7E72268136843F43F
:1010000000731360202384F83D30002384F83E30C1
:1010100084F83C305FE702275DE702275BE70127A2
:1010200059E700BF020010000000FFFF2DE9F04368
:1010300083B004460F46904699460C9EFFF73CFA53
:10104000054694F83D00C0B2202803D0022003B02A
:10105000BDE8F0830095192301224B492046FFF794
:10106000C2FB002840F0898094F83C30012B00F04E
:101070008680012384F83C3023681A6812F0010F3F
:1010800003D11A6842F001021A602268136823F43F
:1010900000631360212384F83D30402384F83E3000
:1010A000002323640A9B6362BDF82C306385638D43
:1010B0002385364BE362019500964B4642463946FE
:1010C0002046FFF7A3FC00285BD1238D002B35D0F1
:1010D0002A4631462046FFF76FFC20BB626A236830
:1010E00012781A61616A4B1C6362228D013A92B2D6
:1010F0002285638D9BB2013B9BB26385236858694F
:1011000010F0040FE1D0002ADFD04A781A61636A38
:1011100001336362238D013B2385638D9BB2013BC9
:101120009BB26385D1E7236C042B01D001208EE7AD
:101130002268136843F400731360F7E72A463146C8
:101140002046FFF779FD50B1236C042B01D001201C
:101150007DE72268136843F400731360F7E72268A1
:10116000136843F400731360202384F83D30002398
:1011700084F83E3084F83C3069E7022067E70220BB
:1011800065E7012063E700BF020010000000FFFFD9
:101190002DE9F04387B004460F4690469946109ECD
:1011A000FFF78AF9054694F83D00C0B2202804D024
:1011B0000227384607B0BDE8F083009519230122C5
:1011C0009D492046FFF70FFB002840F0448194F82A
:1011D0003C30012B00F04181012384F83C3023682E
:1011E0001A6812F0010F03D11A6842F001021A6066
:1011F0002268136823F400631360222384F83D30CF
:10120000402384F83E30002323640E9B6362BDF8C4
:101210003C306385638D2385884BE362019500969E
:101220004B46424639462046FFF75CFC07460028FD
:1012300040F01581238D5BB9029323685A690292AD
:101240009A690292029A1A6842F400721A6098E04F
:10125000012B0AD0022B1AD00023059323685A6968
:1012600005929B690593059B8BE02268136823F424
:10127000806313600023039323685A6903929A6979
:101280000392039A1A6842F400721A6079E02268A5
:10129000136823F4806313602268136843F40063C7
:1012A00013600023049323685A6904929B69049392
:1012B000049B66E02A4631462046FFF7E7FC0028FB
:1012C00040F0CF8023681A69636A1A70636A013339
:1012D0006362238D013B2385638D9BB2013B9BB2EF
:1012E00063854EE000953346002255492046FFF7BE
:1012F0007AFA002840F0B7802268136843F400733C
:10130000136023681A69636A1A70626A531C636205
:10131000238D013B2385638D9BB2013B9BB263858B
:1013200023681B695370636A01336362238D013B39
:101330002385638D9BB2013B9BB2638521E02268CC
:10134000136843F40073136023681A69636A1A70A0
:10135000626A531C6362238D013B2385638D9BB2BC
:10136000013B9BB2638523681B695370636A013339
:101370006362238D013B2385638D9BB2013B9BB24E
:101380006385238D002B5DD0032B2BD8012B91D0AF
:10139000022BA7D000953346002229492046FFF7AB
:1013A00022FA002861D12268136823F48063136055
:1013B00023681A69636A1A70636A01336362238D52
:1013C000013B2385638D9BB2013B9BB263850095F6
:1013D000334600221A492046FFF705FA0028AED00E
:1013E0000127E6E62A4631462046FFF74FFC002853
:1013F0003DD123681A69636A1A70626A531C63627A
:10140000238D013B2385638D9BB2013B9BB263859A
:101410002368596911F0040FB3D01B695370636AD4
:1014200001336362238D013B2385638D9BB2013BB6
:101430009BB26385A5E700BF020010000000FFFF1C
:1014400004000100202384F83D30002384F83E305E
:1014500084F83C30ADE60227ABE60227A9E6012777
:10146000A7E60127A5E60127A3E60127A1E60127B4
:101470009FE600BF10B582B000230193194B1A6C90
:1014800042F080521A641B6C03F080530193019B5D
:10149000154B01221A60FFF70FF80446134B5B68E7
:1014A00013F4803F08D1FFF707F8001BB0F57A7FEF
:1014B000F4D9032002B010BD0D4B01221A60FEF7D3
:1014C000FBFF0446094B5B6813F4003F07D1FEF7AE
:1014D000F3FF001BB0F57A7FF4D90320EAE7002080
:1014E000E8E700BF0038024040000E4200700040B4
:1014F00044000E42002800F0D98170B582B0044645
:10150000036813F0010F3BD0A64B9B6803F00C035C
:10151000042B2CD0A34B9B6803F00C03082B21D089
:101520006368B3F5803F4FD0B3F5A02F52D09D4BE9
:101530001A6822F480321A601A6822F480221A6033
:101540006368002B50D0FEF7B7FF0546954B1B682C
:1015500013F4003F14D1FEF7AFFF401B6428F5D908
:101560000320AAE18F4B5B6813F4800FD8D08D4B1A
:101570001B6813F4003F03D06368002B00F09881D0
:10158000236813F0020F54D0864B9B6813F00C0FA6
:101590003ED0844B9B6803F00C03082B33D0E368E8
:1015A000002B67D0804B01221A60FEF785FF0546AD
:1015B0007C4B1B6813F0020F53D1FEF77DFF401BDD
:1015C0000228F5D9032078E1764A136843F4803382
:1015D0001360B5E7734B1A6842F480221A601A68E8
:1015E00042F480321A60ABE7FEF766FF05466D4BAA
:1015F0001B6813F4003FC3D0FEF75EFF401B642856
:10160000F5D9032059E1674B5B6813F4800FC6D10D
:10161000644B1B6813F0020F03D0E368012B40F00A
:101620004981604A136823F0F803216943EAC10342
:101630001360236813F0080F40D0636963B35B4BFA
:1016400001221A60FEF738FF0546564B5B6F13F018
:10165000020F33D1FEF730FF401B0228F5D90320DB
:101660002BE1504A136823F0F803216943EAC103D0
:101670001360DEE74C4B00221A60FEF71DFF0546A3
:10168000484B1B6813F0020FD3D0FEF715FF401B29
:101690000228F5D9032010E1444B00221A60FEF71E
:1016A0000BFF05463F4B5B6F13F0020F06D0FEF7B2
:1016B00003FF401B0228F5D90320FEE0236813F046
:1016C000040F78D0374B1B6C13F0805F0DD10023D3
:1016D0000193344B1A6C42F080521A641B6C03F075
:1016E00080530193019B012500E00025304B1B68CE
:1016F00013F4807F21D0A368012B32D0052B36D084
:10170000284B1A6F22F001021A671A6F22F00402A6
:101710001A67A368002B34D0FEF7CEFE0646214B95
:101720001B6F13F0020F45D1FEF7C6FE801B41F27E
:1017300088339842F3D90320BFE01D4A136843F46D
:1017400080731360FEF7B8FE0646194B1B6813F44E
:10175000807FD0D1FEF7B0FE801B0228F5D9032090
:10176000ABE0104A136F43F001031367D1E70D4B51
:101770001A6F42F004021A671A6F42F001021A67E8
:10178000C7E7FEF799FE0646064B1B6F13F0020FE4
:1017900010D0FEF791FE801B41F288339842F3D9B6
:1017A00003208AE00038024000004742800E474292
:1017B00000700040E5B9A369002B7DD0464A9268CD
:1017C00002F00C02082A51D0022B17D0434B002202
:1017D0001A60FEF771FE04463F4B1B6813F0007F52
:1017E00042D0FEF769FE001B0228F5D9032064E011
:1017F000394A136C23F080531364DCE7374B002223
:101800001A60FEF759FE0546334B1B6813F0007F44
:1018100006D0FEF751FE401B0228F5D903204CE00C
:10182000E369226A1343626A43EA8213A26A520896
:10183000013A43EA0243E26A43EA0263264A5360FA
:10184000264B01221A60FEF737FE0446224B1B6826
:1018500013F0007F06D1FEF72FFE001B0228F5D9FA
:1018600003202AE0002028E0002026E0012B26D0DB
:10187000194B9B6803F48001E269914221D103F086
:101880003F02216A8A421ED1616A47F6C0721A403D
:101890008A421AD103F44032A16A8A4217D103F076
:1018A0007063E26A934214D1002006E00120704781
:1018B000012002E0012000E0002002B070BD012004
:1018C000FBE70120F9E70120F7E70120F5E7012018
:1018D000F3E70120F1E700BF003802406000474213
:1018E000F8B52F4B9B6803F00C03042B53D0082B47
:1018F00053D12B4B5A6802F03F025B6813F4800F00
:1019000028D0274B5B68C3F3881358010021C01A05
:1019100061F100018E0146EA906687013C1A66EB90
:101920000105E90041EA5471E000C01841F10001ED
:101930004B0243EAD053440220461946002301F0EB
:1019400077F8174B5B68C3F3014301335B00B0FBCF
:10195000F3F023E0124B5B68C3F388135C010025AE
:10196000E41A65F10005AE0146EA9466A701381B4A
:1019700066EB0501CC0044EA5074C500E81844F158
:1019800000018B0243EA905384022046194600234B
:1019900001F04EF8D5E7034800E00348F8BD00BF6A
:1019A0000038024000127A000024F400002800F001
:1019B0009B8070B50D4604464F4B1B6803F00F0328
:1019C0008B4208D2CBB24C4A1370136803F00F035A
:1019D0008B4240F08B80236813F0020F17D013F076
:1019E000040F04D0454A936843F4E053936023689E
:1019F00013F0080F04D0414A936843F460439360A6
:101A00003E4A936823F0F003A1680B439360236878
:101A100013F0010F32D06368012B21D09A1E012AE6
:101A200025D9364A126812F0020F61D033498A680C
:101A300022F0030213438B60FEF73EFD06462F4B58
:101A40009B6803F00C036268B3EB820F16D0FEF7BD
:101A500033FD801B41F288339842F0D9032042E0E5
:101A6000264A126812F4003FE0D101203BE0234AED
:101A7000126812F0007FD9D1012034E01E4B1B68A0
:101A800003F00F03AB4207D9EAB21B4B1A701B6875
:101A900003F00F03AB422DD1236813F0040F06D0DF
:101AA000164A936823F4E053E1680B43936023687C
:101AB00013F0080F07D0114A936823F4604321699B
:101AC00043EAC1039360FFF70BFF0C4B9B68C3F322
:101AD00003130B4AD35CD8400A4B18600A4B1868B2
:101AE000FEF79EFC002070BD012070470120FAE740
:101AF0000120F8E70120F6E7003C024000380240F0
:101B0000A45600081400002008000020014B1868AB
:101B1000704700BF1400002008B5FFF7F7FF044B23
:101B20009B68C3F38223034AD35CD84008BD00BF3F
:101B300000380240B456000830B583B0044603684C
:101B400013F0430F14D1236813F00C0F69D12368ED
:101B500013F0200F40F0BE80236813F0100F00F048
:101B6000208194F82C20904B1A60002003B030BDE7
:101B70008E4B00221A60FEF79FFC05468C4B1B68BB
:101B800013F0006F06D0FEF797FC431B022BF5D92C
:101B90000320EBE7236813F0010F07D06268A36806
:101BA0001B0743EA8213824AC2F88430236813F089
:101BB000020F15D07E4AD2F884106068E3681B06D5
:101BC00043EA801301F0E0410B43C2F88430D2F8BD
:101BD0008C3023F01F03E16901390B43C2F88C30CC
:101BE000236813F0400F0AD06268E3681B0643EADB
:101BF0008213A26843EA02736D4AC2F884306B4BC9
:101C000001221A60FEF758FC0546694B1B6813F069
:101C1000006F98D1FEF750FC401B0228F5D9032035
:101C2000A4E7644B00221A60FEF746FC0546604BB1
:101C30001B6813F0005F06D0FEF73EFC431B022B2F
:101C4000F5D9032092E7236813F0040F16D0584A01
:101C5000D2F88810206963691B0643EA801301F0FB
:101C6000E0410B43C2F88830D2F88C3023F4F853AB
:101C7000216A013943EA0123C2F88C30236813F04A
:101C8000080F14D04A4AD2F88830216903F07063F3
:101C900043EA8113A16943EA0173C2F88830D2F89C
:101CA0008C3023F44033616A0B43C2F88C30414BD3
:101CB00001221A60FEF700FC05463D4B1B6813F03D
:101CC000005F7FF444AFFEF7F7FB401B0228F4D916
:101CD00003204BE700230193354B1A6C42F08052EE
:101CE0001A641B6C03F080530193019B324A136802
:101CF00043F480731360FEF7DFFB05462E4B1B6831
:101D000013F4807F06D1FEF7D7FB401B0228F5D9DC
:101D100003202BE7264B1B6F13F4407312D0A26AEB
:101D200002F440729A420DD0214B1A6F22F4407295
:101D3000224901200860002008601A671B6F13F019
:101D4000010F12D1A36A03F44072B2F5407F1DD097
:101D5000174A936823F4F813936015490B6FA26A2E
:101D6000C2F30B0213430B67F6E6FEF7A5FB05462D
:101D70000F4B1B6F13F0020FE4D1FEF79DFB401BCE
:101D800041F288339842F3D90320EFE608498A6884
:101D900022F4F81223F0704323F4407313438B6052
:101DA000DBE70020E2E600BFE0114742680047425F
:101DB000003802407000474200700040400E474229
:101DC00008B503460C4A12685AB10B4A106803332F
:101DD00023F003030344094A934206D8064A1360DA
:101DE00008BD054A06491160EFE700F09BFF0C2390
:101DF00003604FF0FF30F3E7F001002000FC022009
:101E00005003002001230360014B0B60704700BFAB
:101E10000C0000200FB400B583B004AB53F8042BC2
:101E200001938021074801F049FC002804DC03B03D
:101E30005DF804EB04B070470146024800F034F846
:101E4000F5E700BFF80100202DE9F04385B0044616
:101E50000F46435633BB042528462146ABBE0446F5
:101E6000384605B0BDE8F08314F9010B04AA1A4402
:101E700002F8100C0133AB42F6D304AA134400223B
:101E800003F8102C4FF00408E94640464946ABBE23
:101E90008046761B002EE3D03546102E28BF102535
:101EA0000023E8E70E46F5E708B5FFF7CDFF08BDCC
:101EB00008B500F059FB024A024B9A6008BD00BF0A
:101EC0000000000800ED00E008B500F055FB08BD7B
:101ED000F8B504460D4617461E462748FFF79AFFF9
:101EE00021682648FFF796FF61682548FFF792FFB3
:101EF000A1682448FFF78EFFE1682348FFF78AFFB7
:101F000021692248FFF786FF61692148FFF782FFB8
:101F1000A1692048FFF77EFFE1691F48FFF77AFFBC
:101F20001E48FFF777FF29461D48FFF773FF1D4C3A
:101F3000E16A1D48FFF76EFF216B1C48FFF76AFF3F
:101F4000E16B1B48FFF766FF15F0800F0AD115F40F
:101F5000004F0CD11748FFF75DFF06991648FFF7B1
:101F600059FFF8BD39461548FFF754FFEFE73146F2
:101F70001348FFF74FFFEDE744550008545500089C
:101F800064550008745500088455000894550008ED
:101F9000A4550008B4550008C4550008D4550008DD
:101FA000E055000800ED00E0F0550008005600087C
:101FB00010560008405600084856000820560008F1
:101FC0003056000883691A888A4201D00020704781
:101FD0000268033A012A01D9002070470233836165
:101FE00001207047FEE7000000B585B020F00F0328
:101FF000000140B243F00C028DF80C2043F00803BE
:102000008DF80D3040F00C038DF80E3040F00800D4
:102010008DF80F0064230093042303AA4E21034884
:10202000FEF748FF05B05DF804FB00BF8802002002
:1020300000B585B020F00F03000140B243F00D025F
:102040008DF80C2043F009038DF80D3040F00D039E
:102050008DF80E3040F009008DF80F0064230093D6
:10206000042303AA4E210348FEF724FF05B05DF8C0
:1020700004FB00BF8802002008B528B1012806D063
:1020800048B2FFF7B1FF08BD41F08001F8E741F029
:10209000C001F5E708B53220FEF714FA3020FFF74B
:1020A000A3FF0520FEF70EFA3020FFF79DFF012069
:1020B000FEF708FA3020FFF797FF0A20FEF702FA32
:1020C0002020FFF791FF0A20FEF7FCF92820FFF7F8
:1020D0008BFF0120FEF7F6F90820FFF785FF0120AE
:1020E000FEF7F0F90120FFF77FFF0120FEF7EAF984
:1020F0000120FEF7E7F90620FFF776FF0120FEF743
:10210000E1F90C20FFF770FF08BD10B5044694F903
:10211000000018B10134FFF78BFFF8E710BD030989
:1021200003EB830300F00F0000EB43007047000057
:1021300010B586B04FF4FA7302930723019304ABF2
:10214000009301230022D0211448FFF721F89DF8C5
:102150001000FFF7E4FF124C20709DF81100FFF70C
:10216000DEFF60709DF81200FFF7D9FFA0709DF8A8
:102170001300FFF7D4FFE0709DF81400FFF7CFFFC6
:1021800020719DF81500FFF7CAFF60719DF81600D9
:10219000FFF7C5FFA07106B010BD00BF8802002088
:1021A0001803002070B586B04FF4FA73029302232F
:1021B000019305AB009301231122D0210D48FEF7B6
:1021C000E7FF9DF814609DF81500800900F076FB8C
:1021D0000022094B02F0DEFE04460D46304600F0B8
:1021E0006DFB22462B4600F01DFA00F0D1FB06B035
:1021F00070BD00BF880200200000D03F70B586B0DF
:1022000000238DF817308DF81630642302930123D4
:1022100001930DF1170200920F22D0211248FEF710
:10222000B7FF9DF8173013F0040F01D006B070BD52
:102230000D4D64260296012401940DF116030093BE
:1022400023460E22D0212846FEF7A2FF9DF8163025
:1022500043F0200302960194009323460E22D021DE
:102260002846FEF7E3FEE1E78802002000B587B0CC
:10227000FEF7FCF800F06EF800F0E8F800F024F942
:10228000FFF708FFFFF754FF134A137800935378C2
:102290009278124903A801F0BDF900210846FFF722
:1022A000EBFE03A8FFF731FFFFF7A8FFFFF77AFF68
:1022B00000F016FB02460B46094903A801F0AAF9F3
:1022C00001210846FFF7D8FE03A8FFF71EFF4FF4D1
:1022D000FA70FEF7F7F8D5E7180300208C560008CF
:1022E0009C5600087047000082B0002100910B4B03
:1022F0005A6C42F480425A645A6C02F48042009252
:10230000009A01911A6C42F080521A641B6C03F01F
:1023100080530193019B02B0704700BF0038024018
:102320007047FEE7FEE7FEE7FEE77047704770473D
:1023300008B5FEF7B5F808BD08B500F0F3FC1623A4
:1023400003604FF0FF3008BD08B54FF0FF31FFF7D5
:10235000F3FFFEE730B5A1B030252A46002114A8CE
:1023600000F0F4FC00240F94109411941294139430
:102370002A46214603A800F0E9FC0194304B1A6C70
:1023800042F080521A641B6C03F080530193019B4E
:1023900002942C4B1A6842F440421A601B6803F402
:1023A00040430293029B012314934FF4803315930F
:1023B00002221A924FF480031B9304231C93B4212E
:1023C0001D911E921F9314A8FFF794F870BBFFF79E
:1023D00051F870BB0F230F93022310930023119326
:1023E0004FF4A05312934FF48053139305210FA879
:1023F000FFF7DCFA00BB202303934FF480730D93A7
:1024000003A8FFF799FBFFF781FB0F4BA3FB0030FD
:102410008009FEF7B1F80420FEF7C4F80022114647
:102420004FF0FF30FEF774F821B030BDFFF75AFFD0
:10243000CDE7FFF757FFCDE7FFF754FFDBE700BF1E
:102440000038024000700040D34D621070B582B079
:1024500000250095194B1A6B42F080021A631A6B23
:1024600002F080020092009A01951A6B42F0080275
:102470001A631B6B03F008030193019B104E2A465D
:102480004FF400613046FEF78FF90E4C4FF4806335
:10249000236065600223A36021463046FEF792F870
:1024A0004FF40063236001236360A560E56021466B
:1024B0003046FEF787F802B070BD00BF003802401A
:1024C000000C02400403002010B584B000230193E7
:1024D0001F4A116B41F002011163116B01F00201FF
:1024E000019101990293116C41F400111164116C76
:1024F00001F40011029102990393116B41F4001150
:102500001163126B02F400120392039A114C124AE7
:102510002260124A6260A360E3604FF4804222614D
:102520006361A361E36123620D494FF410730B6093
:1025300004230B6112234B6001238B600323CB60C8
:102540000848FEF73FF82046FEF7D6FB04B010BD62
:10255000003802408802002000540040A08601009C
:102560000403002000040240024B4FF000629A6016
:10257000704700BF00ED00E0224B9B6803F00C03A6
:10258000042B14D0082B16D01BB11F4B1F4A1A6006
:1025900002E01D4B1D4A1A601A4B9B68C3F30313DC
:1025A0001B4AD15C184A1368CB4013607047164B26
:1025B000184A1A60F0E7134B5A685B6803F03F0350
:1025C00012F4800F13D0134AB2FBF3F20D4B5B6889
:1025D000C3F3881303FB02F30A4A5268C2F30142B1
:1025E00001325200B3FBF2F3074A1360D4E7074A03
:1025F000B2FBF3F2034B5B68C3F3881303FB02F3F4
:10260000EAE700BF00380240140000200024F40074
:10261000A456000840787D0181F0004102E000BF2F
:1026200083F0004330B54FEA41044FEA430594EA92
:10263000050F08BF90EA020F1FBF54EA000C55EACD
:10264000020C7FEA645C7FEA655C00F0E2804FEA9E
:102650005454D4EB5555B8BF6D420CDD2C4480EA80
:10266000020281EA030382EA000083EA010180EAB0
:10267000020281EA0303362D88BF30BD11F0004FFE
:102680004FEA01314FF4801C4CEA113102D0404234
:1026900061EB410113F0004F4FEA03334CEA13336F
:1026A00002D0524263EB430394EA050F00F0A78087
:1026B000A4F10104D5F1200E0DDB02FA0EFC22FA82
:1026C00005F2801841F1000103FA0EF2801843FA76
:1026D00005F359410EE0A5F120050EF1200E012A67
:1026E00003FA0EFC28BF4CF0020C43FA05F3C018A5
:1026F00051EBE37101F0004507D54FF0000EDCF11E
:10270000000C7EEB00006EEB0101B1F5801F1BD3C6
:10271000B1F5001F0CD349085FEA30004FEA3C0CCA
:1027200004F101044FEA445212F5800F80F09A80C0
:10273000BCF1004F08BF5FEA500C50F1000041EBC4
:10274000045141EA050130BD5FEA4C0C404141EBC8
:102750000101013C28BFB1F5801FE9D291F0000FC3
:1027600004BF01460020B1FA81F308BF2033A3F172
:102770000B03B3F120020CDA0C3208DD02F1140C69
:10278000C2F10C0201FA0CF021FA02F10CE002F1A4
:102790001402D8BFC2F1200C01FA02F120FA0CFC9D
:1027A000DCBF41EA0C019040E41AA2BF01EB0451E6
:1027B000294330BD6FEA04041F3C1CDA0C340EDCE4
:1027C00004F11404C4F1200220FA04F001FA02F327
:1027D00040EA030021FA04F345EA030130BDC4F1E5
:1027E0000C04C4F1200220FA02F001FA04F340EADA
:1027F0000300294630BD21FA04F0294630BD94F08B
:10280000000F83F4801306BF81F480110134013D71
:102810004EE77FEA645C18BF7FEA655C29D094EAE2
:10282000050F08BF90EA020F05D054EA000C04BF60
:102830001946104630BD91EA030F1EBF002100204B
:1028400030BD5FEA545C05D14000494128BF41F0EA
:10285000004130BD14F580043CBF01F5801130BD4E
:1028600001F0004545F0FE4141F470014FF00000D9
:1028700030BD7FEA645C1ABF194610467FEA655C8A
:102880001CBF0B46024650EA013406BF52EA03352C
:1028900091EA030F41F4002130BD00BF90F0000F1A
:1028A00004BF0021704730B54FF4806404F1320456
:1028B0004FF000054FF0000150E700BF90F0000F0F
:1028C00004BF0021704730B54FF4806404F1320436
:1028D00010F0004548BF40424FF000013EE700BF06
:1028E00042004FEAE2014FEA31014FEA02701FBF96
:1028F00012F07F4393F07F4F81F06051704732F0C8
:102900007F4208BF704793F07F4F04BF41F400211E
:10291000704730B54FF4607401F0004521F000417C
:102920001CE700BF50EA010208BF704730B54FF006
:1029300000050AE050EA010208BF704730B511F007
:10294000004502D5404261EB41014FF4806404F13F
:1029500032045FEA915C3FF4D8AE4FF003025FEAC5
:10296000DC0C18BF03325FEADC0C18BF033202EB49
:10297000DC02C2F1200300FA03FC20FA02F001FAA3
:1029800003FE40EA0E0021FA02F11444BDE600BF46
:102990004FEA4102B2F1E04324BFB3F5001CDCF181
:1029A000FE5C0DD901F0004C4FEAC0024CEA5070B9
:1029B000B2F1004F40EB830008BF20F001007047E8
:1029C00011F0804F21D113F13872BCBF01F00040EB
:1029D000704741F480114FEA5252C2F11802C2F11D
:1029E000200C10FA0CF320FA02F018BF40F001009E
:1029F0004FEAC1234FEAD32303FA0CFC40EA0C0050
:102A000023FA02F34FEA4303CCE77FEA625307D18C
:102A100050EA01331EBF4FF0FE4040F440007047C3
:102A200001F0004040F0FE4040F40000704700BF5D
:102A300053B94AB9002908BF00281CBF4FF0FF3125
:102A40004FF0FF3000F06CB9ADF1080C6DE904CE29
:102A500000F006F8DDF804E0DDE9022304B0704779
:102A60002DE9F047089E0D4604468E46002B40F0A7
:102A700082808A42174646D9B2FA82F24AB1C2F13E
:102A8000200105FA02F320FA01F1974041EA030E12
:102A900094404FEA1748230CBEFBF8FCB9B208FB80
:102AA0001CEE43EA0E430CFB01F098420AD9FB18D6
:102AB0000CF1FF3580F01681984240F21381ACF1A1
:102AC000020C3B441B1AA4B2B3FBF8F008FB103312
:102AD00044EA034400FB01F1A14209D93C1900F189
:102AE000FF3380F00181A14240F2FE8002383C4475
:102AF000641A40EA0C4000211EB1D4400023C6E90C
:102B00000043BDE8F08702B9FFDEB2FA82F2002A84
:102B10004FD1CB1B4FEA174E1FFA87F80121B3FBA9
:102B2000FEFC250C0EFB1C3345EA034508FB0CF3A9
:102B3000AB4207D97D190CF1FF3002D2AB4200F253
:102B4000E7808446ED1AA3B2B5FBFEF00EFB1055EC
:102B500043EA054408FB00F8A04507D93C1900F1F9
:102B6000FF3302D2A04500F2D7801846A4EB080438
:102B700040EA0C40C0E78B4208D9002E00F0AF803D
:102B80000021C6E900050846BDE8F087B3FA83F1E5
:102B900000294BD1AB4202D3824200F2B780841AA3
:102BA00065EB030301209E46002EAAD0C6E9004E25
:102BB000A7E7C2F1200C01FA02F3974020FA0CF0CB
:102BC0004FEA174E21FA0CFC1843BCFBFEF1050C32
:102BD0000EFB11CC1FFA87F845EA0C4501FB08F300
:102BE000AB4204FA02F409D97D1901F1FF3C80F0EF
:102BF0008B80AB4240F2888002393D44EB1A85B2AB
:102C0000B3FBFEF00EFB103345EA034500FB08F36F
:102C1000AB4207D97D1900F1FF3C71D2AB426FD9AD
:102C200002383D44EB1A40EA014178E7C1F1200C3B
:102C30008B4022FA0CF71F4320FA0CF405FA01F33B
:102C40004FEA174E25FA0CF51C43230CB5FBFEF991
:102C50001FFA87F80EFB195543EA054509FB08FAE8
:102C6000AA4502FA01F200FA01F308D97D1909F127
:102C7000FF3047D2AA4545D9A9F102093D44A5EB49
:102C80000A05A4B2B5FBFEF00EFB105544EA05445C
:102C900000FB08F8A04507D93C1900F1FF352DD2FB
:102CA000A0452BD902383C4440EA0940A4EB080473
:102CB000A0FB02894C45C6464D4619D316D05EB1DD
:102CC000B3EB0E0264EB050404FA0CFCCA404CEAB8
:102CD0000202CC40C6E900240021BDE8F08731465D
:102CE00030460EE7AC46EDE6184601E74345E6D22E
:102CF000B8EB020E69EB07050138E0E72846D3E799
:102D000060468FE78146BAE7614677E708464BE7BA
:102D1000ACF1020C3D4415E702383C4426E700BF05
:102D2000704700BF014B1868704700BF18000020B3
:102D30000A44914200F1FF3300D1704710B511F8F9
:102D4000014B03F8014F9142F9D110BD02440346F3
:102D5000934200D1704703F8011BF9E72DE9F047D2
:102D600088B0002B1F461446B8BF03F10043129AE7
:102D7000109DDDF84CA0B6BF1F4600232D23137015
:102D8000149B23F02008B8F1460F05D0B8F1450F89
:102D900000D10135022300E0032307AA049206AA0A
:102DA000CDE902A2CDE9003522463B4600F020FDE8
:102DB000B8F1470F064602D1119BDB0722D5B8F1C7
:102DC000460F06EB050910D13378302B0AD10022CB
:102DD00000232046394602F045FB18B9C5F101052C
:102DE000CAF80050DAF80030994400220023204647
:102DF000394602F037FB08B1CDF81C903022079B12
:102E00004B4507D3079B159A9B1B3046136008B0B0
:102E1000BDE8F087591C07911A70F0E7F7B5034633
:102E20000029B8BF494203F8022BB4BF2D222B2240
:102E3000092942702ADD0DF10704A4460A27A64697
:102E40000A4691FBF7F607FB16153035632A04F1A5
:102E5000FF340EF8015C3146F1DC3031AEF1020591
:102E600004F8011C441C294661450AD30DF10902EE
:102E7000A2EB0E02654588BF00221344181A03B066
:102E8000F0BD11F8012B04F8012FEDE730233031AC
:102E90008370C170031DF1E72DE9F04F91B00C462E
:102EA000DDF8688016461F46054601F073FA036890
:102EB0000993184600F0CEFB00230E93D8F800309B
:102EC0000A90073323F0070303F1080294F81890DF
:102ED000D4F800B0C8F80020D3E90023C4E91223D5
:102EE000D4E9128A2AF000430B930B999C4B4FF0C4
:102EF000FF32404602F0E8FA70BB994B0B994FF055
:102F0000FF32404602F0C2FA30BB002200234046A6
:102F1000514602F0B1FA10B12D2384F84330914BA1
:102F20009148B9F1470F94BF984680460323236127
:102F30002BF0040323604FF0000A009733460FAADA
:102F40002146284600F0D2F9013040F08F804FF042
:102F5000FF3011B0BDE8F08F42465346404651461F
:102F600002F0B2FA40B1BAF1000FBCBF2D2384F8D1
:102F700043307E487E4BD4E763685A1C09F0DF017A
:102F800042D106236360002206920EAACDE9049284
:102F90000DAA4BF4806303920DF13302CDE90132A7
:102FA0002360636800934246534628460B91FFF71F
:102FB000D5FE0B99472980460D9908D1C81C02DB24
:102FC0006368994240DDA9F102095FFA89F9B9F114
:102FD000650F1FD801394A4604F150000D91FFF7E3
:102FE0001DFF0E9A1318012A8246236102DC226813
:102FF000D20701D5013323619DF83330002B9CD0DB
:103000002D2384F8433098E74729BCD1002BBAD14F
:103010000123B7E7B9F1660F18D1002963680BDD0A
:10302000216113B92268D00702D501330B44236113
:10303000A1654FF0000ADFE713B92268D20701D576
:103040000233F4E70123F2E74FF067090E9B994240
:1030500005DB23682161D807EAD54B1CE7E7002987
:10306000D4BFC1F1020201221344E0E723685A05EC
:1030700007D42369424631462846B84701302BD150
:1030800065E7B9F1650F40F2DC80D4E91201002256
:10309000002302F0E7F9002833D0364A01233146F5
:1030A0002846B84701303FF452AFDDE90D239A427C
:1030B00002DB2368D8070FD5DDE90923314628460E
:1030C000B84701303FF443AF4FF0000804F11A094C
:1030D0000E9B013B434509DC23689B0700F10181FE
:1030E000E0680F9B9842B8BF184632E701234A4672
:1030F00031462846B84701303FF429AF08F10108AE
:10310000E6E70D9B002B37DC1A4A0123314628469F
:10311000B84701303FF41BAFDDE90D23134302D163
:103120002368D907D8D5DDE9092331462846B847B1
:1031300001303FF40CAF4FF0000904F11A0A0D9B67
:103140005B424B4501DC0E9B94E70123524631461E
:103150002846B84701303FF4FAAE09F10109EEE71D
:10316000FFFFEF7FBC560008C0560008C856000895
:10317000C4560008CC5600080E9AA36D9A42A8BF08
:103180001A46002A914637DC4FF0000B29EAE9790C
:1031900004F11A02D4F858A0AAEB09035B4533DC0A
:1031A000DDE90D239A423BDB2368DA0738D40E9A17
:1031B0000D99A2EB0A03A2EB01099945A8BF994614
:1031C000B9F1000F34DC4FF0000829EAE97904F185
:1031D0001A0ADDE90D239B1AA3EB090343457FF788
:1031E0007BAF0123524631462846B84701303FF4B1
:1031F000AEAE08F10108ECE71346314642462846D8
:10320000B8470130C0D1A2E60123314628460B92CF
:10321000B84701303FF49BAE0B9A0BF1010BB9E7B5
:10322000DDE9092331462846B8470130BFD18EE693
:103230004B4608EB0A0231462846B8470130C2D156
:1032400085E60E9A012A01DCDB0737D501234246C9
:1032500031462846B84701303FF479AEDDE909230D
:1032600031462846B84701303FF471AED4E9120127
:103270000022002302F0F6F8D8B90E9B08F10102F3
:10328000013B31462846B84701300ED15FE60123A5
:103290004A4631462846B84701303FF458AE08F157
:1032A00001080E9B013B4345F1DC534604F15002FB
:1032B000E1E64FF0000804F11A09F2E70123424663
:1032C000DFE701234A4631462846B84701303FF43C
:1032D0003EAE08F10108E3680F995B1A4345F0DC44
:1032E000FEE64FF0000804F11909F4E72DE9F04774
:1032F000164699468A680B69DDF820809342B8BF6C
:103300001346336091F8432007460C460AB1013357
:1033100033602368990642BF3368023333602568FF
:1033200015F0060506D104F1190AE36832689B1A04
:10333000AB4226DC94F84320131E226818BF0123F9
:1033400092062BD404F1430249463846C047013067
:103350001ED02368E568326803F00603042B08BF1B
:10336000AD1AA36822690CBF25EAE57500259342D2
:10337000C4BF9B1AED1800261A34B5421AD100209A
:1033800008E00123524649463846C047013003D180
:103390004FF0FF30BDE8F0870135C6E7E1185A1C51
:1033A000302081F84300224494F8451082F84310FD
:1033B0000233C7E70123224649463846C047013059
:1033C000E6D00136D9E700002DE9FF470C469146CB
:1033D000277E0C99782F80469A4604F1430207D83D
:1033E000622F0AD8002F00F0D880582F00F0A38059
:1033F00004F1420684F842703AE0A7F16303152B0A
:10340000F6D801A050F823F06134000875340008A4
:10341000F1330008F1330008F1330008F1330008FC
:1034200075340008F1330008F1330008F133000867
:10343000F133000881350008A53400086335000821
:10344000F1330008F1330008A3350008F133000818
:10345000A5340008F1330008F13300086B3500088B
:103460000B681A1D1B680A6004F1420684F842309A
:103470000123A3E0256808682E0600F104030AD59D
:1034800005680B60002D03DA2D236D4284F843306C
:103490005E480A2319E015F0400F05680B6018BF5D
:1034A0002DB2EFE70B682568181D0860280601D5C6
:1034B0001D6802E06906FBD51D8854486F2F0CBFBC
:1034C00008230A23002184F843106668A660002EB2
:1034D000A2BF216821F0040121600DB9002E4DD05A
:1034E0001646B5FBF3F103FB1157C75D06F8017DE6
:1034F0002F46BB420D46F4D9082B0BD12368DF07BA
:1035000008D5236961689942DEBF302306F8013C83
:1035100006F1FF36921B2261CDF800A04B4603AAAC
:1035200021464046FFF7E2FE01304CD14FF0FF301C
:1035300004B0BDE8F087354884F8457023680E680C
:103540001F0656F8045B0E6014D5D90744BF43F03C
:10355000200323601DB9236823F020032360102378
:10356000B0E7236843F0200323607823284884F8D9
:103570004530E3E75E0648BFADB2E6E71646BBE777
:103580000B68266860691D1D0D6035061B6801D536
:10359000186002E07106FBD51880002323611646EF
:1035A000BAE70B681A1D0A601E686268002130467F
:1035B00000F0FEFE08B1801B606063682361002399
:1035C00084F84330A8E72369324649464046D0474D
:1035D0000130ABD023689B0713D4E068039B98426B
:1035E000B8BF1846A4E70123324649464046D047B3
:1035F00001309BD00135E36803995B1AAB42F2DCE2
:10360000EBE7002504F11906F5E700BFCE560008E8
:10361000DF5600080EB400B59CB01DAB02900690BA
:103620006FF00041094807910491094953F8042BB0
:1036300005910068019302A901F026FB029B00227C
:103640001A701CB05DF804EB03B07047180000203E
:103650000802FFFF034613F8012B002AFBD1181ABA
:103660000138704730B5141E05469BB0184605DA80
:103670008B232B604FF0FF301BB030BD4FF4027333
:10368000ADF80C3014BF04F1FF33234602930593C9
:103690004FF6FF7300910491ADF80E3002461E9B69
:1036A0006946284601F0F0FA431CBCBF8B232B600F
:1036B000002CE1D0009B00221A70DDE707B50093D3
:1036C00013460A46014603480068FFF7CBFF03B0E4
:1036D0005DF804FB180000202DE9F74F03690C6921
:1036E000A3420746C0F28180013C01F1140800F1B9
:1036F000140505EB8403019358F8243055F8242071
:1037000001339A424FEA840B08EB8409B2FBF3F6CB
:1037100031D34FF0000E4046AC46F24650F8042B31
:1037200093B206FB03E34FEA134E9BB2AAEB0303EB
:10373000120CDCF800A006FB02E213FA8AF34FEA4F
:10374000124E1FFA82FADCF80020CAEB124202EB9A
:1037500023429BB243EA024381454CF8043B4FEAC3
:10376000224ADBD255F80B302BB9019B043B9D421A
:103770001A462ED33C61384601F093F8002824DB2A
:10378000013628464FF0000C58F8042BD0F800E022
:1037900093B2ACEB0303120C13FA8EF3C2EB1E428E
:1037A00002EB23429BB243EA0243C14540F8043B8B
:1037B0004FEA224CE8D255F8242005EB840322B9C5
:1037C000043B9D421A460AD33C61304603B0BDE833
:1037D000F08F1268043B002ACCD1013CC7E7126885
:1037E000043B002AF0D1013CEBE70020EEE70000AB
:1037F0002DE9F04F446A99B016461F46CDE904679B
:10380000DDF8948005463CB9102000F0C7FDC0E902
:10381000014468620460C4606B6A196851B15A68F7
:103820004A60012393408B60284600F045FE6B6A96
:1038300000221A603B1EB9BF23F00043059300230A
:10384000C8F80030DDF81490A74BBCBF0122C8F8BF
:10385000002033EA090319D1249A42F20F7313604E
:10386000C9F31303334300F06D85269B53B99F4B77
:1038700023E09F4B03930833269A1360039819B0F3
:10388000BDE8F08F994B03930333F5E7DDE904348A
:10389000CDE90C34DDE90C010022002301F0E2FD4A
:1038A000804660B1249A01231360269B002B00F010
:1038B0004685904B269A1360013B0393DEE716ABD7
:1038C000019317AB00932846DDE90C2301F07AF849
:1038D000C9F30A548346002C7ED00D9BCDF84C8052
:1038E000C3F31303DDE90C0143F07F5141F44011B0
:1038F000A4F2FF34804B0022FEF792FE74A3D3E9BA
:10390000002301F047FB74A3D3E90023FEF78AFEEE
:10391000064620460F46FEF7D1FF71A3D3E90023E8
:1039200001F038FB02460B4630463946FEF77AFE78
:1039300006460F4601F0DEFD002282460023304697
:10394000394601F099FD48B15046FEF7B7FF3246BF
:103950003B4601F087FD08B90AF1FF3ABAF1160FAC
:1039600057D8664B03EBCA03D3E90023DDE90C010A
:1039700001F082FD00284ED00AF1FF3A00230F9398
:10398000169B1C1B631E099345BFC4F101030693DC
:10399000002300234CBF09930693BAF1000F3CDBD0
:1039A000099BCDF838A05344099300230A93229B26
:1039B000092B00F2B580052BC4BF043B2293229B48
:1039C000A3F10203CCBF00240124032B00F2B48036
:1039D000DFE803F02D987AA4DDE916431C4404F2D5
:1039E0003243202BC3BFC3F1400304F2124009FA53
:1039F00003F3C3F12003C6BF26FA00F0184306FA0A
:103A000003F0FEF74BFF0123A1F1F871013C139382
:103A100070E70123B3E70F90B2E7069BA3EB0A031D
:103A20000693CAF100030A9300230E93BFE7002315
:103A30000B93239B002B00F382804FF00109CDF8FC
:103A400020904B46CDF88C906E6A00227260042262
:103A500002F114009842716877D9284600F0F8FC0A
:103A60006B6A30601B680393089B0E2B00F2EE809C
:103A7000002C00F0EB80BAF1000F7ADD1F4A0AF04B
:103A80000F0302EBC303D3E900341AF4807FCDE9BE
:103A900010344FEA2A145CD0194BDDE90C01D3E94C
:103AA000082301F0A1FBCDE9040104F00F04032772
:103AB000134E002C4FD1DDE91023DDE9040101F0A4
:103AC00093FBCDE904016EE00123B1E7AFF3008081
:103AD00061436F63A787D23FB3C8608B288AC63F14
:103AE000FB799F501344D33F0000F07FF956000844
:103AF000F0560008CD5600080000F83F285700088F
:103B00000057000800230B93239B0AEB030909F1DC
:103B10000103012B0893B8BF012395E70123F2E7C6
:103B20000124002322930B944FF0FF390022CDF89B
:103B300020901223239287E701230B93F4E7DDF80B
:103B40008C90CDF820904B467EE701317160520099
:103B50007EE70227ACE7E10708D5DDE91001D6E9E9
:103B6000002301F017FACDE910010137641008367F
:103B70009FE700F0A580CAF10004A44BA44E04F016
:103B80000F0203EBC203D3E90023DDE90C0101F0CE
:103B900001FACDE90401241100230227002C40F092
:103BA0008480002B8DD10F9B002B00F08B80DDE9F2
:103BB0000434CDE91034DDE91001964B002201F008
:103BC0005BFC00287ED0089B002B7BD0B9F1000F56
:103BD00038DDDDE91001904B002201F0DBF9CDE981
:103BE00004010AF1FF3801374C463846FEF766FEFD
:103BF000DDE9042301F0CEF9884B0022FEF712FD27
:103C0000A1F15076CDE910011196002C5DD1DDE9CE
:103C10000401834B0022FEF703FD02460B46CDE96B
:103C20000423109A334601F045FC002840F09782A7
:103C3000DDE90401109A06F1004301F01DFC0028A3
:103C400040F08B82DDE90C34CDE90434179B002B66
:103C5000C0F25181BAF10E0F00F34D816B4B03EBB3
:103C6000CA03D3E90034CDE90634239B002B80F24C
:103C7000DB80089B002B00F3D78040F06D82684BFF
:103C80000022DDE9060101F085F9DDE9042301F0F8
:103C900007FC089C2646002840F04382039F3123FE
:103CA00007F8013B0AF1010A3FE2E20705D5D6E930
:103CB000002301F06FF901370123641008366DE726
:103CC000022770E7089CD0468FE703994F4B2144A9
:103CD00012910B9903EBC403DDE9106753E902234A
:103CE000002946D04F49002001F07EFA3B4632467B
:103CF000FEF796FCCDE91001039FDDE9040101F018
:103D0000F9FB0446FEF7DAFD02460B46DDE9040145
:103D1000FEF786FC303402460B46CDE9042307F853
:103D2000014BDDE9102301F0A7FB002865D1DDE997
:103D3000042338490020FEF773FCDDE9102301F06D
:103D40009BFB002840F0B680129B9F423FF47AAF65
:103D5000DDE91001304B002201F01CF92E4BCDE9BA
:103D600010010022DDE9040101F014F9CDE904019C
:103D7000C3E73046394601F00DF9CDE91001129B39
:103D8000039C1493DDE9040101F0B4FB1590FEF7E8
:103D900095FD02460B46DDE90401FEF741FC159B4B
:103DA000303304F8013B129B9C4206460F464FF00D
:103DB000000224D11B4BDDE91001FEF733FC024663
:103DC0000B463046394601F075FB002871D1DDE91C
:103DD000102314490020FEF723FC02460B46304610
:103DE000394601F049FB00283FF42CAF149F7B1E9D
:103DF000149317F8013C302BF8D0C24649E0064B2B
:103E000001F0C8F8CDE90401BCE700BF285700085D
:103E1000005700080000F03F0000244000001C4054
:103E2000000014400000E03FDDE90489039FDDE964
:103E300006234046494601F0D7F901F05BFB0446F2
:103E4000FEF73CFDDDE9062301F0A4F804F130069D
:103E50000B46024649464046FEF7E2FB07F8016B77
:103E6000039E089BBE1BB34238D102460B46FEF7A9
:103E7000D9FBDDE906238046894601F01BFB58BBD0
:103E8000DDE906234046494601F0ECFA08B1E107B6
:103E900022D42846594600F00FFB00233B70249B98
:103EA0000AF101001860269B002B3FF4E7AC1F606D
:103EB000E4E427463B461F4613F8012D392A07D173
:103EC000039A9A42F7D10399302208F101080A7047
:103ED0001A7801321A7090E7D046EBE7A14B002226
:103EE00001F058F8002200238046894601F0BAFA12
:103EF00000289CD0CDE70B9A002A00F0CD80229AB2
:103F0000012A00F3AF80139A002A00F0A78003F281
:103F100033430A9C069F069A1A440692099A012185
:103F20001A442846099200F06AFB0646002F0CDD71
:103F3000099B002B09DDBB42069AA8BF3B46D21A5B
:103F40000692099AFF1AD31A09930A9BF3B10B9BA5
:103F5000002B00F0A580002C10DD314622462846BB
:103F600000F0F2FB5A4601460646284600F050FB98
:103F700059468046284600F09FFAC3460A9B1A1B02
:103F800004D05946284600F0DFFB8346012128462D
:103F900000F035FB0E9B002B044640F383801A464D
:103FA0000146284600F0D0FB229B012B04467CDD15
:103FB0004FF00008236904EB8303186900F0D1FA7D
:103FC000C0F12000099B184410F01F0000F08E8003
:103FD000C0F12003042B40F38780C0F11C00069B36
:103FE00003440693099B034407440993069B002B53
:103FF00005DD59461A46284600F0F4FB8346099B26
:10400000002B05DD21461A46284600F0EBFB04464E
:104010000F9B002B6CD02146584600F042FC002834
:1040200066DA002359460A22284600F05CFA0B9B08
:104030000AF1FF3A8346002B00F08B8131460023C2
:104040000A22284600F04FFAB9F1000F064600F3A5
:104050009180229B022B40F38D8051E0169BC3F18F
:10406000360356E7089B5C1E0A9BA342BFBF0A9B10
:104070000A94E21A0E9BB6BF9B181C1B0E93089B5A
:10408000B8BF0024002BB9BF069B089A069F089B67
:10409000BCBF9F1A00233EE70A9C069F0B9E45E784
:1040A0000A9A6EE7229B012B19DC049BBBB9059B86
:1040B000C3F313039BB9059B23F000431B0D1B05A2
:1040C00083B1069B01330693099B013309934FF09B
:1040D00001080E9B002B7FF46DAF012072E74FF0BB
:1040E0000008F6E79846F4E780D018461C3076E7DB
:1040F000089B002B38DC229B022B35DDDDF820905D
:10410000B9F1000F0DD121464B460522284600F09B
:10411000EAF901460446584600F0C3FB00283FF781
:10412000BDAD239B039F6FEA030A4FF000082146B1
:10413000284600F0C1F9002E3FF4ABAEB8F1000FF5
:1041400005D0B04503D04146284600F0B5F93146C8
:10415000284600F0B1F99CE600242646E1E7C24675
:1041600026469BE5000024400B9BDDF82090002BA9
:1041700000F0F680002F05DD31463A46284600F073
:1041800031FB0646B8F1000F55D07168284600F0A3
:104190005FF9326902320746920006F10C010C30D9
:1041A000FEF7C6FD01223946284600F01BFB039BA3
:1041B00001330893039B4B440A93049B03F00103D0
:1041C000B04609930646089B2146013B5846049396
:1041D000FFF782FA034630330690414658460B9368
:1041E00000F05FFB324681462146284600F074FB12
:1041F000C2680B9B074602BB0146584600F051FBC4
:104200000B9B024639462846CDE90B3200F054F9A3
:10421000229B0C9A089F43EA0201099B0B430B9BCC
:104220000DD1392B29D0B9F1000F01DD069B3133B7
:10423000049A13707BE73046B9E70122E2E7B9F14F
:10424000000F06DB229941EA0909099959EA01019F
:1042500020D1002AECDD594601222846089300F0BF
:10426000C1FA2146834600F01CFB0028089B02DCB3
:10427000DED1DA07DCD5392BD8D1049A3923137073
:104280003B461F46013B17F8012C392A50D001321A
:104290001A704CE7002A03DD392BEED00133C7E753
:1042A000089A0A9902F8013C8A422AD0594600230A
:1042B0000A22284600F017F9B04583464FF0000364
:1042C0004FF00A024146284607D100F00CF980461B
:1042D0000646089B0133089375E700F004F9314660
:1042E000804600230A22284600F0FDF80646F0E743
:1042F000B9F1000F039ACCBF4F46012717444FF086
:104300000008594601222846089300F06BFA21461E
:10431000834600F0C6FA0028B2DC02D1089BDB0716
:10432000AED43B461F4613F8012D302AFAD0FEE6E4
:10433000039A9A42A5D10AF1010A312379E7134B76
:10434000FFF7BBBA269B002B7FF493AA104BFFF715
:10435000B4BAB9F1000F03DC229B022B3FF7D0AEB9
:10436000039F21465846FFF7B7F900F1300307F8DD
:10437000013B039ABA1A9145BADD594600230A2235
:10438000284600F0B0F88346EBE700BFCC560008A3
:10439000F0560008004870476C010020024B0146AF
:1043A000186800F0BBBB00BF180000200000000030
:1043B00001F0FF01102A2BDB10F0070F08D010F8D6
:1043C000013B013A8B422DD010F0070F42B3F6D1DA
:1043D000F0B441EA012141EA014122F007047FF0F3
:1043E00000070023F0E80256083C85EA010586EA4A
:1043F000010685FA47F5A3FA87F586FA47F6A5FA86
:1044000087F68EB9EED1F0BC01F0FF0102F0070291
:1044100032B110F8013B013A83EA010313B1F8D13C
:104420000020704701387047002D06BF354603381D
:10443000073815F0010F07D1013015F4807F02BF56
:10444000013015F4C03F0130F0BC0138704700BFA7
:1044500070B5466A04460D463EB91020FFF79EFF30
:10446000C0E9016660620660C660666AF36883B18F
:10447000636ADB6853F82500B8B9012101FA05F633
:10448000721D9200204600F0ECFA60B1C0E90156BE
:104490000EE021220421204600F0E3FA636AF06076
:1044A000DB68002BE4D1002070BD026843F82520B2
:1044B0000023C0E90333F7E770B5466A05460C46AA
:1044C0003EB91020FFF76AFFC0E901666862066026
:1044D000C6603CB16B6A6268DB6853F822102160E9
:1044E00043F8224070BD2DE9F0410E690746984619
:1044F0000C4601F1140000230568A9B202FB0181FA
:104500004FEA114C2D0C02FB05C589B2013301EBBA
:1045100005419E4240F8041B4FEA1548ECDCB8F117
:10452000000F1BD0A368B34212DC6168384601312A
:10453000FFF78EFF2269023204F10C01054692005A
:104540000C30FEF7F5FB21463846FFF7B5FF2C4649
:1045500004EB86030136C3F8148026612046BDE8CB
:10456000F081020C12040346CAB90304102013F0B0
:104570007F4F04BF1B02083013F0704F04BF1B01B4
:10458000043013F0404F04BF9B000230002B05DBCA
:1045900013F0804F00F1010008BF20207047002079
:1045A000E5E70368024613F007000BD0D90722D4D1
:1045B000980749BF5B089B08012013605CBF13602C
:1045C0000220704799B209B91B0C102013F0FF0F9D
:1045D00004BF1B0A0830190704BF1B0904309907E0
:1045E00004BF9B080230D90703D45B0800F1010027
:1045F00003D013607047002070472020704710B52B
:104600000C460121FFF724FF01224461026110BD25
:104610002DE9F04F15460A692B699A42B8BF0B463F
:104620000C46BCBF2C461D462769D5F81090A368E0
:10463000616807EB0906B342B8BF013185B0FFF7E7
:1046400007FF00F1140101EB86080B4600224345E9
:104650001DD304F1140305F1140203EB870702EBE9
:10466000890302933B1B153B23F00303043304F13E
:104670001505AF4238BF04230193029B0392934276
:1046800008D8002E5ADC066105B0BDE8F08F43F86B
:10469000042BDCE7B2F800A0BAF1000F24D004F13B
:1046A000140E89464FF0000C5EF8045BD9F800B098
:1046B000ABB21FFA8BFB0AFB03B34FEA154BD9F8D9
:1046C000005063444FEA154C0AFB0BC505EB13453C
:1046D0009BB243EA0543774549F8043B4FEA154C42
:1046E000E2D8019B41F803C0039BB3F80290043267
:1046F000B9F1000F20D00B6804F1140C8E464FF076
:10470000000ABCF80050BEF802B009FB05B5AA4487
:104710009BB243EA0A434EF8043B5CF8043BBEF804
:1047200000501B0C09FB035303EB1A4367454FEA88
:10473000134AE6D8019D4B5104319EE758F8043DD9
:10474000002BA0D1013E9CE72DE9F843154612F05D
:10475000030206460F4607D0214C013A002354F8C5
:104760002220FFF7C0FE0746AD1035D0746A3CB971
:104770001020FFF713FEC0E9014470620460C460BA
:10478000D6F82480D8F808404CB940F27121304660
:10479000FFF735FF0023C8F80800044603604FF018
:1047A0000009EB070AD5394622463046FFF730FFAD
:1047B000394680463046FFF77FFE47466D100BD0E6
:1047C000206838B9224621463046FFF721FF206095
:1047D000C0F800900446E4E73846BDE8F88300BF1F
:1047E000F05700082DE9F0470C464968236903EBB0
:1047F0006218A368074691464FEA621A08F101065B
:10480000B3423FDB3846FFF723FE0023054600F1A5
:10481000140100F110021846534536DB20692AEADC
:10482000EA7A04F1140319F01F0901EB8A0103EB82
:10483000800C2ED0C9F1200E8A460022186800FA9A
:1048400009F002434AF8042B53F8042B9C4522FA42
:104850000EF2F3D8ACEB0403153B23F0030304334F
:1048600004F11500604588BF0423CA500AB108F15D
:104870000206013E38462E612146FFF71DFE2846FE
:10488000BDE8F08701315B00BAE742F8040F01335D
:10489000C2E7043953F8042B41F8042F9C45F9D89A
:1048A000E7E70A6903460069801A30B50DD1143371
:1048B000143103EB820401EB820154F8045D51F8DA
:1048C000042D954202D004D3012030BDA342F4D37D
:1048D000FBE74FF0FF30F8E72DE9F84F0C460646AE
:1048E000114620461746FFF7DCFF051E08D1294672
:1048F0003046FFF7ADFD0123C0E90435BDE8F88F70
:10490000A4BF3B46274630467968A6BF1C46002513
:104910000125FFF79DFD3E69C560256907F114017A
:1049200004F1140900F1140E07F1100201EB860CDA
:1049300009EB8505F246002759F8043B52F804BFFD
:104940001FFA83F817FA8BF71B0CA7EB0808C3EBC9
:104950001B4303EB28431FFA88F81F144D4548EA10
:1049600003434AF8043BE7D82B1B153B23F0030312
:1049700004331534A54238BF0423194473449E46BA
:104980000D4665450ED30CF10302521A22F00302C4
:1049900003398C4538BF00221A4452F8043D7BB1DC
:1049A0000661ABE755F8048B17FA88F4221402EB82
:1049B0001842A4B244EA02444EF8044B1714E0E74C
:1049C000013EEAE72DE9F34101211C46DDE90865D6
:1049D0009046FFF73DFDC4F31303C4F30A540746A2
:1049E0002CBB0193B8F1000326D068460093FFF773
:1049F000D8FD0099F0B1019AC0F1200302FA03F347
:104A00000B43C2407B610192019BBB61002B14BF31
:104A1000022101213961C4B1A4F233440444C0F13C
:104A2000350034602860384602B0BDE8F08143F4B8
:104A30008013D6E77961E7E701A8FFF7B2FD019B94
:104A40007B61012139612030E5E707EB8103A0F2AA
:104A5000324030601869FFF784FDC0EB41112960D6
:104A6000E1E738B502FB01F5294600F057F80446A6
:104A700018B12A460021FEF769F9204638BD00002A
:104A800038B50546002945D051F8043C0C1F002BD1
:104A9000B8BFE41800F034FA1F4A1368104633B95F
:104AA000636014602846BDE8384000F02FBAA34286
:104AB0000BD921686218934204BF1A685B6863606F
:104AC00004BF521822600460ECE71A465B680BB121
:104AD000A342FAD911685018A0420BD120680144B2
:104AE000501883421160DDD118685B68536001443F
:104AF0001160D7E702D90C232B60D3E72068211877
:104B00008B4204BF19685B68636004BF09182160A9
:104B10005460C7E738BD00BF78020020F8B5CD1C4F
:104B200025F0030508350C2D38BF0C25002D064651
:104B300001DBA94203D90C2333600020F8BD00F04B
:104B4000DFF921490A6814469CB9204F3B6823B914
:104B50002146304600F098F938602946304600F08A
:104B600093F9431C23D10C233360304600F0CEF977
:104B7000E3E723685B1B17D40B2B03D923601C448A
:104B8000256004E06368A2420CBF0B6053603046AE
:104B900000F0BCF904F10B00231D20F00700C21A3D
:104BA000CCD01B1AA350C9E722466468CCE7C41CCA
:104BB00024F00304A042E3D0211A304600F064F947
:104BC0000130DDD1CFE700BF780200207C02002059
:104BD0002DE9F0478E689E4282460C4690461F465D
:104BE00038D88A8912F4906F32D025680969A5EB0C
:104BF0000109656905EB450505EBD57501334B44A6
:104C00006D109D4238BF1D46530531D52946FFF72B
:104C100085FF064650B90C23CAF80030A38943F03B
:104C20004003A3814FF0FF30BDE8F08721694A4679
:104C3000FEF77EF8A38923F4906343F08003A381F9
:104C4000266165614E44A5EB09052660A5603E46D8
:104C5000BE4200D93E4632462068414600F036F951
:104C6000A36822689B1B3244A36022600020DBE71C
:104C70002A4600F051F906460028E1D12169504644
:104C8000FFF7FEFEC7E700002DE9F04F98468B893D
:104C90001B069DB007460D4614460ED50B6963B939
:104CA0004021FFF73BFF2860286120B90C233B60BF
:104CB0004FF0FF30D1E040236B61002309932023A4
:104CC0008DF82930CDF80C803023DFF8A8818DF8DD
:104CD0002A304FF0010923469A4613F8012B0AB1F6
:104CE000252AF9D1BAEB040B0BD05B4622462946A4
:104CF0003846FFF76DFF013000F0AA80099A5A4448
:104D000009929AF80030002B00F0A28000234FF0A7
:104D1000FF32CDE905230AF1010A049307938DF8C8
:104D200053301A935446052214F8011B5148FFF7DB
:104D30003FFB049AD8B9D00644BF20238DF85330E6
:104D4000110744BF2B238DF853309AF800302A2BDB
:104D500015D0079A544600204FF00A0C214611F84E
:104D6000013B303B092B4ED9B0B1079214E0A0EBC8
:104D7000080309FA03F313430493A246D2E7039B03
:104D8000191D1B680391002BBBBF5B4242F002025E
:104D900007930793B8BF049223782E2B0CD1637826
:104DA0002A2B35D1039B1A1D1B680392002BB8BF19
:104DB0004FF0FF3302340593DFF8C8A021780322B7
:104DC0005046FFF7F5FA40B14023A0EB0A0003FA82
:104DD00000F0049B03430134049314F8011B26489C
:104DE0008DF828100622FFF7E3FA002838D0234B6D
:104DF0001BBB039B073323F0070308330393099B73
:104E00003344099367E70CFB02320C460120A5E707
:104E100000230134059319464FF00A0C204610F880
:104E2000012B303A092A03D9002BC5D00591C3E7DD
:104E30000CFB012104460123F0E703AB00932A4653
:104E40000F4B04A93846FEF727F8421C0646D6D178
:104E5000AB895B063FF52CAF09981DB0BDE8F08F1C
:104E600003AB00932A46064B04A93846FEF7ACFA7A
:104E7000EBE700BFFC57000806580008992E000811
:104E8000D14B00080258000838B5064D00230446EF
:104E900008462B60FCF794FF431C02D12B6803B13A
:104EA000236038BD8402002082B001B901A942B15B
:104EB0004BB113780B601278101E18BF012002B09E
:104EC00070471046FBE76FF00100F8E7884210B525
:104ED00001EB020402D98442234607D8431EA142B3
:104EE00008D011F8012B03F8012FF8E7024401461E
:104EF0008A4200D110BD13F8014D02F8014DF7E7C9
:104F0000014800F03CB800BF44030020014800F015
:104F100037B800BF44030020F8B5074614460E46D4
:104F200021B9BDE8F8401146FFF7F8BD22B9FFF7F7
:104F3000A7FD25462846F8BD00F023F8A0420FD271
:104F400021463846FFF7EAFD05460028F2D03146F3
:104F50002246FDF7EDFE31463846FFF791FDE9E7C1
:104F60003546E7E70346084641B1FF2A04D98A22BD
:104F70001A604FF0FF3070470A7001207047704789
:104F8000704751F8043C181F002BBCBF0B58C018C9
:104F90007047000070B54FF0FF0C4CF4E06C1CEA59
:104FA00011541DBF1CEA135594EA0C0F95EA0C0F1F
:104FB00000F0DEF82C4481EA030621EA4C5123EA92
:104FC0004C5350EA013518BF52EA033541F48011C1
:104FD00043F4801338D0A0FB02CE4FF00005E1FB74
:104FE00002E506F00042E0FB03E54FF00006E1FBBE
:104FF00003569CF0000F18BF4EF0010EA4F1FF0401
:10500000B6F5007F64F5407404D25FEA4E0E6D4140
:1050100046EB060642EAC62141EA55514FEAC52051
:1050200040EA5E504FEACE2EB4F1FD0C88BFBCF5CD
:10503000E06F1ED8BEF1004F08BF5FEA500E50F17E
:10504000000041EB045170BD06F0004646EA010144
:1050500040EA020081EA0301B4EB5C04C2BFD4EB76
:105060000C0541EA045170BD41F480114FF0000E6F
:10507000013C00F3AB8014F1360FDEBF002001F0DD
:10508000004170BDC4F10004203C35DA0C341BDC57
:1050900004F11404C4F1200500FA05F320FA04F029
:1050A00001FA05F240EA020001F0004221F000415D
:1050B00010EBD37021FA04F642EB06015EEA430ED0
:1050C00008BF20EAD37070BDC4F10C04C4F1200500
:1050D00000FA04F320FA05F001FA04F240EA0200B3
:1050E00001F0004110EBD37041F100015EEA430E84
:1050F00008BF20EAD37070BDC4F1200500FA05F2A4
:105100004EEA020E20FA04F301FA05F243EA020322
:1051100021FA04F001F0004121FA04F220EA020031
:1051200000EBD3705EEA430E08BF20EAD37070BD77
:1051300094F0000F0FD101F00046400041EB010157
:1051400011F4801F08BF013CF7D041EA060195F039
:10515000000F18BF704703F00046520043EB0303F3
:1051600013F4801F08BF013DF7D043EA06037047E0
:1051700094EA0C0F0CEA135518BF95EA0C0F0CD0EB
:1051800050EA410618BF52EA4306D1D181EA030131
:1051900001F000414FF0000070BD50EA410606BF2B
:1051A0001046194652EA430619D094EA0C0F02D170
:1051B00050EA013613D195EA0C0F05D152EA0336B5
:1051C0001CBF104619460AD181EA030101F00041D3
:1051D00041F0FE4141F470014FF0000070BD41F01C
:1051E000FE4141F4780170BD70B54FF0FF0C4CF4F6
:1051F000E06C1CEA11541DBF1CEA135594EA0C0F15
:1052000095EA0C0F00F0A7F8A4EB050481EA030E61
:1052100052EA03354FEA013100F088804FEA033348
:105220004FF0805545EA131343EA12634FEA022216
:1052300045EA111545EA10654FEA00260EF00041D7
:105240009D4208BF964244F1FD0404F5407402D229
:105250005B084FEA3202B61A65EB03055B084FEABA
:1052600032024FF480104FF4002CB6EB020E75EBB7
:10527000030E22BFB61A754640EA0C005B084FEADF
:105280003202B6EB020E75EB030E22BFB61A75465C
:1052900040EA5C005B084FEA3202B6EB020E75EBA7
:1052A000030E22BFB61A754640EA9C005B084FEA1F
:1052B0003202B6EB020E75EB030E22BFB61A75462C
:1052C00040EADC0055EA060E18D04FEA051545EA1B
:1052D00016754FEA06164FEAC30343EA52734FEAC4
:1052E000C2025FEA1C1CC0D111F4801F0BD141EA3D
:1052F00000014FF000004FF0004CB6E711F4801FA2
:1053000004BF01430020B4F1FD0C88BFBCF5E06F81
:105310003FF6AFAEB5EB030C04BFB6EB020C5FEA91
:10532000500C50F1000041EB045170BD0EF0004EE6
:105330004EEA113114EB5C04C2BFD4EB0C0541EA18
:10534000045170BD41F480114FF0000E013C90E615
:1053500045EA060E8DE60CEA135594EA0C0F08BFD9
:1053600095EA0C0F3FF43BAF94EA0C0F0AD150EAD8
:1053700001347FF434AF95EA0C0F7FF425AF10466B
:1053800019462CE795EA0C0F06D152EA03353FF493
:10539000FDAE1046194622E750EA410618BF52EA10
:1053A00043067FF4C5AE50EA41047FF40DAF52EAE4
:1053B00043057FF4EBAE12E74FF0FF3C06E000BF81
:1053C0004FF0010C02E000BF4FF0010C4DF804CD8E
:1053D0004FEA410C7FEA6C5C4FEA430C18BF7FEA4E
:1053E0006C5C1BD001B050EA410C0CBF52EA430C7C
:1053F00091EA030F02BF90EA020F0020704710F1FC
:10540000000F91EA030F58BF994208BF90422CBF8A
:10541000D8176FEAE37040F0010070474FEA410C83
:105420007FEA6C5C02D150EA013C07D14FEA430CA1
:105430007FEA6C5CD6D152EA033CD3D05DF8040B12
:10544000704700BF8446104662468C461946634644
:1054500000E000BF01B5FFF7B7FF002848BF10F11B
:10546000000F01BD4DF808EDFFF7F4FF0CBF012060
:1054700000205DF808FB00BF4DF808EDFFF7EAFFDC
:1054800034BF012000205DF808FB00BF4DF808ED97
:10549000FFF7E0FF94BF012000205DF808FB00BF8C
:1054A0004DF808EDFFF7CEFF94BF012000205DF816
:1054B00008FB00BF4DF808EDFFF7C4FF34BF012023
:1054C00000205DF808FB00BF4FEA410C7FEA6C5CEE
:1054D00002D150EA013C0AD14FEA430C7FEA6C5CEE
:1054E00002D152EA033C02D14FF0000070474FF066
:1054F000010070474FEA410212F5001215D211D592
:105500006FF47873B3EB625212D94FEAC12343F0C0
:10551000004343EA505311F0004F23FA02F018BF42
:10552000404270474FF00000704750EA013005D10B
:1055300011F0004008BF6FF0004070474FF00000CE
:10554000704700BF537461636B206672616D653A8A
:105550000A000000205230203D2020253038580A13
:1055600000000000205231203D2020253038580A0C
:1055700000000000205232203D2020253038580AFB
:1055800000000000205233203D2020253038580AEA
:105590000000000020523132203D20253038580ACA
:1055A00000000000204C52203D2020253038580AB1
:1055B00000000000205043203D2020253038580AAC
:1055C0000000000020505352203D20253038580A5A
:1055D000000000004653522F4641523A0A00000094
:1055E0002043465352203D2020253038580A0000E1
:1055F0002048465352203D2020253038580A0000CC
:105600002044465352203D2020253038580A0000BF
:105610002041465352203D2020253038580A0000B2
:10562000204D4D464152203D20253038580A00007B
:105630002042464152203D2020253038580A0000A3
:105640004D6973630A000000204C522F4558435F98
:1056500052455455524E3D20253038580A0000001E
:105660005B486172644661756C745D0A00000000FD
:105670005B4275734661756C745D0A005B557361BE
:1056800067654661756C745D0A0000002530326400
:105690003A253032643A253032640000252E3266D5
:1056A000204300000000000000000000010203048D
:1056B000060708090000000001020304494E4600E5
:1056C000696E66004E414E006E616E0030003031F2
:1056D0003233343536373839414243444546003059
:1056E0003132333435363738396162636465660088
:1056F000496E66696E697479004E614E0000000063
:105700000080E03779C34143176E05B5B5B89346BD
:10571000F5F93FE9034F384D321D30F94877825A89
:105720003CBF737FDD4F1575000000000000F03FA7
:10573000000000000000244000000000000059406C
:105740000000000000408F40000000000088C340BF
:1057500000000000006AF8400000000080842E4134
:1057600000000000D01263410000000084D7974180
:105770000000000065CDCD41000000205FA0024286
:10578000000000E876483742000000A2941A6D42FB
:10579000000040E59C30A2420000901EC4BCD642EE
:1057A00000003426F56B0C430080E03779C3414399
:1057B00000A0D8855734764300C84E676DC1AB430F
:1057C000003D9160E458E143408CB5781DAF15442D
:1057D00050EFE2D6E41A4B4492D54D06CFF0804408
:1057E000F64AE1C7022DB544B49DD9794378EA441D
:1057F00005000000190000007D000000232D302B63
:105800002000686C4C0065666745464700430050C1
:105810004F534958002E0000202020202020202017
:105820002028282828282020202020202020202050
:105830002020202020202020881010101010101070
:1058400010101010101010100404040404040404B8
:105850000404101010101010104141414141410149
:105860000101010101010101010101010101010128
:105870000101011010101010104242424242420237
:1058800002020202020202020202020202020202F8
:1058900002020210101010200000000000000000A2
:1058A00000000000000000000000000000000000F8
:1058B00000000000000000000000000000000000E8
:1058C00000000000000000000000000000000000D8
:1058D00000000000000000000000000000000000C8
:1058E00000000000000000000000000000000000B8
:1058F00000000000000000000000000000000000A8
:105900000000000000000000000000000000000097
:0859100000000000000000008F
:0859180048D1FF7F01000000EF
:105920007856341201FFFFFF10000000F401002040
:10593000000000000024F4001C0000200000000013
:105940000000000000000000000000000000000057
:105950000000000000000000000000000000000047
:105960000000000000000000000000000000000037
:105970000000000000000000000000000000000027
:105980000000000000000000000000000000000017
:1059900000000000000000000000000043000000C4
:1059A00000000000000000000000000000000000F7
:1059B00000000000000000000000000043000000A4
:1059C00000000000000000000000000000000000D7
:1059D0000000000000000000000000004300000084
:1059E00000000000000000000000000000000000B7
:1059F0000000000000000000000000004300000064
:105A00000000000000000000000000000000000096
:105A10000000000000000000000000004300000043
:105A20000000000000000000000000000000000076
:105A30000000000000000000000000004300000023
:105A40000000000000000000000000000000000056
:105A50000000000000000000000000004300000003
:105A60000000000000000000000000000000000036
:105A7000000000000000000000000000654F00086A
:105A8000A94E00080000000017580008155800082B
:105A90000158000801580008015800080158000882
:105AA0000158000801580008015800080158000872
:105AB00001580008FFFFFFFFFFFFFFFFFFFFFFFF91
:105AC000FFFF00000100415343494900000000006E
:105AD00000000000000000000000000000000000C6
