:020000040800F2
:1000000000000320C1020008795E00087B5E000842
:100010007D5E00087F5E0008815E00080000000031
:10002000000000000000000000000000835E0008E7
:10003000855E000800000000875E0008895E0008F9
:10004000C9450008C9450008C9450008C945000858
:10005000C9450008C9450008C9450008C945000848
:10006000C9450008C9450008C9450008C945000838
:10007000C9450008915E0008C9450008A15E000856
:10008000B15E0008C9450008C9450008C945000817
:10009000C9450008C9450008C9450008C945000808
:1000A000C9450008C9450008C9450008C9450008F8
:1000B000C9450008C9450008C9450008C9450008E8
:1000C000C9450008C9450008C9450008C9450008D8
:1000D000C9450008C9450008C9450008C9450008C8
:1000E000C9450008C9450008C9450008C9450008B8
:1000F000C9450008C9450008C9450008C9450008A8
:10010000C9450008C9450008C9450008C945000897
:10011000C9450008C9450008C9450008C945000887
:10012000C9450008C9450008C9450008C945000877
:10013000C9450008C9450008C9450008C945000867
:10014000C9450008C9450008C9450008C945000857
:10015000C9450008C9450008C9450008C945000847
:10016000C9450008C9450008C9450008C945000837
:10017000C9450008C9450008C9450008000000003D
:10018000C9450008C9450008C9450008C945000817
:10019000C9450008C9450008C9450008C945000807
:1001A000C9450008C9450008C945000800B583B025
:1001B00004F070F9304B314A1360314A1360314B0F
:1001C000314A03E052F8041B43F8041B2F498B42C9
:1001D000F8D32A4B1A682E4B9A4200D0FEE7284BE0
:1001E0001A682C4B9A42F9D1234B2B4A13602B4AA5
:1001F00013602B4B02E0002243F8042B294A934260
:10020000F9D3254B1B6813B9244B1B6803B1FEE7D8
:1002100004F04CF9694601A804F0E6F8224C234B9F
:10022000E41AA410002504E0204B53F82530984729
:100230000135AC42F8DC1E4C1E4BE41AA41000251C
:1002400004E01C4B53F8253098470135AC42F8DCEC
:100250000099019805F07AFB0546174C174BE41AF4
:10026000A41004E0013C154B53F824309847002CAF
:10027000F8DC284605F02CFEBABADECA00000020E1
:10028000E801002000000020F0C10008EC0100207F
:100290007856341232547698EC010020D4060020AF
:1002A000EC010020D8060020140400081404000803
:1002B00014040008140400081404000814040008BE
:1002C00008B5FFF773FF00BEFEE71EF0040F0CBF7A
:1002D000EFF30880EFF309807146414A10472DE99A
:1002E000F04182B004460D46124B5F6BD3F8388064
:1002F0009E6A1B6B13F0020F03D00E4BDB6A002BC0
:100300000BDB0D4804F078F8009543463A46314639
:10031000204604F0CFF800BEFEE74BF6AB6104F0D8
:1003200043F90028EDD0034B4FF00042DA6202B0EF
:10033000BDE8F08100ED00E0C0BC000800BEFEE7B3
:100340001EF0040F0CBFEFF30880EFF30980714635
:10035000244A10472DE9F04182B004460D46084B6F
:100360005F6BD3F838809E6A064804F045F8009524
:1003700043463A463146204604F09CF800BEFEE76C
:1003800000ED00E0D0BC00081EF0040F0CBFEFF33E
:100390000880EFF309807146134A10472DE9F041B8
:1003A00082B004460D46084B5F6BD3F838809E6AD6
:1003B000064804F021F8009543463A463146204667
:1003C00004F078F800BEFEE700ED00E0DCBC0008B9
:1003D00000BEFEE700BEFEE700BEFEE7704700007D
:0C03E000DF020008550300089D03000820
:1003EC00F0C1000800000020EC010020F0C1000862
:1003FC000000001000000010EC010020D8060020C6
:08040C000000001000000010C8
:1004200010B504460E4B18784FF47A73B3FBF0F313
:100430000C4A1068B0FBF3F000F0D4F868B90F2C48
:1004400001D901200AE0002221464FF0FF3000F0E0
:100450006BF8054B1C60002000E0012010BD00BFC0
:1004600004000020140000200800002008B50B4BF9
:100470001A6842F400721A601A6842F480621A60C4
:100480001A6842F480721A60032000F02FF80020EE
:10049000FFF7C6FF05F0DEFB002008BD003C024070
:1004A000034A1168034B1B780B441360704700BF6D
:1004B0002003002004000020014B1868704700BF93
:1004C0002003002038B50446FFF7F6FF0546B4F1D7
:1004D000FF3F02D0044B1B781C44FFF7EDFF401B8D
:1004E000A042FAD338BD00BF0400002010B5044676
:1004F000C31E042B0FD80A4AD36823F4E0631B04FD
:100500001B0C240204F4E064234343F0BF6343F470
:100510000033D36010BD9221024805F0E9FAEAE702
:1005200000ED00E0D0B9000870B505460C4616464F
:100530000F2A25D80F2C28D81B4BDB68C3F30223C6
:10054000C3F10701042928BF04211A1D062A21D955
:10055000033B4FF0FF3202FA01F124EA01049C4010
:1005600002FA03F326EA03063443002D14DB2401C8
:10057000E4B205F1604505F5614585F8004370BDBD
:10058000AA210A4805F0B4FAD4E7AB21074805F0E0
:10059000AFFAD1E70023DCE705F00F052401E4B250
:1005A000034B5C55EBE700BF00ED00E0D0B900085D
:1005B00014ED00E010B5041E0ADB002C07DB04F08C
:1005C0001F02640901239340044A42F8243010BDFD
:1005D000BE21034805F08CFAEFE700BF00E100E020
:1005E000D0B900080138B0F1807F0AD2064B5860BC
:1005F000064AF02182F823100020986007221A6032
:1006000070470120704700BF10E000E000ED00E0FF
:1006100010B50446042800D038B9042C0BD0094A80
:10062000136823F00403136010BD40F2C91106489B
:1006300005F05EFAF1E7034A136843F00403136020
:10064000F2E700BF10E000E0D0B90008C0B110B57B
:10065000044602680B4B9A4204D040F215110A4836
:1006600005F046FA237933B102232371002020617B
:100670000123237110BD6371204605F007FBF3E7EA
:10068000012070470074004000BA00082DE9F041D5
:10069000044617469846069D0E4609B1102938D1E2
:1006A0001DB1042D01D0082D39D16379012B6ED0F5
:1006B0000123637102232371002E3FD1A368354AC1
:1006C000DA63A368344A1A64A368344ADA64226895
:1006D000136843F480531360042D29D0082D2AD0C9
:1006E0001DB33246002E47D121680B6843F40053F6
:1006F0000B6043463946A06800F0D8FA21680B68C1
:10070000012202FA06F61E430E6000206071BDE869
:10071000F08140F20D21224805F0EAF9C0E740F2ED
:100720000E211F4805F0E4F9BFE722680832D9E737
:1007300022680C32D6E722681032D3E7E368194A00
:10074000DA63E368184A1A64E368184ADA642268CC
:10075000136843F080531360042D07D0082D08D090
:100760000DB10022BEE722681432BBE722681832BE
:10077000B8E722681C32B5E721680B6843F00053E4
:100780000B6043463946E06800F090FAB6E7022075
:10079000BDE700BF0B0800081D0800082908000875
:1007A00000BA0008EF080008FF080008090900085F
:1007B00038B504460D4609B1102916D121680B68D9
:1007C0004FF48052AA4023EA02030B6021680B68B1
:1007D0000122AA4023EA02030B6065B9A06800F079
:1007E000B1FA60B10423237138BD4FF4217105487B
:1007F00005F07EF9E2E7E06800F0A4FAF1E70123F2
:100800002371F1E700BA0008704710B5846B2046E9
:10081000FFF7FAFF0123237110BD704708B5806B05
:10082000FFF7FBFF08BD704710B5846B236943F0E9
:10083000040323612046FFF7F6FF0123237110BD57
:1008400070B504460E4615460B687BB1242B0DD0BF
:100850000C2B0BD0142B09D01C2B07D0042B05D04C
:100860002C2B03D0342B01D03C2B26D173680BB139
:10087000022B28D10DB1102D2BD16379012B2ED055
:1008800001216171022323712068036840F6FE7222
:10089000AA4023EA0202336876683343AB4013432D
:1008A000036020680368C02202FA05F523EA050503
:1008B000056021710020607170BD40F25631094819
:1008C00005F016F9D2E740F25731064805F010F965
:1008D000D0E74FF45671034805F00AF9CDE702203E
:1008E000EAE700BF00BA000870477047704710B5CC
:1008F000846B2046FFF7F8FF0123237110BD08B574
:10090000806BFFF7F2FF08BD10B5846B236943F0DD
:10091000040323612046FFF7E9FF0123237110BD83
:1009200030B405682C6824F480242C60046863606B
:100930008368402B05D0036899600368DA6030BC97
:10094000704703689A600368D960F8E710B40368D9
:10095000D9B210390B4AA2FB014212090A4CA25C1F
:10096000C2655F2908D923F47F7323F0030304339E
:100970008365806D10BC704723F47F7323F00303FD
:100980008365F6E7ABAAAAAA58BA0008836A826907
:1009900092B9012B0AD0022B02D00BB10020704774
:1009A000C36A13F0807F28D100207047C36AB3F177
:1009B000C07F24D000207047B2F5005F09D0022B21
:1009C00025D9032B25D1C36A13F0807F23D10020C2
:1009D0007047032B03D8DFE803F01404140A002047
:1009E0007047C36A13F0807F0DD100207047C36A3F
:1009F000B3F1C07F09D0002070470120704701206B
:100A00007047012070470120704701207047012086
:100A100070470020704701207047000070B5044601
:100A2000FFF74AFD002C00F03881054623689C4AF8
:100A3000934231D0183293422ED0183293422BD0A9
:100A40001832934228D01832934225D0183293425C
:100A500022D0183293421FD0183293421CD002F594
:100A60005672934218D01832934215D018329342DE
:100A700012D0183293420FD0183293420CD0183251
:100A8000934209D01832934206D01832934203D0D1
:100A9000B821844805F02CF86368A3B1B3F1007F56
:100AA00011D0B3F1806F0ED0B3F1C06F0BD0B3F1A2
:100AB000006F08D0B3F1206F05D0B3F1406F02D0C2
:100AC000B3F1606F6DD1A3681BB1402B01D0802BB7
:100AD0006CD1E368B3F5007F01D0002B6BD12369A3
:100AE000B3F5806F01D0002B6AD163692BB1B3F5E8
:100AF000006F02D0B3F5805F67D1A3692BB1B3F566
:100B0000005F02D0B3F5804F64D1E36923B1B3F540
:100B1000807F01D0202B62D1236A43B1B3F5803F9F
:100B200005D0B3F5003F02D0B3F5403F5CD1636A16
:100B30000BB1042B5DD1636AC3B1A36A032B5DD8EB
:100B4000E36A43B1B3F5000F05D0B3F1807F02D063
:100B5000B3F1C07F57D1236B43B1B3F5001F05D06C
:100B6000B3F5800F02D0B3F5C00F51D1002384F844
:100B70003430022384F835302268136823F00103EF
:100B8000136023681A6812F0010F46D0FFF794FC37
:100B9000401B0528F5D920236365032084F8350020
:100BA00070BDB9213F4804F0A3FF8CE7BA213D484E
:100BB00004F09EFF8DE7BB213A4804F099FF8EE7D1
:100BC000BC21384804F094FF8FE7BD21354804F07C
:100BD0008FFF92E7BE21334804F08AFF95E7BF21DB
:100BE000304804F085FF97E7C0212E4804F080FFCD
:100BF0009DE7C1212B4804F07BFF9CE7C6212948D3
:100C000004F076FF9CE7C721264804F071FFA2E7B5
:100C1000C821244804F06CFFA8E71A682248104055
:100C20006168A2680A43E1680A4321690A4361696D
:100C30000A43A1690A43E1690A43216A0A4302435C
:100C4000616A04291ED01A602668756925F00705B7
:100C5000636A1D43042B07D1A36A1D43E36A1BB1DA
:100C60002046FFF793FE90B975612046FFF76EFEB0
:100C7000E26D3F239340836000206065012384F888
:100C800035308DE7E16A206B01430A43DBE74023FF
:100C90006365012084F8350082E7012080E700BF0A
:100CA000106002402CBA00083F8010F02DE9F0419E
:100CB00004460E4617461D46D0F858805A1E4FF679
:100CC000FE739A4211D894F83430012B36D00123A8
:100CD00084F8343094F83530DBB2012B0BD000238C
:100CE00084F834300220BDE8F0814FF4E6711448F6
:100CF00004F0FEFEE7E7022384F835300023636545
:100D00002B463A4631462046FFF70AFEE26D3F2366
:100D10009340C8F808302268136843F01603136044
:100D2000236C23B12268136843F008031360226820
:100D3000136843F0010313600020D4E70220D2E7D8
:100D40002CBA000870B50446866DFFF7B5FB94F821
:100D50003530DBB2022B06D080236365002384F894
:100D60003430012070BD05462268136823F0160355
:100D700013602268536923F080035361236CE3B14D
:100D80002268136823F0080313602268136823F0B5
:100D90000103136023681B6813F0010F11D0FFF7E4
:100DA0008BFB431B052BF5D920236365002384F8B7
:100DB0003430032084F83500D4E7A36C002BDFD156
:100DC000E3E7E26D3F239340B360002084F83400F2
:100DD000012384F83530C5E7F0B583B0044600231D
:100DE0000193724B1D68724BA3FB0535AD0A876DED
:100DF0003E68C26D08239340334210D003681A68DE
:100E000012F0040F0BD01A6822F004021A60C26DAF
:100E100008239340BB60436D43F001034365E26DDB
:100E200001239340334209D02268526912F0800FA7
:100E300004D0BB60636D43F002036365E26D04237D
:100E40009340334209D02268126812F0020F04D096
:100E5000BB60636D43F004036365E26D1023934050
:100E6000334224D02268126812F0080F1FD0BB60F2
:100E700023681A6812F4802F0DD01B6813F4002F1A
:100E800004D1236C9BB12046984710E0A36C73B14A
:100E9000204698470BE01A6812F4807F03D11A6845
:100EA00022F008021A60236C0BB120469847E26DCD
:100EB00020239340334255D02268126812F0100F5D
:100EC00050D0BB6094F83530DBB2052B0ED02368D0
:100ED0001A6812F4802F33D01B6813F4002F2AD124
:100EE000636C002B3ED0204698473BE02268136895
:100EF00023F0160313602268536923F080035361C3
:100F0000236CA3B12268136823F008031360E26D19
:100F10003F239340BB60002384F83430012384F8DE
:100F20003530236D002B3FD0204698473CE0A36C22
:100F3000002BE7D1EBE7E36BA3B12046984711E024
:100F40001A6812F4807F09D11A6822F010021A6020
:100F5000002384F83430012384F83530E36B0BB17F
:100F600020469847636DFBB1636D13F0010F17D0F6
:100F7000052384F835302268136823F001031360D9
:100F8000019B01330193AB4204D823681B6813F023
:100F9000010FF5D1002384F83430012384F8353073
:100FA000E36C0BB12046984703B0F0BD140000205D
:100FB000B5814E1B406D70472DE9F04383B0074665
:100FC0000E46B94B98422BD003F58063984227D048
:100FD00003F58063984223D003F5806398421FD0C5
:100FE00003F5806398421BD003F58063984217D0C5
:100FF00003F58063984213D003F5806398420FD0C5
:1010000003F5806398420BD003F58063984207D0C4
:1010100003F58063984203D0B321A44804F068FD2F
:1010200033689AB212B11B0C1B041BB1B4219F4848
:1010300004F05EFD7368012B1ED9112B1CD0022B0E
:101040001AD0122B18D09A4A934215D002F580126A
:10105000934211D002F5801293420DD0A2F5F812FE
:10106000934209D002F58012934205D002F5801216
:10107000934201D0032B04D1B368022B06D800247D
:101080004BE0B521894804F033FDF5E7B6218748E8
:1010900004F02EFDF3E7C821844804F029FD52E056
:1010A000E021824804F024FD92E0092300E00023BF
:1010B0008B40034302327F4941F822307E4B1A684D
:1010C0006FEA080322EA0801706810F4803F01D03B
:1010D00048EA0201784A1160526803EA0201706826
:1010E00010F4003F01D048EA0201734A516092684F
:1010F00003EA0201706810F4801F01D048EA02017F
:101100006D4A9160D2681340716811F4001F01D0DC
:1011100048EA0203684AD36001340F2C00F2D680FB
:101120000125A540336803EA050835EA0303F3D136
:1011300073685A1E012A03D9112B01D0122B15D125
:10114000F368032BA7D8BA68610003238B4022EA17
:101150000302F3688B401343BB607A6822EA0502FE
:101160007368C3F30015A54015437D60FA686500F8
:101170000323AB406FEA030922EA0302B368AB40E2
:101180001343FB607368022B01D0122B30D13369FB
:10119000F3B1092B1CD0012B1AD0022B18D0032B32
:1011A00016D0042B14D0052B12D0062B10D0072BF1
:1011B0000ED0082B0CD00A2B0AD00B2B08D00C2BEE
:1011C00006D00D2B04D00F2B02D00E2B7FF468AF6E
:1011D000E208083257F8220004F0070399000F23B1
:1011E0008B4020EA030033698B40034347F82230E9
:1011F0003B6809EA0309736803F00303AB4043EA61
:1012000009033B60736813F0805F85D0002301936E
:101210002A4B5A6C42F480425A645B6C03F480435C
:101220000193019BA208911C224B53F8210004F06A
:10123000030399000F238B4020EA03001A4B9F42BF
:101240003FF435AF03F580639F4222D003F58063FE
:101250009F4220D003F580639F421ED003F5806338
:101260009F421CD003F580639F421AD003F5806330
:101270009F4225D003F580639F4223D003F580630E
:101280009F4221D003F580639F423FF40EAF0A23B3
:101290000EE701230CE702230AE7032308E70423F0
:1012A00006E7052304E700BF0000024060BA00081B
:1012B0000000111000380140003C0140003802409D
:1012C0000623F5E60723F3E60823F1E603B0BDE8BD
:1012D000F08300BF38B504460D4621B123691D4295
:1012E00007D0012038BD4FF4BF71034804F000FC63
:1012F000F4E70020F6E700BF60BA000870B50546C5
:1013000014460E4621B1012C08D86CB1AE6170BDF7
:1013100040F29F11064804F0EBFBF4E74FF4D07164
:10132000034804F0E5FBF0E73604AE61EFE700BFE9
:1013300060BA000803685A6912F4806F01D1002076
:1013400070476FF480625A6100230363202280F8A3
:101350003D2080F83E30026C42F00402026480F8C6
:101360003C30012070472DE9F04107460D4690467C
:101370001E4622E0FFF7A0F8069BC01AB04200D834
:10138000DEB900233B63202287F83D2087F83E30FA
:101390003A6C42F020023A6487F83C3001201AE0AF
:1013A0003B689C6925EA0404A4B2B4FA84F4640995
:1013B000A0450FD1B6F1FF3FDCD1C5F30743012BA8
:1013C000EED13B685C6925EA0404A4B2B4FA84F463
:1013D0006409EDE70020BDE8F0812DE9F041054604
:1013E0000E46174698463DE01A6842F400721A60AD
:1013F0002B686FF480625A6100232B63202285F8EA
:101400003D2085F83E302A6C42F004022A6485F8BB
:101410003C30012034E0FFF74FF8A0EB0800B84261
:1014200000D8FFB900232B63202285F83D2085F8E2
:101430003E302A6C42F020022A6485F83C300120BC
:101440001EE02B689C6926EA0404A4B2003C18BF85
:101450000124A4B12B685A6912F4806FC4D1B7F18A
:10146000FF3FD8D1C6F30743012BEAD12B685C6953
:1014700026EA0404A4B2003C18BF0124E9E70020D6
:10148000BDE8F081F0B583B004460D4616461F4610
:10149000C36A082B0DD0012B0BD013F5803F08D069
:1014A000036B122B0AD10268136843F48073136034
:1014B00004E02268136843F4807313600097334696
:1014C00000224FF001112046FFF74DFF80B923693C
:1014D000B3F5804F16D1236805F0FE051D613B462C
:1014E000324613492046FFF778FFF8B903B0F0BD44
:1014F00023681B6813F4807F02D04FF400732364C9
:101500000320F3E7EB11226803F0060343F0F00336
:1015100013613B46324607492046FFF75EFF18B984
:101520002368EDB21D61DAE70120DFE70120DDE786
:10153000020001000800010070B504460D46164681
:1015400023685B6913F0800F1CD12046FFF7F2FE81
:10155000D0B9B5F1FF3FF3D0FEF7AEFF801BA84234
:1015600001D8002DECD100232363202284F83D20F4
:1015700084F83E30226C42F02002226484F83C3031
:10158000012000E0002070BD0120FCE72DE9F047BC
:1015900084B004460D46164699460C9FDDF834800B
:1015A0000268136843F4806313600368196841F4A8
:1015B00080711960CDF800803B4600224FF0011188
:1015C000FFF7D1FE70B95FFA85FA236805F0FE05D2
:1015D0001D6143463A4641492046FFF7FEFE68B189
:1015E000012008E023681B6813F4807F02D04FF4C9
:1015F00000732364032004B0BDE8F0870023039345
:1016000023685A6903929B690393039B42463946B8
:101610002046FFF791FF80B9B9F1010F18D1236877
:10162000F6B21E61424639462046FFF785FF68B391
:10163000236C042B24D00120DDE7236C042B01D084
:101640000120D8E72268136843F400731360F7E7BA
:101650002368320A1A61424639462046FFF76CFF7A
:1016600018B92368F6B21E61DCE7236C042B01D0A5
:101670000120C0E72268136843F400731360F7E7A2
:101680002268136843F400731360D4E72268136878
:1016900043F480731360CDF800803B4600224FF086
:1016A00001112046FFF75FFE68B922684AF0010386
:1016B000136143463A4609492046FFF78EFE00284B
:1016C00099D0012097E723681B6813F4807F02D02C
:1016D0004FF40073236403208DE700BF0200010074
:1016E00070B504460D46164623685B6913F0040F77
:1016F0001CD12046FFF71EFED0B9B5F1FF3FF3D055
:10170000FEF7DAFE801BA84201D8002DECD10023A1
:101710002363202284F83D2084F83E30226C42F07E
:101720002002226484F83C30012000E0002070BDDB
:101730000120FCE770B505460C4616462B68596932
:1017400011F0400F29D1596911F0100F15D1FEF792
:10175000B3FE801BA04201D8002CEFD100232B63E5
:10176000202285F83D2085F83E302A6C42F0200288
:101770002A6485F83C30012070BD6FF010025A6178
:1017800000232B63202285F83D2085F83E302A6C0B
:101790002A6485F83C300120EEE70020ECE70000E9
:1017A000002800F04181F8B504460368A04A93423E
:1017B0000CD002F58062934208D002F58062934219
:1017C00004D040F2BD119B4804F092F96368013BDC
:1017D000994A934200F2A980A3681BB1B3F5804FE8
:1017E00040F0A980E36823F47F7323F00303002B08
:1017F00040F0A7802369B3F5804F03D0B3F5404F85
:1018000040F0A5806369012B00F2A780A36933F043
:10181000FE0340F0A880E36913B1402B40F0A9809B
:10182000236A13B1802B40F0AA8094F83D30002B3E
:1018300000F0AB80242384F83D302268136823F045
:10184000010313602268136843F4004313602268A5
:10185000136823F40043136001F016F96268774BB4
:101860009A4200F29880764B98428CBF0023012365
:10187000002B40F0DB80734DA5FB0035AF0C2668D4
:10188000716821F03F0141EA9541716021680B6A5E
:1018900023F03F036568694A954200F282807A1C12
:1018A00013430B622568E96921F44F4121F0FF01E0
:1018B0006368624A93427ED801385B00B0FBF3F064
:1018C000013040F6FC73184200F0AA80C0F30B030D
:1018D0000B43EB6121680B6823F0C003E269206AC7
:1018E000024313430B6021688B6823F4034323F006
:1018F000FF032269E068024313438B602168CB68D1
:1019000023F0FF036269A06902431343CB6022689E
:10191000136843F00103136000202064202384F83F
:101920003D30206384F83E00F8BD4FF4DF7141483C
:1019300004F0DEF850E740F2BF113E4804F0D8F85A
:1019400050E74FF4E0713B4804F0D2F852E740F220
:10195000C111384804F0CCF854E74FF4E171354830
:1019600004F0C6F852E740F2C311324804F0C0F860
:1019700051E74FF4E2712F4804F0BAF850E740F213
:10198000C5112C4804F0B4F84FE784F83C302046E9
:1019900004F0D4F94EE72C4B98428CBF002301236E
:1019A00066E74FF4967202FB07F2284DA5FB025240
:1019B0009209013274E7A268BAB9461E03EB4307E5
:1019C000B6FBF7F60136C6F30B06B6FA86F67609CD
:1019D00046BBC2B9421E03EB4303B2FBF3F2013232
:1019E000C2F30B0242F4004372E7461E03EB830787
:1019F00007EB8707B6FBF7F60136C6F30B06B6FA18
:101A000086F67609E4E7421E03EB830303EB8303C8
:101A1000B2FBF3F20132C2F30B0242F4404357E748
:101A2000042355E7012353E70120704701207BE79A
:101A30000054004090BA00087F1A0600A0860100FA
:101A40007F841E0083DE1B43FF083D00D34D6210E0
:101A50002DE9F04385B004460F46914698460C9E0A
:101A6000FEF72AFD054694F83D00C0B2202804D0B8
:101A70000227384605B0BDE8F083009519230122FE
:101A80004F492046FFF76FFC002840F0928094F801
:101A90003C30012B00F08F80012384F83C30236818
:101AA0001A6812F0010F03D11A6842F001021A609D
:101AB0002268136823F400631360212384F83D3007
:101AC000102384F83E3000232364C4F82490A4F843
:101AD0002A80638D23853B4BE3622B463246394691
:101AE0002046FFF7CFFC0746002866D1002303936A
:101AF00023685A6903929B690393039B11E0236C4B
:101B0000042B01D00127B4E72268136843F4007363
:101B10001360F7E72A4631462046FFF7E1FD00282B
:101B20002ED1238D002B36D02A4631462046FFF792
:101B300003FD0028E3D1626A236812781A61616AA2
:101B40004B1C6362638D9BB2013B9BB26385238D0B
:101B5000013B9BB223852268506910F0040FD9D055
:101B6000002BD7D04B781361636A01336362638DB6
:101B70009BB2013B9BB26385238D013B2385C9E763
:101B8000236C042B01D0012773E72268136843F408
:101B900000731360F7E72268136843F4007313605F
:101BA000202384F83D30002384F83E3084F83C3014
:101BB0005FE702275DE702275BE7012759E700BFE0
:101BC000020010000000FFFF90F83D30DBB2202B38
:101BD0005FD110B5044600295DD0002A5DD090F891
:101BE0003C30012B5BD0012380F83C30036818683F
:101BF00010F0010F03D1186840F001001860206850
:101C0000036823F400630360222384F83D3020231B
:101C100084F83E300023236461626285628D2285F0
:101C2000204AE262A26B2049D163A26B1F49D164B2
:101C3000A26B1364A26B5364A26B9364A26B1365D3
:101C40002168238D626A1031A06BFFF72FF890B9DD
:101C50002268136843F480631360002384F83C30E7
:101C60002268536843F4407353602268536843F416
:101C70000063536012E0202384F83D30002284F892
:101C80003E20236C43F01003236484F83C200120A1
:101C900004E002207047012000E0012010BD022076
:101CA000FCE700BF0000FFFFF71F0008B11F00089E
:101CB0002DE9F04387B00446884691461F46109EA2
:101CC000FEF7FAFB0546012F01D0102F09D194F839
:101CD0003D30DBB2202B0AD00227384607B0BDE8E2
:101CE000F08340F6EE118C4803F002FFEFE7009519
:101CF0001923012289492046FFF735FB002840F0CF
:101D0000458194F83C30012B00F04281012384F896
:101D10003C3023681A6812F0010F03D11A6842F0B0
:101D200001021A602268136823F4006313602223FF
:101D300084F83D30402384F83E30002323640E9B1A
:101D40006362BDF83C306385638D2385744BE36229
:101D5000019500963B464A4641462046FFF716FC51
:101D60000746002840F01681238D5BB90293236853
:101D70005A6902929A690292029A1A6842F40072AF
:101D80001A6098E0012B0AD0022B1AD00023059389
:101D900023685A6905929B690593059B8BE022682D
:101DA000136823F4806313600023039323685A6944
:101DB00003929A690392039A1A6842F400721A60B5
:101DC00079E02268136823F4806313602268136843
:101DD00043F4006313600023049323685A69049258
:101DE0009B690493049B66E02A4631462046FFF730
:101DF000A1FC002840F0D08023681A69636A1A7039
:101E0000636A01336362238D013B2385638D9BB23B
:101E1000013B9BB263854EE0009533460022414969
:101E20002046FFF7A0FA002840F0B8802268136827
:101E300043F40073136023681A69636A1A70626A54
:101E4000531C6362238D013B2385638D9BB2013B51
:101E50009BB2638523681B695370636A01336362B5
:101E6000238D013B2385638D9BB2013B9BB2638530
:101E700021E02268136843F40073136023681A6931
:101E8000636A1A70626A531C6362238D013B238567
:101E9000638D9BB2013B9BB2638523681B695370C2
:101EA000636A01336362238D013B2385638D9BB29B
:101EB000013B9BB26385238D002B5ED0032B33D86F
:101EC000012B91D0022BA7D0009533460022154953
:101ED0002046FFF748FA002862D12268136823F4ED
:101EE0008063136023681A69636A1A70636A013336
:101EF0006362238D013B2385638D9BB2013B9BB2C3
:101F0000638500953346002206492046FFF72BFAE9
:101F10000028AED00127E0E690BA000802001000C9
:101F20000000FFFF040001002A4631462046FFF76B
:101F300001FC002836D123681A69636A1A70626A44
:101F4000531C6362238D013B2385638D9BB2013B50
:101F50009BB263852368596911F0040FABD01B69EC
:101F60005370636A01336362238D013B2385638D64
:101F70009BB2013B9BB263859DE7202384F83D30F3
:101F8000002384F83E3084F83C30A6E60227A4E61D
:101F90000227A2E60127A0E601279EE601279CE68C
:101FA00001279AE6012798E6704770477047704707
:101FB00010B5846B636B0BB10022DA63A36B0BB1BA
:101FC0000022DA63FEF7F6FF022800D110BD226876
:101FD000136823F48063136000236385202284F850
:101FE0003D2084F83E30236C43F0100323642046E8
:101FF000FFF7DDFFEAE738B5846B94F83D30DBB2DC
:1020000094F83E20D1B2E56A2068426822F440721A
:102010004260626B0AB10020D063A26B0AB100205B
:10202000D06303F02102212A41D003F02202222AA8
:102030003BD094F83E30002B49D0638D9BB2012BEE
:1020400058D02268536823F44073536015F5803FDD
:1020500006D0082D04D0B5F12A4F01D0202D04D18F
:102060002268136843F4007313602268536823F4F2
:10207000805353602268536823F400635360002345
:102080006385236C002B3BD1202384F83D3094F8EA
:102090003E30DBB2402B37D0002384F83E30122391
:1020A00023632046FFF780FF11E02029C1D121687A
:1020B0004A6822F400624A6000226285292B07D018
:1020C0002A2B0ED02268536843F44073536038BD06
:1020D00021232363282384F83D30204603F0FEFCAF
:1020E000F0E722232363282384F83D302046FFF7BE
:1020F0005CFFE7E72268136823F480631360A0E7BE
:102100002046FFF754FFE2E7002384F83E302363C4
:102110002046FFF74BFFDAE738B504460D46036863
:102120001C4A93420BD002F58062934207D002F51D
:102130008062934203D05C21174803F0D9FC0DB1B3
:10214000102D06D194F83D30DBB2202B06D00220B2
:1021500038BD5D21104803F0CBFCF3E7242384F85D
:102160003D302268136823F0010313602268536A2C
:1021700023F0100353622368596A0D435D6222689D
:10218000136843F001031360202384F83D300020DE
:10219000DEE700BF00540040BCBA000838B5044672
:1021A0000D4603681B4A93420BD002F580629342AE
:1021B00007D002F58062934203D08421164803F0D1
:1021C00097FC0F2D06D894F83D30DBB2202B06D0BB
:1021D000022038BD8521104803F08AFCF3E7242350
:1021E00084F83D302268136823F0010313602268ED
:1021F000536A9BB223F00F0343EA050189B251628F
:102200002268136843F001031360202384F83D30F3
:102210000020DEE700540040BCBA000810B582B0D0
:1022200000230193194B1A6C42F080521A641B6C04
:1022300003F080530193019B154B01221A60FEF7B6
:102240003BF90446134B5B6813F4803F08D1FEF75B
:1022500033F9001BB0F57A7FF4D9032002B010BD2A
:102260000D4B01221A60FEF727F90446094B5B6803
:1022700013F4003F07D1FEF71FF9001BB0F57A7F7A
:10228000F4D90320EAE70020E8E700BF0038024065
:1022900040000E420070004044000E42002800F052
:1022A0005C8270B582B0044603680F2B39D823686E
:1022B00013F0010F4DD063682BB1B3F5803F02D00E
:1022C000B3F5A02F32D1A54B9B6803F00C03042B70
:1022D00036D0A24B9B6803F00C03082B2BD063680D
:1022E000B3F5803F5FD0B3F5A02F62D09B4B1A6847
:1022F00022F480321A601A6822F480221A6063681D
:10230000002B60D0FEF7D8F80546944B1B6813F4F9
:10231000003F1ED1FEF7D0F8401B6428F5D90320FA
:1023200022E2E8218E4803F0E3FBC0E7ED218C4870
:1023300003F0DEFBC7E7894B5B6813F4800FCED058
:10234000864B1B6813F4003F03D06368002B00F03A
:102350000682236813F0020F66D0E368012B41D890
:1023600023691F2B44D87D4B9B6813F00C0F4AD078
:102370007A4B9B6803F00C03082B3FD0E368002BDB
:1023800076D0784B01221A60FEF796F80546734B1B
:102390001B6813F0020F62D1FEF78EF8401B022873
:1023A000F5D90320E0E16D4A136843F480331360EC
:1023B000A5E76A4B1A6842F480221A601A6842F450
:1023C00080321A609BE7FEF777F80546634B1B687F
:1023D00013F4003FBDD0FEF76FF8401B6428F5D919
:1023E0000320C1E140F21F115D4803F081FBB7E714
:1023F0004FF490715A4803F07BFBB4E7574B5B688E
:1024000013F4800FBAD1554B1B6813F0020F03D0A1
:10241000E368012B40F0A581504A136823F0F803CC
:10242000216943EAC1031360236813F0080F49D000
:102430006369012B2ED8636993B34B4B01221A6059
:10244000FEF73AF80546454B5B6F13F0020F39D1A2
:10245000FEF732F8401B0228F5D9032084E13F4AF9
:10246000136823F0F803216943EAC1031360DBE733
:102470003C4B00221A60FEF71FF80546374B1B68DD
:1024800013F0020FD0D0FEF717F8401B0228F5D941
:10249000032069E14FF4B071314803F029FBCAE72A
:1024A000314B00221A60FEF707F805462B4B5B6F95
:1024B00013F0020F06D0FDF7FFFF401B0228F5D9ED
:1024C000032051E1236813F0040F00F08880A36813
:1024D000012B01D9052B12D1204B1B6C13F0805F0F
:1024E00013D1002301931D4B1A6C42F080521A64E1
:1024F0001B6C03F080530193019B012506E04FF410
:10250000C671174803F0F4FAE6E70025174B1B687D
:1025100013F4807F2CD0A368012B3DD0052B41D034
:102520000E4B1A6F22F001021A671A6F22F0040292
:102530001A67A368002B3FD0FDF7BEFF0646074B86
:102540001B6F13F0020F48D1FDF7B6FF801B41F25D
:1025500088339842F3D9032006E100BF00380240D7
:10256000ECBA000800004742800E4742007000406D
:10257000844A136843F480731360FDF79DFF064699
:10258000804B1B6813F4807FC5D1FDF795FF801B3E
:102590000228F5D90320E7E07B4A136F43F00103DB
:1025A0001367C6E7784B1A6F42F004021A671A6F76
:1025B00042F001021A67BCE7FDF77EFF0646724B48
:1025C0001B6F13F0020F08D0FDF776FF801B41F25E
:1025D00088339842F3D90320C6E0002D3BD1A3698C
:1025E000022B3ED8A369002B00F0BD80664A92689A
:1025F00002F00C02082A00F09080022B79D1E369E6
:1026000013B1B3F5800F32D1236A3F2B35D8636AFB
:10261000323BB3F5BF7F36D8A36A022B05D0042B1B
:1026200003D0062B01D0082B33D1E36A023B0D2BDC
:1026300035D8564B00221A60FDF73EFF0546524B37
:102640001B6813F0007F30D0FDF736FF401B0228D7
:10265000F5D9032088E04C4A136C23F080531364AF
:10266000BDE740F2CF114A4803F042FABAE74FF40F
:10267000EC71474803F03CFAC6E740F2D9114448F0
:1026800003F036FAC3E74FF4ED71414803F030FA36
:10269000C2E740F2DB113E4803F02AFAC5E74FF4E7
:1026A000EE713B4803F024FAC3E7E369226A13435F
:1026B000626A43EA8213A26A5208013A43EA024379
:1026C000E26A43EA0263304A5360304B01221A60E7
:1026D000FDF7F2FE04462C4B1B6813F0007F06D179
:1026E000FDF7EAFE001B0228F5D903203CE000209C
:1026F0003AE0264B00221A60FDF7DEFE0446224B2C
:102700001B6813F0007F06D0FDF7D6FE001B0228E1
:10271000F5D9032028E0002026E0012B26D01A4B13
:102720009B6803F48001E269914221D103F03F02EA
:10273000216A8A421ED1616A47F6C0721A408A42F3
:102740001AD103F44032A16A8A4217D103F07063B0
:10275000E26A934214D1002006E001207047012074
:1027600002E0012000E0002002B070BD0120FBE784
:102770000120F9E70120F7E70120F5E70120F3E761
:102780000120F1E70070004000380240600047423D
:10279000ECBA0008F8B52F4B9B6803F00C03042B30
:1027A00053D0082B53D12B4B5A6802F03F025B6881
:1027B00013F4800F28D0274B5B68C3F388135801AC
:1027C0000021C01A61F100018E0146EA906687017E
:1027D0003C1A66EB0105E90041EA5471E000C018BB
:1027E00041F100014B0243EAD0534402204619460E
:1027F000002306F027F9174B5B68C3F3014301334D
:102800005B00B0FBF3F023E0124B5B68C3F388136B
:102810005C010025E41A65F10005AE0146EA946604
:10282000A701381B66EB0501CC0044EA5074C500D3
:10283000E81844F100018B0243EA905384022046D9
:102840001946002306F0FEF8D5E7034800E00348E8
:10285000F8BD00BF0038024000127A000024F400E6
:10286000002800F0F78070B50D4604460368013B70
:102870000E2B6BD80F2D6FD87A4B1B6803F00F030C
:10288000AB4208D2EBB2774A1370136803F00F0320
:10289000AB4240F0E180236813F0020F29D013F01F
:1028A000040F04D0704A936843F4E05393602368A4
:1028B00013F0080F04D06C4A936843F460439360AC
:1028C000A3687BB1802B0DD0902B0BD0A02B09D00F
:1028D000B02B07D0C02B05D0D02B03D0E02B01D0DC
:1028E000F02B3FD1604A936823F0F003A1680B43BB
:1028F0009360236813F0010F4ED06368032B37D821
:102900006368012B3AD09A1E012A3ED9564A1268B2
:1029100012F0020F00F0A28053498A6822F00302ED
:1029200013438B60FDF7C8FD06464F4B9B6803F0D1
:102930000C036268B3EB820F2ED0FDF7BDFD801B48
:1029400041F288339842F0D9032076E040F25121D9
:10295000464803F0CDF88DE740F25221434803F09A
:10296000C7F889E740F27521404803F0C1F8B9E79C
:102970004FF41F713D4803F0BBF8C1E73A4A1268B3
:1029800012F4003FC8D1012057E0374A126812F014
:10299000007FC1D1012050E0324B1B6803F00F03D0
:1029A000AB4207D9EAB22F4B1A701B6803F00F0332
:1029B000AB4255D1236813F0040F14D0E3685BB128
:1029C000B3F5805F08D0B3F5A05F05D0B3F5C05F65
:1029D00002D0B3F5E05F31D1234A936823F4E0538A
:1029E000E1680B439360236813F0080F15D0236947
:1029F0005BB1B3F5805F08D0B3F5A05F05D0B3F548
:102A0000C05F02D0B3F5E05F1ED1174A936823F48C
:102A10006043216943EAC1039360FFF7BBFE124B99
:102A20009B68C3F30313124AD35CD840114B186060
:102A3000114B1868FDF7F4FC002070BD40F2BA217C
:102A40000A4803F055F8C7E740F2C121074803F0F0
:102A50004FF8DAE7012070470120EEE70120ECE7AC
:102A60000120EAE7003C024000380240ECBA0008CE
:102A700038BD00081400002008000020014B186831
:102A8000704700BF1400002008B5FFF7F7FF044BA4
:102A90009B68C3F38223034AD35CD84008BD00BFC0
:102AA0000038024048BD000830B583B004460368D2
:102AB000013B7E2B1CD8236813F0430F00F09D8050
:102AC0006368323BB3F5BF7F18D8974B00221A607A
:102AD000FDF7F2FC0546954B1B6813F0006F13D011
:102AE000FDF7EAFC431B022BF5D9032003B030BDF0
:102AF00040F67B018E4802F0FBFFDCE740F68601E2
:102B00008B4802F0F5FFE0E7236813F0010F0BD0CC
:102B1000A368023B052B52D86268A3681B0743EAEF
:102B20008213824AC2F88430236813F0020F1DD04A
:102B3000E368023B0D2B48D8E369013B1F2B4AD8C1
:102B40007A4AD2F884106068E3681B0643EA80136F
:102B500001F0E0410B43C2F88430D2F88C3023F00E
:102B60001F03E16901390B43C2F88C30236813F06D
:102B7000400F12D0E368023B0D2B32D8A368023B12
:102B8000052B34D86268E3681B0643EA8213A26807
:102B900043EA0273654AC2F88430634B01221A602B
:102BA000FDF78AFC0546614B1B6813F0006F24D1CA
:102BB000FDF782FC401B0228F5D9032096E740F67A
:102BC0009C015B4802F094FFA6E740F6A901584833
:102BD00002F08EFFB0E740F6AA01554802F088FFE8
:102BE000AEE740F6BB01524802F082FFC6E740F66E
:102BF000BC014F4802F07CFFC4E7236813F00C0FC0
:102C000000F09A802369323BB3F5BF7F11D8494B5E
:102C100000221A60FDF750FC0546444B1B6813F078
:102C2000005F0CD0FDF748FC401B0228F5D90320BB
:102C30005CE740F6DA013E4802F05AFFE7E7236816
:102C400013F0040F1ED06369023B0D2B54D8236A86
:102C5000013B1F2B56D8354AD2F88810206963698A
:102C60001B0643EA801301F0E0410B43C2F88830B1
:102C7000D2F88C3023F4F853216A013943EA012356
:102C8000C2F88C30236813F0080F23D0A369023BED
:102C9000052B3DD8636A43B1B3F5803F05D0B3F54A
:102CA000003F02D0B3F5403F38D1204AD2F88830F7
:102CB000216903F0706343EA8113A16943EA017358
:102CC000C2F88830D2F88C3023F44033616A0B4369
:102CD000C2F88C30174B01221A60FDF7EDFB054658
:102CE000124B1B6813F0005F26D1FDF7E5FB401B7C
:102CF0000228F5D90320F9E640F6EF010C4802F06E
:102D0000F7FEA4E74FF40F61094802F0F1FEA2E7D5
:102D100040F6FF01064802F0EBFEBBE74FF41061FE
:102D2000034802F0E5FEC0E7680047420038024071
:102D300018BB000870004742236813F0200F00F012
:102D4000CE80A36AB3F5807F79D0B3F5007F76D0CB
:102D5000774A934273D002F5803293426FD002F5E6
:102D6000803293426BD002F58032934267D002F5F5
:102D70008032934263D002F5803293425FD002F5F5
:102D8000803293425BD002F58032934257D002F5F5
:102D90008032934253D002F5803293424FD002F5F5
:102DA000803293424BD002F58032934247D002F5F5
:102DB0008032934243D002F5803293423FD002F5F5
:102DC000803293423BD002F58032934237D002F5F5
:102DD0008032934233D002F5803293422FD002F5F5
:102DE000803293422BD002F58032934227D002F5F5
:102DF0008032934223D002F5803293421FD002F5F5
:102E0000803293421BD002F58032934217D002F5F4
:102E10008032934213D002F5803293420FD002F5F4
:102E2000803293420BD002F58032934207D002F5F4
:102E30008032934203D002F5803293421FD10023A7
:102E400001933C4B1A6C42F080521A641B6C03F0E5
:102E500080530193019B384A136843F480731360D5
:102E6000FDF72AFB0546344B1B6813F4807F0CD119
:102E7000FDF722FB401B0228F5D9032036E640F679
:102E80001F112E4802F034FED9E72A4B1B6F13F4B2
:102E9000407312D0A26A02F440729A420DD0254BC0
:102EA0001A6F22F440722649012008600020086051
:102EB0001A671B6F13F0010F1BD1A36A03F4407252
:102EC000B2F5407F26D01B4A936823F4F813936031
:102ED00018490B6FA26AC2F30B0213430B672368F6
:102EE00013F0100F21D094F82C20164B1A600020FC
:102EF000FCE5FDF7E1FA05460E4B1B6F13F0020FE0
:102F0000DBD1FDF7D9FA401B41F288339842F3D95F
:102F10000320EBE507498A6822F4F81223F0704396
:102F200023F4407313438B60D2E70020DEE500BF3B
:102F300000030200003802400070004018BB000887
:102F4000400E4742E011474230B4036A056A25F05B
:102F500001050562846924F0F00444EA021423F0B8
:102F60000A030B438461036230BC704730B4056AC6
:102F700025F0100505628469036A24F4704444EA6C
:102F8000023423F0A00343EA01138461036230BCDE
:102F90007047836823F070030B4343F0070383609B
:102FA000704700002DE9F04104460D46036A23F006
:102FB00001030362066A4768836923F073080B689C
:102FC00043EA080826F002038E681E43204B98420D
:102FD00003D003F58063984209D1EB680BB1082B4D
:102FE00024D126F00806EB681E4326F00406184B91
:102FF0009C4203D003F580639C420FD1AB69B3F5CB
:10300000007F00D0C3B96B69B3F5807F00D0CBB926
:1030100027F440776B693B43AF691F436760C4F88F
:1030200018806B6863632662BDE8F08141F202712B
:10303000084802F05DFDD4E741F20F71054802F047
:1030400057FDE0E741F21071024802F051FDDFE761
:103050000000014048BB00082DE9F04104460E463F
:10306000036A23F480730362056A4768C36923F027
:1030700073080B6843EA080825F400758B6845EA75
:103080000325224B984203D003F5806398420AD16E
:10309000F3680BB1082B27D125F40065F36845EAE6
:1030A000032525F48065194B9C4203D003F580630A
:1030B0009C4211D1B369B3F5007F00D0D3B97369D5
:1030C000B3F5807F00D0DBB927F44057736947EA36
:1030D0000317B36947EA03176760C4F81C80736875
:1030E000E3632562BDE8F08141F29871084802F07F
:1030F000FFFCD1E741F2A571054802F0F9FCDEE7DB
:1031000041F2A671024802F0F3FCDDE70000014045
:1031100048BB00082DE9F04104460D46036A23F43C
:1031200080530362066AD0F80480C76927F4E64733
:103130000B6847EA032726F400568B6846EA0336F5
:103140000F4B984203D003F58063984209D16B6915
:10315000B3F5807F00D063B928F480486B6948EAF2
:103160008318C4F80480E7616B6823642662BDE8B5
:10317000F08141F2E471034802F0BAFCECE700BFD1
:103180000000014048BB00087047000010B504462D
:103190000368264A934237D0B3F1804F34D0A2F56A
:1031A0007C42934230D002F5806293422CD002F5EB
:1031B0008062934228D002F58062934224D002F5C7
:1031C0008062934220D002F5704293421CD002F5F7
:1031D0007052934218D002F58062934214D002F5E7
:1031E0008062934210D0A2F5983293420CD002F53F
:1031F0008062934208D002F58062934204D040F28C
:1032000085110B4802F074FC022384F83D302268DB
:10321000936803F00703062B03D0136843F0010300
:103220001360012384F83D30002010BD00000140F0
:1032300048BB00087047704790F83D007047000099
:103240000368304A904212D0B0F1804F0FD0A2F5FF
:103250007C4290420BD002F58062904207D002F58A
:103260008062904203D002F57842904203D123F06D
:1032700070034A681343234A90422AD0B0F1804F2A
:1032800027D0A2F57C42904223D002F58062904282
:103290001FD002F5806290421BD002F57842904226
:1032A00017D002F57052904213D002F5806290421E
:1032B0000FD002F5806290420BD0A2F59832904276
:1032C00007D002F58062904203D002F580629042FE
:1032D00003D123F44073CA68134323F080034A697F
:1032E000134303608B68C3620B688362054B98428B
:1032F00003D003F58063984201D10B690363012376
:10330000436170470000014000287BD010B504469F
:1033100003683D4A934237D0B3F1804F34D0A2F5D1
:103320007C42934230D002F5806293422CD002F569
:103330008062934228D002F58062934224D002F545
:103340008062934220D002F5704293421CD002F575
:103350007052934218D002F58062934214D002F565
:103360008062934210D0A2F5983293420CD002F5BD
:103370008062934208D002F58062934204D04FF4F9
:103380008971224802F0B4FBA3683BB1102B05D031
:10339000202B03D0402B01D0602B1BD123692BB1F4
:1033A000B3F5807F02D0B3F5007F19D1A3690BB1CB
:1033B000802B1BD194F83D30F3B1022384F83D30CB
:1033C000214651F8040BFFF73BFF012384F83D3001
:1033D000002010BD40F213110C4802F089FBDDE71C
:1033E0004FF48A71094802F083FBDFE740F21511C0
:1033F000064802F07DFBDDE784F83C302046FFF70D
:10340000C3FEDAE7012070470000014048BB000816
:1034100000287BD010B5044603683D4A934237D05C
:10342000B3F1804F34D0A2F57C42934230D002F504
:10343000806293422CD002F58062934228D002F53C
:103440008062934224D002F58062934220D002F53C
:10345000704293421CD002F57052934218D002F58C
:103460008062934214D002F58062934210D0A2F59C
:10347000983293420CD002F58062934208D002F554
:103480008062934204D040F29B41224802F030FB1C
:10349000A3683BB1102B05D0202B03D0402B01D0CB
:1034A000602B1BD123692BB1B3F5807F02D0B3F51C
:1034B000007F19D1A3690BB1802B1BD194F83D304B
:1034C000F3B1022384F83D30214651F8040BFFF795
:1034D000B7FE012384F83D30002010BD40F29C412E
:1034E0000C4802F005FBDDE740F29D41094802F07F
:1034F000FFFADFE740F29E41064802F0F9FADDE705
:1035000084F83C302046FFF795FEDAE7012070474B
:103510000000014048BB0008002800F00481F8B515
:103520000C460546836843B1102B06D0202B04D0EF
:10353000402B02D0602B40F0A8802B6933B1B3F54B
:10354000807F03D0B3F5007F40F0A580AB6913B155
:10355000802B40F0A6802B68744A93421FD0B3F1B1
:10356000804F1CD0A2F57C42934218D002F58062B5
:10357000934214D002F58062934210D002F5784253
:1035800093420CD002F57052934208D0A2F59432C7
:10359000934204D040F63421654802F0A9FA23682A
:1035A000013B022B00F28380A368013B022B00F257
:1035B0008480A369013B022B00F28580636813B10C
:1035C000022B40F08680636913B1022B40F08780A4
:1035D000E36833B1042B04D0082B02D00C2B40F04D
:1035E0008480E36933B1042B04D0082B02D00C2B68
:1035F00040F0818023690F2B00F28380236A0F2B18
:1036000000F2858095F83D30002B00F08680022383
:1036100085F83D302A68936823F4804323F007033C
:103620009360294651F8040BFFF70AFE29688A685F
:103630008E690F6A2068104326F4407626F0030650
:10364000A268A36942EA0323334323F47C4323F0B3
:10365000FC03E668E26946EA02261E43226A130377
:10366000226943EA0213334327F0AA0762686469B8
:1036700042EA04123A43886029688B612B681A6217
:10368000012385F83D300020F8BD40F6312128485F
:1036900002F02EFA51E740F63221254802F028FACE
:1036A00054E740F63321224802F022FA53E740F66D
:1036B00035211F4802F01CFA76E740F636211C48F7
:1036C00002F016FA75E740F63721194802F010FAB1
:1036D00074E740F63821164802F00AFA73E740F61C
:1036E0003921134802F004FA72E740F63A211048F3
:1036F00002F0FEF975E740F63B210D4802F0F8F9BB
:1037000078E740F63C210A4802F0F2F976E740F605
:103710003D21074802F0ECF974E785F83C30284673
:10372000FFF789FD73E70120704700BF00000140EB
:1037300048BB00082DE9F04104460E46036A23F019
:1037400010030362056AD0F80480876927F4E6470E
:103750000B6847EA032725F020058B6845EA031527
:10376000224B984203D003F5806398420AD1F36854
:103770000BB1082B27D125F08005F36845EA031526
:1037800025F04005194B9C4203D003F580639C4211
:1037900011D1B369B3F5007F00D0D3B97369B3F524
:1037A000807F00D0DBB928F44068736948EA830859
:1037B000B36948EA8308C4F80480A7617368A36307
:1037C0002562BDE8F08141F24D71094802F090F99F
:1037D000D1E741F25B71064802F08AF9DEE741F277
:1037E0005C71034802F084F9DDE700BF000001408E
:1037F00048BB000870B504460D4616463AB1042A87
:1038000005D0082A03D00C2A01D03C2A28D12B68E5
:10381000602B01D0702B29D1AB680BB1022B2BD1BF
:103820002B690BB1042B2DD194F83C30012B00F007
:103830001781012384F83C30022384F83D300C2E9C
:103840006DD8DFE816F025006C006C006C0073008A
:103850006C006C006C00AC006C006C006C00DC0058
:1038600040F6EC517F4802F043F9D0E740F6ED51C5
:103870007C4802F03DF9CFE740F6EE51794802F07E
:1038800037F9CDE740F6EF51764802F031F9CBE752
:103890002368754A93422FD0B3F1804F2CD0A2F504
:1038A0007C42934228D002F58062934224D002F5F4
:1038B0008062934220D002F5784293421CD002F5F8
:1038C0007052934218D002F58062934214D002F5F0
:1038D0008062934210D0A2F5983293420CD002F548
:1038E0008062934208D002F58062934204D040F691
:1038F000FB515C4802F0FCF829462068FFF752FBB8
:103900002268936943F0080393612268936923F066
:10391000040393612268936929690B43936101232E
:1039200084F83D30002084F83C0070BD23684E4A86
:1039300093421FD0B3F1804F1CD0A2F57C4293423A
:1039400018D002F58062934214D002F5806293424F
:1039500010D002F5784293420CD002F57052934297
:1039600008D0A2F59432934204D040F60C613D4851
:1039700002F0BEF829462068FFF7DCFE2268936952
:1039800043F4006393612268936923F48063936135
:1039900022689369296943EA01239361BFE7236899
:1039A000314A934217D0B3F1804F14D0A2F57C4234
:1039B000934210D002F5806293420CD002F58062EF
:1039C000934208D002F57842934204D040F61D613C
:1039D000244802F08DF829462068FFF73DFB226855
:1039E000D36943F00803D3612268D36923F0040349
:1039F000D3612268D36929690B43D3618FE72368B8
:103A0000194A934217D0B3F1804F14D0A2F57C42EB
:103A1000934210D002F5806293420CD002F580628E
:103A2000934208D002F57842934204D040F62E61CA
:103A30000C4802F05DF829462068FFF76BFB22680E
:103A4000D36943F40063D3612268D36923F48063AC
:103A5000D3612268D369296943EA0123D3615EE710
:103A6000022062E748BB00080000014010B48468EF
:103A700024F47F4442EA03220A432243826010BCBA
:103A80007047000038B590F83C30012B00F04882B8
:103A900004460D46012380F83C30022380F83D3077
:103AA0000B68B3F5805F11D0B3F5005F0ED06BB13A
:103AB000102B0BD0202B09D0302B07D0402B05D05A
:103AC000502B03D0602B01D0702B4DD1226893680E
:103AD00023F47F4323F0770393602B68602B00F07F
:103AE00093817FD8402B00F0D58143D9502B46D10C
:103AF0002368BD4A93421FD0B3F1804F1CD0A2F57A
:103B00007C42934218D002F58062934214D002F5B1
:103B10008062934210D002F5784293420CD002F5B5
:103B20007052934208D0A2F59432934204D041F2ED
:103B3000CA11AE4801F0DCFF6B68B3F5004F05D049
:103B400023B1022B02D00A2B40F05281EB680F2BDD
:103B500000F25481EA6869682068FFF7F5F950219E
:103B60002068FFF716FA0AE041F28B119F4801F036
:103B7000BFFFABE7202B0CD008D9302B09D0012395
:103B800084F83D30002084F83C0038BD0BB1102B88
:103B9000F5D12368944A93421FD0B3F1804F1CD0D3
:103BA000A2F57C42934218D002F58062934214D071
:103BB00002F58062934210D002F5784293420CD015
:103BC00002F57052934208D0A2F59432934204D089
:103BD00041F2FD11854801F08BFF29682068FFF74D
:103BE000D8F9CCE7B3F5805F00F08E80B3F5005FC5
:103BF00041D123687C4A934217D0B3F1804F14D04F
:103C0000A2F57C42934210D002F5806293420CD020
:103C100002F58062934208D002F57842934204D0C4
:103C200041F2B611714801F063FFAB684BB1B3F5D7
:103C3000805F06D0B3F5005F03D0B3F5405F40F07E
:103C4000C0806B68B3F5004F05D023B1022B02D0C2
:103C50000A2B40F0BC80EB680F2B00F2BE80EB68B3
:103C60006A68A9682068FFF701FF2268936843F437
:103C70008043936083E7702B81D123685A4A934233
:103C80001FD0B3F1804F1CD0A2F57C42934218D0D4
:103C900002F58062934214D002F58062934210D004
:103CA00002F5784293420CD002F57052934208D04C
:103CB000A2F59432934204D041F29E114B4801F098
:103CC00017FFAB6843B1B3F5805F05D0B3F5005F74
:103CD00002D0B3F5405F62D16B68B3F5004F04D0FA
:103CE0001BB1022B01D00A2B5FD1EB680F2B62D8DE
:103CF000EB686A68A9682068FFF7B8FE22689368D5
:103D000043F0770393603AE72368374A93423FF4DE
:103D100036AFB3F1804F3FF432AFA2F57C4293420D
:103D20003FF42DAF02F5806293423FF428AF02F5D5
:103D3000806293423FF423AF02F5806293423FF4E6
:103D40001EAF02F5806293423FF419AF02F5704254
:103D500093423FF414AF02F5705293423FF40FAF19
:103D600002F5806293423FF40AAF02F5806293420B
:103D70003FF405AFA2F5983293423FF400AF02F54D
:103D8000806293423FF4FBAE02F5806293423FF4BF
:103D9000F6AE41F29711154801F0AAFEEFE641F2A6
:103DA000A111124801F0A4FE96E741F2A2110F48BA
:103DB00001F09EFE99E741F2A3110C4801F098FE34
:103DC00096E741F2B911094801F092FE39E741F254
:103DD000BA11064801F08CFE3DE741F2BB110348E1
:103DE00001F086FE3BE700BF0000014048BB000831
:103DF00041F2CD114B4801F07BFEA7E641F2CE1116
:103E0000484801F075FEA5E62368474A93421FD053
:103E1000B3F1804F1CD0A2F57C42934218D002F53A
:103E20008062934214D002F58062934210D002F572
:103E3000784293420CD002F57052934208D0A2F51A
:103E40009432934204D041F2DA11364801F050FE28
:103E50006B68B3F5004F04D01BB1022B01D00A2BC5
:103E60000CD1EB680F2B0FD8EA6869682068FFF760
:103E70007DF860212068FFF78CF880E641F2DD11C3
:103E8000284801F035FEECE741F2DE11254801F04B
:103E90002FFEE9E72368244A93421FD0B3F1804FF5
:103EA0001CD0A2F57C42934218D002F58062934266
:103EB00014D002F58062934210D002F5784293420A
:103EC0000CD002F57052934208D0A2F5943293427E
:103ED00004D041F2EA11134801F00AFE6B68B3F511
:103EE000004F04D01BB1022B01D00A2B0CD1EB6880
:103EF0000F2B0FD8EA6869682068FFF725F8402182
:103F00002068FFF746F83AE641F2ED11054801F066
:103F1000EFFDECE741F2EE11024801F0E9FDE9E7BF
:103F2000022032E648BB00080000014070B504469C
:103F30000D461646284B98422FD0B0F1804F2CD01A
:103F4000A3F57C43984228D003F58063984224D09F
:103F500003F58063984220D003F5784398421CD043
:103F600003F57053984218D003F58063984214D03B
:103F700003F58063984210D0A3F5983398420CD093
:103F800003F58063984208D003F58063984204D01B
:103F900041F6CC11114801F0ABFD3DB1042D05D027
:103FA000082D03D00C2D01D03C2D0ED105F01F059E
:103FB000012303FA05F2236A23EA02032362236A38
:103FC00006FA05F51D43256270BD41F6CD11034883
:103FD00001F08EFDEAE700BF0000014048BB000889
:103FE00038B504460D460368334A934212D0B3F104
:103FF000804F0FD0A2F57C4293420BD002F5806235
:10400000934207D002F58062934203D002F57842D2
:10401000934206D1E5B1042D1AD0082D18D00C2DED
:1040200016D0264A934230D0254A934232D0254AB0
:10403000934232D0244A934232D0244A934234D01D
:10404000234A934234D040F21351224801F050FDEC
:10405000012229462068FFF769FF2368164A934228
:1040600003D002F58062934203D15A6C42F40042BD
:104070005A642268936803F00703062B03D0136881
:1040800043F001031360002038BD002DE0D0042D63
:10409000CAD1DDE7002DDBD0C9E7002DD8D0C9E7B4
:1040A000002DD5D0042DC8D1D2E7002DD0D0C7E740
:1040B000002DCDD0C7E700BF000001400040014007
:1040C000004401400048014000180040001C00402E
:1040D0000020004048BB000838B504460D46036880
:1040E0003C4A934212D0B3F1804F0FD0A2F57C42EC
:1040F00093420BD002F58062934207D002F58062B2
:10410000934203D002F57842934206D1E5B1042DE3
:104110001AD0082D18D00C2D16D02F4A934234D027
:104120002E4A934236D02E4A934236D02D4A93429D
:1041300036D02D4A934238D02C4A934238D040F2A0
:1041400037512B4801F0D4FC002229462068FFF7A4
:10415000EDFE23681F4A93422DD002F58062934200
:1041600029D02368196A41F21112114208D1196A43
:1041700040F24442114203D11A6822F001021A604F
:10418000012384F83D30002038BD002DDCD0042D03
:10419000C6D1D9E7002DD7D0C5E7002DD4D0C5E7CB
:1041A000002DD1D0042DC4D1CEE7002DCCD0C3E753
:1041B000002DC9D0C3E7196A41F211121142D0D1C2
:1041C000196A40F244421142CBD15A6C22F40042A7
:1041D0005A64C6E70000014000400140004401402D
:1041E0000048014000180040001C00400020004032
:1041F00048BB000838B504460D460368214A93427F
:104200001FD0B3F1804F1CD0A2F57C42934218D04E
:1042100002F58062934214D002F58062934210D07E
:1042200002F5784293420CD002F57052934208D0C6
:10423000A2F59432934204D040F6D721124801F0FF
:1042400057FC65B1042D16D0012200212068FFF72C
:104250006DFE012204212068FFF768FE04E00122C0
:1042600000212068FFF762FE2268136843F0010313
:104270001360002038BD012204212068FFF756FE9C
:10428000F2E700BF0000014048BB000838B5044613
:104290000D460368414A93421FD0B3F1804F1CD0B2
:1042A000A2F57C42934218D002F58062934214D06A
:1042B00002F58062934210D002F5806293420CD0E6
:1042C00002F58062934208D002F57042934204D016
:1042D00040F26461324801F00BFC2B686BB1102B8B
:1042E0000BD0202B09D0302B07D0402B05D0502BE2
:1042F00003D0602B01D0702B41D16B68802B01D093
:10430000002B42D194F83C30012B44D0012384F897
:104310003C30022384F83D3023685968986821F0C6
:1043200070012A680A435A6023681C4A93421AD0D3
:10433000B3F1804F17D0A2F57C42934213D002F51F
:10434000806293420FD002F5806293420BD002F557
:104350007842934207D002F57052934203D0A2F5FF
:104360009432934204D120F080006A681043986030
:10437000012384F83D30002084F83C0038BD40F231
:104380006561074801F0B4FBB7E740F26661044895
:1043900001F0AEFBB6E70220F0E700BF00000140ED
:1043A00074BB000808B503460C4A12685AB10B4AA0
:1043B0001068033323F003030344094A934206D8E9
:1043C000064A136008BD054A06491160EFE704F08C
:1043D000B3FC0C2303604FF0FF30F3E7F001002043
:1043E00000FC0220D806002001230360014B0B6073
:1043F000704700BF0C0000200FB400B583B004ABC1
:1044000053F8042B01938021074805F079F900281F
:1044100004DC03B05DF804EB04B0704701460248C9
:1044200000F034F8F5E700BFF80100202DE9F04373
:1044300085B004460F46435633BB04252846214623
:10444000ABBE0446384605B0BDE8F08314F9010B55
:1044500004AA1A4402F8100C0133AB42F6D304AAA2
:104460001344002203F8102C4FF00408E94640469C
:104470004946ABBE8046761B002EE3D03546102E53
:1044800028BF10250023E8E70E46F5E708B5FFF73B
:10449000CDFF08BD08B502F011F9024A024B9A603F
:1044A00008BD00BF0000000800ED00E008B502F004
:1044B0000DF908BDF8B504460D4617461E462748B7
:1044C000FFF79AFF21682648FFF796FF61682548A5
:1044D000FFF792FFA1682448FFF78EFFE1682348A9
:1044E000FFF78AFF21692248FFF786FF61692148AB
:1044F000FFF782FFA1692048FFF77EFFE1691F48AF
:10450000FFF77AFF1E48FFF777FF29461D48FFF7A0
:1045100073FF1D4CE16A1D48FFF76EFF216B1C48BD
:10452000FFF76AFFE16B1B48FFF766FF15F0800F8E
:104530000AD115F4004F0CD11748FFF75DFF06991B
:104540001648FFF759FFF8BD39461548FFF754FFE5
:10455000EFE731461348FFF74FFFEDE7A4BB000834
:10456000B4BB0008C4BB0008D4BB0008E4BB00080F
:10457000F4BB000804BC000814BC000824BC0008FC
:1045800034BC000840BC000800ED00E050BC00084E
:1045900060BC000870BC0008A0BC0008A8BC0008F3
:1045A00080BC000890BC000883691A888A4201D048
:1045B000002070470268033A012A01D900207047A1
:1045C0000233836101207047FEE7000008B505490A
:1045D00001230B6000224A608B600348FCF7ECFC6F
:1045E00008BD00BFE00500200010024008B50549E5
:1045F00001230B604B6000238B60CB600248FCF70B
:10460000DBFC08BDE00500200010024008B5FFF704
:10461000EDFF002201210948FCF770FEFBF74CFF7B
:10462000074B1B68C01A112800D808BDFBF744FFD0
:10463000034B1860FFF7CAFFF7E700BF0010024006
:104640007802002010B5282001F0FAFA01210C4868
:10465000FCF740FE40B1002401210948FCF73AFE76
:104660000128F9D0204610BD502001F0E9FA0121BF
:104670000348FCF72FFE04460128EDD0FF24EBE7AA
:104680000010024038B5002425460DE0C4F10702B1
:10469000012393402B43DDB201211048FCF71AFEA1
:1046A0000028F9D10134E4B2072C15D801210B48B8
:1046B000FCF710FE0028F9D0282001F0C1FA0121F2
:1046C0000648FCF707FE0028E0D1C4F107020123E9
:1046D000934025EA0305DFE7284638BD0010024075
:1046E00010B5FFF793FFFFF7ADFFFFF7CBFF0E4CC1
:1046F0002070FFF7C7FF6070FFF7C4FFA070FFF7DF
:10470000C1FFE070FFF7BEFF207123786278134489
:10471000A2781344E2781344984202D04FF0FF305D
:1047200010BD0120FCE700BF7406002000B585B075
:1047300020F00F03000140B243F00C028DF80C2072
:1047400043F008038DF80D3040F00C038DF80E3067
:1047500040F008008DF80F0064230093042303AA9F
:104760004E210348FDF774F905B05DF804FB00BF66
:10477000D004002000B585B020F00F03000140B246
:1047800043F00D028DF80C2043F009038DF80D3035
:1047900040F00D038DF80E3040F009008DF80F0049
:1047A00064230093042303AA4E210348FDF750F924
:1047B00005B05DF804FB00BFD004002008B528B1A7
:1047C000012806D048B2FFF7B1FF08BD41F08001D3
:1047D000F8E741F0C001F5E708B53220FBF772FEBB
:1047E0003020FFF7A3FF0520FBF76CFE3020FFF71A
:1047F0009DFF0120FBF766FE3020FFF797FF0A20A0
:10480000FBF760FE2020FFF791FF0A20FBF75AFE1E
:104810002820FFF78BFF0120FBF754FE0820FFF74D
:1048200085FF0120FBF74EFE0120FFF77FFF0120EF
:10483000FBF748FE0120FBF745FE0620FFF776FF59
:104840000120FBF73FFE0C20FFF770FF08BD10B5FD
:10485000044694F9000018B10134FFF78BFFF8E724
:1048600010BD030903EB830300F00F0000EB4300CE
:104870007047000010B586B04FF47A730293072397
:10488000019304AB009301230022D0211448FDF7CB
:104890000FFA9DF81000FFF7E4FF124C20709DF80E
:1048A0001100FFF7DEFF60709DF81200FFF7D9FFDF
:1048B000A0709DF81300FFF7D4FFE0709DF814007E
:1048C000FFF7CFFF20719DF81500FFF7CAFF607159
:1048D0009DF81600FFF7C5FFA07106B010BD00BF20
:1048E0007C0400207C06002008B54FF4805103486A
:1048F000FCF7F0FC012800D0002008BD00180240A1
:1049000038B5FFF7F1FF00B938BD00F051F900F0FC
:1049100085FB01F005F91CE02F4B01221A602F4C9A
:104920004FF480412046FFF75BFB236864255D63FD
:104930004FF400412046FFF753FB23689D6308E0D6
:10494000FBF7BAFD264B1B68C01A40F2F6339842BB
:104950003AD8FFF7C9FF0028D6D0FBF7ADFD204BB2
:104960001B68C01AB0F5FA7F0BD3FBF7A5FD1C4BF3
:104970001B68C01AB0F57A7F03D8174B1B68002B51
:10498000CAD0FBF799FD164B1B68C01AB0F57A7FA9
:10499000D6D3FBF791FD124B1B68C01AB0F57E7F92
:1049A000CED2104B1B68002BCAD10E4B01221A60CD
:1049B0000A4C4FF480412046FFF78EFB4FF4004134
:1049C0002046FFF789FBC4E7FBF776FD044B186030
:1049D000014B00221A60BCE7800200208406002000
:1049E0007C0200208402002070B500245DE00122DA
:1049F000694B1A60694D4FF400412846FCF77EFC74
:104A000000224FF480612846FCF778FC00224FF426
:104A100000512846FCF772FC00224FF40061284642
:104A2000FCF76CFC40E001265D4B1E605B4D0022F4
:104A30004FF400412846FCF761FC32464FF4806198
:104A40002846FCF75BFC00224FF400512846FCF797
:104A500055FC00224FF400612846FCF74FFC23E090
:104A60000126504B1E604D4D00224FF40041284658
:104A7000FCF744FC00224FF480612846FCF73EFC22
:104A800032464FF400512846FCF738FC00224FF420
:104A900000612846FCF732FC06E0FBF70DFD424BB7
:104AA0001B68C01A092868D80134B4F5007F72DA8F
:104AB000FBF702FD3C4B1B68C01A01280AD9FBF723
:104AC000FBFC394B1B68C01A032803D8324B1B6808
:104AD000002B8CD0FBF7F0FC334B1B68C01A03286B
:104AE0000AD9FBF7E9FC304B1B68C01A052803D82C
:104AF0002B4B1B68002B96D0FBF7DEFC2A4B1B6868
:104B0000C01A05280AD9FBF7D7FC274B1B68C01A27
:104B1000072803D8234B1B68002BA1D0FBF7CCFC44
:104B2000214B1B68C01A0728B7D9FBF7C5FC1E4BE1
:104B30001B68C01A0928B0D81C4B1B68002BACD1CD
:104B400001261A4B1E60154D00224FF400412846E5
:104B5000FCF7D4FB00224FF480612846FCF7CEFB23
:104B600000224FF400512846FCF7C8FB32464FF4B0
:104B700000612846FCF7C2FB96E7FBF79DFC0A4B59
:104B800018600023044A1360054A1360054A136045
:104B9000064A136088E770BDA80200200018024092
:104BA000B8020020C802002098020020D80200208D
:104BB00070B500245DE00122694B1A60694D4FF425
:104BC00000612846FCF79AFB00224FF4005128466A
:104BD000FCF794FB00224FF480612846FCF78EFB23
:104BE00000224FF400412846FCF788FB40E00126F4
:104BF0005D4B1E605B4D00224FF400612846FCF7C0
:104C00007DFB32464FF400512846FCF777FB00222B
:104C10004FF480612846FCF771FB00224FF40041FD
:104C20002846FCF76BFB23E00126504B1E604D4DE0
:104C300000224FF400612846FCF760FB00224FF48D
:104C400000512846FCF75AFB32464FF48061284653
:104C5000FCF754FB00224FF400412846FCF74EFBC2
:104C600006E0FBF729FC424B1B68C01A092868D8EC
:104C70000134B4F5007F72DAFBF71EFC3C4B1B6875
:104C8000C01A01280AD9FBF717FC394B1B68C01A58
:104C9000032803D8324B1B68002B8CD0FBF70CFC8D
:104CA000334B1B68C01A03280AD9FBF705FC304BAD
:104CB0001B68C01A052803D82B4B1B68002B96D005
:104CC000FBF7FAFB2A4B1B68C01A05280AD9FBF729
:104CD000F3FB274B1B68C01A072803D8234B1B681C
:104CE000002BA1D0FBF7E8FB214B1B68C01A07285B
:104CF000B7D9FBF7E1FB1E4B1B68C01A0928B0D8D7
:104D00001C4B1B68002BACD101261A4B1E60154DA5
:104D100000224FF400612846FCF7F0FA00224FF41D
:104D200000512846FCF7EAFA00224FF48061284639
:104D3000FCF7E4FA32464FF400412846FCF7DEFA6D
:104D400096E7FBF7B9FB0A4B18600023044A13608F
:104D5000054A1360054A1360064A136088E770BD70
:104D6000AC02002000180240BC020020CC0200204F
:104D70009C020020DC02002008B54FF400611648B8
:104D8000FCF7A8FA012803D1144B1B68012B11D0A2
:104D90004FF400411048FCF79DFA012802D10F4B57
:104DA0001B686BB14FF400410B48FCF793FA0128E4
:104DB0000CD008BDFFF7FCFE084B00221A60F8E794
:104DC000FFF712FE054B01221A60F2E74FF4006173
:104DD0000148FCF77FFAECE7001402408C02002047
:104DE00038B505460C4600F08DFE002830D0294627
:104DF000204603F0EDFD20B11749204603F0DEFD0B
:104E000048B90021204603F0E3FD38B1134920469C
:104E100003F0D4FD10B1124B1B689BB10F49204623
:104E200003F0D6FDB0B12946204603F0C7FD88B196
:104E30000B4B1B68012B0DD1094B00221A60FFF7A9
:104E4000B7FE07E0064B01221A60FFF7CDFD01E037
:104E5000FFF792FF38BD00BFC1CABC410000C0408F
:104E60008802002070B5002457E00122654B1A60CB
:104E7000654D04212846FCF741FA00224FF4807169
:104E80002846FCF73BFA00224FF400712846FCF755
:104E900035FA002202212846FCF730FA3CE00126D0
:104EA0005A4B1E60584D002204212846FCF726FA72
:104EB00032464FF480712846FCF720FA00224FF466
:104EC00000712846FCF71AFA002202212846FCF756
:104ED00015FA21E001264E4B1E604B4D00220421A5
:104EE0002846FCF70BFA00224FF480712846FCF7A5
:104EF00005FA32464FF400712846FCF7FFF900220C
:104F000002212846FCF7FAF906E0FBF7D5FA414BF7
:104F10001B68C01A092866D80134B4F5007F70DA1E
:104F2000FBF7CAFA3B4B1B68C01A01280AD9FBF7EA
:104F3000C3FA384B1B68C01A032803D8314B1B68CF
:104F4000002B92D0FBF7B8FA324B1B68C01A03282B
:104F50000AD9FBF7B1FA2F4B1B68C01A052803D8F2
:104F60002A4B1B68002B9AD0FBF7A6FA294B1B682B
:104F7000C01A05280AD9FBF79FFA264B1B68C01AEE
:104F8000072803D8224B1B68002BA3D0FBF794FA09
:104F9000204B1B68C01A0728B7D9FBF78DFA1D4BA9
:104FA0001B68C01A0928B0D81B4B1B68002BACD15A
:104FB0000126194B1E60144D002204212846FCF7DF
:104FC0009DF900224FF480712846FCF797F90022E2
:104FD0004FF400712846FCF791F932460221284629
:104FE000FCF78CF998E7FBF767FA0A4B1860002387
:104FF000044A1360054A1360054A1360064A1360A9
:105000008AE770BDB002002000180240C0020020F4
:10501000D0020020A0020020E002002070B5002491
:1050200057E00122654B1A60654D02212846FCF7C6
:1050300065F900224FF400712846FCF75FF9002261
:105040004FF480712846FCF759F9002204212846C4
:10505000FCF754F93CE001265A4B1E60584D0022E3
:1050600002212846FCF74AF932464FF400712846DF
:10507000FCF744F900224FF480712846FCF73EF912
:10508000002204212846FCF739F921E001264E4B85
:105090001E604B4D002202212846FCF72FF900220A
:1050A0004FF400712846FCF729F932464FF480711D
:1050B0002846FCF723F9002204212846FCF71EF9B4
:1050C00006E0FBF7F9F9414B1B68C01A092866D8BE
:1050D0000134B4F5007F70DAFBF7EEF93B4B1B6847
:1050E000C01A01280AD9FBF7E7F9384B1B68C01A28
:1050F000032803D8314B1B68002B92D0FBF7DCF957
:10510000324B1B68C01A03280AD9FBF7D5F92F4B7D
:105110001B68C01A052803D82A4B1B68002B9AD09D
:10512000FBF7CAF9294B1B68C01A05280AD9FBF7F7
:10513000C3F9264B1B68C01A072803D8224B1B68EB
:10514000002BA3D0FBF7B8F9204B1B68C01A072827
:10515000B7D9FBF7B1F91D4B1B68C01A0928B0D8A5
:105160001B4B1B68002BACD10126194B1E60144D44
:10517000002202212846FCF7C1F800224FF40071FA
:105180002846FCF7BBF800224FF480712846FCF754
:10519000B5F8324604212846FCF7B0F898E7FBF74B
:1051A0008BF90A4B18600023044A1360054A136008
:1051B000054A1360064A13608AE770BDB4020020F6
:1051C00000180240C4020020D4020020A4020020E3
:1051D000E402002008B54FF400611648FCF77AF8A5
:1051E000012803D1144B1B68012B11D04FF400414F
:1051F0001048FCF76FF8012802D10F4B1B686BB108
:105200004FF400410B48FCF765F801280CD008BDAD
:10521000FFF704FF084B00221A60F8E7FFF722FEB1
:10522000054B01221A60F2E74FF400610148FCF7D8
:1052300051F8ECE7001402409402002038B505460E
:105240000C4600F05FFC002830D02946204603F0D1
:10525000BFFB20B11749204603F0B0FB48B900213D
:10526000204603F0B5FB38B11349204603F0A6FBF6
:1052700010B1124B1B689BB10F49204603F0A8FBED
:10528000B0B12946204603F099FB88B10B4B1B684F
:10529000012B0DD1094B00221A60FFF7BFFE07E07A
:1052A000064B01221A60FFF7DDFD01E0FFF792FFD8
:1052B00038BD00BFC1CABC410000C0409002002000
:1052C00030B589B0FFF7D6FAAC4B5B79013B0B2BBD
:1052D00000F2AA81DFE813F00C00470054007300CD
:1052E0009200B100CA00E3000201210140018F01D8
:1052F000A24B187903F062F9A14903F0B7F9002134
:1053000003F0ACF803F078FBAF2800F38F819D4BDE
:1053100083FB00231A18C317C3EB62131A46C3EBAF
:105320000313A0EB830310320392163304933B2B39
:1053300003DD3C3B049301320392934B039A1A60C2
:10534000049A5A60904D286803F03CF90446686856
:1053500003F038F98D4903F03DFA0146204603F089
:105360007DF809B030BD854B187903F027F98449E1
:1053700003F07CF9864903F071F803F03DFBC3E7C5
:105380007E4B9B7913F0030F0CD17C4B187903F003
:1053900015F9804903F06AF97F4903F05FF803F0DB
:1053A0002BFBB1E7754B187903F008F9794903F045
:1053B0005DF97A4903F052F803F01EFBA4E76F4B46
:1053C0009B7913F0030F0CD16C4B187903F0F6F8AE
:1053D000704903F04BF9724903F040F803F00CFBFD
:1053E00092E7664B187903F0E9F86A4903F03EF951
:1053F0006C4903F033F803F0FFFA85E75F4B9B79C4
:1054000013F0030F0CD15D4B187903F0D7F85C490A
:1054100003F02CF9644903F021F803F0EDFA73E787
:10542000564B187903F0CAF8554903F01FF95F4944
:1054300003F014F803F0E0FA66E7504B9B7913F0A1
:10544000030F09D14D4B187903F0B8F8584903F010
:1054500005F803F0D1FA57E7484B187903F0AEF896
:10546000544902F0FBFF03F0C7FA4DE7434B9B7929
:1054700013F0030F09D1414B187903F09FF84E49FF
:1054800002F0ECFF03F0B8FA3EE73C4B187903F06A
:1054900095F84A4902F0E2FF03F0AEFA34E7374BE1
:1054A0009B7913F0030F0CD1344B187903F086F875
:1054B000334903F0DBF8424902F0D0FF03F09CFAD5
:1054C00022E72E4B187903F079F82D4903F0CEF836
:1054D0003C4902F0C3FF03F08FFA15E7274B9B7995
:1054E00013F0030F0CD1254B187903F067F8294905
:1054F00003F0BCF8344902F0B1FF03F07DFA03E792
:105500001E4B187903F05AF8579903F0AFF82F495A
:1055100002F0A4FF03F070FAF6E6184B9B7913F043
:10552000030F0CD1154B187903F048F8194903F013
:105530009DF8274902F092FF03F05EFAE4E60F4B74
:10554000187903F03BF8134903F090F8214902F071
:1055500085FF03F051FAD7E6084B9B7913F0030F50
:105560003CD1064B187903F029F8054903F07EF881
:10557000194902F073FF03F03FFAC5E67C060020EC
:105580006666A63F89888888F00200200000C8422D
:1055900033332142CDCCCC3F0000704200006C423E
:1055A0000000B6420000B4420000F2420000F042A7
:1055B0000000184300001743000036430000354345
:1055C000000055430000544300007443000073433F
:1055D000000089430080884300809843304B18794D
:1055E00002F0ECFF2F4903F041F82F4902F036FF9B
:1055F00003F002FA88E62A4B9B7913F0030F09D1D6
:10560000274B187902F0DAFF284902F027FF03F050
:10561000F3F979E6224B187902F0D0FF244902F021
:105620001DFF03F0E9F96FE601206DE6B02822DDE9
:10563000B0F5AC7F1FDCB0381E4B83FB00231A187B
:10564000C317C3EB62131A46C3EB0313A0EB830328
:10565000C2F113020192C3F133030293002B05DB65
:10566000154B019A1A60029A5A606BE63C3302931A
:10567000013A0192F4E7A0F259100E4B83FB00238C
:105680001A18C317C3EB62131A46C3EB0313A0EB3C
:10569000830310320C3308490A604B6052E600BFA6
:1056A0007C0600206666A63F000098430080A74362
:1056B0000000A74389888888F002002038B5054695
:1056C0000C460146204603F083F928B929462046B6
:1056D00003F07EF970B938BD4FF480610C48FBF7D8
:1056E000F9FD0128F2D101224FF400610848FBF7CF
:1056F00005FEF0E74FF480610548FBF7EBFD00285D
:10570000E9D100224FF400610148FBF7F7FDE2E721
:10571000000C024008B500F0F5F968B320212448D8
:10572000FBF7D8FD012802D1224B1B68DBB12021F9
:105730001F48FBF7CFFD60BB1E4B1B68012B28D118
:10574000FAF7BAFE1C4B1B68C01AB0F5FA7F20D3DB
:10575000FAF7B2FE184B186000224FF400511448BB
:10576000FBF7CCFD15E00122124B1A604FF40051FB
:105770000F48FBF7C3FD0CE04FF400710C48FBF73A
:10578000A9FD012806D04FF400710948FBF7A2FDDE
:1057900038B108BD01224FF400510548FBF7AEFDBA
:1057A000F7E700224FF400510148FBF7A7FDF0E7AF
:1057B000000C0240F8020020EC02002038B505463B
:1057C0000C4600F09FF900282DD02946204603F012
:1057D000FFF838B12749204603F0F0F810B1264B06
:1057E0001B68A3B12946204603F0E8F828B300213E
:1057F000204603F0EDF800B31F4B1B68012B1CD1B2
:1058000000211D4B19601D48FEF766FC15E01A4B80
:1058100001221A6000211948FEF7E2FB184B1B68B1
:1058200032225A6309E040211648FBF753FD012854
:1058300004D0154B1B68012B12D038BD124B1B68CE
:10584000002BF6D1104B01221A600C4C002120468F
:10585000FEF7C6FB0A4B1B685A6A23685A63ECE7DB
:105860000128EAD10021084B19600448FEF734FCF6
:10587000E3E700BFC1CABC41FC020020840600204F
:105880002C050020000C02400003002038B505461E
:1058900000F038F9044680212548FBF71BFD24BBA6
:1058A0000346012802D0012B13D038BD214A1268CB
:1058B000002AF8D11F4B01221A601F4C04212046F8
:1058C000FEF78EFB1D4B1B685B6ADBB2226893639D
:1058D000EBE7184B1B68012BE7D1164B00221A602F
:1058E00004211548FEF7F8FBDFE71348FDF7A4FC99
:1058F0000128DAD10021284603F06AF80028D4D024
:105900000F49284603F05AF80028CED0FAF7D4FD04
:105910000C4B1B68C01A0C4B9842C6D3FAF7CCFD4F
:10592000084B186004210448FEF7D6FBBDE700BF12
:10593000000C024004030020840600203C040020E8
:105940000000C040E802002080EE3600F0B589B0CB
:10595000FAF78CFD00F0ECFA00F066FB00F052FC68
:1059600000F08CFC00F0D0FCFEF736FF00F014FDD8
:1059700000F054FD00F096FD00F04CFE00F0F0FD4C
:1059800000F010FE00F070FE4C48FDF7FFFB012216
:1059900001A94B48FCF718F90126002584E0494B82
:1059A0005B78002B40F08780464B1A78059B9A4223
:1059B00040F08180FFF784FC05460026414FB8780F
:1059C00002F0FCFD0446787802F0F8FD3E4902F052
:1059D00001FF0146204602F041FD044601462846EB
:1059E000FFF76CFEFFF796FE21462846FFF7E6FE1E
:1059F0002046FFF74BFF21462846FFF7F1F92146E5
:105A00002846FFF71BFC00F08BF8FEF779FF00F04B
:105A1000B9FEFAF751FDB0F57A7F01D3FEF760FECB
:105A20002A4FB8782A4CA4FB0030C0083030FB78ED
:105A3000A4FB0312D20802EB8202A3EB4203DBB207
:105A40003033184402F0BEFD02F0C8F902460B469E
:105A5000204905A803F000FE00210846FEF7AEFE2F
:105A600005A8FEF7F4FE3878A4FB0030C0083030FB
:105A70007B78A4FB0324E40804EB8404A3EB440434
:105A8000E4B23034204402F09DFD02F0A7F9024652
:105A90000B46114905A803F0DFFD00210120FEF7A8
:105AA0008DFE05A8FEF7D3FEFEF7E4FE054B9B78BE
:105AB000032B3FF474AF002E80D07BE7F405002069
:105AC000880300207C0600200000C84274060020E5
:105AD000CDCCCCCCECBC0008F4BC000808B5024826
