:020000040800F2
:1000000000000320C1020008D1580008D35800089E
:10001000D5580008D7580008D9580008000000003B
:10002000000000000000000000000000DB58000895
:10003000DD58000800000000DF580008E158000803
:100040008542000885420008854200088542000874
:100050008542000885420008854200088542000864
:10006000F9580008854200088542000885420008CA
:100070008542000885420008854200088542000844
:10008000E9580008854200088542000885420008BA
:100090008542000885420008854200088542000824
:1000A0008542000885420008854200088542000814
:1000B0008542000885420008854200088542000804
:1000C00085420008854200088542000885420008F4
:1000D00085420008854200088542000885420008E4
:1000E00085420008854200088542000885420008D4
:1000F00085420008854200088542000885420008C4
:1001000085420008854200088542000885420008B3
:1001100085420008854200088542000885420008A3
:100120008542000885420008854200088542000893
:100130008542000885420008854200088542000883
:100140008542000885420008854200088542000873
:100150008542000885420008854200088542000863
:100160008542000885420008854200088542000853
:100170008542000885420008854200080000000012
:100180008542000885420008854200088542000833
:100190008542000885420008854200088542000823
:1001A00085420008854200088542000800B583B0FA
:1001B00003F0CEFF304B314A1360314A1360314BAC
:1001C000314A03E052F8041B43F8041B2F498B42C9
:1001D000F8D32A4B1A682E4B9A4200D0FEE7284BE0
:1001E0001A682C4B9A42F9D1234B2B4A13602B4AA5
:1001F00013602B4B02E0002243F8042B294A934260
:10020000F9D3254B1B6813B9244B1B6803B1FEE7D8
:1002100003F0AAFF694601A803F044FF224C234BD8
:10022000E41AA410002504E0204B53F82530984729
:100230000135AC42F8DC1E4C1E4BE41AA41000251C
:1002400004E01C4B53F8253098470135AC42F8DCEC
:100250000099019805F09AF90546174C174BE41AD6
:10026000A41004E0013C154B53F824309847002CAF
:10027000F8DC284605F04DFBBABADECA00000020C3
:10028000E80100200000002050BB0008EC01002025
:100290007856341232547698EC010020C0050020C4
:1002A000EC010020C4050020140400081404000818
:1002B00014040008140400081404000814040008BE
:1002C00008B5FFF773FF00BEFEE71EF0040F0CBF7A
:1002D000EFF30880EFF309807146414A10472DE99A
:1002E000F04182B004460D46124B5F6BD3F8388064
:1002F0009E6A1B6B13F0020F03D00E4BDB6A002BC0
:100300000BDB0D4803F0D6FE009543463A463146D6
:10031000204603F02DFF00BEFEE74BF6AB6103F075
:10032000A1FF0028EDD0034B4FF00042DA6202B08B
:10033000BDE8F08100ED00E020B6000800BEFEE759
:100340001EF0040F0CBFEFF30880EFF30980714635
:10035000244A10472DE9F04182B004460D46084B6F
:100360005F6BD3F838809E6A064803F0A3FE0095C1
:1003700043463A463146204603F0FAFE00BEFEE709
:1003800000ED00E030B600081EF0040F0CBFEFF3E4
:100390000880EFF309807146134A10472DE9F041B8
:1003A00082B004460D46084B5F6BD3F838809E6AD6
:1003B000064803F07FFE009543463A463146204604
:1003C00003F0D6FE00BEFEE700ED00E03CB60008FC
:1003D00000BEFEE700BEFEE700BEFEE7704700007D
:0C03E000DF020008550300089D03000820
:1003EC0050BB000800000020EC01002050BB0008AE
:1003FC000000001000000010EC010020C4050020DB
:08040C000000001000000010C8
:1004200010B504460E4B18784FF47A73B3FBF0F313
:100430000C4A1068B0FBF3F000F0D4F868B90F2C48
:1004400001D901200AE0002221464FF0FF3000F0E0
:100450006BF8054B1C60002000E0012010BD00BFC0
:1004600004000020140000200800002008B50B4BF9
:100470001A6842F400721A601A6842F480621A60C4
:100480001A6842F480721A60032000F02FF80020EE
:10049000FFF7C6FF05F0A8F9002008BD003C0240A8
:1004A000034A1168034B1B780B441360704700BF6D
:1004B0001C03002004000020014B1868704700BF97
:1004C0001C03002038B50446FFF7F6FF0546B4F1DB
:1004D000FF3F02D0044B1B781C44FFF7EDFF401B8D
:1004E000A042FAD338BD00BF0400002010B5044676
:1004F000C31E042B0FD80A4AD36823F4E0631B04FD
:100500001B0C240204F4E064234343F0BF6343F470
:100510000033D36010BD9221024805F0BFF8EAE72E
:1005200000ED00E060B3000870B505460C461646C5
:100530000F2A25D80F2C28D81B4BDB68C3F30223C6
:10054000C3F10701042928BF04211A1D062A21D955
:10055000033B4FF0FF3202FA01F124EA01049C4010
:1005600002FA03F326EA03063443002D14DB2401C8
:10057000E4B205F1604505F5614585F8004370BDBD
:10058000AA210A4805F08AF8D4E7AB21074805F00C
:1005900085F8D1E70023DCE705F00F052401E4B27C
:1005A000034B5C55EBE700BF00ED00E060B30008D3
:1005B00014ED00E010B5041E0ADB002C07DB04F08C
:1005C0001F02640901239340044A42F8243010BDFD
:1005D000BE21034805F062F8EFE700BF00E100E04C
:1005E00060B300080138B0F1807F0AD2064B586032
:1005F000064AF02182F823100020986007221A6032
:1006000070470120704700BF10E000E000ED00E0FF
:1006100010B50446042800D038B9042C0BD0094A80
:10062000136823F00403136010BD40F2C91106489B
:1006300005F034F8F1E7034A136843F0040313604C
:10064000F2E700BF10E000E060B30008C0B110B5F1
:10065000044602680B4B9A4204D040F215110A4836
:1006600005F01CF8237933B10223237100202061A7
:100670000123237110BD6371204605F0D1F8F3E723
:10068000012070470074004090B300082DE9F0414C
:10069000044617469846069D0E4609B1102938D1E2
:1006A0001DB1042D01D0082D39D16379012B6ED0F5
:1006B0000123637102232371002E3FD1A368354AC1
:1006C000DA63A368344A1A64A368344ADA64226895
:1006D000136843F480531360042D29D0082D2AD0C9
:1006E0001DB33246002E47D121680B6843F40053F6
:1006F0000B6043463946A06800F0D8FA21680B68C1
:10070000012202FA06F61E430E6000206071BDE869
:10071000F08140F20D21224804F0C0FFC0E740F212
:100720000E211F4804F0BAFFBFE722680832D9E75C
:1007300022680C32D6E722681032D3E7E368194A00
:10074000DA63E368184A1A64E368184ADA642268CC
:10075000136843F080531360042D07D0082D08D090
:100760000DB10022BEE722681432BBE722681832BE
:10077000B8E722681C32B5E721680B6843F00053E4
:100780000B6043463946E06800F090FAB6E7022075
:10079000BDE700BF0B0800081D0800082908000875
:1007A00090B30008EF080008FF08000809090008D6
:1007B00038B504460D4609B1102916D121680B68D9
:1007C0004FF48052AA4023EA02030B6021680B68B1
:1007D0000122AA4023EA02030B6065B9A06800F079
:1007E000B1FA60B10423237138BD4FF4217105487B
:1007F00004F054FFE2E7E06800F0A4FAF1E7012317
:100800002371F1E790B30008704710B5846B204660
:10081000FFF7FAFF0123237110BD704708B5806B05
:10082000FFF7FBFF08BD704710B5846B236943F0E9
:10083000040323612046FFF7F6FF0123237110BD57
:1008400070B504460E4615460B687BB1242B0DD0BF
:100850000C2B0BD0142B09D01C2B07D0042B05D04C
:100860002C2B03D0342B01D03C2B26D173680BB139
:10087000022B28D10DB1102D2BD16379012B2ED055
:1008800001216171022323712068036840F6FE7222
:10089000AA4023EA0202336876683343AB4013432D
:1008A000036020680368C02202FA05F523EA050503
:1008B000056021710020607170BD40F25631094819
:1008C00004F0ECFED2E740F25731064804F0E6FEB1
:1008D000D0E74FF45671034804F0E0FECDE7022064
:1008E000EAE700BF90B3000870477047704710B543
:1008F000846B2046FFF7F8FF0123237110BD08B574
:10090000806BFFF7F2FF08BD10B5846B236943F0DD
:10091000040323612046FFF7E9FF0123237110BD83
:1009200030B405682C6824F480242C60046863606B
:100930008368402B05D0036899600368DA6030BC97
:10094000704703689A600368D960F8E710B40368D9
:10095000D9B210390B4AA2FB014212090A4CA25C1F
:10096000C2655F2908D923F47F7323F0030304339E
:100970008365806D10BC704723F47F7323F00303FD
:100980008365F6E7ABAAAAAAE8B30008836A82697E
:1009900092B9012B0AD0022B02D00BB10020704774
:1009A000C36A13F0807F28D100207047C36AB3F177
:1009B000C07F24D000207047B2F5005F09D0022B21
:1009C00025D9032B25D1C36A13F0807F23D10020C2
:1009D0007047032B03D8DFE803F01404140A002047
:1009E0007047C36A13F0807F0DD100207047C36A3F
:1009F000B3F1C07F09D0002070470120704701206B
:100A00007047012070470120704701207047012086
:100A100070470020704701207047000070B5044601
:100A2000FFF74AFD002C00F03881054623689C4AF8
:100A3000934231D0183293422ED0183293422BD0A9
:100A40001832934228D01832934225D0183293425C
:100A500022D0183293421FD0183293421CD002F594
:100A60005672934218D01832934215D018329342DE
:100A700012D0183293420FD0183293420CD0183251
:100A8000934209D01832934206D01832934203D0D1
:100A9000B821844804F002FE6368A3B1B3F1007F7B
:100AA00011D0B3F1806F0ED0B3F1C06F0BD0B3F1A2
:100AB000006F08D0B3F1206F05D0B3F1406F02D0C2
:100AC000B3F1606F6DD1A3681BB1402B01D0802BB7
:100AD0006CD1E368B3F5007F01D0002B6BD12369A3
:100AE000B3F5806F01D0002B6AD163692BB1B3F5E8
:100AF000006F02D0B3F5805F67D1A3692BB1B3F566
:100B0000005F02D0B3F5804F64D1E36923B1B3F540
:100B1000807F01D0202B62D1236A43B1B3F5803F9F
:100B200005D0B3F5003F02D0B3F5403F5CD1636A16
:100B30000BB1042B5DD1636AC3B1A36A032B5DD8EB
:100B4000E36A43B1B3F5000F05D0B3F1807F02D063
:100B5000B3F1C07F57D1236B43B1B3F5001F05D06C
:100B6000B3F5800F02D0B3F5C00F51D1002384F844
:100B70003430022384F835302268136823F00103EF
:100B8000136023681A6812F0010F46D0FFF794FC37
:100B9000401B0528F5D920236365032084F8350020
:100BA00070BDB9213F4804F079FD8CE7BA213D487A
:100BB00004F074FD8DE7BB213A4804F06FFD8EE729
:100BC000BC21384804F06AFD8FE7BD21354804F0A8
:100BD00065FD92E7BE21334804F060FD95E7BF2133
:100BE000304804F05BFD97E7C0212E4804F056FD25
:100BF0009DE7C1212B4804F051FD9CE7C6212948FF
:100C000004F04CFD9CE7C721264804F047FDA2E70D
:100C1000C821244804F042FDA8E71A682248104081
:100C20006168A2680A43E1680A4321690A4361696D
:100C30000A43A1690A43E1690A43216A0A4302435C
:100C4000616A04291ED01A602668756925F00705B7
:100C5000636A1D43042B07D1A36A1D43E36A1BB1DA
:100C60002046FFF793FE90B975612046FFF76EFEB0
:100C7000E26D3F239340836000206065012384F888
:100C800035308DE7E16A206B01430A43DBE74023FF
:100C90006365012084F8350082E7012080E700BF0A
:100CA00010600240BCB300083F8010F02DE9F04115
:100CB00004460E4617461D46D0F858805A1E4FF679
:100CC000FE739A4211D894F83430012B36D00123A8
:100CD00084F8343094F83530DBB2012B0BD000238C
:100CE00084F834300220BDE8F0814FF4E6711448F6
:100CF00004F0D4FCE7E7022384F835300023636571
:100D00002B463A4631462046FFF70AFEE26D3F2366
:100D10009340C8F808302268136843F01603136044
:100D2000236C23B12268136843F008031360226820
:100D3000136843F0010313600020D4E70220D2E7D8
:100D4000BCB3000870B50446866DFFF7B5FB94F898
:100D50003530DBB2022B06D080236365002384F894
:100D60003430012070BD05462268136823F0160355
:100D700013602268536923F080035361236CE3B14D
:100D80002268136823F0080313602268136823F0B5
:100D90000103136023681B6813F0010F11D0FFF7E4
:100DA0008BFB431B052BF5D920236365002384F8B7
:100DB0003430032084F83500D4E7A36C002BDFD156
:100DC000E3E7E26D3F239340B360002084F83400F2
:100DD000012384F83530C5E7F0B583B0044600231D
:100DE0000193724B1D68724BA3FB0535AD0A876DED
:100DF0003E68C26D08239340334210D003681A68DE
:100E000012F0040F0BD01A6822F004021A60C26DAF
:100E100008239340BB60436D43F001034365E26DDB
:100E200001239340334209D02268526912F0800FA7
:100E300004D0BB60636D43F002036365E26D04237D
:100E40009340334209D02268126812F0020F04D096
:100E5000BB60636D43F004036365E26D1023934050
:100E6000334224D02268126812F0080F1FD0BB60F2
:100E700023681A6812F4802F0DD01B6813F4002F1A
:100E800004D1236C9BB12046984710E0A36C73B14A
:100E9000204698470BE01A6812F4807F03D11A6845
:100EA00022F008021A60236C0BB120469847E26DCD
:100EB00020239340334255D02268126812F0100F5D
:100EC00050D0BB6094F83530DBB2052B0ED02368D0
:100ED0001A6812F4802F33D01B6813F4002F2AD124
:100EE000636C002B3ED0204698473BE02268136895
:100EF00023F0160313602268536923F080035361C3
:100F0000236CA3B12268136823F008031360E26D19
:100F10003F239340BB60002384F83430012384F8DE
:100F20003530236D002B3FD0204698473CE0A36C22
:100F3000002BE7D1EBE7E36BA3B12046984711E024
:100F40001A6812F4807F09D11A6822F010021A6020
:100F5000002384F83430012384F83530E36B0BB17F
:100F600020469847636DFBB1636D13F0010F17D0F6
:100F7000052384F835302268136823F001031360D9
:100F8000019B01330193AB4204D823681B6813F023
:100F9000010FF5D1002384F83430012384F8353073
:100FA000E36C0BB12046984703B0F0BD140000205D
:100FB000B5814E1B2DE9F04383B007460E46B94B71
:100FC00098422BD003F58063984227D003F58063C5
:100FD000984223D003F5806398421FD003F58063C5
:100FE00098421BD003F58063984217D003F58063C5
:100FF000984213D003F5806398420FD003F58063C5
:1010000098420BD003F58063984207D003F58063C4
:10101000984203D0B321A44804F040FB33689AB24D
:1010200012B11B0C1B041BB1B4219F4804F036FB0A
:101030007368012B1ED9112B1CD0022B1AD0122B36
:1010400018D09A4A934215D002F58012934211D0DB
:1010500002F5801293420DD0A2F5F812934209D006
:1010600002F58012934205D002F58012934201D01E
:10107000032B04D1B368022B06D800244BE0B52122
:10108000894804F00BFBF5E7B621874804F006FB1E
:10109000F3E7C821844804F001FB52E0E0218248D4
:1010A00004F0FCFA92E0092300E000238B400343A4
:1010B00002327F4941F822307E4B1A686FEA0803FA
:1010C00022EA0801706810F4803F01D048EA02016A
:1010D000784A1160526803EA0201706810F4003F18
:1010E00001D048EA0201734A5160926803EA0201A2
:1010F000706810F4801F01D048EA02016D4A9160C7
:10110000D2681340716811F4001F01D048EA02034D
:10111000684AD36001340F2C00F2D6800125A54027
:10112000336803EA050835EA0303F3D173685A1EEE
:10113000012A03D9112B01D0122B15D1F368032BEF
:10114000A7D8BA68610003238B4022EA0302F36840
:101150008B401343BB607A6822EA05027368C3F3CD
:101160000015A54015437D60FA6865000323AB4078
:101170006FEA030922EA0302B368AB401343FB6042
:101180007368022B01D0122B30D13369F3B1092BD4
:101190001CD0012B1AD0022B18D0032B16D0042BF5
:1011A00014D0052B12D0062B10D0072B0ED0082BF5
:1011B0000CD00A2B0AD00B2B08D00C2B06D00D2BF1
:1011C00004D00F2B02D00E2B7FF468AFE208083258
:1011D00057F8220004F0070399000F238B4020EA00
:1011E000030033698B40034347F822303B6809EA28
:1011F0000309736803F00303AB4043EA09033B6050
:10120000736813F0805F85D0002301932A4B5A6CDA
:1012100042F480425A645B6C03F480430193019B67
:10122000A208911C224B53F8210004F003039900FB
:101230000F238B4020EA03001A4B9F423FF435AF47
:1012400003F580639F4222D003F580639F4220D044
:1012500003F580639F421ED003F580639F421CD03C
:1012600003F580639F421AD003F580639F4225D027
:1012700003F580639F4223D003F580639F4221D012
:1012800003F580639F423FF40EAF0A230EE701236C
:101290000CE702230AE7032308E7042306E70523F4
:1012A00004E700BF00000240F0B300080000111086
:1012B00000380140003C0140003802400623F5E6BA
:1012C0000723F3E60823F1E603B0BDE8F08300BF8F
:1012D00038B504460D4621B123691D4207D00120CF
:1012E00038BD4FF4BF71034804F0D8F9F4E700208B
:1012F000F6E700BFF0B3000870B5054614460E4689
:1013000021B1012C08D86CB1AE6170BD40F29F11C3
:10131000064804F0C3F9F4E74FF4D071034804F031
:10132000BDF9F0E73604AE61EFE700BFF0B30008A7
:1013300008B5054B5B69034200D108BD024B5861FB
:1013400003F0B8FDF9E700BF003C014003685A69AB
:1013500012F4806F01D1002070476FF480625A61EF
:1013600000230363202280F83D2080F83E30026C89
:1013700042F00402026480F83C30012070472DE9FD
:10138000F04107460D4690461E4622E0FFF794F8CE
:10139000069BC01AB04200D8DEB900233B6320226E
:1013A00087F83D2087F83E303A6C42F020023A64DC
:1013B00087F83C3001201AE03B689C6925EA040468
:1013C000A4B2B4FA84F46409A0450FD1B6F1FF3F8A
:1013D000DCD1C5F30743012BEED13B685C6925EAFC
:1013E0000404A4B2B4FA84F46409EDE70020BDE873
:1013F000F0812DE9F04105460E46174698463DE03E
:101400001A6842F400721A602B686FF480625A61A5
:1014100000232B63202285F83D2085F83E302A6C7E
:1014200042F004022A6485F83C30012034E0FFF7E2
:1014300043F8A0EB0800B84200D8FFB900232B63A3
:10144000202285F83D2085F83E302A6C42F02002AB
:101450002A6485F83C3001201EE02B689C6926EA4E
:101460000404A4B2003C18BF0124A4B12B685A693B
:1014700012F4806FC4D1B7F1FF3FD8D1C6F3074350
:10148000012BEAD12B685C6926EA0404A4B2003C73
:1014900018BF0124E9E70020BDE8F081F0B583B072
:1014A00004460D4616461F46C36A082B0DD0012B75
:1014B0000BD013F5803F08D0036B122B0AD10268C2
:1014C000136843F48073136004E02268136843F4E4
:1014D000807313600097334600224FF001112046BD
:1014E000FFF74DFF80B92369B3F5804F16D123680C
:1014F00005F0FE051D613B46324613492046FFF7C5
:1015000078FFF8B903B0F0BD23681B6813F4807F3F
:1015100002D04FF4007323640320F3E7EB11226839
:1015200003F0060343F0F00313613B4632460749DC
:101530002046FFF75EFF18B92368EDB21D61DAE7B8
:101540000120DFE70120DDE70200010008000100C3
:1015500070B504460D46164623685B6913F0800F8C
:101560001CD12046FFF7F2FED0B9B5F1FF3FF3D012
:10157000FEF7A2FF801BA84201D8002DECD100236A
:101580002363202284F83D2084F83E30226C42F010
:101590002002226484F83C30012000E0002070BD6D
:1015A0000120FCE72DE9F04784B004460D461646BD
:1015B00099460C9FDDF834800268136843F4806319
:1015C00013600368196841F480711960CDF80080D8
:1015D0003B4600224FF00111FFF7D1FE70B95FFAD0
:1015E00085FA236805F0FE051D6143463A464149E8
:1015F0002046FFF7FEFE68B1012008E023681B6863
:1016000013F4807F02D04FF400732364032004B0EE
:10161000BDE8F0870023039323685A6903929B690E
:101620000393039B424639462046FFF791FF80B95A
:10163000B9F1010F18D12368F6B21E61424639464E
:101640002046FFF785FF68B3236C042B24D00120CC
:10165000DDE7236C042B01D00120D8E72268136852
:1016600043F400731360F7E72368320A1A614246B5
:1016700039462046FFF76CFF18B92368F6B21E61A1
:10168000DCE7236C042B01D00120C0E7226813683B
:1016900043F400731360F7E72268136843F40073A0
:1016A0001360D4E72268136843F480731360CDF8A5
:1016B00000803B4600224FF001112046FFF75FFEFD
:1016C00068B922684AF00103136143463A46094962
:1016D0002046FFF78EFE002899D0012097E7236867
:1016E0001B6813F4807F02D04FF40073236403203F
:1016F0008DE700BF0200010070B504460D46164696
:1017000023685B6913F0040F1CD12046FFF71EFE0F
:10171000D0B9B5F1FF3FF3D0FEF7CEFE801BA84253
:1017200001D8002DECD100232363202284F83D2032
:1017300084F83E30226C42F02002226484F83C306F
:10174000012000E0002070BD0120FCE770B50546D7
:101750000C4616462B68596911F0400F29D159697A
:1017600011F0100F15D1FEF7A7FE801BA04201D883
:10177000002CEFD100232B63202285F83D2085F833
:101780003E302A6C42F020022A6485F83C30012069
:1017900070BD6FF010025A6100232B63202285F880
:1017A0003D2085F83E302A6C2A6485F83C300120C3
:1017B000EEE70020ECE77047002800F04181F8B523
:1017C00004460368A04A93420CD002F5806293421B
:1017D00008D002F58062934204D040F2BD119B48CC
:1017E00003F05CFF6368013B994A934200F2A980D1
:1017F000A3681BB1B3F5804F40F0A980E36823F4E0
:101800007F7323F00303002B40F0A7802369B3F517
:10181000804F03D0B3F5404F40F0A5806369012BA2
:1018200000F2A780A36933F0FE0340F0A880E369CB
:1018300013B1402B40F0A980236A13B1802B40F0F4
:10184000AA8094F83D30002B00F0AB80242384F86C
:101850003D302268136823F0010313602268136887
:1018600043F4004313602268136823F400431360B9
:1018700000F068FF6268774B9A4200F29880764BDE
:1018800098428CBF00230123002B40F0DB80734D76
:10189000A5FB0035AF0C2668716821F03F0141EAD5
:1018A0009541716021680B6A23F03F036568694ABE
:1018B000954200F282807A1C13430B622568E96925
:1018C00021F44F4121F0FF016368624A93427ED8C0
:1018D00001385B00B0FBF3F0013040F6FC731842B6
:1018E00000F0AA80C0F30B030B43EB6121680B6887
:1018F00023F0C003E269206A024313430B602168AE
:101900008B6823F4034323F0FF032269E06802435A
:1019100013438B602168CB6823F0FF036269A069E1
:1019200002431343CB602268136843F00103136042
:1019300000202064202384F83D30206384F83E009A
:10194000F8BD4FF4DF71414803F0A8FE50E740F2C4
:10195000BF113E4803F0A2FE50E74FF4E0713B4850
:1019600003F09CFE52E740F2C111384803F096FEA6
:1019700054E74FF4E171354803F090FE52E740F22E
:10198000C311324803F08AFE51E74FF4E2712F4849
:1019900003F084FE50E740F2C5112C4803F07EFEB0
:1019A0004FE784F83C302046FFF705FF4EE72C4B0D
:1019B00098428CBF0023012366E74FF4967202FB26
:1019C00007F2284DA5FB02529209013274E7A26882
:1019D000BAB9461E03EB4307B6FBF7F60136C6F36A
:1019E0000B06B6FA86F6760946BBC2B9421E03EB71
:1019F0004303B2FBF3F20132C2F30B0242F40043A1
:101A000072E7461E03EB830707EB8707B6FBF7F683
:101A10000136C6F30B06B6FA86F67609E4E7421EEF
:101A200003EB830303EB8303B2FBF3F20132C2F354
:101A30000B0242F4404357E7042355E7012353E7E1
:101A40000120704701207BE70054004020B40008CB
:101A50007F1A0600A08601007F841E0083DE1B43E0
:101A6000FF083D00D34D62102DE9F04385B00446D8
:101A70000F46914698460C9EFEF71EFD054694F8CB
:101A80003D00C0B2202804D00227384605B0BDE88A
:101A9000F0830095192301224F492046FFF76FFC80
:101AA000002840F0928094F83C30012B00F08F80A9
:101AB000012384F83C3023681A6812F0010F03D127
:101AC0001A6842F001021A602268136823F4006366
:101AD0001360212384F83D30102384F83E30002326
:101AE0002364C4F82490A4F82A80638D23853B4B9B
:101AF000E3622B46324639462046FFF7CFFC0746C5
:101B0000002866D10023039323685A6903929B69D6
:101B10000393039B11E0236C042B01D00127B4E74E
:101B20002268136843F400731360F7E72A463146CE
:101B30002046FFF7E1FD00282ED1238D002B36D063
:101B40002A4631462046FFF703FD0028E3D1626AAA
:101B5000236812781A61616A4B1C6362638D9BB2C1
:101B6000013B9BB26385238D013B9BB22385226899
:101B7000506910F0040FD9D0002BD7D04B781361E7
:101B8000636A01336362638D9BB2013B9BB26385E1
:101B9000238D013B2385C9E7236C042B01D001274A
:101BA00073E72268136843F400731360F7E7226851
:101BB000136843F400731360202384F83D3000233E
:101BC00084F83E3084F83C305FE702275DE7022767
:101BD0005BE7012759E700BF020010000000FFFF8C
:101BE0002DE9F04387B00446884691461F46109E73
:101BF000FEF762FC0546012F01D0102F09D194F8A1
:101C00003D30DBB2202B0AD00227384607B0BDE8B2
:101C1000F08340F6EE118C4803F040FDEFE70095AD
:101C20001923012289492046FFF7A9FB002840F02B
:101C3000458194F83C30012B00F04281012384F867
:101C40003C3023681A6812F0010F03D11A6842F081
:101C500001021A602268136823F4006313602223D0
:101C600084F83D30402384F83E30002323640E9BEB
:101C70006362BDF83C306385638D2385744BE362FA
:101C8000019500963B464A4641462046FFF78AFCAE
:101C90000746002840F01681238D5BB90293236824
:101CA0005A6902929A690292029A1A6842F4007280
:101CB0001A6098E0012B0AD0022B1AD0002305935A
:101CC00023685A6905929B690593059B8BE02268FE
:101CD000136823F4806313600023039323685A6915
:101CE00003929A690392039A1A6842F400721A6086
:101CF00079E02268136823F4806313602268136814
:101D000043F4006313600023049323685A69049228
:101D10009B690493049B66E02A4631462046FFF700
:101D200015FD002840F0D08023681A69636A1A7094
:101D3000636A01336362238D013B2385638D9BB20C
:101D4000013B9BB263854EE000953346002241493A
:101D50002046FFF714FB002840F0B8802268136883
:101D600043F40073136023681A69636A1A70626A25
:101D7000531C6362238D013B2385638D9BB2013B22
:101D80009BB2638523681B695370636A0133636286
:101D9000238D013B2385638D9BB2013B9BB2638501
:101DA00021E02268136843F40073136023681A6902
:101DB000636A1A70626A531C6362238D013B238538
:101DC000638D9BB2013B9BB2638523681B69537093
:101DD000636A01336362238D013B2385638D9BB26C
:101DE000013B9BB26385238D002B5ED0032B33D840
:101DF000012B91D0022BA7D0009533460022154924
:101E00002046FFF7BCFA002862D12268136823F449
:101E10008063136023681A69636A1A70636A013306
:101E20006362238D013B2385638D9BB2013B9BB293
:101E3000638500953346002206492046FFF79FFA46
:101E40000028AED00127E0E620B400080200100010
:101E50000000FFFF040001002A4631462046FFF73C
:101E600075FC002836D123681A69636A1A70626AA1
:101E7000531C6362238D013B2385638D9BB2013B21
:101E80009BB263852368596911F0040FABD01B69BD
:101E90005370636A01336362238D013B2385638D35
:101EA0009BB2013B9BB263859DE7202384F83D30C4
:101EB000002384F83E3084F83C30A6E60227A4E6EE
:101EC0000227A2E60127A0E601279EE601279CE65D
:101ED00001279AE6012798E610B582B00023019306
:101EE000194B1A6C42F080521A641B6C03F0805339
:101EF0000193019B154B01221A60FEF7DDFA04469F
:101F0000134B5B6813F4803F08D1FEF7D5FA001B32
:101F1000B0F57A7FF4D9032002B010BD0D4B012239
:101F20001A60FEF7C9FA0446094B5B6813F4003FD8
:101F300007D1FEF7C1FA001BB0F57A7FF4D9032070
:101F4000EAE70020E8E700BF0038024040000E4208
:101F50000070004044000E42002800F05C8270B522
:101F600082B0044603680F2B39D8236813F0010FA1
:101F70004DD063682BB1B3F5803F02D0B3F5A02FED
:101F800032D1A54B9B6803F00C03042B36D0A24B37
:101F90009B6803F00C03082B2BD06368B3F5803FDC
:101FA0005FD0B3F5A02F62D09B4B1A6822F4803229
:101FB0001A601A6822F480221A606368002B60D0CD
:101FC000FEF77AFA0546944B1B6813F4003F1ED1C6
:101FD000FEF772FA401B6428F5D9032022E2E821BB
:101FE0008E4803F05BFBC0E7ED218C4803F056FB05
:101FF000C7E7894B5B6813F4800FCED0864B1B6814
:1020000013F4003F03D06368002B00F006822368BE
:1020100013F0020F66D0E368012B41D823691F2B10
:1020200044D87D4B9B6813F00C0F4AD07A4B9B68C9
:1020300003F00C03082B3FD0E368002B76D0784BDD
:1020400001221A60FEF738FA0546734B1B6813F03D
:10205000020F62D1FEF730FA401B0228F5D90320A7
:10206000E0E16D4A136843F480331360A5E76A4BDF
:102070001A6842F480221A601A6842F480321A60A8
:102080009BE7FEF719FA0546634B1B6813F4003F04
:10209000BDD0FEF711FA401B6428F5D90320C1E139
:1020A00040F21F115D4803F0F9FAB7E74FF4907161
:1020B0005A4803F0F3FAB4E7574B5B6813F4800F08
:1020C000BAD1554B1B6813F0020F03D0E368012B04
:1020D00040F0A581504A136823F0F803216943EAD0
:1020E000C1031360236813F0080F49D06369012B03
:1020F0002ED8636993B34B4B01221A60FEF7DCF9CB
:102100000546454B5B6F13F0020F39D1FEF7D4F94A
:10211000401B0228F5D9032084E13F4A136823F0CD
:10212000F803216943EAC1031360DBE73C4B00225B
:102130001A60FEF7C1F90546374B1B6813F0020F12
:10214000D0D0FEF7B9F9401B0228F5D9032069E188
:102150004FF4B071314803F0A1FACAE7314B0022C5
:102160001A60FEF7A9F905462B4B5B6F13F0020FBF
:1021700006D0FEF7A1F9401B0228F5D9032051E152
:10218000236813F0040F00F08880A368012B01D9A5
:10219000052B12D1204B1B6C13F0805F13D1002351
:1021A00001931D4B1A6C42F080521A641B6C03F0B1
:1021B00080530193019B012506E04FF4C671174837
:1021C00003F06CFAE6E70025174B1B6813F4807FD9
:1021D0002CD0A368012B3DD0052B41D00E4B1A6F9C
:1021E00022F001021A671A6F22F004021A67A3682C
:1021F000002B3FD0FEF760F90646074B1B6F13F02C
:10220000020F48D1FEF758F9801B41F288339842FB
:10221000F3D9032006E100BF003802404CB40008A7
:1022200000004742800E474200700040844A136815
:1022300043F480731360FEF73FF90646804B1B683A
:1022400013F4807FC5D1FEF737F9801B0228F5D93A
:102250000320E7E07B4A136F43F001031367C6E7EF
:10226000784B1A6F42F004021A671A6F42F00102AB
:102270001A67BCE7FEF720F90646724B1B6F13F096
:10228000020F08D0FEF718F9801B41F288339842FC
:10229000F3D90320C6E0002D3BD1A369022B3ED821
:1022A000A369002B00F0BD80664A926802F00C0220
:1022B000082A00F09080022B79D1E36913B1B3F5BD
:1022C000800F32D1236A3F2B35D8636A323BB3F596
:1022D000BF7F36D8A36A022B05D0042B03D0062B70
:1022E00001D0082B33D1E36A023B0D2B35D8564B76
:1022F00000221A60FEF7E0F80546524B1B6813F007
:10230000007F30D0FEF7D8F8401B0228F5D9032013
:1023100088E04C4A136C23F080531364BDE740F20D
:10232000CF114A4803F0BAF9BAE74FF4EC714748C5
:1023300003F0B4F9C6E740F2D911444803F0AEF90E
:10234000C3E74FF4ED71414803F0A8F9C2E740F24A
:10235000DB113E4803F0A2F9C5E74FF4EE713B48AC
:1023600003F09CF9C3E7E369226A1343626A43EA14
:102370008213A26A5208013A43EA0243E26A43EA3C
:102380000263304A5360304B01221A60FEF794F822
:1023900004462C4B1B6813F0007F06D1FEF78CF827
:1023A000001B0228F5D903203CE000203AE0264B30
:1023B00000221A60FEF780F80446224B1B6813F0D7
:1023C000007F06D0FEF778F8001B0228F5D903201D
:1023D00028E0002026E0012B26D01A4B9B6803F44E
:1023E0008001E269914221D103F03F02216A8A42D1
:1023F0001ED1616A47F6C0721A408A421AD103F4AC
:102400004032A16A8A4217D103F07063E26A9342B4
:1024100014D1002006E001207047012002E00120D5
:1024200000E0002002B070BD0120FBE70120F9E7C9
:102430000120F7E70120F5E70120F3E70120F1E7AC
:102440000070004000380240600047424CB4000871
:10245000F8B52F4B9B6803F00C03042B53D0082BCB
:1024600053D12B4B5A6802F03F025B6813F4800F84
:1024700028D0274B5B68C3F3881358010021C01A8A
:1024800061F100018E0146EA906687013C1A66EB15
:102490000105E90041EA5471E000C01841F1000172
:1024A0004B0243EAD053440220461946002305F06C
:1024B00091FF174B5B68C3F3014301335B00B0FB33
:1024C000F3F023E0124B5B68C3F388135C01002533
:1024D000E41A65F10005AE0146EA9466A701381BCF
:1024E00066EB0501CC0044EA5074C500E81844F1DD
:1024F00000018B0243EA90538402204619460023D0
:1025000005F068FFD5E7034800E00348F8BD00BFC9
:102510000038024000127A000024F400002800F085
:10252000F78070B50D4604460368013B0E2B6BD84F
:102530000F2D6FD87A4B1B6803F00F03AB4208D204
:10254000EBB2774A1370136803F00F03AB4240F00D
:10255000E180236813F0020F29D013F0040F04D098
:10256000704A936843F4E0539360236813F0080FB4
:1025700004D06C4A936843F460439360A3687BB1D2
:10258000802B0DD0902B0BD0A02B09D0B02B07D0D7
:10259000C02B05D0D02B03D0E02B01D0F02B3FD1A6
:1025A000604A936823F0F003A1680B4393602368AB
:1025B00013F0010F4ED06368032B37D86368012BEB
:1025C0003AD09A1E012A3ED9564A126812F0020FDA
:1025D00000F0A28053498A6822F0030213438B6003
:1025E000FDF76AFF06464F4B9B6803F00C036268D9
:1025F000B3EB820F2ED0FDF75FFF801B41F28833D3
:102600009842F0D9032076E040F25121464803F089
:1026100045F88DE740F25221434803F03FF889E73F
:1026200040F27521404803F039F8B9E74FF41F71C3
:102630003D4803F033F8C1E73A4A126812F4003F0C
:10264000C8D1012057E0374A126812F0007FC1D18B
:10265000012050E0324B1B6803F00F03AB4207D957
:10266000EAB22F4B1A701B6803F00F03AB4255D12F
:10267000236813F0040F14D0E3685BB1B3F5805FF7
:1026800008D0B3F5A05F05D0B3F5C05F02D0B3F5B5
:10269000E05F31D1234A936823F4E053E1680B43B0
:1026A0009360236813F0080F15D023695BB1B3F56D
:1026B000805F08D0B3F5A05F05D0B3F5C05F02D04E
:1026C000B3F5E05F1ED1174A936823F46043216994
:1026D00043EAC1039360FFF7BBFE124B9B68C3F351
:1026E0000313124AD35CD840114B1860114B186881
:1026F000FDF796FE002070BD40F2BA210A4802F0B4
:10270000CDFFC7E740F2C121074802F0C7FFDAE773
:10271000012070470120EEE70120ECE70120EAE705
:10272000003C0240003802404CB4000894B6000857
:102730001400002008000020014B1868704700BFFB
:102740001400002008B5FFF7F7FF044B9B68C3F3A4
:102750008223034AD35CD84008BD00BF0038024042
:10276000A4B6000830B583B004460368013B7E2B55
:102770001CD8236813F0430F00F09D806368323B40
:10278000B3F5BF7F18D8974B00221A60FDF794FE6F
:102790000546954B1B6813F0006F13D0FDF78CFEB8
:1027A000431B022BF5D9032003B030BD40F67B015B
:1027B0008E4802F073FFDCE740F686018B4802F09A
:1027C0006DFFE0E7236813F0010F0BD0A368023B15
:1027D000052B52D86268A3681B0743EA8213824A1A
:1027E000C2F88430236813F0020F1DD0E368023B67
:1027F0000D2B48D8E369013B1F2B4AD87A4AD2F8FF
:1028000084106068E3681B0643EA801301F0E0412E
:102810000B43C2F88430D2F88C3023F01F03E169F7
:1028200001390B43C2F88C30236813F0400F12D0EB
:10283000E368023B0D2B32D8A368023B052B34D84A
:102840006268E3681B0643EA8213A26843EA0273E4
:10285000654AC2F88430634B01221A60FDF72CFEF2
:102860000546614B1B6813F0006F24D1FDF724FE71
:10287000401B0228F5D9032096E740F69C015B48EF
:1028800002F00CFFA6E740F6A901584802F006FF47
:10289000B0E740F6AA01554802F000FFAEE740F667
:1028A000BB01524802F0FAFEC6E740F6BC014F48B1
:1028B00002F0F4FEC4E7236813F00C0F00F09A80D6
:1028C0002369323BB3F5BF7F11D8494B00221A6010
:1028D000FDF7F2FD0546444B1B6813F0005F0CD07A
:1028E000FDF7EAFD401B0228F5D903205CE740F61E
:1028F000DA013E4802F0D2FEE7E7236813F0040F46
:102900001ED06369023B0D2B54D8236A013B1F2B59
:1029100056D8354AD2F88810206963691B0643EA05
:10292000801301F0E0410B43C2F88830D2F88C30BC
:1029300023F4F853216A013943EA0123C2F88C30A9
:10294000236813F0080F23D0A369023B052B3DD861
:10295000636A43B1B3F5803F05D0B3F5003F02D0C1
:10296000B3F5403F38D1204AD2F88830216903F0CE
:10297000706343EA8113A16943EA0173C2F88830A6
:10298000D2F88C3023F44033616A0B43C2F88C30A8
:10299000174B01221A60FDF78FFD0546124B1B688D
:1029A00013F0005F26D1FDF787FD401B0228F5D903
:1029B0000320F9E640F6EF010C4802F06FFEA4E7B1
:1029C0004FF40F61094802F069FEA2E740F6FF01EB
:1029D000064802F063FEBBE74FF41061034802F0C3
:1029E0005DFEC0E7680047420038024078B4000846
:1029F00070004742236813F0200F00F0CE80A36AD6
:102A0000B3F5807F79D0B3F5007F76D0774A9342D3
:102A100073D002F5803293426FD002F58032934238
:102A20006BD002F58032934267D002F58032934238
:102A300063D002F5803293425FD002F58032934238
:102A40005BD002F58032934257D002F58032934238
:102A500053D002F5803293424FD002F58032934238
:102A60004BD002F58032934247D002F58032934238
:102A700043D002F5803293423FD002F58032934238
:102A80003BD002F58032934237D002F58032934238
:102A900033D002F5803293422FD002F58032934238
:102AA0002BD002F58032934227D002F58032934238
:102AB00023D002F5803293421FD002F58032934238
:102AC0001BD002F58032934217D002F58032934238
:102AD00013D002F5803293420FD002F58032934238
:102AE0000BD002F58032934207D002F58032934238
:102AF00003D002F5803293421FD1002301933C4B57
:102B00001A6C42F080521A641B6C03F080530193DC
:102B1000019B384A136843F480731360FDF7CCFCC3
:102B20000546344B1B6813F4807F0CD1FDF7C4FCC1
:102B3000401B0228F5D9032036E640F61F112E4827
:102B400002F0ACFDD9E72A4B1B6F13F4407312D08F
:102B5000A26A02F440729A420DD0254B1A6F22F4F9
:102B60004072264901200860002008601A671B6F28
:102B700013F0010F1BD1A36A03F44072B2F5407F3A
:102B800026D01B4A936823F4F813936018490B6FFF
:102B9000A26AC2F30B0213430B67236813F0100FF2
:102BA00021D094F82C20164B1A600020FCE5FDF78C
:102BB00083FC05460E4B1B6F13F0020FDBD1FDF7B4
:102BC0007BFC401B41F288339842F3D90320EBE5AC
:102BD00007498A6822F4F81223F0704323F4407303
:102BE00013438B60D2E70020DEE500BF0003020044
:102BF000003802400070004078B40008400E4742A0
:102C0000E011474230B4036A056A25F00105056208
:102C1000846924F0F00444EA021423F00A030B430D
:102C20008461036230BC704730B4056A25F010053A
:102C300005628469036A24F4704444EA023423F090
:102C4000A00343EA01138461036230BC70478368C8
:102C500023F070030B4343F00703836070470000C9
:102C60002DE9F04104460D46036A23F00103036297
:102C7000066A4768836923F073080B6843EA08080B
:102C800026F002038E681E43204B984203D003F5C2
:102C90008063984209D1EB680BB1082B24D126F050
:102CA0000806EB681E4326F00406184B9C4203D02E
:102CB00003F580639C420FD1AB69B3F5007F00D070
:102CC000C3B96B69B3F5807F00D0CBB927F44077E7
:102CD0006B693B43AF691F436760C4F818806B683A
:102CE00063632662BDE8F08141F20271084802F098
:102CF000D5FCD4E741F20F71054802F0CFFCE0E7C4
:102D000041F21071024802F0C9FCDFE70000014007
:102D1000A8B400082DE9F04104460E46036A23F4E6
:102D200080730362056A4768C36923F073080B6800
:102D300043EA080825F400758B6845EA0325224B11
:102D4000984203D003F5806398420AD1F3680BB12F
:102D5000082B27D125F40065F36845EA032525F4FF
:102D60008065194B9C4203D003F580639C4211D1CE
:102D7000B369B3F5007F00D0D3B97369B3F5807F31
:102D800000D0DBB927F44057736947EA0317B369EA
:102D900047EA03176760C4F81C807368E363256221
:102DA000BDE8F08141F29871084802F077FCD1E764
:102DB00041F2A571054802F071FCDEE741F2A6710F
:102DC000024802F06BFCDDE700000140A8B40008F7
:102DD0002DE9F04104460D46036A23F48053036253
:102DE000066AD0F80480C76927F4E6470B6847EA0B
:102DF000032726F400568B6846EA03360F4B9842A9
:102E000003D003F58063984209D16B69B3F5807FE5
:102E100000D063B928F480486B6948EA8318C4F885
:102E20000480E7616B6823642662BDE8F08141F2AB
:102E3000E471034802F032FCECE700BF00000140FF
:102E4000A8B400087047000010B504460368264A7D
:102E5000934237D0B3F1804F34D0A2F57C429342F5
:102E600030D002F5806293422CD002F5806293420A
:102E700028D002F58062934224D002F5806293420A
:102E800020D002F5704293421CD002F5705293425A
:102E900018D002F58062934214D002F5806293420A
:102EA00010D0A2F5983293420CD002F58062934282
:102EB00008D002F58062934204D040F285110B489D
:102EC00002F0ECFB022384F83D302268936803F0A3
:102ED0000703062B03D0136843F00103136001239B
:102EE00084F83D30002010BD00000140A8B4000867
:102EF0007047704790F83D00704700000368304A03
:102F0000904212D0B0F1804F0FD0A2F57C42904297
:102F10000BD002F58062904207D002F580629042A9
:102F200003D002F57842904203D123F070034A683F
:102F30001343234A90422AD0B0F1804F27D0A2F504
:102F40007C42904223D002F5806290421FD002F56D
:102F5000806290421BD002F57842904217D002F571
:102F60007052904213D002F5806290420FD002F569
:102F7000806290420BD0A2F59832904207D002F5C1
:102F80008062904203D002F58062904203D123F424
:102F90004073CA68134323F080034A6913430360F4
:102FA0008B68C3620B688362054B984203D003F5BC
:102FB0008063984201D10B69036301234361704729
:102FC0000000014000287BD010B5044603683D4A4C
:102FD000934237D0B3F1804F34D0A2F57C42934274
:102FE00030D002F5806293422CD002F58062934289
:102FF00028D002F58062934224D002F58062934289
:1030000020D002F5704293421CD002F570529342D8
:1030100018D002F58062934214D002F58062934288
:1030200010D0A2F5983293420CD002F58062934200
:1030300008D002F58062934204D04FF4897122488F
:1030400002F02CFBA3683BB1102B05D0202B03D042
:10305000402B01D0602B1BD123692BB1B3F5807FAE
:1030600002D0B3F5007F19D1A3690BB1802B1BD11E
:1030700094F83D30F3B1022384F83D30214651F8F5
:10308000040BFFF73BFF012384F83D30002010BD07
:1030900040F213110C4802F001FBDDE74FF48A7196
:1030A000094802F0FBFADFE740F21511064802F08A
:1030B000F5FADDE784F83C302046FFF7C3FEDAE797
:1030C0000120704700000140A8B4000800287BD010
:1030D00010B5044603683D4A934237D0B3F1804FA0
:1030E00034D0A2F57C42934230D002F58062934204
:1030F0002CD002F58062934228D002F58062934280
:1031000024D002F58062934220D002F570429342AF
:103110001CD002F57052934218D002F5806293429F
:1031200014D002F58062934210D0A2F598329342F7
:103130000CD002F58062934208D002F5806293427F
:1031400004D040F29B41224802F0A8FAA3683BB1A8
:10315000102B05D0202B03D0402B01D0602B1BD18E
:1031600023692BB1B3F5807F02D0B3F5007F19D16D
:10317000A3690BB1802B1BD194F83D30F3B102232E
:1031800084F83D30214651F8040BFFF7B7FE0123C8
:1031900084F83D30002010BD40F29C410C4802F004
:1031A0007DFADDE740F29D41094802F077FADFE75A
:1031B00040F29E41064802F071FADDE784F83C30A7
:1031C0002046FFF795FEDAE7012070470000014036
:1031D000A8B40008002800F00481F8B50C460546A4
:1031E000836843B1102B06D0202B04D0402B02D093
:1031F000602B40F0A8802B6933B1B3F5807F03D0FA
:10320000B3F5007F40F0A580AB6913B1802B40F08F
:10321000A6802B68744A93421FD0B3F1804F1CD014
:10322000A2F57C42934218D002F58062934214D0FA
:1032300002F58062934210D002F5784293420CD09E
:1032400002F57052934208D0A2F59432934204D012
:1032500040F63421654802F021FA2368013B022B35
:1032600000F28380A368013B022B00F28480A369F3
:10327000013B022B00F28580636813B1022B40F002
:103280008680636913B1022B40F08780E36833B115
:10329000042B04D0082B02D00C2B40F08480E3696F
:1032A00033B1042B04D0082B02D00C2B40F08180CA
:1032B00023690F2B00F28380236A0F2B00F2858095
:1032C00095F83D30002B00F08680022385F83D30D4
:1032D0002A68936823F4804323F007039360294608
:1032E00051F8040BFFF70AFE29688A688E690F6A95
:1032F0002068104326F4407626F00306A268A369EE
:1033000042EA0323334323F47C4323F0FC03E668BF
:10331000E26946EA02261E43226A1303226943EA4F
:103320000213334327F0AA076268646942EA041271
:103330003A43886029688B612B681A62012385F8FB
:103340003D300020F8BD40F63121284802F0A6F9B2
:1033500051E740F63221254802F0A0F954E740F643
:103360003321224802F09AF953E740F635211F48ED
:1033700002F094F976E740F636211C4802F08EF907
:1033800075E740F63721194802F088F974E740F6EE
:103390003821164802F082F973E740F639211348C4
:1033A00002F07CF972E740F63A21104802F076F913
:1033B00075E740F63B210D4802F070F978E740F6DA
:1033C0003C210A4802F06AF976E740F63D210748B9
:1033D00002F064F974E785F83C302846FFF789FD70
:1033E00073E70120704700BF00000140A8B4000847
:1033F0002DE9F04104460E46036A23F010030362F0
:10340000056AD0F80480876927F4E6470B6847EA25
:10341000032725F020058B6845EA0315224B9842C7
:1034200003D003F5806398420AD1F3680BB1082BEF
:1034300027D125F08005F36845EA031525F04005FE
:10344000194B9C4203D003F580639C4211D1B369B0
:10345000B3F5007F00D0D3B97369B3F5807F00D096
:10346000DBB928F44068736948EA8308B36948EA1D
:103470008308C4F80480A7617368A3632562BDE86C
:10348000F08141F24D71094802F008F9D1E741F2AB
:103490005B71064802F002F9DEE741F25C71034815
:1034A00002F0FCF8DDE700BF00000140A8B400080E
:1034B00070B504460D4616463AB1042A05D0082ACE
:1034C00003D00C2A01D03C2A28D12B68602B01D0D4
:1034D000702B29D1AB680BB1022B2BD12B690BB10F
:1034E000042B2DD194F83C30012B00F017810123DF
:1034F00084F83C30022384F83D300C2E6DD8DFE890
:1035000016F025006C006C006C0073006C006C0001
:103510006C00AC006C006C006C00DC0040F6EC5100
:103520007F4802F0BBF8D0E740F6ED517C4802F04E
:10353000B5F8CFE740F6EE51794802F0AFF8CDE7A5
:1035400040F6EF51764802F0A9F8CBE72368754AB8
:1035500093422FD0B3F1804F2CD0A2F57C429342FE
:1035600028D002F58062934224D002F58062934213
:1035700020D002F5784293421CD002F5705293425B
:1035800018D002F58062934214D002F58062934213
:1035900010D0A2F5983293420CD002F5806293428B
:1035A00008D002F58062934204D040F6FB515C489B
:1035B00002F074F829462068FFF752FB22689369ED
:1035C00043F0080393612268936923F00403936135
:1035D0002268936929690B439361012384F83D3084
:1035E000002084F83C0070BD23684E4A93421FD0EF
:1035F000B3F1804F1CD0A2F57C42934218D002F563
:103600008062934214D002F58062934210D002F59A
:10361000784293420CD002F57052934208D0A2F542
:103620009432934204D040F60C613D4802F036F8E3
:1036300029462068FFF7DCFE2268936943F40063A3
:1036400093612268936923F480639361226893698C
:10365000296943EA01239361BFE72368314A934212
:1036600017D0B3F1804F14D0A2F57C42934210D012
:1036700002F5806293420CD002F58062934208D03A
:1036800002F57842934204D040F61D61244802F0CE
:1036900005F829462068FFF73DFB2268D36943F00F
:1036A0000803D3612268D36923F00403D36122683D
:1036B000D36929690B43D3618FE72368194A934281
:1036C00017D0B3F1804F14D0A2F57C42934210D0B2
:1036D00002F5806293420CD002F58062934208D0DA
:1036E00002F57842934204D040F62E610C4801F076
:1036F000D5FF29462068FFF76BFB2268D36943F4A6
:103700000063D3612268D36923F48063D3612268A4
:10371000D369296943EA0123D3615EE7022062E7A6
:10372000A8B400080000014010B4846824F47F4469
:1037300042EA03220A432243826010BC7047000021
:1037400038B590F83C30012B00F0488204460D4615
:10375000012380F83C30022380F83D300B68B3F53C
:10376000805F11D0B3F5005F0ED06BB1102B0BD082
:10377000202B09D0302B07D0402B05D0502B03D065
:10378000602B01D0702B4DD12268936823F47F43C6
:1037900023F0770393602B68602B00F093817FD830
:1037A000402B00F0D58143D9502B46D12368BD4A28
:1037B00093421FD0B3F1804F1CD0A2F57C429342BC
:1037C00018D002F58062934214D002F580629342D1
:1037D00010D002F5784293420CD002F57052934219
:1037E00008D0A2F59432934204D041F2CA11AE48F7
:1037F00001F054FF6B68B3F5004F05D023B1022BE5
:1038000002D00A2B40F05281EB680F2B00F254815A
:10381000EA6869682068FFF7F5F950212068FFF72A
:1038200016FA0AE041F28B119F4801F037FFABE72F
:10383000202B0CD008D9302B09D0012384F83D303F
:10384000002084F83C0038BD0BB1102BF5D1236863
:10385000944A93421FD0B3F1804F1CD0A2F57C4212
:10386000934218D002F58062934214D002F5806230
:10387000934210D002F5784293420CD002F5705278
:10388000934208D0A2F59432934204D041F2FD1144
:10389000854801F003FF29682068FFF7D8F9CCE7D5
:1038A000B3F5805F00F08E80B3F5005F41D12368EF
:1038B0007C4A934217D0B3F1804F14D0A2F57C42DA
:1038C000934210D002F5806293420CD002F58062E0
:1038D000934208D002F57842934204D041F2B611E7
:1038E000714801F0DBFEAB684BB1B3F5805F06D0E9
:1038F000B3F5005F03D0B3F5405F40F0C0806B6864
:10390000B3F5004F05D023B1022B02D00A2B40F0B3
:10391000BC80EB680F2B00F2BE80EB686A68A96878
:103920002068FFF701FF2268936843F480439360A7
:1039300083E7702B81D123685A4A93421FD0B3F199
:10394000804F1CD0A2F57C42934218D002F58062D1
:10395000934214D002F58062934210D002F578426F
:1039600093420CD002F57052934208D0A2F59432E3
:10397000934204D041F29E114B4801F08FFEAB6898
:1039800043B1B3F5805F05D0B3F5005F02D0B3F566
:10399000405F62D16B68B3F5004F04D01BB1022BBE
:1039A00001D00A2B5FD1EB680F2B62D8EB686A68F5
:1039B000A9682068FFF7B8FE2268936843F0770390
:1039C00093603AE72368374A93423FF436AFB3F146
:1039D000804F3FF432AFA2F57C4293423FF42DAFCB
:1039E00002F5806293423FF428AF02F58062934271
:1039F0003FF423AF02F5806293423FF41EAF02F51D
:103A0000806293423FF419AF02F5704293423FF453
:103A100014AF02F5705293423FF40FAF02F580628B
:103A200093423FF40AAF02F5806293423FF405AF40
:103A3000A2F5983293423FF400AF02F580629342C0
:103A40003FF4FBAE02F5806293423FF4F6AE41F2E2
:103A50009711154801F022FEEFE641F2A11112483C
:103A600001F01CFE96E741F2A2110F4801F016FE8C
:103A700099E741F2A3110C4801F010FE96E741F2DC
:103A8000B911094801F00AFE39E741F2BA110648B6
:103A900001F004FE3DE741F2BB11034801F0FEFDD9
:103AA0003BE700BF00000140A8B4000841F2CD117F
:103AB0004B4801F0F3FDA7E641F2CE11484801F072
:103AC000EDFDA5E62368474A93421FD0B3F1804F2E
:103AD0001CD0A2F57C42934218D002F5806293423A
:103AE00014D002F58062934210D002F578429342DE
:103AF0000CD002F57052934208D0A2F59432934252
:103B000004D041F2DA11364801F0C8FD6B68B3F514
:103B1000004F04D01BB1022B01D00A2B0CD1EB6853
:103B20000F2B0FD8EA6869682068FFF77DF86021DD
:103B30002068FFF78CF880E641F2DD11284801F09B
:103B4000ADFDECE741F2DE11254801F0A7FDE9E704
:103B50002368244A93421FD0B3F1804F1CD0A2F5B2
:103B60007C42934218D002F58062934214D002F551
:103B70008062934210D002F5784293420CD002F555
:103B80007052934208D0A2F59432934204D041F28D
:103B9000EA11134801F082FD6B68B3F5004F04D0C1
:103BA0001BB1022B01D00A2B0CD1EB680F2B0FD8C5
:103BB000EA6869682068FFF725F840212068FFF768
:103BC00046F83AE641F2ED11054801F067FDECE7F1
:103BD00041F2EE11024801F061FDE9E7022032E610
:103BE000A8B400080000014070B504460D46164612
:103BF000284B98422FD0B0F1804F2CD0A3F57C43B6
:103C0000984228D003F58063984224D003F580635E
:103C1000984220D003F5784398421CD003F57053A6
:103C2000984218D003F58063984214D003F580635E
:103C3000984210D0A3F5983398420CD003F58063D6
:103C4000984208D003F58063984204D041F6CC1125
:103C5000114801F023FD3DB1042D05D0082D03D0FE
:103C60000C2D01D03C2D0ED105F01F05012303FAC8
:103C700005F2236A23EA02032362236A06FA05F5A2
:103C80001D43256270BD41F6CD11034801F006FDCC
:103C9000EAE700BF00000140A8B4000838B50446B8
:103CA0000D460368334A934212D0B3F1804F0FD0D0
:103CB000A2F57C4293420BD002F58062934207D07A
:103CC00002F58062934203D002F57842934206D116
:103CD000E5B1042D1AD0082D18D00C2D16D0264A87
:103CE000934230D0254A934232D0254A934232D073
:103CF000244A934232D0244A934234D0234A9342F6
:103D000034D040F21351224801F0C8FC0122294668
:103D10002068FFF769FF2368164A934203D002F533
:103D20008062934203D15A6C42F400425A64226882
:103D3000936803F00703062B03D0136843F00103D5
:103D40001360002038BD002DE0D0042DCAD1DDE77E
:103D5000002DDBD0C9E7002DD8D0C9E7002DD5D084
:103D6000042DC8D1D2E7002DD0D0C7E7002DCDD08B
:103D7000C7E700BF0000014000400140004401408F
:103D80000048014000180040001C00400020004096
:103D9000A8B4000838B504460D4603683C4A93426F
:103DA00012D0B3F1804F0FD0A2F57C4293420BD0DA
:103DB00002F58062934207D002F58062934203D0FD
:103DC00002F57842934206D1E5B1042D1AD0082DB0
:103DD00018D00C2D16D02F4A934234D02E4A93423D
:103DE00036D02E4A934236D02D4A934236D02D4AB1
:103DF000934238D02C4A934238D040F237512B4866
:103E000001F04CFC002229462068FFF7EDFE2368F4
:103E10001F4A93422DD002F58062934229D0236835
:103E2000196A41F21112114208D1196A40F2444252
:103E3000114203D11A6822F001021A60012384F8AA
:103E40003D30002038BD002DDCD0042DC6D1D9E78F
:103E5000002DD7D0C5E7002DD4D0C5E7002DD1D097
:103E6000042DC4D1CEE7002DCCD0C3E7002DC9D09E
:103E7000C3E7196A41F211121142D0D1196A40F216
:103E800044421142CBD15A6C22F400425A64C6E734
:103E90000000014000400140004401400048014052
:103EA00000180040001C004000200040A8B400089A
:103EB00038B504460D460368214A93421FD0B3F13A
:103EC000804F1CD0A2F57C42934218D002F580624C
:103ED000934214D002F58062934210D002F57842EA
:103EE00093420CD002F57052934208D0A2F594325E
:103EF000934204D040F6D721124801F0CFFB65B1C0
:103F0000042D16D0012200212068FFF76DFE01224A
:103F100004212068FFF768FE04E0012200212068E8
:103F2000FFF762FE2268136843F00103136000206C
:103F300038BD012204212068FFF756FEF2E700BFDA
:103F400000000140A8B4000838B504460D460368D7
:103F5000414A93421FD0B3F1804F1CD0A2F57C425E
:103F6000934218D002F58062934214D002F5806229
:103F7000934210D002F5806293420CD002F5806229
:103F8000934208D002F57042934204D040F264613B
:103F9000324801F083FB2B686BB1102B0BD0202B28
:103FA00009D0302B07D0402B05D0502B03D0602BED
:103FB00001D0702B41D16B68802B01D0002B42D1F6
:103FC00094F83C30012B44D0012384F83C30022388
:103FD00084F83D3023685968986821F070012A6898
:103FE0000A435A6023681C4A93421AD0B3F1804FA7
:103FF00017D0A2F57C42934213D002F5806293421F
:104000000FD002F5806293420BD002F578429342C2
:1040100007D002F57052934203D0A2F59432934236
:1040200004D120F080006A6810439860012384F86E
:104030003D30002084F83C0038BD40F265610748FF
:1040400001F02CFBB7E740F26661044801F026FB63
:10405000B6E70220F0E700BF00000140D4B400083A
:1040600008B503460C4A12685AB10B4A106803336C
:1040700023F003030344094A934206D8064A136017
:1040800008BD054A06491160EFE704F01DFB0C234B
:1040900003604FF0FF30F3E7F001002000FC022046
:1040A000C405002001230360014B0B60704700BF73
:1040B0000C0000200FB400B583B004AB53F8042B00
:1040C00001938021074804F0E3FF002804DC03B0DB
:1040D0005DF804EB04B070470146024800F034F884
:1040E000F5E700BFF80100202DE9F04385B0044654
:1040F0000F46435633BB042528462146ABBE044633
:10410000384605B0BDE8F08314F9010B04AA1A443F
:1041100002F8100C0133AB42F6D304AA1344002278
:1041200003F8102C4FF00408E94640464946ABBE60
:104130008046761B002EE3D03546102E28BF102572
:104140000023E8E70E46F5E708B5FFF7CDFF08BD09
:1041500008B501F07DFF024A024B9A6008BD00BF1E
:104160000000000800ED00E008B501F079FF08BD8F
:10417000F8B504460D4617461E462748FFF79AFF36
:1041800021682648FFF796FF61682548FFF792FFF0
:10419000A1682448FFF78EFFE1682348FFF78AFFF4
:1041A00021692248FFF786FF61692148FFF782FFF6
:1041B000A1692048FFF77EFFE1691F48FFF77AFFFA
:1041C0001E48FFF777FF29461D48FFF773FF1D4C78
:1041D000E16A1D48FFF76EFF216B1C48FFF76AFF7D
:1041E000E16B1B48FFF766FF15F0800F0AD115F44D
:1041F000004F0CD11748FFF75DFF06991648FFF7EF
:1042000059FFF8BD39461548FFF754FFEFE731462F
:104210001348FFF74FFFEDE704B5000814B5000899
:1042200024B5000834B5000844B5000854B50008AA
:1042300064B5000874B5000884B5000894B500089A
:10424000A0B5000800ED00E0B0B50008C0B500085A
:10425000D0B5000800B6000808B60008E0B50008B0
:10426000F0B5000883691A888A4201D0002070479F
:104270000268033A012A01D90020704702338361A2
:1042800001207047FEE7000000B585B020F00F0365
:10429000000140B243F00C028DF80C2043F00803FB
:1042A0008DF80D3040F00C038DF80E3040F0080012
:1042B0008DF80F0064230093042303AA4E210348C2
:1042C000FDF7D2FB05B05DF804FB00BFB80300208A
:1042D00000B585B020F00F03000140B243F00D029D
:1042E0008DF80C2043F009038DF80D3040F00D03DC
:1042F0008DF80E3040F009008DF80F006423009314
:10430000042303AA4E210348FDF7AEFB05B05DF878
:1043100004FB00BFB803002008B528B1012806D06F
:1043200048B2FFF7B1FF08BD41F08001F8E741F066
:10433000C001F5E708B53220FCF7C4F83020FFF7DC
:10434000A3FF0520FCF7BEF83020FFF79DFF0120FA
:10435000FCF7B8F83020FFF797FF0A20FCF7B2F817
:104360002020FFF791FF0A20FCF7ACF82820FFF788
:104370008BFF0120FCF7A6F80820FFF785FF01203E
:10438000FCF7A0F80120FFF77FFF0120FCF79AF867
:104390000120FCF797F80620FFF776FF0120FCF7D5
:1043A00091F80C20FFF770FF08BD10B5044694F992
:1043B000000018B10134FFF78BFFF8E710BD0309C7
:1043C00003EB830300F00F0000EB43007047000095
:1043D00010B586B04FF47A7302930723019304ABB0
:1043E000009301230022D0211448FDF7F9FB9DF82A
:1043F0001000FFF7E4FF124C20709DF81100FFF74A
:10440000DEFF60709DF81200FFF7D9FFA0709DF8E5
:104410001300FFF7D4FFE0709DF81400FFF7CFFF03
:1044200020719DF81500FFF7CAFF60719DF8160016
:10443000FFF7C5FFA07106B010BD00BF64030020E8
:104440006805002008B54FF480510348FCF740FF91
:10445000012800D0002008BD0018024038B5FFF741
:10446000F1FF00B938BD00F051F900F085FB01F013
:104470002BF91CE02F4B01221A602F4C4FF4804186
:104480002046FFF70BFC236864255D634FF4004171
:104490002046FFF703FC23689D6308E0FCF70CF857
:1044A000264B1B68C01A40F2F63398423AD8FFF701
:1044B000C9FF0028D6D0FBF7FFFF204B1B68C01AAE
:1044C000B0F5FA7F0BD3FBF7F7FF1C4B1B68C01A44
:1044D000B0F57A7F03D8174B1B68002BCAD0FBF7C7
:1044E000EBFF164B1B68C01AB0F57A7FD6D3FBF7EB
:1044F000E3FF124B1B68C01AB0F57E7FCED2104B83
:104500001B68002BCAD10E4B01221A600A4C4FF4D3
:1045100080412046FFF73EFC4FF400412046FFF764
:1045200039FCC4E7FBF7C8FF044B1860014B0022BD
:104530001A60BCE77C020020700500207802002091
:104540008002002070B500245DE00122694B1A60F2
:10455000694D4FF400412846FCF7CEFE00224FF48F
:1045600080612846FCF7C8FE00224FF4005128461F
:10457000FCF7C2FE00224FF400612846FCF7BCFEA7
:1045800040E001265D4B1E605B4D00224FF4004170
:104590002846FCF7B1FE32464FF480612846FCF70E
:1045A000ABFE00224FF400512846FCF7A5FE002286
:1045B0004FF400612846FCF79FFE23E00126504B94
:1045C0001E604D4D00224FF400412846FCF794FE3A
:1045D00000224FF480612846FCF78EFE32464FF4ED
:1045E00000512846FCF788FE00224FF4006128465F
:1045F000FCF782FE06E0FBF75FFF424B1B68C01A28
:10460000092868D80134B4F5007F72DAFBF754FF4B
:104610003C4B1B68C01A01280AD9FBF74DFF394BE8
:104620001B68C01A032803D8324B1B68002B8CD0A0
:10463000FBF742FF334B1B68C01A03280AD9FBF76C
:104640003BFF304B1B68C01A052803D82B4B1B6857
:10465000002B96D0FBF730FF2A4B1B68C01A0528A9
:104660000AD9FBF729FF274B1B68C01A072803D874
:10467000234B1B68002BA1D0FBF71EFF214B1B68AF
:10468000C01A0728B7D9FBF717FF1E4B1B68C01AC3
:104690000928B0D81C4B1B68002BACD101261A4B43
:1046A0001E60154D00224FF400412846FCF724FE01
:1046B00000224FF480612846FCF71EFE00224FF4D2
:1046C00000512846FCF718FE32464FF40061284698
:1046D000FCF712FE96E7FBF7EFFE0A4B186000238B
:1046E000044A1360054A1360054A1360064A1360C2
:1046F00088E770BDA402002000180240B402002028
:10470000C402002094020020D402002070B50024CE
:104710005DE00122694B1A60694D4FF40061284643
:10472000FCF7EAFD00224FF400512846FCF7E4FDB7
:1047300000224FF480612846FCF7DEFD00224FF492
:1047400000412846FCF7D8FD40E001265D4B1E6085
:104750005B4D00224FF400612846FCF7CDFD324648
:104760004FF400512846FCF7C7FD00224FF480614A
:104770002846FCF7C1FD00224FF400412846FCF713
:10478000BBFD23E00126504B1E604D4D00224FF42F
:1047900000612846FCF7B0FD00224FF40051284686
:1047A000FCF7AAFD32464FF480612846FCF7A4FDD1
:1047B00000224FF400412846FCF79EFD06E0FBF77F
:1047C0007BFE424B1B68C01A092868D80134B4F537
:1047D000007F72DAFBF770FE3C4B1B68C01A0128A1
:1047E0000AD9FBF769FE394B1B68C01A032803D8A6
:1047F000324B1B68002B8CD0FBF75EFE334B1B68E3
:10480000C01A03280AD9FBF757FE304B1B68C01AA1
:10481000052803D82B4B1B68002B96D0FBF74CFECA
:104820002A4B1B68C01A05280AD9FBF745FE274BFF
:104830001B68C01A072803D8234B1B68002BA1D084
:10484000FBF73AFE214B1B68C01A0728B7D9FBF7C4
:1048500033FE1E4B1B68C01A0928B0D81C4B1B68BE
:10486000002BACD101261A4B1E60154D00224FF4CF
:1048700000612846FCF740FD00224FF40051284615
:10488000FCF73AFD00224FF480612846FCF734FD26
:1048900032464FF400412846FCF72EFD96E7FBF721
:1048A0000BFE0A4B18600023044A1360054A13608C
:1048B000054A1360064A136088E770BDA80200200D
:1048C00000180240B8020020C80200209802002010
:1048D000D802002008B54FF400611648FCF7F8FC38
:1048E000012803D1144B1B68012B11D04FF4004158
:1048F0001048FCF7EDFC012802D10F4B1B686BB18F
:104900004FF400410B48FCF7E3FC01280CD008BD34
:10491000FFF7FCFE084B00221A60F8E7FFF712FED3
:10492000054B01221A60F2E74FF400610148FCF7E1
:10493000CFFCECE7001402408802002038B50546A1
:104940000C4600F0B5FE002830D02946204603F082
:1049500007FD20B11749204603F0F8FC48B90021B3
:10496000204603F0FDFC38B11349204603F0EEFC6D
:1049700010B1124B1B689BB10F49204603F0F0FCAD
:10498000B0B12946204603F0E1FC88B10B4B1B680F
:10499000012B0DD1094B00221A60FFF7B7FE07E08B
:1049A000064B01221A60FFF7CDFD01E0FFF792FFF1
:1049B00038BD00BFC1CABC410000C0408402002015
:1049C00070B5002457E00122654B1A60654D042143
:1049D0002846FCF791FC00224FF480712846FCF732
:1049E0008BFC00224FF400712846FCF785FC002266
:1049F00002212846FCF780FC3CE001265A4B1E6051
:104A0000584D002204212846FCF776FC32464FF42C
:104A100080712846FCF770FC00224FF40071284694
:104A2000FCF76AFC002202212846FCF765FC21E025
:104A300001264E4B1E604B4D002204212846FCF7F8
:104A40005BFC00224FF480712846FCF755FC32468F
:104A50004FF400712846FCF74FFC00220221284643
:104A6000FCF74AFC06E0FBF727FD414B1B68C01A28
:104A7000092866D80134B4F5007F70DAFBF71CFD15
:104A80003B4B1B68C01A01280AD9FBF715FD384BB0
:104A90001B68C01A032803D8314B1B68002B92D027
:104AA000FBF70AFD324B1B68C01A03280AD9FBF733
:104AB00003FD2F4B1B68C01A052803D82A4B1B681F
:104AC000002B9AD0FBF7F8FC294B1B68C01A05286D
:104AD0000AD9FBF7F1FC264B1B68C01A072803D83C
:104AE000224B1B68002BA3D0FBF7E6FC204B1B6876
:104AF000C01A0728B7D9FBF7DFFC1D4B1B68C01A8B
:104B00000928B0D81B4B1B68002BACD10126194BD0
:104B10001E60144D002204212846FCF7EDFB002204
:104B20004FF480712846FCF7E7FB00224FF4007138
:104B30002846FCF7E1FB324602212846FCF7DCFB65
:104B400098E7FBF7B9FC0A4B18600023044A13608E
:104B5000054A1360054A1360064A13608AE770BD70
:104B6000AC02002000180240BC020020CC02002051
:104B70009C020020DC02002070B5002457E00122D6
:104B8000654B1A60654D02212846FCF7B5FB0022F3
:104B90004FF400712846FCF7AFFB00224FF4807100
:104BA0002846FCF7A9FB002204212846FCF7A4FBB9
:104BB0003CE001265A4B1E60584D00220221284637
:104BC000FCF79AFB32464FF400712846FCF794FB41
:104BD00000224FF480712846FCF78EFB002204214E
:104BE0002846FCF789FB21E001264E4B1E604B4D09
:104BF000002202212846FCF77FFB00224FF40071BF
:104C00002846FCF779FB32464FF480712846FCF7C2
:104C100073FB002204212846FCF76EFB06E0FBF73D
:104C20004BFC414B1B68C01A092866D80134B4F507
:104C3000007F70DAFBF740FC3B4B1B68C01A012871
:104C40000AD9FBF739FC384B1B68C01A032803D874
:104C5000314B1B68002B92D0FBF72EFC324B1B68AC
:104C6000C01A03280AD9FBF727FC2F4B1B68C01A70
:104C7000052803D82A4B1B68002B9AD0FBF71CFC95
:104C8000294B1B68C01A05280AD9FBF715FC264BCF
:104C90001B68C01A072803D8224B1B68002BA3D01F
:104CA000FBF70AFC204B1B68C01A0728B7D9FBF793
:104CB00003FC1D4B1B68C01A0928B0D81B4B1B688E
:104CC000002BACD10126194B1E60144D002202218D
:104CD0002846FCF711FB00224FF400712846FCF730
:104CE0000BFB00224FF480712846FCF705FB32468F
:104CF00004212846FCF700FB98E7FBF7DDFB0A4B95
:104D000018600023044A1360054A1360054A1360C3
:104D1000064A13608AE770BDB00200200018024006
:104D2000C0020020D0020020A0020020E0020020EB
:104D300008B54FF400611648FCF7CAFA012803D100
:104D4000144B1B68012B11D04FF400411048FCF7A5
:104D5000BFFA012802D10F4B1B686BB14FF4004121
:104D60000B48FCF7B5FA01280CD008BDFFF704FF8B
:104D7000084B00221A60F8E7FFF722FE054B0122DC
:104D80001A60F2E74FF400610148FCF7A1FAECE782
:104D9000001402409002002038B505460C4600F091
:104DA00087FC002830D02946204603F0D9FA20B1EC
:104DB0001749204603F0CAFA48B90021204603F0FB
:104DC000CFFA38B11349204603F0C0FA10B1124BA4
:104DD0001B689BB10F49204603F0C2FAB0B12946C7
:104DE000204603F0B3FA88B10B4B1B68012B0DD1A1
:104DF000094B00221A60FFF7BFFE07E0064B0122B5
:104E00001A60FFF7DDFD01E0FFF792FF38BD00BF3C
:104E1000C1CABC410000C0408C02002010B5094945
:104E200004230B6000244C6002238B600648FCF7CF
:104E3000C1F8224621460820FBF776FB0820FBF745
:104E4000B9FB10BDCC0400200018024008B505498C
:104E500008230B6000234B6002238B600248FCF7A1
:104E6000A9F808BDCC0400200018024010B50421A8
:104E70000E48FCF72DFA10B90D4B186810BD012033
:104E8000FBF720FB002403E0C820FBF71BFB0134E9
:104E9000112CF1DC08210548FCF71AFA0128F3D19E
:104EA000034A136801331360EEE700BF00180240A5
:104EB000C804002004281AD0704708210E48FCF7C7
:104EC00007FA0028F9D10134112C13DC08210A4813
:104ED000FCF7FEF90028F9D008210748FCF7F8F99B
:104EE0000128EAD1054A136801331360E5E710B5DC
:104EF0000024E9E710BD00BF00180240C8040020EC
:104F000030B589B0FFF764FAAC4B5B79013B0B2BF2
:104F100000F2AA81DFE813F00C0047005400730090
:104F20009200B100CA00E3000201210140018F019B
:104F3000A24B187903F00AF8A14903F05FF80021A9
:104F400002F054FF03F020FAAF2800F38F819D4B4D
:104F500083FB00231A18C317C3EB62131A46C3EB73
:104F60000313A0EB830310320392163304933B2BFD
:104F700003DD3C3B049301320392934B039A1A6086
:104F8000049A5A60904D286802F0E4FF044668686D
:104F900002F0E0FF8D4903F0E5F80146204602F0FB
:104FA00025FF09B030BD854B187902F0CFFF844949
:104FB00003F024F8864902F019FF03F0E5F9C3E78E
:104FC0007E4B9B7913F0030F0CD17C4B187902F0C8
:104FD000BDFF804903F012F87F4902F007FF03F09C
:104FE000D3F9B1E7754B187902F0B0FF794903F0B6
:104FF00005F87A4902F0FAFE03F0C6F9A4E76F4B10
:105000009B7913F0030F0CD16C4B187902F09EFFC3
:10501000704902F0F3FF724902F0E8FE03F0B4F9C0
:1050200092E7664B187902F091FF6A4902F0E6FFB9
:105030006C4902F0DBFE03F0A7F985E75F4B9B7933
:1050400013F0030F0CD15D4B187902F07FFF5C4920
:1050500002F0D4FF644902F0C9FE03F095F973E74A
:10506000564B187902F072FF554902F0C7FF5F49AD
:1050700002F0BCFE03F088F966E7504B9B7913F011
:10508000030F09D14D4B187902F060FF584902F027
:10509000ADFE03F079F957E7484B187902F056FF57
:1050A000544902F0A3FE03F06FF94DE7434B9B799F
:1050B00013F0030F09D1414B187902F047FF4E4915
:1050C00002F094FE03F060F93EE73C4B187902F0E1
:1050D0003DFF4A4902F08AFE03F056F934E7374BA8
:1050E0009B7913F0030F0CD1344B187902F02EFF8B
:1050F000334902F083FF424902F078FE03F044F99D
:1051000022E72E4B187902F021FF2D4902F076FF9D
:105110003C4902F06BFE03F037F915E7274B9B790A
:1051200013F0030F0CD1254B187902F00FFF29491A
:1051300002F064FF344902F059FE03F025F903E759
:105140001E4B187902F002FF579902F057FF2F49C2
:1051500002F04CFE03F018F9F6E6184B9B7913F0B9
:10516000030F0CD1154B187902F0F0FE194902F02B
:1051700045FF274902F03AFE03F006F9E4E60F4B3B
:10518000187902F0E3FE134902F038FF214902F0DA
:105190002DFE03F0F9F8D7E6084B9B7913F0030FC7
:1051A0003CD1064B187902F0D1FE054902F026FFEA
:1051B000194902F01BFE03F0E7F8C5E66805002078
:1051C0006666A63F89888888EC0200200000C842F5
:1051D00033332142CDCCCC3F0000704200006C4202
:1051E0000000B6420000B4420000F2420000F0426B
:1051F0000000184300001743000036430000354309
:105200000000554300005443000074430000734302
:10521000000089430080884300809843304B187910
:1052200002F094FE2F4902F0E9FE2F4902F0DEFD64
:1052300003F0AAF888E62A4B9B7913F0030F09D1F3
:10524000274B187902F082FE284902F0CFFD03F0C7
:105250009BF879E6224B187902F078FE244902F097
:10526000C5FD03F091F86FE601206DE6B02822DD60
:10527000B0F5AC7F1FDCB0381E4B83FB00231A183F
:10528000C317C3EB62131A46C3EB0313A0EB8303EC
:10529000C2F113020192C3F133030293002B05DB29
:1052A000154B019A1A60029A5A606BE63C330293DE
:1052B000013A0192F4E7A0F259100E4B83FB002350
:1052C0001A18C317C3EB62131A46C3EB0313A0EB00
:1052D000830310320C3308490A604B6052E600BF6A
:1052E000680500206666A63F000098430080A7433B
:1052F0000000A74389888888EC02002038B505465D
:105300000C460146204603F02BF828B929462046D2
:1053100003F026F870B938BD4FF480610C48FBF7F4
:10532000D7FF0128F2D101224FF400610848FBF7B2
:10533000E3FFF0E74FF480610548FBF7C9FF002861
:10534000E9D100224FF400610148FBF7D5FFE2E705
:10535000000C024008B500F0ABF968B320212448E6
:10536000FBF7B6FF012802D1224B1B68DBB12021DD
:105370001F48FBF7ADFF60BB1E4B1B68012B28D1FC
:10538000FBF79AF81C4B1B68C01AB0F5FA7F20D3C4
:10539000FBF792F8184B186000224FF400511448A4
:1053A000FBF7AAFF15E00122124B1A604FF40051DF
:1053B0000F48FBF7A1FF0CE04FF400710C48FBF71E
:1053C00087FF012806D04FF400710948FBF780FFE2
:1053D00038B108BD01224FF400510548FBF78CFF9E
:1053E000F7E700224FF400510148FBF785FFF0E793
:1053F000000C0240F4020020E802002038B5054607
:105400000C4600F055F900282DD02946204602F020
:10541000A7FF38B12749204602F098FF10B1264B6C
:105420001B68A3B12946204602F090FF28B3002153
:10543000204602F095FF00B31F4B1B68012B1CD1C7
:1054400000211D4B19601D48FEF7A4FC15E01A4B06
:1054500001221A6000211948FEF720FC184B1B6836
:1054600032225A6309E040211648FBF731FF012838
:1054700004D0154B1B68012B12D038BD124B1B6892
:10548000002BF6D1104B01221A600C4C0021204653
:10549000FEF704FC0A4B1B685A6A23685A63ECE760
:1054A0000128EAD10021084B19600448FEF772FC7C
:1054B000E3E700BFC1CABC41F8020020700500202C
:1054C00014040020000C0240FC02002038B5054600
:1054D00000F0EEF8044680212548FBF7F9FE24BBD6
:1054E0000346012802D0012B13D038BD214A12688F
:1054F000002AF8D11F4B01221A601F4C04212046BC
:10550000FEF7CCFB1D4B1B685B6ADBB22268936322
:10551000EBE7184B1B68012BE7D1164B00221A60F2
:1055200004211548FEF736FCDFE71348FDF7E2FCDF
:105530000128DAD10021284602F012FF0028D4D039
:105540000F49284602F002FF0028CED0FAF7B4FF38
:105550000C4B1B68C01A0C4B9842C6D3FAF7ACFF31
:10556000084B186004210448FEF714FCBDE700BF97
:10557000000C0240000300207005002024030020DE
:105580000000C040E402002080EE3600F0B589B093
:10559000FAF76CFF00F0EEF900F068FA00F054FB47
:1055A00000F08EFBFEF7C6FE00F0D0FB00F010FC12
:1055B00000F052FC00F008FD00F0ACFC00F0CCFC68
:1055C00000F01CFDFFF72AFCFFF740FC2D48FDF71B
:1055D0003BFC012700264CE02B4B5B78002B4ED187
:1055E000294B1A78059B9A4249D1FFF789FC064658
:1055F0000027254DA87802F0A9FC0446687802F03F
:10560000A5FC224902F0AEFD0146204602F0EEFB69
:10561000044601463046FFF771FEFFF79BFE214628
:105620003046FFF7EBFE2046FFF750FF214630469D
:10563000FFF784F921463046FFF7AEFB00F044F84F
:10564000FEF70CFF00F068FDFFF710FC0146104864
:10565000FEF730FD2B7800936B78AA780D4905A8EA
:1056600003F0C2FC00210846FEF756FE05A8FEF72F
:105670009CFEFEF7ADFE044B9B78032BACD0002FB5
:10568000B7D0B2E7E0040020680500200000C8425F
:105690004CB6000854B600087047000008B50A462A
:1056A0000146024803F088FC08BD00BF64B600084C
:1056B00008B54FF400410348FBF70AFE012800D06B
:1056C000002008BD000C024010B5ADF5C96D0024E6
:1056D000B4F5C87F1CDA600002F036F838A3D3E9CD
:1056E000002302F09BF80022374B02F0C1F900F0D2
:1056F0004BFD0022354B01F0DBFE0022344B02F063
:105700008DF802F04DFB02AB43F824000134DFE7D3
:10571000FAF7D2FE2F4B1B68C31AB3F57A7F0AD370
:10572000FAF7CAFE2B4B1B68C31AB3F5FA6F02D205
:10573000294B1B68FBB1FAF7BFFE264B1B68C31A47
:10574000B3F5FA6F0BD3FAF7B7FE224B1B68C31AF7
:1057500040F2D472934202D8204B1B68DBB1FAF7B7
:10576000ABFE1C4B1B68C31A40F2D47293421BD889
:105770000DF5C96D10BD184B01221A601848FDF7D0
:1057800063FB00230093642302AA4FF06061154875
:10579000FAF77CFFECE7114B01221A604FF06061D1
:1057A0001048FBF705F8E3E7FAF786FE094B1860A7
:1057B0000023094A1360094A1360D9E7AFF3008058
:1057C0004AD8124DFB210940000079400000F03F0B
:1057D0000000A04004030020080300200C03002068
:1057E00020050020B404002082B0002100910B4B62
:1057F0005A6C42F480425A645A6C02F4804200921D
:10580000009A01911A6C42F080521A641B6C03F0EA
:1058100080530193019B02B0704700BF00380240E3
:1058200030B589B00023039304930593069307933F
:105830000268234B9A4201D009B030BD04460025CE
:10584000019503F5E2331A6C42F000521A641A6CA7
:1058500002F000520192019A02951A6B42F0010285
:105860001A631B6B03F001030293029B1023039343
:1058700003230493059503A91248FBF79BFB1248E9
:10588000124B03604FF06063436040238360C56048
:105890004FF4806303614FF4805343614FF48043BE
:1058A00083614FF48073C36105624562FBF7B6F80C
:1058B00018B9054BA3609C63BEE7FFF7EDFEF8E760
:1058C0000074004000000240540400208860024040
:1058D0007047FEE7FEE7FEE7FEE770477047704758
:1058E00008B5FAF7DDFD08BD08B50248FBF774FA04
:1058F00008BD00BF5404002008B50420FBF718FDC4
:1059000008BD08B502F0E0FE162303604FF0FF303B
:1059100008BD08B54FF0FF31FFF7F3FFFEE770B5A4
:105920000C4616460025B54207DAAFF30080214643
:1059300001F8010B01350C46F5E7304670BD70B536
:105940000C4616460025B54205DA14F9010BAFF3F3
:1059500000800135F7E7304670BD4FF0FF307047EB
:105960004FF400534B600020704701207047002027
:105970007047000030B5A1B030252A46002114A898
:1059800002F0B6FE00240F94109411941294139414
:105990002A46214603A802F0ABFE0194304B1A6C54
:1059A00042F080521A641B6C03F080530193019BF8
:1059B00002942C4B1A6842F440421A601B6803F4AC
:1059C00040430293029B012314934FF480331593B9
:1059D00002221A924FF480031B9304231C93B421D8
:1059E0001D911E921F9314A8FCF7B6FA70BBFCF72A
:1059F00073FA70BB0F230F930223109300231193AC
:105A00004FF4A05312934FF48053139305210FA822
:105A1000FCF784FD00BB202303934FF480730D93A8
:105A200003A8FCF79FFEFCF787FE0F4BA3FB00309B
:105A30008009FAF7D7FD0420FAF7EAFD00221146A3
:105A40004FF0FF30FAF770FD21B030BDFFF724FEB4
:105A5000CDE7FFF721FECDE7FFF71EFEDBE700BF36
:105A60000038024000700040D34D62102DE9F04F25
:105A700087B0002500956D4B1A6B42F002021A6345
:105A80001A6B02F002020092009A01951A6B42F022
:105A900008021A631A6B02F008020192019A029539
:105AA0001A6B42F010021A631A6B02F01002029293
:105AB000029A03951A6B42F020021A631A6B02F0E5
:105AC00020020392039A04951A6B42F040021A6373
:105AD0001A6B02F040020492049A05951A6B42F088
