:020000040800F2
:1000000000000320C10200089111000893110008AC
:1000100095110008971100089911000800000000D0
:100020000000000000000000000000009B1100081C
:100030009D110008000000009F110008A111000898
:1000400029100008291000082910000829100008AC
:10005000291000082910000829100008291000089C
:10006000291000082910000829100008291000088C
:10007000291000082910000829100008291000087C
:10008000291000082910000829100008291000086C
:10009000291000082910000829100008291000085C
:1000A000291000082910000829100008291000084C
:1000B000291000082910000829100008291000083C
:1000C000291000082910000829100008291000082C
:1000D000291000082910000829100008291000081C
:1000E000291000082910000829100008291000080C
:1000F00029100008291000082910000829100008FC
:1001000029100008291000082910000829100008EB
:1001100029100008291000082910000829100008DB
:1001200029100008291000082910000829100008CB
:1001300029100008291000082910000829100008BB
:1001400029100008291000082910000829100008AB
:10015000291000082910000829100008291000089B
:10016000291000082910000829100008291000088B
:1001700029100008291000082910000800000000BC
:10018000291000082910000829100008291000086B
:10019000291000082910000829100008291000085B
:1001A00029100008291000082910000800B583B0A4
:1001B00000F0A0FE304B314A1360314A1360314BDE
:1001C000314A03E052F8041B43F8041B2F498B42C9
:1001D000F8D32A4B1A682E4B9A4200D0FEE7284BE0
:1001E0001A682C4B9A42F9D1234B2B4A13602B4AA5
:1001F00013602B4B02E0002243F8042B294A934260
:10020000F9D3254B1B6813B9244B1B6803B1FEE7D8
:1002100000F07CFE694601A800F016FE224C234B3C
:10022000E41AA410002504E0204B53F82530984729
:100230000135AC42F8DC1E4C1E4BE41AA41000251C
:1002400004E01C4B53F8253098470135AC42F8DCEC
:100250000099019800F078FF0546174C174BE41AF7
:10026000A41004E0013C154B53F824309847002CAF
:10027000F8DC284600F0A0FFBABADECA0000002071
:100280007C0000200000002050200008800000209A
:1002900078563412325476988000002028010020CD
:1002A000800000202C010020140400081404000821
:1002B00014040008140400081404000814040008BE
:1002C00008B5FFF773FF00BEFEE71EF0040F0CBF7A
:1002D000EFF30880EFF309807146414A10472DE99A
:1002E000F04182B004460D46124B5F6BD3F8388064
:1002F0009E6A1B6B13F0020F03D00E4BDB6A002BC0
:100300000BDB0D4800F0A8FD009543463A46314608
:10031000204600F0FFFD00BEFEE74BF6AB6100F0AB
:1003200073FE0028EDD0034B4FF00042DA6202B0BA
:10033000BDE8F08100ED00E0D81F000800BEFEE738
:100340001EF0040F0CBFEFF30880EFF30980714635
:10035000244A10472DE9F04182B004460D46084B6F
:100360005F6BD3F838809E6A064800F075FD0095F3
:1003700043463A463146204600F0CCFD00BEFEE73B
:1003800000ED00E0E81F00081EF0040F0CBFEFF3C3
:100390000880EFF309807146134A10472DE9F041B8
:1003A00082B004460D46084B5F6BD3F838809E6AD6
:1003B000064800F051FD009543463A463146204636
:1003C00000F0A8FD00BEFEE700ED00E0F41F00080D
:1003D00000BEFEE700BEFEE700BEFEE7704700007D
:0C03E000DF020008550300089D03000820
:1003EC005020000800000020800000205020000851
:1003FC000000001000000010800000202C010020E4
:08040C000000001000000010C8
:1004200010B504460E4B18784FF47A73B3FBF0F313
:100430000C4A1068B0FBF3F000F08AF868B90F2C92
:1004400001D901200AE0002221464FF0FF3000F0E0
:100450004BF8054B1C60002000E0012010BD00BFE0
:1004600004000020140000200800002008B50B4BF9
:100470001A6842F400721A601A6842F480621A60C4
:100480001A6842F480721A60032000F01BF8002002
:10049000FFF7C6FF00F060FE002008BD003C0240F0
:1004A000034A1168034B1B780B441360704700BF6D
:1004B0001401002004000020014B1868704700BFA1
:1004C00014010020074AD36823F4E0631B041B0CCB
:1004D000000200F4E060034343F0BF6343F40033E1
:1004E000D360704700ED00E030B4174BDB68C3F316
:1004F0000223C3F10704042C28BF04241D1D062D6C
:1005000018D9033B4FF0FF3505FA04F421EA040142
:10051000994005FA03F322EA0303194300280BDB91
:100520000901C9B200F1604000F5614080F8001394
:1005300030BC70470023E5E700F00F000901C9B2A5
:10054000024B1954F4E700BF00ED00E014ED00E0A9
:100550000138B0F1807F0AD2064B5860064AF0217C
:1005600082F823100020986007221A60704701204B
:10057000704700BF10E000E000ED00E000230F2B0B
:1005800000F2E580F0B583B039E0092200E00022F6
:10059000B2403A4302346E4E46F824206D4A146845
:1005A000EA4324EA05064F6817F4803F01D045EA84
:1005B0000406684C2660646802EA04064F6817F473
:1005C000003F01D045EA0406624C6660A46802EA76
:1005D00004064F6817F4801F01D045EA04065D4CFD
:1005E000A660E46822404E6816F4001F01D045EA78
:1005F0000402584CE26001330F2B00F2A680012266
:100600009A400C6804EA020532EA0404F3D14C680B
:10061000661E012E03D9112C01D0122C12D186682E
:100620005F000324BC4026EA0406CC68BC40344387
:100630008460466826EA02064C68C4F300129A40B9
:1006400032434260C7685E000324B440E24327EAB5
:1006500004078C68B4403C43C4604C68022C01D051
:10066000122C13D1DF08083750F827E003F00704F5
:100670004FEA840C0F2404FA0CF42EEA040E0C69E1
:1006800004FA0CF444EA0E0440F8274004681440CD
:100690004A6802F00302B240224302604A6812F044
:1006A000805FA8D0002201922B4A546C44F480440D
:1006B0005464526C02F480420192019A9C08A61C78
:1006C000234A52F8267003F0030296000F22B2402C
:1006D00027EA0207214A90423FF459AF02F58062AF
:1006E000904222D002F58062904220D002F58062D2
:1006F00090421ED002F5806290421CD002F58062CA
:1007000090421AD002F58062904218D002F58062C1
:10071000904216D002F58062904214D002F58062B9
:1007200090423FF432AF0A2232E7012230E7022240
:100730002EE703222CE704222AE7052228E70622D7
:1007400026E7072224E7082222E703B0F0BD70471E
:1007500000380140003C01400038024000000240E7
:100760000AB18161704709048161704710B582B098
:1007700000230193194B1A6C42F080521A641B6CCF
:1007800003F080530193019B154B01221A60FFF780
:1007900093FE0446134B5B6813F4803F08D1FFF7C8
:1007A0008BFE001BB0F57A7FF4D9032002B010BD98
:1007B0000D4B01221A60FFF77FFE0446094B5B6870
:1007C00013F4003F07D1FFF777FE001BB0F57A7FE7
:1007D000F4D90320EAE70020E8E700BF0038024030
:1007E00040000E420070004044000E42002800F01D
:1007F000D98170B582B00446036813F0010F3BD075
:10080000A64B9B6803F00C03042B2CD0A34B9B68D6
:1008100003F00C03082B21D06368B3F5803F4FD061
:10082000B3F5A02F52D09D4B1A6822F480321A6083
:100830001A6822F480221A606368002B50D0FFF7F8
:100840003BFE0546954B1B6813F4003F14D1FFF7A0
:1008500033FE401B6428F5D90320AAE18F4B5B6867
:1008600013F4800FD8D08D4B1B6813F4003F03D0D6
:100870006368002B00F09881236813F0020F54D0B6
:10088000864B9B6813F00C0F3ED0844B9B6803F0A3
:100890000C03082B33D0E368002B67D0804B012278
:1008A0001A60FFF709FE05467C4B1B6813F0020F28
:1008B00053D1FFF701FE401B0228F5D9032078E150
:1008C000764A136843F480331360B5E7734B1A68B4
:1008D00042F480221A601A6842F480321A60ABE750
:1008E000FFF7EAFD05466D4B1B6813F4003FC3D0CC
:1008F000FFF7E2FD401B6428F5D9032059E1674B5F
:100900005B6813F4800FC6D1644B1B6813F0020FB1
:1009100003D0E368012B40F04981604A136823F05B
:10092000F803216943EAC1031360236813F0080F39
:1009300040D0636963B35B4B01221A60FFF7BCFDD3
:100940000546564B5B6F13F0020F33D1FFF7B4FD32
:10095000401B0228F5D903202BE1504A136823F0ED
:10096000F803216943EAC1031360DEE74C4B002220
:100970001A60FFF7A1FD0546484B1B6813F0020FF4
:10098000D3D0FFF799FD401B0228F5D9032010E1D1
:10099000444B00221A60FFF78FFD05463F4B5B6F0B
:1009A00013F0020F06D0FFF787FD401B0228F5D990
:1009B0000320FEE0236813F0040F78D0374B1B6C44
:1009C00013F0805F0DD100230193344B1A6C42F079
:1009D00080521A641B6C03F080530193019B012524
:1009E00000E00025304B1B6813F4807F21D0A36802
:1009F000012B32D0052B36D0284B1A6F22F0010282
:100A00001A671A6F22F004021A67A368002B34D009
:100A1000FFF752FD0646214B1B6F13F0020F45D125
:100A2000FFF74AFD801B41F288339842F3D9032037
:100A3000BFE01D4A136843F480731360FFF73CFD69
:100A40000646194B1B6813F4807FD0D1FFF734FDA5
:100A5000801B0228F5D90320ABE0104A136F43F046
:100A600001031367D1E70D4B1A6F42F004021A67B6
:100A70001A6F42F001021A67C7E7FFF71DFD06462D
:100A8000064B1B6F13F0020F10D0FFF715FD801BF4
:100A900041F288339842F3D903208AE000380240BB
:100AA00000004742800E474200700040E5B9A3694C
:100AB000002B7DD0464A926802F00C02082A51D0E1
:100AC000022B17D0434B00221A60FFF7F5FC0446B7
:100AD0003F4B1B6813F0007F42D0FFF7EDFC001B7B
:100AE0000228F5D9032064E0394A136C23F08053BF
:100AF0001364DCE7374B00221A60FFF7DDFC054684
:100B0000334B1B6813F0007F06D0FFF7D5FC401B6A
:100B10000228F5D903204CE0E369226A1343626A94
:100B200043EA8213A26A5208013A43EA0243E26AA4
:100B300043EA0263264A5360264B01221A60FFF7FC
:100B4000BBFC0446224B1B6813F0007F06D1FFF765
:100B5000B3FC001B0228F5D903202AE0002028E07E
:100B6000002026E0012B26D0194B9B6803F480015E
:100B7000E269914221D103F03F02216A8A421ED1EB
:100B8000616A47F6C0721A408A421AD103F44032B1
:100B9000A16A8A4217D103F07063E26A934214D1CA
:100BA000002006E001207047012002E0012000E063
:100BB000002002B070BD0120FBE70120F9E7012011
:100BC000F7E70120F5E70120F3E70120F1E700BF97
:100BD0000038024060004742F8B52F4B9B6803F095
:100BE0000C03042B53D0082B53D12B4B5A6802F023
:100BF0003F025B6813F4800F28D0274B5B68C3F378
:100C0000881358010021C01A61F100018E0146EAE3
:100C1000906687013C1A66EB0105E90041EA5471D0
:100C2000E000C01841F100014B0243EAD0534402F6
:100C300020461946002300F01DFB174B5B68C3F3E9
:100C4000014301335B00B0FBF3F023E0124B5B6820
:100C5000C3F388135C010025E41A65F10005AE01B9
:100C600046EA9466A701381B66EB0501CC0044EA0E
:100C70005074C500E81844F100018B0243EA905318
:100C8000840220461946002300F0F4FAD5E7034811
:100C900000E00348F8BD00BF0038024000127A00AF
:100CA0000024F400002800F09B8070B50D46044637
:100CB0004F4B1B6803F00F038B4208D2CBB24C4A58
:100CC0001370136803F00F038B4240F08B8023688E
:100CD00013F0020F17D013F0040F04D0454A9368A5
:100CE00043F4E0539360236813F0080F04D0414AA3
:100CF000936843F4604393603E4A936823F0F003A3
:100D0000A1680B439360236813F0010F32D063682E
:100D1000012B21D09A1E012A25D9364A126812F0D9
:100D2000020F61D033498A6822F0030213438B60BB
:100D3000FFF7C2FB06462F4B9B6803F00C0362686B
:100D4000B3EB820F16D0FFF7B7FB801B41F288335D
:100D50009842F0D9032042E0264A126812F4003F7C
:100D6000E0D101203BE0234A126812F0007FD9D184
:100D7000012034E01E4B1B6803F00F03AB4207D980
:100D8000EAB21B4B1A701B6803F00F03AB422DD164
:100D9000236813F0040F06D0164A936823F4E05337
:100DA000E1680B439360236813F0080F07D0114AE2
:100DB000936823F46043216943EAC1039360FFF71A
:100DC0000BFF0C4B9B68C3F303130B4AD35CD84057
:100DD0000A4B18600A4B1868FFF722FB002070BD11
:100DE000012070470120FAE70120F8E70120F6E72B
:100DF000003C02400038024004200008140000209B
:100E00000800002008B503460C4A12685AB10B4A84
:100E10001068033323F003030344094A934206D8BE
:100E2000064A136008BD054A06491160EFE700F065
:100E30009BFB0C2303604FF0FF30F3E7840000209E
:100E400000FC02202C01002001230360014B0B60F9
:100E5000704700BF0C0000200FB400B583B004AB96
:100E600053F8042B01938021074800F0C5FB0028AC
:100E700004DC03B05DF804EB04B07047014602489F
:100E800000F034F8F5E700BF8C0000202DE9F043B6
:100E900085B004460F46435633BB042528462146F9
:100EA000ABBE0446384605B0BDE8F08314F9010B2B
:100EB00004AA1A4402F8100C0133AB42F6D304AA78
:100EC0001344002203F8102C4FF00408E946404672
:100ED0004946ABBE8046761B002EE3D03546102E29
:100EE00028BF10250023E8E70E46F5E708B5FFF711
:100EF000CDFF08BD08B500F065F9024A024B9A60C3
:100F000008BD00BF0000000800ED00E008B500F0DB
:100F100061F908BDF8B504460D4617461E46274838
:100F2000FFF79AFF21682648FFF796FF616825487A
:100F3000FFF792FFA1682448FFF78EFFE16823487E
:100F4000FFF78AFF21692248FFF786FF6169214880
:100F5000FFF782FFA1692048FFF77EFFE1691F4884
:100F6000FFF77AFF1E48FFF777FF29461D48FFF776
:100F700073FF1D4CE16A1D48FFF76EFF216B1C4893
:100F8000FFF76AFFE16B1B48FFF766FF15F0800F64
:100F90000AD115F4004F0CD11748FFF75DFF0699F1
:100FA0001648FFF759FFF8BD39461548FFF754FFBB
:100FB000EFE731461348FFF74FFFEDE7BC1E00088F
:100FC000CC1E0008DC1E0008EC1E0008FC1E0008F9
:100FD0000C1F00081C1F00082C1F00083C1F0008E5
:100FE0004C1F0008581F000800ED00E0681F0008B3
:100FF000781F0008881F0008B81F0008C01F0008DD
:10100000981F0008A81F000883691A888A4201D027
:10101000002070470268033A012A01D90020704776
:101020000233836101207047FEE7000030B589B0CC
:101030000024039404940594069407940194194B96
:101040001A6B42F080021A631A6B02F0800201925E
:10105000019A02941A6B42F008021A631B6B03F0A8
:1010600008030293029B104D22464FF4006128466C
:10107000FFF776FB4FF4806303930C4B04930594C6
:1010800003A92846FFF77AFA4FF40063039301237C
:1010900004930594069403A92846FFF76FFA09B054
:1010A00030BD00BF00380240000C024000001110AB
:1010B00030B595B03022002108A800F069FA00246C
:1010C0000394049405940694079401941C4B1A6CA1
:1010D00042F080521A641B6C03F080530193019B11
:1010E0000294184B1A6842F440421A601B6803F4D9
:1010F00040430293029B012308934FF480330993EA
:1011000002250E954FF480030F9304231093B4220D
:1011100011921295139308A8FFF768FBFFF726FBBF
:101120000F230393049505944FF4A05306934FF4B3
:1011300080530793052103A8FFF7B4FD15B030BD18
:10114000003802400070004008B5FFF78FF9FFF744
:10115000AFFFFFF76BFFFEE782B0002100910B4B62
:101160005A6C42F480425A645A6C02F480420092F3
:10117000009A01911A6C42F080521A641B6C03F0C1
:1011800080530193019B02B0704700BF00380240BA
:101190007047FEE7FEE7FEE7FEE7704770477047DF
:1011A00008B5FFF77DF908BD08B500F0DDF9162395
:1011B00003604FF0FF3008BD08B54FF0FF31FFF777
:1011C000F3FFFEE7024B4FF000629A60704700BFEA
:1011D00000ED00E0224B9B6803F00C03042B14D0BD
:1011E000082B16D01BB11F4B1F4A1A6002E01D4B83
:1011F0001D4A1A601A4B9B68C3F303131B4AD15C48
:10120000184A1368CB4013607047164B184A1A608F
:10121000F0E7134B5A685B6803F03F0312F4800F4A
:1012200013D0134AB2FBF3F20D4B5B68C3F3881380
:1012300003FB02F30A4A5268C2F301420132520030
:10124000B3FBF2F3074A1360D4E7074AB2FBF3F2A9
:10125000034B5B68C3F3881303FB02F3EAE700BFA9
:1012600000380240140000200024F400042000088C
:1012700040787D0153B94AB9002908BF00281CBF36
:101280004FF0FF314FF0FF3000F06CB9ADF1080CBA
:101290006DE904CE00F006F8DDF804E0DDE9022394
:1012A00004B070472DE9F047089E0D4604468E466F
:1012B000002B40F082808A42174646D9B2FA82F269
:1012C0004AB1C2F1200105FA02F320FA01F1974078
:1012D00041EA030E94404FEA1748230CBEFBF8FC8A
:1012E000B9B208FB1CEE43EA0E430CFB01F0984236
:1012F0000AD9FB180CF1FF3580F01681984240F2B4
:101300001381ACF1020C3B441B1AA4B2B3FBF8F0FE
:1013100008FB103344EA034400FB01F1A14209D960
:101320003C1900F1FF3380F00181A14240F2FE80C0
:1013300002383C44641A40EA0C4000211EB1D440FB
:101340000023C6E90043BDE8F08702B9FFDEB2FA28
:1013500082F2002A4FD1CB1B4FEA174E1FFA87F8B3
:101360000121B3FBFEFC250C0EFB1C3345EA0345B3
:1013700008FB0CF3AB4207D97D190CF1FF3002D208
:10138000AB4200F2E7808446ED1AA3B2B5FBFEF053
:101390000EFB105543EA054408FB00F8A04507D9A9
:1013A0003C1900F1FF3302D2A04500F2D780184665
:1013B000A4EB080440EA0C40C0E78B4208D9002E99
:1013C00000F0AF800021C6E900050846BDE8F087BF
:1013D000B3FA83F100294BD1AB4202D3824200F22F
:1013E000B780841A65EB030301209E46002EAAD025
:1013F000C6E9004EA7E7C2F1200C01FA02F39740BC
:1014000020FA0CF04FEA174E21FA0CFC1843BCFBF3
:10141000FEF1050C0EFB11CC1FFA87F845EA0C45CE
:1014200001FB08F3AB4204FA02F409D97D1901F17A
:10143000FF3C80F08B80AB4240F2888002393D4413
:10144000EB1A85B2B3FBFEF00EFB103345EA034501
:1014500000FB08F3AB4207D97D1900F1FF3C71D2C4
:10146000AB426FD902383D44EB1A40EA014178E7BC
:10147000C1F1200C8B4022FA0CF71F4320FA0CF428
:1014800005FA01F34FEA174E25FA0CF51C43230C1D
:10149000B5FBFEF91FFA87F80EFB195543EA05451F
:1014A00009FB08FAAA4502FA01F200FA01F308D989
:1014B0007D1909F1FF3047D2AA4545D9A9F10209A2
:1014C0003D44A5EB0A05A4B2B5FBFEF00EFB10559A
:1014D00044EA054400FB08F8A04507D93C1900F18F
:1014E000FF352DD2A0452BD902383C4440EA0940B3
:1014F000A4EB0804A0FB02894C45C6464D4619D30F
:1015000016D05EB1B3EB0E0264EB050404FA0CFCDA
:10151000CA404CEA0202CC40C6E900240021BDE8E2
:10152000F087314630460EE7AC46EDE6184601E757
:101530004345E6D2B8EB020E69EB07050138E0E758
:101540002846D3E760468FE78146BAE7614677E7EA
:1015500008464BE7ACF1020C3D4415E702383C4429
:1015600026E700BF704700BF014B1868704700BFF7
:10157000180000200A44914200F1FF3300D1704767
:1015800010B511F8014B03F8014F9142F9D110BD8C
:1015900002440346934200D1704703F8011BF9E768
:1015A00030B5141E05469BB0184605DA8B232B6018
:1015B0004FF0FF301BB030BD4FF40273ADF80C306C
:1015C00014BF04F1FF332346029305934FF6FF73D4
:1015D00000910491ADF80E3002461E9B69462846E4
:1015E00000F074F8431CBCBF8B232B60002CE1D0AF
:1015F000009B00221A70DDE707B5009313460A46E8
:10160000014603480068FFF7CBFF03B05DF804FB19
:10161000180000202DE9F0478E689E4282460C4655
:1016200090461F4638D88A8912F4906F32D02568C8
:101630000969A5EB0109656905EB450505EBD5755C
:1016400001334B446D109D4238BF1D46530531D5C3
:10165000294600F08DFB064650B90C23CAF800302D
:10166000A38943F04003A3814FF0FF30BDE8F0872A
:1016700021694A46FFF77EFFA38923F4906343F074
:101680008003A381266165614E44A5EB09052660B0
:10169000A5603E46BE4200D93E46324620684146DD
:1016A00000F0FEFAA36822689B1B3244A36022600C
:1016B0000020DBE72A4600F0B5FB06460028E1D112
:1016C0002169504600F006FBC7E700002DE9F04F06
:1016D00098468B891B069DB007460D4614460ED5CD
:1016E0000B6963B9402100F043FB2860286120B9F1
:1016F0000C233B604FF0FF30D1E040236B610023AF
:10170000099320238DF82930CDF80C803023DFF8A1
:10171000A8818DF82A304FF0010923469A4613F824
:10172000012B0AB1252AF9D1BAEB040B0BD05B4689
:10173000224629463846FFF76DFF013000F0AA80A7
:10174000099A5A4409929AF80030002B00F0A280BE
:1017500000234FF0FF32CDE905230AF1010A04937B
:1017600007938DF853301A935446052214F8011B41
:10177000514800F045FA049AD8B9D00644BF202356
:101780008DF85330110744BF2B238DF853309AF84E
:1017900000302A2B15D0079A544600204FF00A0C2F
:1017A000214611F8013B303B092B4ED9B0B10792CD
:1017B00014E0A0EB080309FA03F313430493A246D1
:1017C000D2E7039B191D1B680391002BBBBF5B4233
:1017D00042F0020207930793B8BF049223782E2B9E
:1017E0000CD163782A2B35D1039B1A1D1B680392F9
:1017F000002BB8BF4FF0FF3302340593DFF8C8A0C9
:1018000021780322504600F0FBF940B14023A0EBC1
:101810000A0003FA00F0049B03430134049314F814
:10182000011B26488DF82810062200F0E9F900284F
:1018300038D0234B1BBB039B073323F0070308332C
:101840000393099B3344099367E70CFB02320C4670
:101850000120A5E700230134059319464FF00A0C37
:10186000204610F8012B303A092A03D9002BC5D0A5
:101870000591C3E70CFB012104460123F0E703AB0C
:1018800000932A460F4B04A93846AFF30080421C50
:101890000646D6D1AB895B063FF52CAF09981DB043
:1018A000BDE8F08F03AB00932A46064B04A93846E7
:1018B00000F07AF8EBE700BF142000081E200008B3
:1018C00000000000151600081A2000082DE9F04756
:1018D000164699468A680B69DDF820809342B8BFA6
:1018E0001346336091F8432007460C460AB1013392
:1018F00033602368990642BF33680233336025683A
:1019000015F0060506D104F1190AE36832689B1A3E
:10191000AB4226DC94F84320131E226818BF012333
:1019200092062BD404F1430249463846C0470130A1
:101930001ED02368E568326803F00603042B08BF55
:10194000AD1AA36822690CBF25EAE575002593420C
:10195000C4BF9B1AED1800261A34B5421AD10020D4
:1019600008E00123524649463846C047013003D1BA
:101970004FF0FF30BDE8F0870135C6E7E1185A1C8B
:10198000302081F84300224494F8451082F8431037
:101990000233C7E70123224649463846C047013093
:1019A000E6D00136D9E700002DE9FF470C46914605
:1019B000277E0C99782F80469A4604F1430207D877
:1019C000622F0AD8002F00F0D880582F00F0A38093
:1019D00004F1420684F842703AE0A7F16303152B44
:1019E000F6D801A050F823F0411A0008551A000853
:1019F000D1190008D1190008D1190008D11900081F
:101A0000551A0008D1190008D1190008D119000889
:101A1000D1190008611B0008851A0008431B000843
:101A2000D1190008D1190008831B0008D11900083A
:101A3000851A0008D1190008D11900084B1B0008AD
:101A40000B681A1D1B680A6004F1420684F84230D4
:101A50000123A3E0256808682E0600F104030AD5D7
:101A600005680B60002D03DA2D236D4284F84330A6
:101A70005E480A2319E015F0400F05680B6018BF97
:101A80002DB2EFE70B682568181D0860280601D500
:101A90001D6802E06906FBD51D8854486F2F0CBFF6
:101AA00008230A23002184F843106668A660002EEC
:101AB000A2BF216821F0040121600DB9002E4DD094
:101AC0001646B5FBF3F103FB1157C75D06F8017D20
:101AD0002F46BB420D46F4D9082B0BD12368DF07F4
:101AE00008D5236961689942DEBF302306F8013CBE
:101AF00006F1FF36921B2261CDF800A04B4603AAE7
:101B000021464046FFF7E2FE01304CD14FF0FF3056
:101B100004B0BDE8F087354884F8457023680E6846
:101B20001F0656F8045B0E6014D5D90744BF43F076
:101B3000200323601DB9236823F0200323601023B2
:101B4000B0E7236843F0200323607823284884F813
:101B50004530E3E75E0648BFADB2E6E71646BBE7B1
:101B60000B68266860691D1D0D6035061B6801D570
:101B7000186002E07106FBD5188000232361164629
:101B8000BAE70B681A1D0A601E68626800213046B9
:101B900000F036F808B1801B6060636823610023A1
:101BA00084F84330A8E72369324649464046D04787
:101BB0000130ABD023689B0713D4E068039B9842A5
:101BC000B8BF1846A4E70123324649464046D047ED
:101BD00001309BD00135E36803995B1AAB42F2DC1C
:101BE000EBE7002504F11906F5E700BF2520000802
:101BF0003620000800000000000000000000000087
:101C000001F0FF01102A2BDB10F0070F08D010F8AD
:101C1000013B013A8B422DD010F0070F42B3F6D1B1
:101C2000F0B441EA012141EA014122F007047FF0CA
:101C300000070023F0E80256083C85EA010586EA21
:101C4000010685FA47F5A3FA87F586FA47F6A5FA5D
:101C500087F68EB9EED1F0BC01F0FF0102F0070269
:101C600032B110F8013B013A83EA010313B1F8D114
:101C70000020704701387047002D06BF35460338F5
:101C8000073815F0010F07D1013015F4807F02BF2E
:101C9000013015F4C03F0130F0BC0138704700BF7F
:101CA000884210B501EB020402D98442234607D8CA
:101CB000431EA14208D011F8012B03F8012FF8E7C9
:101CC000024401468A4200D110BD13F8014D02F8CA
:101CD000014DF7E738B50546002945D051F8043CD9
:101CE0000C1F002BB8BFE41800F0D2F81F4A13688D
:101CF000104633B9636014602846BDE8384000F0F0
:101D0000CDB8A3420BD921686218934204BF1A6868
:101D10005B68636004BF521822600460ECE71A46F7
:101D20005B680BB1A342FAD911685018A0420BD1DD
:101D300020680144501883421160DDD118685B6847
:101D4000536001441160D7E702D90C232B60D3E71D
:101D5000206821188B4204BF19685B68636004BF68
:101D6000091821605460C7E738BD00BF0C0100208E
:101D7000F8B5CD1C25F0030508350C2D38BF0C2512
:101D8000002D064601DBA94203D90C233360002055
:101D9000F8BD00F07DF821490A6814469CB9204F2F
:101DA0003B6823B92146304600F062F83860294686
:101DB000304600F05DF8431C23D10C2333603046DD
:101DC00000F06CF8E3E723685B1B17D40B2B03D9F7
:101DD00023601C44256004E06368A2420CBF0B60D2
:101DE0005360304600F05AF804F10B00231D20F038
:101DF0000700C21ACCD01B1AA350C9E72246646858
:101E0000CCE7C41C24F00304A042E3D0211A3046DE
:101E100000F02EF80130DDD1CFE700BF0C0100202B
:101E200010010020F8B5074614460E4621B9BDE85A
:101E3000F8401146FFF79CBF22B9FFF74BFF25463C
:101E40002846F8BD00F030F8A0420FD221463846AF
:101E5000FFF78EFF05460028F2D031462246FFF7F5
:101E600089FB31463846FFF735FFE9E73546E7E7B6
:101E700038B5064D0023044608462B60FEF7C2FF26
:101E8000431C02D12B6803B1236038BD1801002028
:101E9000014800F011B800BF20010020014800F007
:101EA0000CB800BF2001002051F8043C181F002B83
:101EB000BCBF0B58C01870477047704753746163BC
:101EC0006B206672616D653A0A0000002052302076
:101ED0003D2020253038580A0000000020523120D3
:101EE0003D2020253038580A0000000020523220C2
:101EF0003D2020253038580A0000000020523320B1
:101F00003D2020253038580A000000002052313290
:101F1000203D20253038580A00000000204C522077
:101F20003D2020253038580A000000002050432072
:101F30003D2020253038580A000000002050535220
:101F4000203D20253038580A000000004653522F0B
:101F50004641523A0A0000002043465352203D2099
:101F600020253038580A00002048465352203D2092
:101F700020253038580A00002044465352203D2086
:101F800020253038580A00002041465352203D2079
:101F900020253038580A0000204D4D464152203D42
:101FA00020253038580A00002042464152203D206A
:101FB00020253038580A00004D6973630A0000007C
:101FC000204C522F4558435F52455455524E3D20A8
:101FD000253038580A0000005B486172644661751C
:101FE0006C745D0A000000005B4275734661756C9D
:101FF000745D0A005B55736167654661756C745D5D
:102000000A000000000000000000000001020304BC
:1020100006070809232D302B2000686C4C006566EC
:102020006745464700303132333435363738394129
:10203000424344454600303132333435363738393F
:072040006162636465660044
:082048005CF2FF7F01000000C3
:102050007856341201FFFFFF1000000088000020B6
:10206000000000000024F4001C000020000000001C
:102070000000000000000000000000000000000060
:102080000000000000000000000000000000000050
:102090000000000000000000000000000000000040
:1020A0000000000000000000000000000000000030
:1020B0000000000000000000000000000000000020
:1020C000000000000000000000000000325476987C
:04000005080001AD41
:00000001FF
