:020000040800F2
:1000000000000320C10200080123000803230008A8
:10001000052300080723000809230008000000004A
:100020000000000000000000000000000B2300089A
:100030000D230008000000000F2300081123000812
:10004000B1200008B1200008B1200008B12000084C
:10005000B1200008B1200008B1200008B12000083C
:10006000B1200008B1200008B1200008B12000082C
:10007000B1200008B1200008B1200008B12000081C
:10008000B1200008B1200008B1200008B12000080C
:10009000B1200008B1200008B1200008B1200008FC
:1000A000B1200008B1200008B1200008B1200008EC
:1000B000B1200008B1200008B1200008B1200008DC
:1000C000B1200008B1200008B1200008B1200008CC
:1000D000B1200008B1200008B1200008B1200008BC
:1000E000B1200008B1200008B1200008B1200008AC
:1000F000B1200008B1200008B1200008B12000089C
:10010000B1200008B1200008B1200008B12000088B
:10011000B1200008B1200008B1200008B12000087B
:10012000B1200008B1200008B1200008B12000086B
:10013000B1200008B1200008B1200008B12000085B
:10014000B1200008B1200008B1200008B12000084B
:10015000B1200008B1200008B1200008B12000083B
:10016000B1200008B1200008B1200008B12000082B
:10017000B1200008B1200008B120000800000000F4
:10018000B1200008B1200008B1200008B12000080B
:10019000B1200008B1200008B1200008B1200008FB
:1001A000B1200008B1200008B120000800B583B0DC
:1001B00001F0E4FE304B314A1360314A1360314B99
:1001C000314A03E052F8041B43F8041B2F498B42C9
:1001D000F8D32A4B1A682E4B9A4200D0FEE7284BE0
:1001E0001A682C4B9A42F9D1234B2B4A13602B4AA5
:1001F00013602B4B02E0002243F8042B294A934260
:10020000F9D3254B1B6813B9244B1B6803B1FEE7D8
:1002100001F0C0FE694601A801F05AFE224C234BB2
:10022000E41AA410002504E0204B53F82530984729
:100230000135AC42F8DC1E4C1E4BE41AA41000251C
:1002400004E01C4B53F8253098470135AC42F8DCEC
:100250000099019802F00CF80546174C174BE41A68
:10026000A41004E0013C154B53F824309847002CAF
:10027000F8DC284602F058F8BABADECA00000020BE
:100280007C0000200000002078340008800000205E
:10029000785634123254769880000020E001002015
:1002A00080000020E4010020140400081404000869
:1002B00014040008140400081404000814040008BE
:1002C00008B5FFF773FF00BEFEE71EF0040F0CBF7A
:1002D000EFF30880EFF309807146414A10472DE99A
:1002E000F04182B004460D46124B5F6BD3F8388064
:1002F0009E6A1B6B13F0020F03D00E4BDB6A002BC0
:100300000BDB0D4801F0ECFD009543463A463146C3
:10031000204601F043FE00BEFEE74BF6AB6101F064
:10032000B7FE0028EDD0034B4FF00042DA6202B076
:10033000BDE8F08100ED00E0E833000800BEFEE714
:100340001EF0040F0CBFEFF30880EFF30980714635
:10035000244A10472DE9F04182B004460D46084B6F
:100360005F6BD3F838809E6A064801F0B9FD0095AE
:1003700043463A463146204601F010FE00BEFEE7F5
:1003800000ED00E0F83300081EF0040F0CBFEFF39F
:100390000880EFF309807146134A10472DE9F041B8
:1003A00082B004460D46084B5F6BD3F838809E6AD6
:1003B000064801F095FD009543463A4631462046F1
:1003C00001F0ECFD00BEFEE700ED00E004340008A3
:1003D00000BEFEE700BEFEE700BEFEE7704700007D
:0C03E000DF020008550300089D03000820
:1003EC0078340008000000208000002078340008D9
:1003FC00000000100000001080000020E40100202C
:08040C000000001000000010C8
:1004200010B504460E4B18784FF47A73B3FBF0F313
:100430000C4A1068B0FBF3F000F0ACF868B90F2C70
:1004400001D901200AE0002221464FF0FF3000F0E0
:100450005FF8054B1C60002000E0012010BD00BFCC
:1004600004000020140000200800002008B50B4BF9
:100470001A6842F400721A601A6842F480621A60C4
:100480001A6842F480721A60032000F02FF80020EE
:10049000FFF7C6FF01F018FF002008BD003C024036
:1004A000034A1168034B1B780B441360704700BF6D
:1004B0001401002004000020014B1868704700BFA1
:1004C0001401002038B50446FFF7F6FF0546B4F1E5
:1004D000FF3F02D0044B1B781C44FFF7EDFF401B8D
:1004E000A042FAD338BD00BF04000020074AD368F9
:1004F00023F4E0631B041B0C000200F4E0600343E0
:1005000043F0BF6343F40033D360704700ED00E075
:1005100030B4174BDB68C3F30223C3F10704042C88
:1005200028BF04241D1D062D18D9033B4FF0FF35AD
:1005300005FA04F421EA0401994005FA03F322EADA
:100540000303194300280BDB0901C9B200F1604025
:1005500000F5614080F8001330BC70470023E5E7E8
:1005600000F00F000901C9B2024B1954F4E700BFB3
:1005700000ED00E014ED00E0002807DB00F01F02B2
:10058000400901239340024A42F82030704700BFDF
:1005900000E100E00138B0F1807F0AD2064B5860DC
:1005A000064AF02182F823100020986007221A6082
:1005B00070470120704700BF10E000E000ED00E050
:1005C000042805D0054A136823F00403136070471C
:1005D000024A136843F004031360704710E000E020
:1005E00000230F2B00F2E580F0B583B039E009223B
:1005F00000E00022B2403A4302346E4E46F8242016
:100600006D4A1468EA4324EA05064F6817F4803FF0
:1006100001D045EA0406684C2660646802EA0406D4
:100620004F6817F4003F01D045EA0406624C66604B
:10063000A46802EA04064F6817F4801F01D045EA57
:1006400004065D4CA660E46822404E6816F4001F64
:1006500001D045EA0402584CE26001330F2B00F24E
:10066000A68001229A400C6804EA020532EA0404DA
:10067000F3D14C68661E012E03D9112C01D0122C27
:1006800012D186685F000324BC4026EA0406CC68C9
:10069000BC4034438460466826EA02064C68C4F3D2
:1006A00000129A4032434260C7685E000324B4409F
:1006B000E24327EA04078C68B4403C43C4604C68BA
:1006C000022C01D0122C13D1DF08083750F827E094
:1006D00003F007044FEA840C0F2404FA0CF42EEA0A
:1006E000040E0C6904FA0CF444EA0E0440F82740A6
:1006F000046814404A6802F00302B24022430260D8
:100700004A6812F0805FA8D0002201922B4A546CF4
:1007100044F480445464526C02F480420192019A81
:100720009C08A61C234A52F8267003F00302960088
:100730000F22B24027EA0207214A90423FF459AF04
:1007400002F58062904222D002F58062904220D071
:1007500002F5806290421ED002F5806290421CD069
:1007600002F5806290421AD002F58062904218D061
:1007700002F58062904216D002F58062904214D059
:1007800002F5806290423FF432AF0A2232E7012242
:1007900030E702222EE703222CE704222AE7052273
:1007A00028E7062226E7072224E7082222E703B0EB
:1007B000F0BD704700380140003C01400038024065
:1007C000000002400AB181617047090481617047ED
:1007D00003685A6912F4806F01D1002070476FF4EA
:1007E00080625A6100230363202280F83D2080F854
:1007F0003E30026C42F00402026480F83C3001207A
:1008000070472DE9F04107460D4690461E4622E00E
:10081000FFF752FE069BC01AB04200D8DEB9002393
:100820003B63202287F83D2087F83E303A6C42F047
:1008300020023A6487F83C3001201AE03B689C694A
:1008400025EA0404A4B2B4FA84F46409A0450FD1E3
:10085000B6F1FF3FDCD1C5F30743012BEED13B6876
:100860005C6925EA0404A4B2B4FA84F46409EDE7EF
:100870000020BDE8F0812DE9F04105460E461746FF
:1008800098463DE01A6842F400721A602B686FF4D3
:1008900080625A6100232B63202285F83D2085F871
:1008A0003E302A6C42F004022A6485F83C30012074
:1008B00034E0FFF701FEA0EB0800B84200D8FFB912
:1008C00000232B63202285F83D2085F83E302A6CDA
:1008D00042F020022A6485F83C3001201EE02B689B
:1008E0009C6926EA0404A4B2003C18BF0124A4B108
:1008F0002B685A6912F4806FC4D1B7F1FF3FD8D189
:10090000C6F30743012BEAD12B685C6926EA04048D
:10091000A4B2003C18BF0124E9E70020BDE8F08143
:10092000F0B583B004460D4616461F46C36A082B31
:100930000DD0012B0BD013F5803F08D0036B122B89
:100940000AD10268136843F48073136004E02268DC
:10095000136843F4807313600097334600224FF00E
:1009600001112046FFF74DFF80B92369B3F5804F91
:1009700016D1236805F0FE051D613B46324613493A
:100980002046FFF778FFF8B903B0F0BD23681B6875
:1009900013F4807F02D04FF4007323640320F3E745
:1009A000EB11226803F0060343F0F00313613B46AA
:1009B000324607492046FFF75EFF18B92368EDB2BB
:1009C0001D61DAE70120DFE70120DDE70200010019
:1009D0000800010070B504460D46164623685B69A1
:1009E00013F0800F1CD12046FFF7F2FED0B9B5F10D
:1009F000FF3FF3D0FFF760FD801BA84201D8002D18
:100A0000ECD100232363202284F83D2084F83E307B
:100A1000226C42F02002226484F83C30012000E085
:100A2000002070BD0120FCE72DE9F04784B00446AA
:100A30000D46164699460C9FDDF83480026813680F
:100A400043F4806313600368196841F4807119608E
:100A5000CDF800803B4600224FF00111FFF7D1FE98
:100A600070B95FFA85FA236805F0FE051D614346FB
:100A70003A4641492046FFF7FEFE68B1012008E0F2
:100A800023681B6813F4807F02D04FF40073236443
:100A9000032004B0BDE8F0870023039323685A695C
:100AA00003929B690393039B424639462046FFF716
:100AB00091FF80B9B9F1010F18D12368F6B21E6118
:100AC000424639462046FFF785FF68B3236C042B66
:100AD00024D00120DDE7236C042B01D00120D8E7CE
:100AE0002268136843F400731360F7E72368320A3F
:100AF0001A61424639462046FFF76CFF18B9236851
:100B0000F6B21E61DCE7236C042B01D00120C0E7A4
:100B10002268136843F400731360F7E722681368D0
:100B200043F400731360D4E72268136843F48073BE
:100B30001360CDF800803B4600224FF001112046A3
:100B4000FFF75FFE68B922684AF00103136143466C
:100B50003A4609492046FFF78EFE002899D0012029
:100B600097E723681B6813F4807F02D04FF400736B
:100B7000236403208DE700BF0200010070B5044626
:100B80000D46164623685B6913F0040F1CD12046FE
:100B9000FFF71EFED0B9B5F1FF3FF3D0FFF78CFC95
:100BA000801BA84201D8002DECD100232363202212
:100BB00084F83D2084F83E30226C42F0200222640A
:100BC00084F83C30012000E0002070BD0120FCE7EB
:100BD00070B505460C4616462B68596911F0400F52
:100BE00029D1596911F0100F15D1FFF765FC801B51
:100BF000A04201D8002CEFD100232B63202285F8DE
:100C00003D2085F83E302A6C42F020022A6485F8A7
:100C10003C30012070BD6FF010025A6100232B633D
:100C2000202285F83D2085F83E302A6C2A6485F81C
:100C30003C300120EEE70020ECE77047002800F090
:100C4000CC80F8B5044690F83D30002B77D02423B3
:100C500084F83D302268136823F001031360226892
:100C6000136843F4004313602268136823F40043BD
:100C7000136000F041FE62685A4B9A4264D85A4BA6
:100C800098428CBF00230123002B40F0A880574DD1
:100C9000A5FB0035AF0C2668716821F03F0141EAE1
:100CA0009541716021680B6A23F03F0365684D4AE6
:100CB00095424FD87A1C13430B622568E96921F4E9
:100CC0004F4121F0FF016368464A93424CD80138F6
:100CD0005B00B0FBF3F0013040F6FC73184278D0B3
:100CE000C0F30B030B43EB6121680B6823F0C003D7
:100CF000E269206A024313430B6021688B6823F486
:100D0000034323F0FF032269E068024313438B602F
:100D10002168CB6823F0FF036269A0690243134393
:100D2000CB602268136843F0010313600020206445
:100D3000202384F83D30206384F83E00F8BD80F81D
:100D40003C30FFF77AFF82E7294B98428CBF0023A3
:100D5000012399E74FF4967202FB07F2254DA5FB9C
:100D6000025292090132A6E7A268BAB9461E03EB05
:100D70004307B6FBF7F60136C6F30B06B6FA86F65E
:100D8000760946BBC2B9421E03EB4303B2FBF3F242
:100D90000132C2F30B0242F40043A3E7461E03EB09
:100DA000830707EB8707B6FBF7F60136C6F30B069A
:100DB000B6FA86F67609E4E7421E03EB830303EBFB
:100DC0008303B2FBF3F20132C2F30B0242F440435D
:100DD00088E7042386E7012384E701207047012088
:100DE000ACE700BFA08601007F841E0083DE1B43AA
:100DF000FF083D00D34D62102DE9F04385B0044655
:100E00000F46914698460C9EFFF756FB054694F810
:100E10003D00C0B2202804D00227384605B0BDE806
:100E2000F0830095192301224F492046FFF7E9FC82
:100E3000002840F0928094F83C30012B00F08F8025
:100E4000012384F83C3023681A6812F0010F03D1A3
:100E50001A6842F001021A602268136823F40063E2
:100E60001360212384F83D30102384F83E300023A2
:100E70002364C4F82490A4F82A80638D23853B4B17
:100E8000E3622B46324639462046FFF749FD0746C6
:100E9000002866D10023039323685A6903929B6953
:100EA0000393039B11E0236C042B01D00127B4E7CB
:100EB0002268136843F400731360F7E72A4631464B
:100EC0002046FFF75BFE00282ED1238D002B36D065
:100ED0002A4631462046FFF77DFD0028E3D1626AAD
:100EE000236812781A61616A4B1C6362638D9BB23E
:100EF000013B9BB26385238D013B9BB22385226816
:100F0000506910F0040FD9D0002BD7D04B78136163
:100F1000636A01336362638D9BB2013B9BB263855D
:100F2000238D013B2385C9E7236C042B01D00127C6
:100F300073E72268136843F400731360F7E72268CD
:100F4000136843F400731360202384F83D300023BA
:100F500084F83E3084F83C305FE702275DE70227E3
:100F60005BE7012759E700BF020010000000FFFF08
:100F70002DE9F04387B004460F4690469946109EEF
:100F8000FFF79AFA054694F83D00C0B2202804D035
:100F90000227384607B0BDE8F083009519230122E7
:100FA0009D492046FFF72DFC002840F0448194F82D
:100FB0003C30012B00F04181012384F83C30236850
:100FC0001A6812F0010F03D11A6842F001021A6088
:100FD0002268136823F400631360222384F83D30F1
:100FE000402384F83E30002323640E9B6362BDF8E7
:100FF0003C306385638D2385884BE36201950096C1
:101000004B46424639462046FFF70EFD074600286C
:1010100040F01581238D5BB9029323685A690292CF
:101020009A690292029A1A6842F400721A6098E071
:10103000012B0AD0022B1AD00023059323685A698A
:1010400005929B690593059B8BE02268136823F446
:10105000806313600023039323685A6903929A699B
:101060000392039A1A6842F400721A6079E02268C7
:10107000136823F4806313602268136843F40063E9
:1010800013600023049323685A6904929B690493B4
:10109000049B66E02A4631462046FFF799FD00286A
:1010A00040F0CF8023681A69636A1A70636A01335B
:1010B0006362238D013B2385638D9BB2013B9BB211
:1010C00063854EE000953346002255492046FFF7E0
:1010D00098FB002840F0B7802268136843F400733F
:1010E000136023681A69636A1A70626A531C636228
:1010F000238D013B2385638D9BB2013B9BB26385AE
:1011000023681B695370636A01336362238D013B5B
:101110002385638D9BB2013B9BB2638521E02268EE
:10112000136843F40073136023681A69636A1A70C2
:10113000626A531C6362238D013B2385638D9BB2DE
:10114000013B9BB2638523681B695370636A01335B
:101150006362238D013B2385638D9BB2013B9BB270
:101160006385238D002B5DD0032B2BD8012B91D0D1
:10117000022BA7D000953346002229492046FFF7CD
:1011800040FB002861D12268136823F48063136058
:1011900023681A69636A1A70636A01336362238D74
:1011A000013B2385638D9BB2013B9BB26385009518
:1011B000334600221A492046FFF723FB0028AED011
:1011C0000127E6E62A4631462046FFF701FD0028C2
:1011D0003DD123681A69636A1A70626A531C63629C
:1011E000238D013B2385638D9BB2013B9BB26385BD
:1011F0002368596911F0040FB3D01B695370636AF7
:1012000001336362238D013B2385638D9BB2013BD8
:101210009BB26385A5E700BF020010000000FFFF3E
:1012200004000100202384F83D30002384F83E3080
:1012300084F83C30ADE60227ABE60227A9E6012799
:10124000A7E60127A5E60127A3E60127A1E60127D6
:101250009FE600BF10B582B000230193194B1A6CB2
:1012600042F080521A641B6C03F080530193019B7F
:10127000154B01221A60FFF71FF90446134B5B68F8
:1012800013F4803F08D1FFF717F9001BB0F57A7F00
:10129000F4D9032002B010BD0D4B01221A60FFF7F4
:1012A0000BF90446094B5B6813F4003F07D1FFF7C5
:1012B00003F9001BB0F57A7FF4D90320EAE7002098
:1012C000E8E700BF0038024040000E4200700040D6
:1012D00044000E42002800F0D98170B582B0044667
:1012E000036813F0010F3BD0A64B9B6803F00C037F
:1012F000042B2CD0A34B9B6803F00C03082B21D0AC
:101300006368B3F5803F4FD0B3F5A02F52D09D4B0B
:101310001A6822F480321A601A6822F480221A6055
:101320006368002B50D0FFF7C7F80546954B1B6844
:1013300013F4003F14D1FFF7BFF8401B6428F5D920
:101340000320AAE18F4B5B6813F4800FD8D08D4B3C
:101350001B6813F4003F03D06368002B00F09881F2
:10136000236813F0020F54D0864B9B6813F00C0FC8
:101370003ED0844B9B6803F00C03082B33D0E3680A
:10138000002B67D0804B01221A60FFF795F80546C5
:101390007C4B1B6813F0020F53D1FFF78DF8401BF5
:1013A0000228F5D9032078E1764A136843F48033A4
:1013B0001360B5E7734B1A6842F480221A601A680A
:1013C00042F480321A60ABE7FFF776F805466D4BC2
:1013D0001B6813F4003FC3D0FFF76EF8401B64286E
:1013E000F5D9032059E1674B5B6813F4800FC6D130
:1013F000644B1B6813F0020F03D0E368012B40F02D
:101400004981604A136823F0F803216943EAC10364
:101410001360236813F0080F40D0636963B35B4B1C
:1014200001221A60FFF748F80546564B5B6F13F030
:10143000020F33D1FFF740F8401B0228F5D90320F3
:101440002BE1504A136823F0F803216943EAC103F2
:101450001360DEE74C4B00221A60FFF72DF80546BB
:10146000484B1B6813F0020FD3D0FFF725F8401B41
:101470000228F5D9032010E1444B00221A60FFF73F
:101480001BF805463F4B5B6F13F0020F06D0FFF7CA
:1014900013F8401B0228F5D90320FEE0236813F05F
:1014A000040F78D0374B1B6C13F0805F0DD10023F5
:1014B0000193344B1A6C42F080521A641B6C03F097
:1014C00080530193019B012500E00025304B1B68F0
:1014D00013F4807F21D0A368012B32D0052B36D0A6
:1014E000284B1A6F22F001021A671A6F22F00402C9
:1014F0001A67A368002B34D0FEF7DEFF0646214BA7
:101500001B6F13F0020F45D1FEF7D6FF801B41F28F
:1015100088339842F3D90320BFE01D4A136843F48F
:1015200080731360FEF7C8FF0646194B1B6813F45F
:10153000807FD0D1FEF7C0FF801B0228F5D90320A1
:10154000ABE0104A136F43F001031367D1E70D4B73
:101550001A6F42F004021A671A6F42F001021A670A
:10156000C7E7FEF7A9FF0646064B1B6F13F0020FF5
:1015700010D0FEF7A1FF801B41F288339842F3D9C7
:1015800003208AE00038024000004742800E4742B4
:1015900000700040E5B9A369002B7DD0464A9268EF
:1015A00002F00C02082A51D0022B17D0434B002224
:1015B0001A60FEF781FF04463F4B1B6813F0007F63
:1015C00042D0FEF779FF001B0228F5D9032064E022
:1015D000394A136C23F080531364DCE7374B002245
:1015E0001A60FEF769FF0546334B1B6813F0007F56
:1015F00006D0FEF761FF401B0228F5D903204CE01E
:10160000E369226A1343626A43EA8213A26A5208B8
:10161000013A43EA0243E26A43EA0263264A53601C
:10162000264B01221A60FEF747FF0446224B1B6837
:1016300013F0007F06D1FEF73FFF001B0228F5D90B
:1016400003202AE0002028E0002026E0012B26D0FD
:10165000194B9B6803F48001E269914221D103F0A8
:101660003F02216A8A421ED1616A47F6C0721A405F
:101670008A421AD103F44032A16A8A4217D103F098
:101680007063E26A934214D1002006E001207047A3
:10169000012002E0012000E0002002B070BD012026
:1016A000FBE70120F9E70120F7E70120F5E701203A
:1016B000F3E70120F1E700BF003802406000474235
:1016C000F8B52F4B9B6803F00C03042B53D0082B69
:1016D00053D12B4B5A6802F03F025B6813F4800F22
:1016E00028D0274B5B68C3F3881358010021C01A28
:1016F00061F100018E0146EA906687013C1A66EBB3
:101700000105E90041EA5471E000C01841F100010F
:101710004B0243EAD053440220461946002300F00E
:1017200093FF174B5B68C3F3014301335B00B0FBCE
:10173000F3F023E0124B5B68C3F388135C010025D0
:10174000E41A65F10005AE0146EA9466A701381B6C
:1017500066EB0501CC0044EA5074C500E81844F17A
:1017600000018B0243EA905384022046194600236D
:1017700000F06AFFD5E7034800E00348F8BD00BF6A
:101780000038024000127A000024F400002800F023
:101790009B8070B50D4604464F4B1B6803F00F034A
:1017A0008B4208D2CBB24C4A1370136803F00F037C
:1017B0008B4240F08B80236813F0020F17D013F098
:1017C000040F04D0454A936843F4E05393602368C0
:1017D00013F0080F04D0414A936843F460439360C8
:1017E0003E4A936823F0F003A1680B43936023689B
:1017F00013F0010F32D06368012B21D09A1E012A09
:1018000025D9364A126812F0020F61D033498A682E
:1018100022F0030213438B60FEF74EFE06462F4B69
:101820009B6803F00C036268B3EB820F16D0FEF7DF
:1018300043FE801B41F288339842F0D9032042E0F6
:10184000264A126812F4003FE0D101203BE0234A0F
:10185000126812F0007FD9D1012034E01E4B1B68C2
:1018600003F00F03AB4207D9EAB21B4B1A701B6897
:1018700003F00F03AB422DD1236813F0040F06D001
:10188000164A936823F4E053E1680B43936023689E
:1018900013F0080F07D0114A936823F460432169BD
:1018A00043EAC1039360FFF70BFF0C4B9B68C3F344
:1018B00003130B4AD35CD8400A4B18600A4B1868D4
:1018C000FEF7AEFD002070BD012070470120FAE751
:1018D0000120F8E70120F6E7003C02400038024012
:1018E000243400081400002008000020014B186870
:1018F000704700BF1400002008B5FFF7F7FF044B46
:101900009B68C3F38223034AD35CD84008BD00BF61
:10191000003802403434000830B583B00446036810
:1019200013F0430F14D1236813F00C0F69D123680F
:1019300013F0200F40F0BE80236813F0100F00F06A
:10194000208194F82C20904B1A60002003B030BD09
:101950008E4B00221A60FEF7AFFD05468C4B1B68CC
:1019600013F0006F06D0FEF7A7FD431B022BF5D93D
:101970000320EBE7236813F0010F07D06268A36828
:101980001B0743EA8213824AC2F88430236813F0AB
:10199000020F15D07E4AD2F884106068E3681B06F7
:1019A00043EA801301F0E0410B43C2F88430D2F8DF
:1019B0008C3023F01F03E16901390B43C2F88C30EE
:1019C000236813F0400F0AD06268E3681B0643EAFD
:1019D0008213A26843EA02736D4AC2F884306B4BEB
:1019E00001221A60FEF768FD0546694B1B6813F07B
:1019F000006F98D1FEF760FD401B0228F5D9032047
:101A0000A4E7644B00221A60FEF756FD0546604BC2
:101A10001B6813F0005F06D0FEF74EFD431B022B40
:101A2000F5D9032092E7236813F0040F16D0584A23
:101A3000D2F88810206963691B0643EA801301F01D
:101A4000E0410B43C2F88830D2F88C3023F4F853CD
:101A5000216A013943EA0123C2F88C30236813F06C
:101A6000080F14D04A4AD2F88830216903F0706315
:101A700043EA8113A16943EA0173C2F88830D2F8BE
:101A80008C3023F44033616A0B43C2F88C30414BF5
:101A900001221A60FEF710FD05463D4B1B6813F04E
:101AA000005F7FF444AFFEF707FD401B0228F4D926
:101AB00003204BE700230193354B1A6C42F0805210
:101AC0001A641B6C03F080530193019B324A136824
:101AD00043F480731360FEF7EFFC05462E4B1B6842
:101AE00013F4807F06D1FEF7E7FC401B0228F5D9EE
:101AF00003202BE7264B1B6F13F4407312D0A26A0E
:101B000002F440729A420DD0214B1A6F22F44072B7
:101B1000224901200860002008601A671B6F13F03B
:101B2000010F12D1A36A03F44072B2F5407F1DD0B9
:101B3000174A936823F4F813936015490B6FA26A50
:101B4000C2F30B0213430B67F6E6FEF7B5FC05463E
:101B50000F4B1B6F13F0020FE4D1FEF7ADFC401BDF
:101B600041F288339842F3D90320EFE608498A68A6
:101B700022F4F81223F0704323F4407313438B6074
:101B8000DBE70020E2E600BFE01147426800474281
:101B9000003802407000474200700040400E47424B
:101BA000704738B504460268D36823F0A003D360B9
:101BB000FEF782FC05462368DB6813F0200F07D18F
:101BC000FEF77AFC401BB0F57A7FF4D9032000E0E1
:101BD000002038BD38B50368DA6812F0400F01D034
:101BE000002038BD04464FF0FF32DA60FEF764FC97
:101BF00005462368DB6813F0400F07D1FEF75CFC55
:101C0000431BB3F57A7FF4D90320EAE70020E8E725
:101C100038B500285CD00446437F002B41D0022316
:101C200063772368CA225A62236853225A62204685
:101C3000FFF7D0FF0546002837D12268936823F4C8
:101C4000E00323F04003936021688A686368206999
:101C500003436069034313438B602368E2681A619E
:101C600022681369A16843EA014313612268D368BB
:101C700023F08003D36023689B6813F0200F1BD0F0
:101C80002268136C23F4802313642268136CA16907
:101C90000B4313642368FF225A62012363772846AB
:101CA00038BD0377FFF77CFFB9E72368FF225A624C
:101CB000042363770125F2E72046FFF772FF00282F
:101CC000DED02368FF225A62042363770125E6E70A
:101CD0000125E4E70023092803D901330A38C0B2FB
:101CE000F9E71B01DBB2184370470000F0B583B081
:101CF0000D46634B1B686349A1FB0313DB0A4FF4DA
:101D00007A7101FB03F30193037F012B00F0B5808F
:101D100004460123037702234377002A61D1036835
:101D20009B6813F0400F01D10023EB70EF69287816
:101D3000FFF7D0FF06046878FFF7CCFF46EA0026DD
:101D4000A878FFF7C7FF0643E87846EA004695F80B
:101D50002000FFF7BFFF46EA00663E436B691E4363
:101D60006868AB6918432368CA225A622368532201
:101D70005A626B6AB3F5807F4DD02268936823F472
:101D8000007393602268D368DBB263F42073D3607E
:101D9000019B5A1E0192002B67D02368DA6812F06B
:101DA000020FF5D01E62236898642268936843F49A
:101DB000007393602268936843F400539360324B3E
:101DC0001A6842F400321A609A6842F400329A604B
:101DD0002368FF225A62012363770020207703B033
:101DE000F0BD03689B6813F0400F01D10023EB7036
:101DF000EA6929786B781B0243EA0143A9780B430F
:101E0000E97843EA014395F8201043EA016313435C
:101E10006E691E43A4E72268936823F4807393607D
:101E20002268D368DBB263F4C073D360019B5A1E8F
:101E3000019293B12368D96811F0010FF6D0DE61E9
:101E4000236858642268936843F48073936022681F
:101E5000936843F480539360B1E72368FF225A628A
:101E60000320607700232377B9E72368FF225A62B3
:101E70000320607700232377B1E70220AFE700BF9C
:101E800014000020D34D6210003C014008B5034609
:101E90000C4A12685AB10B4A1068033323F003034B
:101EA0000344094A934206D8064A136008BD054A0E
:101EB00006491160EFE700F041FD0C2303604FF08D
:101EC000FF30F3E78400002000FC0220E401002042
:101ED00001230360014B0B60704700BF0C00002022
:101EE0000FB400B583B004AB53F8042B01938021E9
:101EF000074800F08BFD002804DC03B05DF804EB1C
:101F000004B070470146024800F034F8F5E700BF1E
:101F10008C0000202DE9F04385B004460F4643565F
:101F200033BB042528462146ABBE0446384605B0DF
:101F3000BDE8F08314F9010B04AA1A4402F8100C4E
:101F40000133AB42F6D304AA1344002203F8102C49
:101F50004FF00408E94640464946ABBE8046761B32
:101F6000002EE3D03546102E28BF10250023E8E7C9
:101F70000E46F5E708B5FFF7CDFF08BD08B500F040
:101F80000BFB024A024B9A6008BD00BF000000082C
:101F900000ED00E008B500F007FB08BDF8B5044609
:101FA0000D4617461E462748FFF79AFF2168264828
:101FB000FFF796FF61682548FFF792FFA168244864
:101FC000FFF78EFFE1682348FFF78AFF2169224867
:101FD000FFF786FF61692148FFF782FFA16920486A
:101FE000FFF77EFFE1691F48FFF77AFF1E48FFF702
:101FF00077FF29461D48FFF773FF1D4CE16A1D4816
:10200000FFF76EFF216B1C48FFF76AFFE16B1B486F
:10201000FFF766FF15F0800F0AD115F4004F0CD1C1
:102020001748FFF75DFF06991648FFF759FFF8BDFF
:1020300039461548FFF754FFEFE731461348FFF7DD
:102040004FFFEDE7CC320008DC320008EC3200082C
:10205000FC3200080C3300081C3300082C33000845
:102060003C3300084C3300085C3300086833000838
:1020700000ED00E07833000888330008983300084A
:10208000C8330008D0330008A8330008B83300086C
:1020900083691A888A4201D0002070470268033A97
:1020A000012A01D900207047023383610120704763
:1020B000FEE7000000B585B020F00F03000140B23C
:1020C00043F00C028DF80C2043F008038DF80D301E
:1020D00040F00C038DF80E3040F008008DF80F0032
:1020E00064230093042303AA4E210348FEF784FED1
:1020F00005B05DF804FB00BF1C01002000B585B0F1
:1021000020F00F03000140B243F00D028DF80C20C7
:1021100043F009038DF80D3040F00D038DF80E30BB
:1021200040F009008DF80F0064230093042303AAF4
:102130004E210348FEF760FE05B05DF804FB00BFCA
:102140001C01002008B528B1012806D048B2FFF7CD
:10215000B1FF08BD41F08001F8E741F0C001F5E7AB
:1021600008B53220FEF7AEF93020FFF7A3FF0520B7
:10217000FEF7A8F93020FFF79DFF0120FEF7A2F936
:102180003020FFF797FF0A20FEF79CF92020FFF789
:1021900091FF0A20FEF796F92820FFF78BFF012018
:1021A000FEF790F90820FFF785FF0120FEF78AF976
:1021B0000120FFF77FFF0120FEF784F90120FEF7E1
:1021C00081F90620FFF776FF0120FEF77BF90C204E
:1021D000FFF770FF08BD10B5044694F9000018B170
:1021E0000134FFF78BFFF8E710BD030903EB83030E
:1021F00000F00F0000EB43007047000010B586B000
:102200004FF4FA7302930723019304AB0093012365
:102210000022D0211448FEF7ABFE9DF81000FFF716
:10222000E4FF124C20709DF81100FFF7DEFF607094
:102230009DF81200FFF7D9FFA0709DF81300FFF77B
:10224000D4FFE0709DF81400FFF7CFFF20719DF8D8
:102250001500FFF7CAFF60719DF81600FFF7C5FF74
:10226000A07106B010BD00BF1C010020AC01002011
:1022700000B587B0FEF7FAF800F05CF800F0D6F889
:1022800000F012F900F056F9FFF76AFFFFF7B6FF0A
:102290000A4A1378009353789278094903A800F00A
:1022A00069FB00210846FFF74DFF03A8FFF793FFE6
:1022B0004FF47A70FEF706F9E8E700BFAC010020A2
:1022C000143400087047000082B0002100910B4BCD
:1022D0005A6C42F480425A645A6C02F48042009272
:1022E000009A01911A6C42F080521A641B6C03F040
:1022F00080530193019B02B0704700BF0038024039
:102300007047FEE7FEE7FEE7FEE77047704770475D
:1023100008B5FEF7C5F808BD08B500F00FFB162399
:1023200003604FF0FF3008BD08B54FF0FF31FFF7F5
:10233000F3FFFEE730B5A1B030252A46002114A8EE
:1023400000F010FB00240F94109411941294139435
:102350002A46214603A800F005FB0194304B1A6C75
:1023600042F080521A641B6C03F080530193019B6E
:1023700002942C4B1A6842F440421A601B6803F422
:1023800040430293029B012314934FF4803315932F
:1023900002221A924FF480031B9304231C93B4214E
:1023A0001D911E921F9314A8FEF794FF70BBFEF7B9
:1023B00051FF70BB0F230F9302231093002311933F
:1023C0004FF4A05312934FF48053139305210FA899
:1023D000FFF7DCF900BB202303934FF480730D93C8
:1023E00003A8FFF799FAFFF781FA0F4BA3FB003020
:1023F0008009FEF7CFF80420FEF7E2F8002211462C
:102400004FF0FF30FEF784F821B030BDFFF75AFFE0
:10241000CDE7FFF757FFCDE7FFF754FFDBE700BF3E
:102420000038024000700040D34D621070B582B099
:1024300000250095194B1A6B42F080021A631A6B43
:1024400002F080020092009A01951A6B42F0080295
:102450001A631B6B03F008030193019B104E2A467D
:102460004FF400613046FEF7ADF90E4C4FF4806337
:10247000236065600223A36021463046FEF7B0F872
:102480004FF40063236001236360A560E56021468B
:102490003046FEF7A5F802B070BD00BF003802401C
:1024A000000C02409801002010B582B00023009378
:1024B0001A4A116B41F002011163116B01F0020124
:1024C000009100990193116C41F400111164126C98
:1024D00002F400120192019A114C124A2260124A2F
:1024E0006260A360E3604FF4804222616361A36194
:1024F000E36123620D494FF410720A6004220A61FD
:1025000012224A608B600323CB600948FEF768F80B
:102510002046FEF793FB02B010BD00BF003802401A
:102520001C01002000540040A086010098010020FA
:102530000004024070B50126134B1E60134D144B6E
:102540002B6000246C607F23AB60FF23EB602C6169
:102550002846FFF75DFB0F494FF480734B62CC6058
:102560000C704C700A238B70CC6181F8206022467D
:102570002846FFF7BBFB224621462920FDF7C8FF6E
:102580002920FDF7F9FF70BD3C0E4742B401002041
:102590000028004070010020024B4FF000629A605A
:1025A000704700BF00ED00E0224B9B6803F00C0376
:1025B000042B14D0082B16D01BB11F4B1F4A1A60D6
:1025C00002E01D4B1D4A1A601A4B9B68C3F30313AC
:1025D0001B4AD15C184A1368CB4013607047164BF6
:1025E000184A1A60F0E7134B5A685B6803F03F0320
:1025F00012F4800F13D0134AB2FBF3F20D4B5B6859
:10260000C3F3881303FB02F30A4A5268C2F3014280
:1026100001325200B3FBF2F3074A1360D4E7074AD2
:10262000B2FBF3F2034B5B68C3F3881303FB02F3C3
:10263000EAE700BF00380240140000200024F40044
:102640002434000840787D0153B94AB9002908BFF5
:1026500000281CBF4FF0FF314FF0FF3000F06CB985
:10266000ADF1080C6DE904CE00F006F8DDF804E0E9
:10267000DDE9022304B070472DE9F047089E0D46BE
:1026800004468E46002B40F082808A42174646D987
:10269000B2FA82F24AB1C2F1200105FA02F320FA3D
:1026A00001F1974041EA030E94404FEA1748230C8A
:1026B000BEFBF8FCB9B208FB1CEE43EA0E430CFB70
:1026C00001F098420AD9FB180CF1FF3580F0168111
:1026D000984240F21381ACF1020C3B441B1AA4B2A5
:1026E000B3FBF8F008FB103344EA034400FB01F1AC
:1026F000A14209D93C1900F1FF3380F00181A142C8
:1027000040F2FE8002383C44641A40EA0C4000214A
:102710001EB1D4400023C6E90043BDE8F08702B9EA
:10272000FFDEB2FA82F2002A4FD1CB1B4FEA174EDE
:102730001FFA87F80121B3FBFEFC250C0EFB1C33AE
:1027400045EA034508FB0CF3AB4207D97D190CF1B0
:10275000FF3002D2AB4200F2E7808446ED1AA3B20A
:10276000B5FBFEF00EFB105543EA054408FB00F8EC
:10277000A04507D93C1900F1FF3302D2A04500F271
:10278000D7801846A4EB080440EA0C40C0E78B420F
:1027900008D9002E00F0AF800021C6E900050846E8
:1027A000BDE8F087B3FA83F100294BD1AB4202D3E5
:1027B000824200F2B780841A65EB030301209E4633
:1027C000002EAAD0C6E9004EA7E7C2F1200C01FAFC
:1027D00002F3974020FA0CF04FEA174E21FA0CFC56
:1027E0001843BCFBFEF1050C0EFB11CC1FFA87F859
:1027F00045EA0C4501FB08F3AB4204FA02F409D99F
:102800007D1901F1FF3C80F08B80AB4240F2888063
:1028100002393D44EB1A85B2B3FBFEF00EFB1033D8
:1028200045EA034500FB08F3AB4207D97D1900F1E7
:10283000FF3C71D2AB426FD902383D44EB1A40EAFB
:10284000014178E7C1F1200C8B4022FA0CF71F43BD
:1028500020FA0CF405FA01F34FEA174E25FA0CF5AD
:102860001C43230CB5FBFEF91FFA87F80EFB195524
:1028700043EA054509FB08FAAA4502FA01F200FA03
:1028800001F308D97D1909F1FF3047D2AA4545D98E
:10289000A9F102093D44A5EB0A05A4B2B5FBFEF07F
:1028A0000EFB105544EA054400FB08F8A04507D983
:1028B0003C1900F1FF352DD2A0452BD902383C44FC
:1028C00040EA0940A4EB0804A0FB02894C45C64637
:1028D0004D4619D316D05EB1B3EB0E0264EB05047E
:1028E00004FA0CFCCA404CEA0202CC40C6E90024BF
:1028F0000021BDE8F087314630460EE7AC46EDE6F4
:10290000184601E74345E6D2B8EB020E69EB07052E
:102910000138E0E72846D3E760468FE78146BAE70B
:10292000614677E708464BE7ACF1020C3D4415E7FA
:1029300002383C4426E700BF704700BF014B1868CF
:10294000704700BF180000200A44914200F1FF3395
:1029500000D1704710B511F8014B03F8014F9142B7
:10296000F9D110BD02440346934200D1704703F8E9
:10297000011BF9E70EB400B59CB01DAB02900690A8
:102980006FF00041094807910491094953F8042B5D
:1029900005910068019302A900F0A2F8029B0022B1
:1029A0001A701CB05DF804EB03B0704718000020EB
:1029B0000802FFFF30B5141E05469BB0184605DA25
:1029C0008B232B604FF0FF301BB030BD4FF40273F0
:1029D000ADF80C3014BF04F1FF3323460293059386
:1029E0004FF6FF7300910491ADF80E3002461E9B26
:1029F0006946284600F074F8431CBCBF8B232B604B
:102A0000002CE1D0009B00221A70DDE707B500938F
:102A100013460A46014603480068FFF7CBFF03B0A0
:102A20005DF804FB180000202DE9F0478E689E42F7
:102A300082460C4690461F4638D88A8912F4906F19
:102A400032D025680969A5EB0109656905EB4505E3
:102A500005EBD57501334B446D109D4238BF1D46C3
:102A6000530531D5294600F08BFB064650B90C239F
:102A7000CAF80030A38943F04003A3814FF0FF3030
:102A8000BDE8F08721694A46FFF75EFFA38923F47A
:102A9000906343F08003A381266165614E44A5EBFA
:102AA00009052660A5603E46BE4200D93E46324634
:102AB0002068414600F0FCFAA36822689B1B324460
:102AC000A36022600020DBE72A4600F0B3FB064645
:102AD0000028E1D12169504600F004FBC7E700005F
:102AE0002DE9F04F98468B891B069DB007460D4691
:102AF00014460ED50B6963B9402100F041FB2860F4
:102B0000286120B90C233B604FF0FF30D1E0402317
:102B10006B610023099320238DF82930CDF80C80B8
:102B20003023DFF8A8818DF82A304FF001092346C1
:102B30009A4613F8012B0AB1252AF9D1BAEB040BF6
:102B40000BD05B46224629463846FFF76DFF013021
:102B500000F0AA80099A5A4409929AF80030002B92
:102B600000F0A28000234FF0FF32CDE905230AF1E7
:102B7000010A049307938DF853301A9354460522A3
:102B800014F8011B514800F043FA049AD8B9D00652
:102B900044BF20238DF85330110744BF2B238DF8F9
:102BA00053309AF800302A2B15D0079A544600204B
:102BB0004FF00A0C214611F8013B303B092B4ED94E
:102BC000B0B1079214E0A0EB080309FA03F3134332
:102BD0000493A246D2E7039B191D1B680391002BA7
:102BE000BBBF5B4242F0020207930793B8BF049257
:102BF00023782E2B0CD163782A2B35D1039B1A1DF9
:102C00001B680392002BB8BF4FF0FF3302340593CB
:102C1000DFF8C8A021780322504600F0F9F940B14E
:102C20004023A0EB0A0003FA00F0049B03430134A5
:102C3000049314F8011B26488DF82810062200F092
:102C4000E7F9002838D0234B1BBB039B073323F045
:102C5000070308330393099B3344099367E70CFB8D
:102C600002320C460120A5E70023013405931946E2
:102C70004FF00A0C204610F8012B303A092A03D9EC
:102C8000002BC5D00591C3E70CFB012104460123AD
:102C9000F0E703AB00932A460F4B04A93846AFF385
:102CA0000080421C0646D6D1AB895B063FF52CAFAF
:102CB00009981DB0BDE8F08F03AB00932A46064B80
:102CC00004A9384600F07AF8EBE700BF3C3400086E
:102CD0004634000800000000292A00084234000899
:102CE0002DE9F047164699468A680B69DDF8208081
:102CF0009342B8BF1346336091F8432007460C4611
:102D00000AB1013333602368990642BF3368023346
:102D10003360256815F0060506D104F1190AE36849
:102D200032689B1AAB4226DC94F84320131E2268BB
:102D300018BF012392062BD404F1430249463846BA
:102D4000C04701301ED02368E568326803F00603EF
:102D5000042B08BFAD1AA36822690CBF25EAE575EC
:102D600000259342C4BF9B1AED1800261A34B542C1
:102D70001AD1002008E00123524649463846C04790
:102D8000013003D14FF0FF30BDE8F0870135C6E7D1
:102D9000E1185A1C302081F84300224494F8451071
:102DA00082F843100233C7E70123224649463846DA
:102DB000C0470130E6D00136D9E700002DE9FF47D2
:102DC0000C469146277E0C99782F80469A4604F14E
:102DD000430207D8622F0AD8002F00F0D880582F5E
:102DE00000F0A38004F1420684F842703AE0A7F1B3
:102DF0006303152BF6D801A050F823F0552E0008D8
:102E0000692E0008E52D0008E52D0008E52D0008D5
:102E1000E52D0008692E0008E52D0008E52D0008C5
:102E2000E52D0008E52D0008752F0008992E0008F3
:102E3000572F0008E52D0008E52D0008972F000802
:102E4000E52D0008992E0008E52D0008E52D000865
:102E50005F2F00080B681A1D1B680A6004F1420608
:102E600084F842300123A3E0256808682E0600F1AB
:102E700004030AD505680B60002D03DA2D236D428B
:102E800084F843305E480A2319E015F0400F0568C6
:102E90000B6018BF2DB2EFE70B682568181D08609E
:102EA000280601D51D6802E06906FBD51D88544837
:102EB0006F2F0CBF08230A23002184F84310666893
:102EC000A660002EA2BF216821F0040121600DB987
:102ED000002E4DD01646B5FBF3F103FB1157C75D2D
:102EE00006F8017D2F46BB420D46F4D9082B0BD1C5
:102EF0002368DF0708D5236961689942DEBF302364
:102F000006F8013C06F1FF36921B2261CDF800A0C5
:102F10004B4603AA21464046FFF7E2FE01304CD162
:102F20004FF0FF3004B0BDE8F087354884F84570B5
:102F300023680E681F0656F8045B0E6014D5D90787
:102F400044BF43F0200323601DB9236823F020030E
:102F500023601023B0E7236843F020032360782325
:102F6000284884F84530E3E75E0648BFADB2E6E79F
:102F70001646BBE70B68266860691D1D0D603506A7
:102F80001B6801D5186002E07106FBD5188000238C
:102F900023611646BAE70B681A1D0A601E6862684C
:102FA0000021304600F034F808B1801B606063688F
:102FB0002361002384F84330A8E723693246494659
:102FC0004046D0470130ABD023689B0713D4E0685C
:102FD000039B9842B8BF1846A4E7012332464946EE
:102FE0004046D04701309BD00135E36803995B1A16
:102FF000AB42F2DCEBE7002504F11906F5E700BF70
:103000004D3400085E34000800000000000000009D
:1030100001F0FF01102A2BDB10F0070F08D010F889
:10302000013B013A8B422DD010F0070F42B3F6D18D
:10303000F0B441EA012141EA014122F007047FF0A6
:1030400000070023F0E80256083C85EA010586EAFD
:10305000010685FA47F5A3FA87F586FA47F6A5FA39
:1030600087F68EB9EED1F0BC01F0FF0102F0070245
:1030700032B110F8013B013A83EA010313B1F8D1F0
:103080000020704701387047002D06BF35460338D1
:10309000073815F0010F07D1013015F4807F02BF0A
:1030A000013015F4C03F0130F0BC0138704700BF5B
:1030B000884210B501EB020402D98442234607D8A6
:1030C000431EA14208D011F8012B03F8012FF8E7A5
:1030D000024401468A4200D110BD13F8014D02F8A6
:1030E000014DF7E738B50546002945D051F8043CB5
:1030F0000C1F002BB8BFE41800F0D2F81F4A136869
:10310000104633B9636014602846BDE8384000F0CB
:10311000CDB8A3420BD921686218934204BF1A6844
:103120005B68636004BF521822600460ECE71A46D3
:103130005B680BB1A342FAD911685018A0420BD1B9
:1031400020680144501883421160DDD118685B6823
:10315000536001441160D7E702D90C232B60D3E7F9
:10316000206821188B4204BF19685B68636004BF44
:10317000091821605460C7E738BD00BF0C0100206A
:10318000F8B5CD1C25F0030508350C2D38BF0C25EE
:10319000002D064601DBA94203D90C233360002031
:1031A000F8BD00F07DF821490A6814469CB9204F0B
:1031B0003B6823B92146304600F062F83860294662
:1031C000304600F05DF8431C23D10C2333603046B9
:1031D00000F06CF8E3E723685B1B17D40B2B03D9D3
:1031E00023601C44256004E06368A2420CBF0B60AE
:1031F0005360304600F05AF804F10B00231D20F014
:103200000700C21ACCD01B1AA350C9E72246646833
:10321000CCE7C41C24F00304A042E3D0211A3046BA
:1032200000F02EF80130DDD1CFE700BF0C01002007
:1032300010010020F8B5074614460E4621B9BDE836
:10324000F8401146FFF79CBF22B9FFF74BFF254618
:103250002846F8BD00F030F8A0420FD2214638468B
:10326000FFF78EFF05460028F2D031462246FFF7D1
:103270006BFB31463846FFF735FFE9E73546E7E7B0
:1032800038B5064D0023044608462B60FEF7FEFDC8
:10329000431C02D12B6803B1236038BD1801002004
:1032A000014800F011B800BFD8010020014800F02B
:1032B0000CB800BFD801002051F8043C181F002BA7
:1032C000BCBF0B58C0187047704770475374616398
:1032D0006B206672616D653A0A0000002052302052
:1032E0003D2020253038580A0000000020523120AF
:1032F0003D2020253038580A00000000205232209E
:103300003D2020253038580A00000000205233208C
:103310003D2020253038580A00000000205231326C
:10332000203D20253038580A00000000204C522053
:103330003D2020253038580A00000000205043204E
:103340003D2020253038580A0000000020505352FC
:10335000203D20253038580A000000004653522FE7
:103360004641523A0A0000002043465352203D2075
:1033700020253038580A00002048465352203D206E
:1033800020253038580A00002044465352203D2062
:1033900020253038580A00002041465352203D2055
:1033A00020253038580A0000204D4D464152203D1E
:1033B00020253038580A00002042464152203D2046
:1033C00020253038580A00004D6973630A00000058
:1033D000204C522F4558435F52455455524E3D2084
:1033E000253038580A0000005B48617264466175F8
:1033F0006C745D0A000000005B4275734661756C79
:10340000745D0A005B55736167654661756C745D38
:103410000A000000253032643A253032643A253003
:1034200032640000000000000000000001020304FC
:10343000060708090000000001020304232D302BB9
:103440002000686C4C0065666745464700303132A5
:1034500033343536373839414243444546003031FC
:0F3460003233343536373839616263646566005C
:0834700008F2FF7F01000000DB
:103478007856341201FFFFFF10000000880000207A
:10348800000000000024F4001C00002000000000E0
:103498000000000000000000000000000000000024
:1034A8000000000000000000000000000000000014
:1034B8000000000000000000000000000000000004
:1034C80000000000000000000000000000000000F4
:1034D80000000000000000000000000000000000E4
:1034E8000000000000000000000000003254769840
:04000005080001AD41
:00000001FF
