:020000040800F2
:1000000000000320C102000831320008333200082A
:10001000353200083732000839320008000000008D
:100020000000000000000000000000003B3200085B
:100030003D320008000000003F3200084132000855
:10004000BD260008BD260008BD260008BD26000804
:10005000BD260008BD260008BD260008BD260008F4
:10006000BD260008BD260008BD260008BD260008E4
:10007000BD260008BD260008BD260008BD260008D4
:1000800049320008BD260008BD260008BD2600082C
:10009000BD260008BD260008BD260008BD260008B4
:1000A000BD260008BD260008BD260008BD260008A4
:1000B000BD260008BD260008BD260008BD26000894
:1000C000BD260008BD260008BD260008BD26000884
:1000D000BD260008BD260008BD260008BD26000874
:1000E000BD260008BD260008BD260008BD26000864
:1000F000BD260008BD260008BD260008BD26000854
:10010000BD260008BD260008BD260008BD26000843
:10011000BD260008BD260008BD260008BD26000833
:10012000BD260008BD260008BD260008BD26000823
:10013000BD260008BD260008BD260008BD26000813
:10014000BD260008BD260008BD260008BD26000803
:10015000BD260008BD260008BD260008BD260008F3
:10016000BD260008BD260008BD260008BD260008E3
:10017000BD260008BD260008BD26000800000000BE
:10018000BD260008BD260008BD260008BD260008C3
:10019000BD260008BD260008BD260008BD260008B3
:1001A000BD260008BD260008BD26000800B583B0A6
:1001B00002F0EAF9304B314A1360314A1360314B97
:1001C000314A03E052F8041B43F8041B2F498B42C9
:1001D000F8D32A4B1A682E4B9A4200D0FEE7284BE0
:1001E0001A682C4B9A42F9D1234B2B4A13602B4AA5
:1001F00013602B4B02E0002243F8042B294A934260
:10020000F9D3254B1B6813B9244B1B6803B1FEE7D8
:1002100002F0C6F9694601A802F060F9224C234BAE
:10022000E41AA410002504E0204B53F82530984729
:100230000135AC42F8DC1E4C1E4BE41AA41000251C
:1002400004E01C4B53F8253098470135AC42F8DCEC
:100250000099019802F008FF0546174C174BE41A65
:10026000A41004E0013C154B53F824309847002CAF
:10027000F8DC284602F0F8FFBABADECA0000002017
:10028000E801002000000020A8710008EC01002017
:100290007856341232547698EC01002098050020EC
:1002A000EC0100209C050020140400081404000840
:1002B00014040008140400081404000814040008BE
:1002C00008B5FFF773FF00BEFEE71EF0040F0CBF7A
:1002D000EFF30880EFF309807146414A10472DE99A
:1002E000F04182B004460D46124B5F6BD3F8388064
:1002F0009E6A1B6B13F0020F03D00E4BDB6A002BC0
:100300000BDB0D4802F0F2F8009543463A463146C1
:10031000204602F049F900BEFEE74BF6AB6102F061
:10032000BDF90028EDD0034B4FF00042DA6202B075
:10033000BDE8F08100ED00E0EC6E000800BEFEE7D5
:100340001EF0040F0CBFEFF30880EFF30980714635
:10035000244A10472DE9F04182B004460D46084B6F
:100360005F6BD3F838809E6A064802F0BFF80095AC
:1003700043463A463146204602F016F900BEFEE7F3
:1003800000ED00E0FC6E00081EF0040F0CBFEFF360
:100390000880EFF309807146134A10472DE9F041B8
:1003A00082B004460D46084B5F6BD3F838809E6AD6
:1003B000064802F09BF8009543463A4631462046EF
:1003C00002F0F2F800BEFEE700ED00E0086F000862
:1003D00000BEFEE700BEFEE700BEFEE7704700007D
:0C03E000DF020008550300089D03000820
:1003EC00A871000800000020EC010020A871000892
:1003FC000000001000000010EC0100209C05002003
:08040C000000001000000010C8
:1004200010B504460E4B18784FF47A73B3FBF0F313
:100430000C4A1068B0FBF3F000F09EF868B90F2C7E
:1004400001D901200AE0002221464FF0FF3000F0E0
:100450005FF8054B1C60002000E0012010BD00BFCC
:1004600004000020140000200800002008B50B4BF9
:100470001A6842F400721A601A6842F480621A60C4
:100480001A6842F480721A60032000F02FF80020EE
:10049000FFF7C6FF02F056FE002008BD003C0240F8
:1004A000034A1168034B1B780B441360704700BF6D
:1004B000A002002004000020014B1868704700BF14
:1004C000A002002038B50446FFF7F6FF0546B4F158
:1004D000FF3F02D0044B1B781C44FFF7EDFF401B8D
:1004E000A042FAD338BD00BF04000020074AD368F9
:1004F00023F4E0631B041B0C000200F4E0600343E0
:1005000043F0BF6343F40033D360704700ED00E075
:1005100030B4174BDB68C3F30223C3F10704042C88
:1005200028BF04241D1D062D18D9033B4FF0FF35AD
:1005300005FA04F421EA0401994005FA03F322EADA
:100540000303194300280BDB0901C9B200F1604025
:1005500000F5614080F8001330BC70470023E5E7E8
:1005600000F00F000901C9B2024B1954F4E700BFB3
:1005700000ED00E014ED00E00138B0F1807F0AD218
:10058000064B5860064AF02182F82310002098603C
:1005900007221A6070470120704700BF10E000E09A
:1005A00000ED00E0042805D0054A136823F0040399
:1005B00013607047024A136843F0040313607047E6
:1005C00010E000E0F0B583B0044600230193724BC5
:1005D0001D68724BA3FB0535AD0A876D3E68C26D81
:1005E00008239340334210D003681A6812F0040FB6
:1005F0000BD01A6822F004021A60C26D08239340DF
:10060000BB60436D43F001034365E26D01239340FA
:10061000334209D02268526912F0800F04D0BB60C7
:10062000636D43F002036365E26D0423934033423C
:1006300009D02268126812F0020F04D0BB60636D0B
:1006400043F004036365E26D10239340334224D0EA
:100650002268126812F0080F1FD0BB6023681A6866
:1006600012F4802F0DD01B6813F4002F04D1236CDB
:100670009BB12046984710E0A36C73B12046984781
:100680000BE01A6812F4807F03D11A6822F0080286
:100690001A60236C0BB120469847E26D20239340EB
:1006A000334255D02268126812F0100F50D0BB6050
:1006B00094F83530DBB2052B0ED023681A6812F49B
:1006C000802F33D01B6813F4002F2AD1636C002BCA
:1006D0003ED0204698473BE02268136823F016037B
:1006E00013602268536923F080035361236CA3B124
:1006F0002268136823F008031360E26D3F239340E0
:10070000BB60002384F83430012384F83530236D36
:10071000002B3FD0204698473CE0A36C002BE7D14C
:10072000EBE7E36BA3B12046984711E01A6812F497
:10073000807F09D11A6822F010021A60002384F821
:100740003430012384F83530E36B0BB120469847F1
:10075000636DFBB1636D13F0010F17D0052384F8AF
:1007600035302268136823F001031360019B0133C5
:100770000193AB4204D823681B6813F0010FF5D135
:10078000002384F83430012384F83530E36C0BB156
:100790002046984703B0F0BD14000020B5814E1BE1
:1007A00000230F2B00F2E580F0B583B039E0092279
:1007B00000E00022B2403A4302346E4E46F8242054
:1007C0006D4A1468EA4324EA05064F6817F4803F2F
:1007D00001D045EA0406684C2660646802EA040613
:1007E0004F6817F4003F01D045EA0406624C66608A
:1007F000A46802EA04064F6817F4801F01D045EA96
:1008000004065D4CA660E46822404E6816F4001FA2
:1008100001D045EA0402584CE26001330F2B00F28C
:10082000A68001229A400C6804EA020532EA040418
:10083000F3D14C68661E012E03D9112C01D0122C65
:1008400012D186685F000324BC4026EA0406CC6807
:10085000BC4034438460466826EA02064C68C4F310
:1008600000129A4032434260C7685E000324B440DD
:10087000E24327EA04078C68B4403C43C4604C68F8
:10088000022C01D0122C13D1DF08083750F827E0D2
:1008900003F007044FEA840C0F2404FA0CF42EEA48
:1008A000040E0C6904FA0CF444EA0E0440F82740E4
:1008B000046814404A6802F00302B2402243026016
:1008C0004A6812F0805FA8D0002201922B4A546C33
:1008D00044F480445464526C02F480420192019AC0
:1008E0009C08A61C234A52F8267003F003029600C7
:1008F0000F22B24027EA0207214A90423FF459AF43
:1009000002F58062904222D002F58062904220D0AF
:1009100002F5806290421ED002F5806290421CD0A7
:1009200002F5806290421AD002F58062904218D09F
:1009300002F58062904216D002F58062904214D097
:1009400002F5806290423FF432AF0A2232E7012280
:1009500030E702222EE703222CE704222AE70522B1
:1009600028E7062226E7072224E7082222E703B029
:10097000F0BD704700380140003C014000380240A3
:10098000000002400369194201D001207047002095
:1009900070470AB18161704709048161704703683B
:1009A0005A6912F4806F01D1002070476FF48062A1
:1009B0005A6100230363202280F83D2080F83E30F6
:1009C000026C42F00402026480F83C30012070475F
:1009D0002DE9F04107460D4690461E4622E0FFF7FE
:1009E0006BFD069BC01AB04200D8DEB900233B6302
:1009F000202287F83D2087F83E303A6C42F02002F2
:100A00003A6487F83C3001201AE03B689C6925EA8B
:100A10000404A4B2B4FA84F46409A0450FD1B6F179
:100A2000FF3FDCD1C5F30743012BEED13B685C6986
:100A300025EA0404A4B2B4FA84F46409EDE70020C2
:100A4000BDE8F0812DE9F04105460E46174698466F
:100A50003DE01A6842F400721A602B686FF48062FD
:100A60005A6100232B63202285F83D2085F83E3013
:100A70002A6C42F004022A6485F83C30012034E0FC
:100A8000FFF71AFDA0EB0800B84200D8FFB9002319
:100A90002B63202285F83D2085F83E302A6C42F0F9
:100AA00020022A6485F83C3001201EE02B689C69F6
:100AB00026EA0404A4B2003C18BF0124A4B12B68A8
:100AC0005A6912F4806FC4D1B7F1FF3FD8D1C6F391
:100AD0000743012BEAD12B685C6926EA0404A4B21F
:100AE000003C18BF0124E9E70020BDE8F0810000C8
:100AF000F0B583B004460D4616461F46C36A082B60
:100B00000DD0012B0BD013F5803F08D0036B122BB7
:100B10000AD10268136843F48073136004E022680A
:100B2000136843F4807313600097334600224FF03C
:100B300001112046FFF74CFF80B92369B3F5804FC0
:100B400016D1236805F0FE051D613B463246134968
:100B50002046FFF777FFF8B903B0F0BD23681B68A4
:100B600013F4807F02D04FF4007323640320F3E773
:100B7000EB11226803F0060343F0F00313613B46D8
:100B8000324607492046FFF75DFF18B92368EDB2EA
:100B90001D61DAE70120DFE70120DDE70200010047
:100BA0000800010070B504460D46164623685B69CF
:100BB00013F0800F1CD12046FFF7F1FED0B9B5F13C
:100BC000FF3FF3D0FFF778FC801BA84201D8002D2F
:100BD000ECD100232363202284F83D2084F83E30AA
:100BE000226C42F02002226484F83C30012000E0B4
:100BF000002070BD0120FCE72DE9F04784B00446D9
:100C00000D46164699460C9FDDF83480026813683D
:100C100043F4806313600368196841F480711960BC
:100C2000CDF800803B4600224FF00111FFF7D0FEC7
:100C300070B95FFA85FA236805F0FE051D61434629
:100C40003A4641492046FFF7FDFE68B1012008E021
:100C500023681B6813F4807F02D04FF40073236471
:100C6000032004B0BDE8F0870023039323685A698A
:100C700003929B690393039B424639462046FFF744
:100C800091FF80B9B9F1010F18D12368F6B21E6146
:100C9000424639462046FFF785FF68B3236C042B94
:100CA00024D00120DDE7236C042B01D00120D8E7FC
:100CB0002268136843F400731360F7E72368320A6D
:100CC0001A61424639462046FFF76CFF18B923687F
:100CD000F6B21E61DCE7236C042B01D00120C0E7D3
:100CE0002268136843F400731360F7E722681368FF
:100CF00043F400731360D4E72268136843F48073ED
:100D00001360CDF800803B4600224FF001112046D1
:100D1000FFF75EFE68B922684AF00103136143469B
:100D20003A4609492046FFF78DFE002899D0012058
:100D300097E723681B6813F4807F02D04FF4007399
:100D4000236403208DE700BF0200010070B5044654
:100D50000D46164623685B6913F0040F1CD120462C
:100D6000FFF71DFED0B9B5F1FF3FF3D0FFF7A4FBAD
:100D7000801BA84201D8002DECD100232363202240
:100D800084F83D2084F83E30226C42F02002226438
:100D900084F83C30012000E0002070BD0120FCE719
:100DA00070B505460C4616462B68596911F0400F80
:100DB00029D1596911F0100F15D1FFF77DFB801B68
:100DC000A04201D8002CEFD100232B63202285F80C
:100DD0003D2085F83E302A6C42F020022A6485F8D6
:100DE0003C30012070BD6FF010025A6100232B636C
:100DF000202285F83D2085F83E302A6C2A6485F84B
:100E00003C300120EEE70020ECE70000002800F075
:100E1000CC80F8B5044690F83D30002B77D02423E1
:100E200084F83D302268136823F0010313602268C0
:100E3000136843F4004313602268136823F40043EB
:100E4000136000F041FE62685A4B9A4264D85A4BD4
:100E500098428CBF00230123002B40F0A880574DFF
:100E6000A5FB0035AF0C2668716821F03F0141EA0F
:100E70009541716021680B6A23F03F0365684D4A14
:100E800095424FD87A1C13430B622568E96921F417
:100E90004F4121F0FF016368464A93424CD8013824
:100EA0005B00B0FBF3F0013040F6FC73184278D0E1
:100EB000C0F30B030B43EB6121680B6823F0C00305
:100EC000E269206A024313430B6021688B6823F4B4
:100ED000034323F0FF032269E068024313438B605E
:100EE0002168CB6823F0FF036269A06902431343C2
:100EF000CB602268136843F0010313600020206474
:100F0000202384F83D30206384F83E00F8BD80F84B
:100F10003C3002F033F982E7294B98428CBF002322
:100F2000012399E74FF4967202FB07F2254DA5FBCA
:100F3000025292090132A6E7A268BAB9461E03EB33
:100F40004307B6FBF7F60136C6F30B06B6FA86F68C
:100F5000760946BBC2B9421E03EB4303B2FBF3F270
:100F60000132C2F30B0242F40043A3E7461E03EB37
:100F7000830707EB8707B6FBF7F60136C6F30B06C8
:100F8000B6FA86F67609E4E7421E03EB830303EB29
:100F90008303B2FBF3F20132C2F30B0242F440438B
:100FA00088E7042386E7012384E7012070470120B6
:100FB000ACE700BFA08601007F841E0083DE1B43D8
:100FC000FF083D00D34D62102DE9F04385B0044683
:100FD0000F46914698460C9EFFF76EFA054694F828
:100FE0003D00C0B2202804D00227384605B0BDE835
:100FF000F0830095192301224F492046FFF7E8FCB2
:10100000002840F0928094F83C30012B00F08F8053
:10101000012384F83C3023681A6812F0010F03D1D1
:101020001A6842F001021A602268136823F4006310
:101030001360212384F83D30102384F83E300023D0
:101040002364C4F82490A4F82A80638D23853B4B45
:10105000E3622B46324639462046FFF749FD0746F4
:10106000002866D10023039323685A6903929B6981
:101070000393039B11E0236C042B01D00127B4E7F9
:101080002268136843F400731360F7E72A46314679
:101090002046FFF75BFE00282ED1238D002B36D093
:1010A0002A4631462046FFF77DFD0028E3D1626ADB
:1010B000236812781A61616A4B1C6362638D9BB26C
:1010C000013B9BB26385238D013B9BB22385226844
:1010D000506910F0040FD9D0002BD7D04B78136192
:1010E000636A01336362638D9BB2013B9BB263858C
:1010F000238D013B2385C9E7236C042B01D00127F5
:1011000073E72268136843F400731360F7E72268FB
:10111000136843F400731360202384F83D300023E8
:1011200084F83E3084F83C305FE702275DE7022711
:101130005BE7012759E700BF020010000000FFFF36
:101140002DE9F04387B004460F4690469946109E1D
:10115000FFF7B2F9054694F83D00C0B2202804D04C
:101160000227384607B0BDE8F08300951923012215
:101170009D492046FFF72CFC002840F0448194F85C
:101180003C30012B00F04181012384F83C3023687E
:101190001A6812F0010F03D11A6842F001021A60B6
:1011A0002268136823F400631360222384F83D301F
:1011B000402384F83E30002323640E9B6362BDF815
:1011C0003C306385638D2385884BE36201950096EF
:1011D0004B46424639462046FFF70EFD074600289B
:1011E00040F01581238D5BB9029323685A690292FE
:1011F0009A690292029A1A6842F400721A6098E0A0
:10120000012B0AD0022B1AD00023059323685A69B8
:1012100005929B690593059B8BE02268136823F474
:10122000806313600023039323685A6903929A69C9
:101230000392039A1A6842F400721A6079E02268F5
:10124000136823F4806313602268136843F4006317
:1012500013600023049323685A6904929B690493E2
:10126000049B66E02A4631462046FFF799FD002898
:1012700040F0CF8023681A69636A1A70636A013389
:101280006362238D013B2385638D9BB2013B9BB23F
:1012900063854EE000953346002255492046FFF70E
:1012A00097FB002840F0B7802268136843F400736E
:1012B000136023681A69636A1A70626A531C636256
:1012C000238D013B2385638D9BB2013B9BB26385DC
:1012D00023681B695370636A01336362238D013B8A
:1012E0002385638D9BB2013B9BB2638521E022681D
:1012F000136843F40073136023681A69636A1A70F1
:10130000626A531C6362238D013B2385638D9BB20C
:10131000013B9BB2638523681B695370636A013389
:101320006362238D013B2385638D9BB2013B9BB29E
:101330006385238D002B5DD0032B2BD8012B91D0FF
:10134000022BA7D000953346002229492046FFF7FB
:101350003FFB002861D12268136823F48063136087
:1013600023681A69636A1A70636A01336362238DA2
:10137000013B2385638D9BB2013B9BB26385009546
:10138000334600221A492046FFF722FB0028AED040
:101390000127E6E62A4631462046FFF701FD0028F0
:1013A0003DD123681A69636A1A70626A531C6362CA
:1013B000238D013B2385638D9BB2013B9BB26385EB
:1013C0002368596911F0040FB3D01B695370636A25
:1013D00001336362238D013B2385638D9BB2013B07
:1013E0009BB26385A5E700BF020010000000FFFF6D
:1013F00004000100202384F83D30002384F83E30AF
:1014000084F83C30ADE60227ABE60227A9E60127C7
:10141000A7E60127A5E60127A3E60127A1E6012704
:101420009FE600BF10B582B000230193194B1A6CE0
:1014300042F080521A641B6C03F080530193019BAD
:10144000154B01221A60FFF737F80446134B5B680F
:1014500013F4803F08D1FFF72FF8001BB0F57A7F17
:10146000F4D9032002B010BD0D4B01221A60FFF722
:1014700023F80446094B5B6813F4003F07D1FFF7DC
:101480001BF8001BB0F57A7FF4D90320EAE70020AF
:10149000E8E700BF0038024040000E420070004004
:1014A00044000E42002800F0D98170B582B0044695
:1014B000036813F0010F3BD0A64B9B6803F00C03AD
:1014C000042B2CD0A34B9B6803F00C03082B21D0DA
:1014D0006368B3F5803F4FD0B3F5A02F52D09D4B3A
:1014E0001A6822F480321A601A6822F480221A6084
:1014F0006368002B50D0FEF7DFFF0546954B1B6855
:1015000013F4003F14D1FEF7D7FF401B6428F5D930
:101510000320AAE18F4B5B6813F4800FD8D08D4B6A
:101520001B6813F4003F03D06368002B00F0988120
:10153000236813F0020F54D0864B9B6813F00C0FF6
:101540003ED0844B9B6803F00C03082B33D0E36838
:10155000002B67D0804B01221A60FEF7ADFF0546D5
:101560007C4B1B6813F0020F53D1FEF7A5FF401B05
:101570000228F5D9032078E1764A136843F48033D2
:101580001360B5E7734B1A6842F480221A601A6838
:1015900042F480321A60ABE7FEF78EFF05466D4BD2
:1015A0001B6813F4003FC3D0FEF786FF401B64287E
:1015B000F5D9032059E1674B5B6813F4800FC6D15E
:1015C000644B1B6813F0020F03D0E368012B40F05B
:1015D0004981604A136823F0F803216943EAC10393
:1015E0001360236813F0080F40D0636963B35B4B4B
:1015F00001221A60FEF760FF0546564B5B6F13F041
:10160000020F33D1FEF758FF401B0228F5D9032003
:101610002BE1504A136823F0F803216943EAC10320
:101620001360DEE74C4B00221A60FEF745FF0546CB
:10163000484B1B6813F0020FD3D0FEF73DFF401B51
:101640000228F5D9032010E1444B00221A60FEF76E
:1016500033FF05463F4B5B6F13F0020F06D0FEF7DA
:101660002BFF401B0228F5D90320FEE0236813F06E
:10167000040F78D0374B1B6C13F0805F0DD1002323
:101680000193344B1A6C42F080521A641B6C03F0C5
:1016900080530193019B012500E00025304B1B681E
:1016A00013F4807F21D0A368012B32D0052B36D0D4
:1016B000284B1A6F22F001021A671A6F22F00402F7
:1016C0001A67A368002B34D0FEF7F6FE0646214BBE
:1016D0001B6F13F0020F45D1FEF7EEFE801B41F2A7
:1016E00088339842F3D90320BFE01D4A136843F4BE
:1016F00080731360FEF7E0FE0646194B1B6813F477
:10170000807FD0D1FEF7D8FE801B0228F5D90320B8
:10171000ABE0104A136F43F001031367D1E70D4BA1
:101720001A6F42F004021A671A6F42F001021A6738
:10173000C7E7FEF7C1FE0646064B1B6F13F0020F0C
:1017400010D0FEF7B9FE801B41F288339842F3D9DE
:1017500003208AE00038024000004742800E4742E2
:1017600000700040E5B9A369002B7DD0464A92681D
:1017700002F00C02082A51D0022B17D0434B002252
:101780001A60FEF799FE04463F4B1B6813F0007F7A
:1017900042D0FEF791FE001B0228F5D9032064E039
:1017A000394A136C23F080531364DCE7374B002273
:1017B0001A60FEF781FE0546334B1B6813F0007F6D
:1017C00006D0FEF779FE401B0228F5D903204CE035
:1017D000E369226A1343626A43EA8213A26A5208E7
:1017E000013A43EA0243E26A43EA0263264A53604B
:1017F000264B01221A60FEF75FFE0446224B1B684F
:1018000013F0007F06D1FEF757FE001B0228F5D922
:1018100003202AE0002028E0002026E0012B26D02B
:10182000194B9B6803F48001E269914221D103F0D6
:101830003F02216A8A421ED1616A47F6C0721A408D
:101840008A421AD103F44032A16A8A4217D103F0C6
:101850007063E26A934214D1002006E001207047D1
:10186000012002E0012000E0002002B070BD012054
:10187000FBE70120F9E70120F7E70120F5E7012068
:10188000F3E70120F1E700BF003802406000474263
:10189000F8B52F4B9B6803F00C03042B53D0082B97
:1018A00053D12B4B5A6802F03F025B6813F4800F50
:1018B00028D0274B5B68C3F3881358010021C01A56
:1018C00061F100018E0146EA906687013C1A66EBE1
:1018D0000105E90041EA5471E000C01841F100013E
:1018E0004B0243EAD053440220461946002302F03B
:1018F000A1FF174B5B68C3F3014301335B00B0FBEF
:10190000F3F023E0124B5B68C3F388135C010025FE
:10191000E41A65F10005AE0146EA9466A701381B9A
:1019200066EB0501CC0044EA5074C500E81844F1A8
:1019300000018B0243EA905384022046194600239B
:1019400002F078FFD5E7034800E00348F8BD00BF88
:101950000038024000127A000024F400002800F051
:101960009B8070B50D4604464F4B1B6803F00F0378
:101970008B4208D2CBB24C4A1370136803F00F03AA
:101980008B4240F08B80236813F0020F17D013F0C6
:10199000040F04D0454A936843F4E05393602368EE
:1019A00013F0080F04D0414A936843F460439360F6
:1019B0003E4A936823F0F003A1680B4393602368C9
:1019C00013F0010F32D06368012B21D09A1E012A37
:1019D00025D9364A126812F0020F61D033498A685D
:1019E00022F0030213438B60FEF766FD06462F4B81
:1019F0009B6803F00C036268B3EB820F16D0FEF70E
:101A00005BFD801B41F288339842F0D9032042E00D
:101A1000264A126812F4003FE0D101203BE0234A3D
:101A2000126812F0007FD9D1012034E01E4B1B68F0
:101A300003F00F03AB4207D9EAB21B4B1A701B68C5
:101A400003F00F03AB422DD1236813F0040F06D02F
:101A5000164A936823F4E053E1680B4393602368CC
:101A600013F0080F07D0114A936823F460432169EB
:101A700043EAC1039360FFF70BFF0C4B9B68C3F372
:101A800003130B4AD35CD8400A4B18600A4B186802
:101A9000FEF7C6FC002070BD012070470120FAE768
:101AA0000120F8E70120F6E7003C02400038024040
:101AB000286F00081400002008000020014B18685F
:101AC000704700BF1400002008B5FFF7F7FF044B74
:101AD0009B68C3F38223034AD35CD84008BD00BF90
:101AE00000380240386F000830B583B00446036800
:101AF00013F0430F14D1236813F00C0F69D123683E
:101B000013F0200F40F0BE80236813F0100F00F098
:101B1000208194F82C20904B1A60002003B030BD37
:101B20008E4B00221A60FEF7C7FC05468C4B1B68E3
:101B300013F0006F06D0FEF7BFFC431B022BF5D954
:101B40000320EBE7236813F0010F07D06268A36856
:101B50001B0743EA8213824AC2F88430236813F0D9
:101B6000020F15D07E4AD2F884106068E3681B0625
:101B700043EA801301F0E0410B43C2F88430D2F80D
:101B80008C3023F01F03E16901390B43C2F88C301C
:101B9000236813F0400F0AD06268E3681B0643EA2B
:101BA0008213A26843EA02736D4AC2F884306B4B19
:101BB00001221A60FEF780FC0546694B1B6813F092
:101BC000006F98D1FEF778FC401B0228F5D903205E
:101BD000A4E7644B00221A60FEF76EFC0546604BDA
:101BE0001B6813F0005F06D0FEF766FC431B022B58
:101BF000F5D9032092E7236813F0040F16D0584A52
:101C0000D2F88810206963691B0643EA801301F04B
:101C1000E0410B43C2F88830D2F88C3023F4F853FB
:101C2000216A013943EA0123C2F88C30236813F09A
:101C3000080F14D04A4AD2F88830216903F0706343
:101C400043EA8113A16943EA0173C2F88830D2F8EC
:101C50008C3023F44033616A0B43C2F88C30414B23
:101C600001221A60FEF728FC05463D4B1B6813F065
:101C7000005F7FF444AFFEF71FFC401B0228F4D93D
:101C800003204BE700230193354B1A6C42F080523E
:101C90001A641B6C03F080530193019B324A136852
:101CA00043F480731360FEF707FC05462E4B1B6858
:101CB00013F4807F06D1FEF7FFFB401B0228F5D905
:101CC00003202BE7264B1B6F13F4407312D0A26A3C
:101CD00002F440729A420DD0214B1A6F22F44072E6
:101CE000224901200860002008601A671B6F13F06A
:101CF000010F12D1A36A03F44072B2F5407F1DD0E8
:101D0000174A936823F4F813936015490B6FA26A7E
:101D1000C2F30B0213430B67F6E6FEF7CDFB054655
:101D20000F4B1B6F13F0020FE4D1FEF7C5FB401BF6
:101D300041F288339842F3D90320EFE608498A68D4
:101D400022F4F81223F0704323F4407313438B60A2
:101D5000DBE70020E2E600BFE011474268004742AF
:101D6000003802407000474200700040400E474279
:101D700030B4036A23F001030362056A4268846990
:101D800024F073040B681C4325F002058B682B4379
:101D9000104DA84203D005F58065A84205D123F077
:101DA0000803CD682B4323F004030A4DA84203D057
:101DB00005F58065A84205D122F440724D691543AE
:101DC0008A692A43426084614A684263036230BC84
:101DD000704700BF0000014030B4036A23F48073F1
:101DE0000362036A4268C46924F073040D682C43DB
:101DF00023F400738D6843EA0523124DA84203D0F3
:101E000005F58065A84206D123F40063CD6843EA56
:101E1000052323F480630B4DA84203D005F58065AC
:101E2000A84207D122F440524D6942EA05128D6959
:101E300042EA05124260C4614A68C263036230BC70
:101E4000704700BF0000014030B4036A23F48053A0
:101E50000362036A4468C26922F4E6420D6842EAFA
:101E6000052223F400538D6843EA0533094DA84247
:101E700003D005F58065A84204D124F480444D695F
:101E800044EA85144460C2614A680264036230BC5B
:101E9000704700BF0000014030B4036A056A25F0B6
:101EA00001050562846924F0F00444EA021423F079
:101EB0000A030B438461036230BC704730B4056A87
:101EC00025F0100505628469036A24F4704444EA2D
:101ED000023423F0A00343EA01138461036230BC9F
:101EE0007047836823F070030B4343F0070383605C
:101EF00070477047704770470368304A904212D06D
:101F0000B0F1804F0FD0A2F57C4290420BD002F589
:101F10008062904207D002F58062904203D002F5C1
:101F20007842904203D123F070034A681343234A56
:101F300090422AD0B0F1804F27D0A2F57C42904247
:101F400023D002F5806290421FD002F58062904259
:101F50001BD002F57842904217D002F570529042A1
:101F600013D002F5806290420FD002F58062904259
:101F70000BD0A2F59832904207D002F580629042D1
:101F800003D002F58062904203D123F44073CA6803
:101F9000134323F080034A69134303608B68C362D1
:101FA0000B688362054B984203D003F58063984227
:101FB00001D10B69036301234361704700000140B5
:101FC000B0B110B5044690F83D3063B1022384F8F7
:101FD0003D30214651F8040BFFF78EFF012384F8B2
:101FE0003D30002010BD80F83C30FFF782FFEDE768
:101FF00001207047B0B110B5044690F83D3063B190
:10200000022384F83D30214651F8040BFFF774FF9A
:10201000012384F83D30002010BD80F83C30FFF7EC
:1020200069FFEDE701207047002849D0F8B50C465C
:10203000054690F83D30002B3DD0022385F83D3019
:102040002A68936823F4804323F0070393602946AA
:1020500051F8040BFFF750FF29688A688E690F6AF0
:102060002068104326F4407626F00306A268A36990
:1020700042EA0323334323F47C4323F0FC03E66862
:10208000E26946EA02261E43226A1303226943EAF2
:102090000213334327F0AA076268646942EA041214
:1020A0003A43886029688B612B681A62012385F89E
:1020B0003D300020F8BD80F83C30FFF71CFFBCE746
:1020C0000120704730B4036A23F010030362036AEF
:1020D0004468826922F4E6420D6842EA052223F050
:1020E00020038D6843EA0513114DA84203D005F57E
:1020F0008065A84206D123F08003CD6843EA05132A
:1021000023F040030A4DA84203D005F58065A8429C
:1021100007D124F440644D6944EA85048D6944EA9A
:102120008504446082614A688263036230BC704700
:102130000000014038B590F83C30012B66D00446D1
:102140000D46012380F83C30022380F83D300C2AF4
:102150001AD8DFE802F007191919201919193419CA
:10216000191947000068FFF703FE2268936943F0DE
:10217000080393612268936923F004039361226842
:10218000936929690B439361012384F83D30002052
:1021900084F83C0038BD0068FFF794FF226893691B
:1021A00043F4006393612268936923F4806393612D
:1021B00022689369296943EA01239361E4E700688F
:1021C000FFF70AFE2268D36943F00803D36122684F
:1021D000D36923F00403D3612268D36929690B43CF
:1021E000D361D1E70068FFF72FFE2268D36943F47B
:1021F0000063D3612268D36923F48063D3612268CA
:10220000D369296943EA0123D361BDE70220C1E70D
:1022100010B4846824F47F4442EA03220A43224330
:10222000826010BC704790F83C30012B66D010B52E
:102230000446012380F83C30022380F83D300268D8
:10224000936823F47F4323F0770393600B68602B3C
:1022500040D022D8402B47D00BD9502B0ED1CA6882
:1022600049680068FFF718FE50212068FFF739FE23
:1022700004E0202B0CD008D9302B09D0012384F89E
:102280003D30002084F83C0010BD0BB1102BF5D17F
:1022900019462068FFF725FEF0E7702B0ED0B3F546
:1022A000005FEBD1CB684A6889680068FFF7B0FF30
:1022B0002268936843F480439360DFE7CB684A6801
:1022C00089680068FFF7A4FF2268936843F07703EA
:1022D0009360D3E7CA6849680068FFF7EFFD6021A3
:1022E0002068FFF7FEFDC9E7CA6849680068FFF784
:1022F000D3FD40212068FFF7F4FDBFE702207047BF
:1023000010B401F01F01012303FA01F4036A23EA68
:1023100004030362036A02FA01F10B43036210BC77
:102320007047000010B5044601220068FFF7E8FF7F
:1023300023680B4A934203D002F58062934203D193
:102340005A6C42F400425A642268936803F007030F
:10235000062B03D0136843F001031360002010BD67
:102360000000014010B5044600220068FFF7C8FFD6
:102370002368154A934217D002F58062934213D026
:102380002368196A41F21112114208D1196A40F208
:102390004442114203D11A6822F001021A6001235B
:1023A00084F83D30002010BD196A41F2111211422B
:1023B000E6D1196A40F244421142E1D15A6C22F44A
:1023C00000425A64DCE700BF0000014010B504463B
:1023D00061B1042916D0012200210068FFF790FFA7
:1023E000012204212068FFF78BFF04E00122002175
:1023F0000068FFF785FF2268136843F0010313604C
:10240000002010BD012204210068FFF779FFF2E7E8
:1024100090F83C30012B3BD030B4012380F83C30A5
:10242000022380F83D3003685C689D6824F07004E6
:102430000A6822435A600368164A93421AD0B3F1DD
:10244000804F17D0A2F57C42934213D002F58062F0
:1024500093420FD002F5806293420BD002F578428E
:10246000934207D002F57052934203D0A2F5943202
:10247000934204D125F080054A6815439D600123ED
:1024800080F83D30002380F83C30184630BC70475F
:10249000022070470000014008B503460C4A12684C
:1024A0005AB10B4A1068033323F003030344094A6B
:1024B000934206D8064A136008BD054A06491160D2
:1024C000EFE702F031FB0C2303604FF0FF30F3E73E
:1024D000F001002000FC02209C0500200123036085
:1024E000014B0B60704700BF0C0000200FB400B51B
:1024F00083B004AB53F8042B01938021074802F00A
:10250000DFFF002804DC03B05DF804EB04B0704783
:102510000146024800F034F8F5E700BFF80100205A
:102520002DE9F04385B004460F46435633BB0425DE
:1025300028462146ABBE0446384605B0BDE8F083C8
:1025400014F9010B04AA1A4402F8100C0133AB422F
:10255000F6D304AA1344002203F8102C4FF0040809
:10256000E94640464946ABBE8046761B002EE3D086
:102570003546102E28BF10250023E8E70E46F5E764
:1025800008B5FFF7CDFF08BD08B501F083F9024A91
:10259000024B9A6008BD00BF0000000800ED00E09B
:1025A00008B501F07FF908BDF8B504460D46174699
:1025B0001E462748FFF79AFF21682648FFF796FF37
:1025C00061682548FFF792FFA1682448FFF78EFF56
:1025D000E1682348FFF78AFF21692248FFF786FF59
:1025E00061692148FFF782FFA1692048FFF77EFF5C
:1025F000E1691F48FFF77AFF1E48FFF777FF29467A
:102600001D48FFF773FF1D4CE16A1D48FFF76EFF81
:10261000216B1C48FFF76AFFE16B1B48FFF766FF61
:1026200015F0800F0AD115F4004F0CD11748FFF7B1
:102630005DFF06991648FFF759FFF8BD3946154862
:10264000FFF754FFEFE731461348FFF74FFFEDE781
:10265000D06D0008E06D0008F06D0008006E000805
:10266000106E0008206E0008306E0008406E0008F2
:10267000506E0008606E00086C6E000800ED00E00F
:102680007C6E00088C6E00089C6E0008CC6E000802
:10269000D46E0008AC6E0008BC6E000883691A880E
:1026A0008A4201D0002070470268033A012A01D90A
:1026B000002070470233836101207047FEE700006D
:1026C00000B585B020F00F03000140B243F00C02CA
:1026D0008DF80C2043F008038DF80D3040F00C030A
:1026E0008DF80E3040F008008DF80F006423009341
:1026F000042303AA4E210348FEF766FC05B05DF8EB
:1027000004FB00BF9003002000B585B020F00F034C
:10271000000140B243F00D028DF80C2043F0090394
:102720008DF80D3040F00D038DF80E3040F00900AB
:102730008DF80F0064230093042303AA4E2103485D
:10274000FEF742FC05B05DF804FB00BF90030020DB
:1027500008B528B1012806D048B2FFF7B1FF08BD7F
:1027600041F08001F8E741F0C001F5E708B53220FB
:10277000FDF7A8FE3020FFF7A3FF0520FDF7A2FE1E
:102780003020FFF79DFF0120FDF79CFE3020FFF772
:1027900097FF0A20FDF796FE2020FFF791FF0A2001
:1027A000FDF790FE2820FFF78BFF0120FDF78AFE42
:1027B0000820FFF785FF0120FDF784FE0120FFF7C9
:1027C0007FFF0120FDF77EFE0120FDF77BFE062046
:1027D000FFF776FF0120FDF775FE0C20FFF770FF75
:1027E00008BD10B5044694F9000018B10134FFF794
:1027F0008BFFF8E710BD030903EB830300F00F0024
:1028000000EB43007047000010B586B04FF47A73B8
:1028100002930723019304AB009301230022D021EC
:102820001448FEF78DFC9DF81000FFF7E4FF124CF2
:1028300020709DF81100FFF7DEFF60709DF8120018
:10284000FFF7D9FFA0709DF81300FFF7D4FFE070E9
:102850009DF81400FFF7CFFF20719DF81500FFF7DA
:10286000CAFF60719DF81600FFF7C5FFA07106B0A2
:1028700010BD00BF3C0300204005002030B585B0EE
:10288000FFF7C2FFAC4B5B79013B0B2B00F2C2811F
:10289000DFE813F00C004800560075009400B50006
:1028A000D400F300140133018001A101A24B187977
:1028B00001F07CFD4FF07F5101F0D0FD002101F0CF
:1028C000C5FC01F091FFAF2800F3A6819B4B83FB71
:1028D00000231A18C317C3EB62131A46C3EB031382
:1028E000A0EB830310320292163303933B2B03DDDC
:1028F0003C3B039301320292914B029A1A60039A75
:102900005A608F4D286801F055FD0446686801F053
:1029100051FD8C4901F056FE0146204601F096FC1F
:1029200005B030BD844B187901F040FD4FF07F5168
:1029300001F094FD844901F089FC01F055FFC2E7E4
:102940007D4B9B7913F0030F0CD17B4B187901F071
:102950002DFD7E4901F082FD7D4901F077FC01F0FB
:1029600043FFB0E7744B187901F020FD774901F07F
:1029700075FD784901F06AFC01F036FFA3E76E4B64
:102980009B7913F0030F0CD16B4B187901F00EFDFE
:102990006E4901F063FD704901F058FC01F024FF1D
:1029A00091E7654B187901F001FD684901F056FD8A
:1029B0006A4901F04BFC01F017FF84E75E4B9B79FD
:1029C00013F0030F0DD15C4B187901F0EFFC4FF0C1
:1029D0007F5101F043FD624901F038FC01F004FF32
:1029E00071E7554B187901F0E1FC4FF07F5101F090
:1029F00035FD5C4901F02AFC01F0F6FE63E74E4B21
:102A00009B7913F0030F0CD14B4B187901F0CEFCDE
:102A1000554901F023FD554901F018FC01F0E4FE91
:102A200051E7454B187901F0C1FC4F4901F016FD03
:102A30004F4901F00BFC01F0D7FE44E73E4B9B7978
:102A400013F0030F0CD13C4B187901F0AFFC464951
:102A500001F004FD474901F0F9FB01F0C5FE32E742
:102A6000354B187901F0A2FC3F4901F0F7FC4249CF
:102A700001F0ECFB01F0B8FE25E72F4B9B7913F03A
:102A8000030F0DD12C4B187901F090FC4FF07F51C2
:102A900001F0E4FC394901F0D9FB01F0A5FE12E791
:102AA000254B187901F082FC4FF07F5101F0D6FCE4
:102AB000334901F0CBFB01F097FE04E71E4B9B79F5
:102AC00013F0030F0CD11C4B187901F06FFC1F4958
:102AD00001F0C4FC2B4901F0B9FB01F085FEF2E6E0
:102AE000154B187901F062FC184901F0B7FC264932
:102AF00001F0ACFB01F078FEE5E60F4B9B7913F09B
:102B0000030F0CD10C4B187901F050FC0F4901F068
:102B1000A5FC1E4901F09AFB01F066FED3E6064BC8
:102B2000187901F043FC094901F098FC184901F0BB
:102B30008DFB01F059FEC6E6400500208988888893
:102B4000800200200000C84200003A42CDCC2C4058
:102B50000000704200006C420000B6420000B44227
:102B60000000F2420000F0429A99993F0000184399
:102B70000000174300003643000035430000554372
:102B80000000544300007443000073430000894375
:102B9000008088433D4B9B7913F0030F0DD13B4BD5
:102BA000187901F003FC4FF07F5101F057FC3849D0
:102BB00001F04CFB01F018FE85E6344B187901F06A
:102BC000F5FB4FF07F5101F049FC324901F03EFB2B
:102BD00001F00AFE77E62D4B9B7913F0030F0CD121
:102BE0002A4B187901F0E2FB2B4901F037FC2B4905
:102BF00001F02CFB01F0F8FD65E6244B187901F09B
:102C0000D5FB254901F02AFC254901F01FFB01F005
:102C1000EBFD58E6012056E6B02822DDB0F5AC7F8A
:102C20001FDCB0381F4B83FB00231A18C317C3EBFC
:102C300062131A46C3EB0313A0EB8303C2F1130222
:102C40000092C3F133030193002B05DB164B009A6E
:102C50001A60019A5A6054E63C330193013A00929B
:102C6000F4E7A0F259100F4B83FB00231A18C31787
:102C7000C3EB62131A46C3EB0313A0EB83031032BA
:102C80000C3309490A604B603BE600BF4005002059
:102C900000809843000098439A99993F0080A74389
:102CA0000000A743898888888002002038B505463F
:102CB0000C460146204601F083FD28B929462046EE
:102CC00001F07EFD70B938BD4FF480610C48FDF70E
:102CD00059FE0128F2D101224FF400610848FDF7A6
:102CE00058FEF0E74FF480610548FDF74BFE0028E1
:102CF000E9D100224FF400610148FDF74AFEE2E706
:102D0000000C024010B500F011FA002830D020214C
:102D10002448FDF737FE012802D1234B1B68F3B18D
:102D200020212048FDF72EFE68BB1F4B1B68012B9E
:102D300029D1FDF7C1FB1D4B1B68C01AB0F5FA7F06
:102D400021D30024184B1C60FDF7B6FB174B18600D
:102D500022464FF480411348FDF71BFE13E0012289
:102D6000114B1A604FF480410E48FDF712FE0AE045
:102D700001210C48FDF706FE012805D00121094874
:102D8000FDF700FE38B110BD01224FF48041054827
:102D9000FDF7FFFDF7E700224FF480410148FDF702
:102DA000F8FDF0E7000C0240880200207C020020C1
:102DB00038B505460C4600F0B9F900282ED0294652
:102DC000204601F0FDFC38B12649204601F0EEFC1A
:102DD00010B1254B1B6873B12946204601F0E6FC73
:102DE00040B10021204601F0EBFC18B11E4B1B68DE
:102DF000012B0CD038BD1C4B01221A6000211B484E
:102E0000FFF790FA1A4B1B6832225A63F2E700214F
:102E1000154B19601548FFF7A5FAEBE74021154857
:102E2000FDF7B0FD024610B9134B1B6863B1124B9E
:102E30001B68002BDED1012ADCD100210E4B19606A
:102E40000A48FFF78FFAD5E70B4B01221A60074CAF
:102E500000212046FFF766FA054B1B685A6A236873
:102E60005A63C7E7C1CABC418C0200204805002054
:102E7000EC030020000C02409002002070B50646D2
:102E80000D4600F053F9044680216E48FDF77AFDA7
:102E900003461CBB012802D0012B13D070BD6A4A27
:102EA0001268002AF8D1684B01221A60674C04218D
:102EB0002046FFF737FA664B1B685B6ADBB2226875
:102EC0009363EBE7604B1B68012BE7D15E4B00225D
:102ED0001A6004215D48FFF745FADFE701281BD09F
:102EE000012B6ED0584B1C68012C76D0012C00F0C1
:102EF0009680012CD2D10021284601F061FC0028E7
:102F0000CCD05449284601F051FC0028C6D04F4B84
:102F10001B680F229A63C1E74B4A1268002ADFD16F
:102F2000494B01221A604B49284601F049FC20B167
:102F30004949284601F03AFC40BB4749284601F080
:102F40003FFC20B13146284601F030FC38BB314609
:102F5000284601F035FC20B14049284601F026FC06
:102F600030BB0021284601F02BFC002896D03949BF
:102F7000284601F01BFC002890D0344C0421204648
:102F8000FFF7D0F923680F229A6387E72F4C0421BB
:102F90002046FFF7C7F9236823229A637EE72B4C6C
:102FA00004212046FFF7BEF9236832229A6375E7B1
:102FB000264C04212046FFF7B5F9236823229A63A3
:102FC0006CE7214B1B68012B8CD11F4B00221A6030
:102FD00004211E48FFF7C6F960E70021284601F0EA
:102FE000EFFB002882D01B49284601F0DFFB0028B8
:102FF0003FF47CAFFDF760FA194B1B68C01A194B00
:1030000098427FF64BAF104B00221A60FDF754FA3E
:10301000134B186004210D48FFF7A4F93EE7314631
:10302000284601F0CDFB00283FF463AF0B4928464A
:1030300001F0BCFB00283FF45CAF044B1B6823226B
:103040009A632BE7000C0240940200204805002000
:10305000FC0200200000C04000004041C1CABC4149
:1030600078020020DF930400F0B589B0FDF7FEF987
:1030700000F000F900F07AF900F0A8FA00F0E2FAA6
:10308000FFF774FB00F024FB00F064FB00F0A4FBEE
:103090000127002639E0214B5B78002B3BD11F4BE9
:1030A0001A78059B9A4236D1FFF7E8FB06460027BF
:1030B0001A4CA07801F07AF90546607801F076F9AB
:1030C000174901F07FFA0146284601F0BFF805468E
:1030D00001463046FFF7EAFDFFF714FE2946304669
:1030E000FFF766FE29463046FFF7C8FE23780093B7
:1030F0006378A2780B4905A802F08EF900210846F2
:10310000FFF726FB05A8FFF76CFBFFF77DFB034BE2
:103110009B78032BBFD0002FCAD0C5E74005002005
:103120000000C842186F00087047000008B54FF44F
:1031300000410348FDF726FC012800D0002008BD0F
:10314000000C024082B0002100910B4B5A6C42F4FB
:1031500080425A645A6C02F480420092009A0191B3
:103160001A6C42F080521A641B6C03F08053019376
:10317000019B02B0704700BF003802402DE9F043C8
:1031800089B0002303930493059306930793026881
:10319000234B9A4202D009B0BDE8F0830025009588
:1031A000204C236B43F004032363236B03F00403DD
:1031B0000093009B0195236B43F001032363236B72
:1031C00003F001030193019B4FF4007303934FF04D
:1031D0001209CDF810904FF00108CDF814800327A4
:1031E00006970426079603A90F48FDF7D9FA4FF46E
:1031F00080730393CDF81090CDF81480069707964E
:1032000003A90A48FDF7CCFA0295236C43F40003A6
:103210002364236C03F400030293029BBBE700BF0B
:10322000005C0040003802400008024000000240FC
:103230007047FEE7FEE7FEE7FEE77047704770471E
:1032400008B5FDF72DF908BD08B50248FDF7BAF934
:1032500008BD00BF2C04002008B501F065FC162352
:1032600003604FF0FF3008BD08B54FF0FF31FFF7A6
:10327000F3FFFEE730B5A1B030252A46002114A89F
:1032800001F066FC00240F9410941194129413948E
:103290002A46214603A801F05BFC0194304B1A6CCE
:1032A00042F080521A641B6C03F080530193019B1F
:1032B00002942C4B1A6842F440421A601B6803F4D3
:1032C00040430293029B012314934FF480331593E0
:1032D00002221A924FF480031B9304231C93B421FF
:1032E0001D911E921F9314A8FEF7DCF870BBFEF729
:1032F00099F870BB0F230F930223109300231193AF
:103300004FF4A05312934FF48053139305210FA849
:10331000FEF724FB00BB202303934FF480730D932F
:1033200003A8FEF7E1FBFEF7C9FB0F4BA3FB003040
:103330008009FDF721F90420FDF734F90022114638
:103340004FF0FF30FDF7E4F821B030BDFFF7ECFEA1
:10335000CDE7FFF7E9FECDE7FFF7E6FEDBE700BFCD
:103360000038024000700040D34D62102DE9F04F4C
:1033700089B0002500958D4B1A6B42F001021A634B
:103380001A6B02F001020092009A01951A6B42F04A
:1033900002021A631A6B02F002020192019A02956C
:1033A0001A6B42F004021A631A6B02F004020292D2
:1033B000029A03951A6B42F008021A631A6B02F024
:1033C00008020392039A04951A6B42F010021A63E2
:1033D0001A6B02F010020492049A05951A6B42F0DF
:1033E00020021A631A6B02F020020592059A0695D4
:1033F0001A6B42F040021A631A6B02F04002069206
:10340000069A07951A6B42F080021A631B6B03F051
:1034100080030793079BDFF8A4912A464FF490415D
:103420004846FDF7B6FADFF898812A464AF6024187
:103430004046FDF7AEFADFF88CA12A464FF4417101
:103440005046FDF7A6FA2A4604215948FDF7A1FA8D
:10345000DFF874B12A4614215846FDF79AFA2A4635
:103460000C214046FDF795FA524C48F22143236067
:1034700065600226A66021464846FDF791F9402383
:1034800023606560A66021465046FDF789F9C02398
:10349000236065600127A76021464846FDF780F953
:1034A0004FF4904323606760A560E560214648467D
:1034B000FDF776F9302323606660A560E56026613C
:1034C00021463D48FDF76CF94FF4015323606660D7
:1034D000A560E560266121464846FDF761F94FF495
:1034E000404323606660A560E560092323612146AF
:1034F0003148FDF755F94FF42C4323606760A56010
:10350000E56021464046FDF74BF94FF43843236010
:103510006560A66021465046FDF742F94FF480539E
:1035200023606560A66021464046FDF739F9042313
:1035300023606760A560E56021461D48FDF730F90E
:1035400026606560A66021464046FDF729F94023C4
:1035500023606560A76021465846FDF721F91423D2
:1035600023606760A560E56021465846FDF718F9BD
:10357000202323606560A76021465846FDF710F9B7
:103580004FF4417323606560A76021465046FDF704
:1035900007F90C2323606760A560E560214640467B
:1035A000FDF7FEF809B0BDE8F08F00BF003802401B
:1035B000001C0240A404002000040240000C024051
:1035C00000180240001402400010024010B582B002
:1035D00000230193154A116C41F400111164126C1F
:1035E00002F400120192019A114C124A2260124A0E
:1035F00062604FF48042A260E36022616361A36174
:10360000E36123620D494FF410730B6004230B61D7
:1036100012234B6001238B600323CB600848FDF726
:10362000BFF82046FDF7F2FB02B010BD00380240A3
:103630003C03002000540040801A0600A40400202F
:103640000004024010B582B0002300931A4A116BA7
:1036500041F002011163116B01F002010091009928
:103660000193116C41F480011164126C02F4800228
:103670000192019A114C124A2260124A6260A360C0
:10368000E3604FF4804222616361A361E3612362DE
:103690000D494FF440630B6004230B6112234B6010
:1036A00001238B600323CB600848FDF779F820469F
:1036B000FDF7ACFB02B010BD0038024090030020C3
:1036C00000580040A0860100A4040020000402402D
:1036D00000B58DB0002300931B4A116C41F002012C
:1036E0001164126C02F002020092009A019302939C
:1036F0001648174A0260436083606422C260036117
:103700008361012203920493059206930793089321
:1037100009920A930B9303A9FEF786FC70B9002364
:103720000193029301A90948FEF772FE48B93C21B2
:103730000648FEF74BFE0DB05DF804FBFFF7F4FC06
:10374000EDE7FFF7F1FCF2E700380240EC03002060
:103750000004004000B58DB0002300931B4A116C9B
:1037600041F004011164126C02F004020092009A0C
:10377000019302931648174A0260436083606422F3
:10378000C260036183610122039204930592069350
:103790000793089309920A930B9303A9FEF744FC3D
:1037A00070B900230193029301A90948FEF730FE86
:1037B00048B93C210648FEF709FE0DB05DF804FB50
:1037C000FFF7B2FCEDE7FFF7AFFCF2E7003802408D
:1037D000FC0200200008004000B58DB000230093DB
:1037E000294A116C41F040011164126C02F0400250
:1037F0000092009A089309930A930B930193029302
:10380000039304930593069307932048204A02608C
:1038100040F2C1124260836040F2F312C260036161
:103820008361FEF7CDFB00BB4FF48053089308A9DA
:103830001648FEF7F8FCD8B91448FEF7DBFBD0B900
:1038400060230193002202920392059201A90F487E
:10385000FEF770FC90B904220DEB02010B48FEF755
:1038600069FC70B90DB05DF804FBFFF75DFCDBE7A8
:10387000FFF75AFCE0E7FFF757FCE1E7FFF754FCDE
:10388000E9E7FFF751FCEDE700380240480500206A
:1038900000180040024B4FF000629A60704700BF72
:1038A00000ED00E0224B9B6803F00C03042B14D0C6
:1038B000082B16D01BB11F4B1F4A1A6002E01D4B8C
:1038C0001D4A1A601A4B9B68C3F303131B4AD15C51
:1038D000184A1368CB4013607047164B184A1A6099
:1038E000F0E7134B5A685B6803F03F0312F4800F54
:1038F00013D0134AB2FBF3F20D4B5B68C3F388138A
:1039000003FB02F30A4A5268C2F301420132520039
:10391000B3FBF2F3074A1360D4E7074AB2FBF3F2B2
:10392000034B5B68C3F3881303FB02F3EAE700BFB2
:1039300000380240140000200024F400286F000822
:1039400040787D0181F0004102E000BF83F0004338
:1039500030B54FEA41044FEA430594EA050F08BF2A
:1039600090EA020F1FBF54EA000C55EA020C7FEAEE
:10397000645C7FEA655C00F0E2804FEA5454D4EB6B
:103980005555B8BF6D420CDD2C4480EA020281EA35
:10399000030382EA000083EA010180EA020281EA6D
:1039A0000303362D88BF30BD11F0004F4FEA0131BF
:1039B0004FF4801C4CEA113102D0404261EB4101CE
:1039C00013F0004F4FEA03334CEA133302D0524254
:1039D00063EB430394EA050F00F0A780A4F1010410
:1039E000D5F1200E0DDB02FA0EFC22FA05F280184A
:1039F00041F1000103FA0EF2801843FA05F3594130
:103A00000EE0A5F120050EF1200E012A03FA0EFCAE
:103A100028BF4CF0020C43FA05F3C01851EBE371D8
:103A200001F0004507D54FF0000EDCF1000C7EEBF5
:103A300000006EEB0101B1F5801F1BD3B1F5001F33
:103A40000CD349085FEA30004FEA3C0C04F1010452
:103A50004FEA445212F5800F80F09A80BCF1004F7B
:103A600008BF5FEA500C50F1000041EB045141EAFD
:103A7000050130BD5FEA4C0C404141EB0101013CC6
:103A800028BFB1F5801FE9D291F0000F04BF0146B5
:103A90000020B1FA81F308BF2033A3F10B03B3F187
:103AA00020020CDA0C3208DD02F1140CC2F10C0217
:103AB00001FA0CF021FA02F10CE002F11402D8BF75
:103AC000C2F1200C01FA02F120FA0CFCDCBF41EA41
:103AD0000C019040E41AA2BF01EB0451294330BD10
:103AE0006FEA04041F3C1CDA0C340EDC04F11404ED
:103AF000C4F1200220FA04F001FA02F340EA0300C4
:103B000021FA04F345EA030130BDC4F10C04C4F109
:103B1000200220FA02F001FA04F340EA03002946E9
:103B200030BD21FA04F0294630BD94F0000F83F433
:103B3000801306BF81F480110134013D4EE77FEA16
:103B4000645C18BF7FEA655C29D094EA050F08BF62
:103B500090EA020F05D054EA000C04BF1946104643
:103B600030BD91EA030F1EBF0021002030BD5FEA87
:103B7000545C05D14000494128BF41F0004130BDAF
:103B800014F580043CBF01F5801130BD01F0004503
:103B900045F0FE4141F470014FF0000030BD7FEA76
:103BA000645C1ABF194610467FEA655C1CBF0B4671
:103BB000024650EA013406BF52EA033591EA030F88
:103BC00041F4002130BD00BF90F0000F04BF002180
:103BD000704730B54FF4806404F132044FF00005B3
:103BE0004FF0000150E700BF90F0000F04BF00212C
:103BF000704730B54FF4806404F1320410F0004592
:103C000048BF40424FF000013EE700BF42004FEA8C
:103C1000E2014FEA31014FEA02701FBF12F07F4309
:103C200093F07F4F81F06051704732F07F4208BFC0
:103C3000704793F07F4F04BF41F40021704730B5C7
:103C40004FF4607401F0004521F000411CE700BF13
:103C500050EA010208BF704730B54FF000050AE096
:103C600050EA010208BF704730B511F0004502D597
:103C7000404261EB41014FF4806404F132045FEA99
:103C8000915C3FF4D8AE4FF003025FEADC0C18BF42
:103C900003325FEADC0C18BF033202EBDC02C2F134
:103CA000200300FA03FC20FA02F001FA03FE40EAC6
:103CB0000E0021FA02F11444BDE600BF70B54FF0CA
:103CC000FF0C4CF4E06C1CEA11541DBF1CEA1355A8
:103CD00094EA0C0F95EA0C0F00F0DEF82C4481EA10
:103CE000030621EA4C5123EA4C5350EA013518BF30
:103CF00052EA033541F4801143F4801338D0A0FB1D
:103D000002CE4FF00005E1FB02E506F00042E0FBC9
:103D100003E54FF00006E1FB03569CF0000F18BFCF
:103D20004EF0010EA4F1FF04B6F5007F64F5407477
:103D300004D25FEA4E0E6D4146EB060642EAC6210A
:103D400041EA55514FEAC52040EA5E504FEACE2E77
:103D5000B4F1FD0C88BFBCF5E06F1ED8BEF1004F7A
:103D600008BF5FEA500E50F1000041EB045170BDF6
:103D700006F0004646EA010140EA020081EA03013A
:103D8000B4EB5C04C2BFD4EB0C0541EA045170BD36
:103D900041F480114FF0000E013C00F3AB8014F1B0
:103DA000360FDEBF002001F0004170BDC4F10004F9
:103DB000203C35DA0C341BDC04F11404C4F120057A
:103DC00000FA05F320FA04F001FA05F240EA0200D5
:103DD00001F0004221F0004110EBD37021FA04F60B
:103DE00042EB06015EEA430E08BF20EAD37070BDC5
:103DF000C4F10C04C4F1200500FA04F320FA05F024
:103E000001FA04F240EA020001F0004110EBD37025
:103E100041F100015EEA430E08BF20EAD37070BD95
:103E2000C4F1200500FA05F24EEA020E20FA04F36E
:103E300001FA05F243EA020321FA04F001F000411D
:103E400021FA04F220EA020000EBD3705EEA430E8E
:103E500008BF20EAD37070BD94F0000F0FD101F0BD
:103E60000046400041EB010111F4801F08BF013CF6
:103E7000F7D041EA060195F0000F18BF704703F034
:103E80000046520043EB030313F4801F08BF013DBB
:103E9000F7D043EA0603704794EA0C0F0CEA135577
:103EA00018BF95EA0C0F0CD050EA410618BF52EA31
:103EB0004306D1D181EA030101F000414FF0000037
:103EC00070BD50EA410606BF1046194652EA430645
:103ED00019D094EA0C0F02D150EA013613D195EAB9
:103EE0000C0F05D152EA03361CBF104619460AD101
:103EF00081EA030101F0004141F0FE4141F470010B
:103F00004FF0000070BD41F0FE4141F4780170BDFA
:103F100070B54FF0FF0C4CF4E06C1CEA11541DBF5F
:103F20001CEA135594EA0C0F95EA0C0F00F0A7F861
:103F3000A4EB050481EA030E52EA03354FEA01318E
:103F400000F088804FEA03334FF0805545EA1313A1
:103F500043EA12634FEA022245EA111545EA106569
:103F60004FEA00260EF000419D4208BF964244F100
:103F7000FD0404F5407402D25B084FEA3202B61A1F
:103F800065EB03055B084FEA32024FF480104FF4F3
:103F9000002CB6EB020E75EB030E22BFB61A754667
:103FA00040EA0C005B084FEA3202B6EB020E75EBFA
:103FB000030E22BFB61A754640EA5C005B084FEA62
:103FC0003202B6EB020E75EB030E22BFB61A75462F
:103FD00040EA9C005B084FEA3202B6EB020E75EB3A
:103FE000030E22BFB61A754640EADC0055EA060EFB
:103FF00018D04FEA051545EA16754FEA06164FEA3E
:10400000C30343EA52734FEAC2025FEA1C1CC0D1E9
:1040100011F4801F0BD141EA00014FF000004FF076
:10402000004CB6E711F4801F04BF01430020B4F137
:10403000FD0C88BFBCF5E06F3FF6AFAEB5EB030CEF
:1040400004BFB6EB020C5FEA500C50F1000041EBEC
:10405000045170BD0EF0004E4EEA113114EB5C04B9
:10406000C2BFD4EB0C0541EA045170BD41F480118C
:104070004FF0000E013C90E645EA060E8DE60CEA94
:10408000135594EA0C0F08BF95EA0C0F3FF43BAFB1
:1040900094EA0C0F0AD150EA01347FF434AF95EA68
:1040A0000C0F7FF425AF104619462CE795EA0C0F4C
:1040B00006D152EA03353FF4FDAE1046194622E719
:1040C00050EA410618BF52EA43067FF4C5AE50EAF3
:1040D00041047FF40DAF52EA43057FF4EBAE12E7E3
:1040E0004FF0FF3C06E000BF4FF0010C02E000BFC4
:1040F0004FF0010C4DF804CD4FEA410C7FEA6C5CA7
:104100004FEA430C18BF7FEA6C5C1BD001B050EA49
:10411000410C0CBF52EA430C91EA030F02BF90EA34
:10412000020F0020704710F1000F91EA030F58BFF3
:10413000994208BF90422CBFD8176FEAE37040F055
:10414000010070474FEA410C7FEA6C5C02D150EAF3
:10415000013C07D14FEA430C7FEA6C5CD6D152EAAE
:10416000033CD3D05DF8040B704700BF8446104673
:1041700062468C461946634600E000BF01B5FFF772
:10418000B7FF002848BF10F1000F01BD4DF808ED42
:10419000FFF7F4FF0CBF012000205DF808FB00BF13
:1041A0004DF808EDFFF7EAFF34BF012000205DF86D
:1041B00008FB00BF4DF808EDFFF7E0FF94BF0120BA
:1041C00000205DF808FB00BF4DF808EDFFF7CEFFBB
:1041D00094BF012000205DF808FB00BF4DF808EDFA
:1041E000FFF7C4FF34BF012000205DF808FB00BFCB
:1041F0004FEA410212F5001215D211D56FF478730F
:10420000B3EB625212D94FEAC12343F0004343EAB1
:10421000505311F0004F23FA02F018BF404270478C
:104220004FF00000704750EA013005D111F0004016
:1042300008BF6FF0004070474FF00000704700BFAC
:1042400080F0004002E000BF81F0004142001FBF4B
:104250005FEA410392EA030F7FEA226C7FEA236C54
:104260006AD04FEA1262D2EB1363C1BFD218414049
:1042700048404140B8BF5B42192B88BF704710F0DF
:10428000004F40F4000020F07F4018BF404211F082
:10429000004F41F4000121F07F4118BF494292EAEA
:1042A000030F3FD0A2F1010241FA03FC10EB0C0016
:1042B000C3F1200301FA03F100F0004302D54942A3
:1042C00060EB4000B0F5000F13D3B0F1807F06D350
:1042D00040084FEA310102F10102FE2A51D2B1F148
:1042E000004F40EBC25008BF20F0010040EA03003D
:1042F0007047490040EB0000013A28BFB0F5000FBD
:10430000EDD2B0FA80FCACF1080CB2EB0C0200FA72
:104310000CF0AABF00EBC25052421843BCBFD040C1
:104320001843704792F0000F81F4000106BF80F43B
:1043300000000132013BB5E74FEA41037FEA226CFE
:1043400018BF7FEA236C21D092EA030F04D092F0C9
:10435000000F08BF0846704790EA010F1CBF0020FD
:10436000704712F07F4F04D1400028BF40F000405A
:10437000704712F100723CBF00F50000704700F07A
:10438000004343F0FE4040F4000070477FEA2262A1
:1043900016BF08467FEA23630146420206BF5FEA72
:1043A000412390EA010F40F4800070474FF0000372
:1043B00004E000BF10F0004348BF40425FEA000C39
:1043C00008BF704743F0964301464FF000001CE0E1
:1043D00050EA010208BF70474FF000030AE000BF37
:1043E00050EA010208BF704711F0004302D5404275
:1043F00061EB41015FEA010C02BF844601460020E7
:1044000043F0B64308BFA3F18053A3F50003BCFA01
:104410008CF2083AA3EBC25310DB01FA02FC6344AE
:1044200000FA02FCC2F12002BCF1004F20FA02F2B5
:1044300043EB020008BF20F00100704702F12002A8
:1044400001FA02FCC2F1200250EA4C0021FA02F209
:1044500043EB020008BF20EADC7070474FF0FF0C0E
:104460001CEAD0521EBF1CEAD15392EA0C0F93EA09
:104470000C0F6FD01A4480EA010C400218BF5FEAAB
:1044800041211ED04FF0006343EA501043EA51111E
:10449000A0FB01310CF00040B1F5000F3EBF490018
:1044A00041EAD3715B0040EA010062F17F02FD2A1C
:1044B0001DD8B3F1004F40EBC25008BF20F00100FF
:1044C000704790F0000F0CF0004C08BF49024CEA16
:1044D000502040EA51207F3AC2BFD2F1FF0340EAA8
:1044E000C250704740F400004FF00003013A5DDC19
:1044F00012F1190FDCBF00F000407047C2F100025A
:10450000410021FA02F1C2F1200200FA02FC5FEA46
:10451000310040F1000053EA4C0308BF20EADC7090
:10452000704792F0000F00F0004C02BF400010F402
:10453000000F013AF9D040EA0C0093F0000F01F0AF
:10454000004C02BF490011F4000F013BF9D041EAD1
:104550000C018FE70CEAD15392EA0C0F18BF93EAD3
:104560000C0F0AD030F0004C18BF31F0004CD8D1FD
:1045700080EA010000F00040704790F0000F17BF84
:1045800090F0004F084691F0000F91F0004F14D0CA
:1045900092EA0C0F01D142020FD193EA0C0F03D122
:1045A0004B0218BF084608D180EA010000F0004025
:1045B00040F0FE4040F40000704740F0FE4040F400
:1045C000400070474FF0FF0C1CEAD0521EBF1CEA9F
:1045D000D15392EA0C0F93EA0C0F69D0A2EB0302BD
:1045E00080EA010C49024FEA402037D04FF0805357
:1045F00043EA111143EA10130CF000408B4238BF1C
:104600005B0042F17D024FF4000C8B4224BF5B1A29
:1046100040EA0C00B3EB510F24BFA3EB510340EA77
:104620005C00B3EB910F24BFA3EB910340EA9C0025
:10463000B3EBD10F24BFA3EBD10340EADC001B0195
:1046400018BF5FEA1C1CE0D1FD2A3FF650AF8B4239
:1046500040EBC25008BF20F0010070470CF0004C46
:104660004CEA50207F32C2BFD2F1FF0340EAC25071
:10467000704740F400004FF00003013A37E792F032
:10468000000F00F0004C02BF400010F4000F013A90
:10469000F9D040EA0C0093F0000F01F0004C02BF8B
:1046A000490011F4000F013BF9D041EA0C0195E7F4
:1046B0000CEAD15392EA0C0F08D142027FF47DAF8D
:1046C00093EA0C0F7FF470AF084676E793EA0C0F7D
:1046D00004D14B023FF44CAF08466EE730F0004C7B
:1046E00018BF31F0004CCAD130F000427FF45CAF0B
:1046F00031F000437FF43CAF5FE700BF4FF0FF3C79
:1047000006E000BF4FF0010C02E000BF4FF0010CCB
:104710004DF804CD4FEA40024FEA41037FEA226C94
:1047200018BF7FEA236C11D001B052EA530C18BFB6
:1047300090EA010F58BFB2EB030088BFC81738BF1B
:104740006FEAE17018BF40F0010070477FEA226C09
:1047500002D15FEA402C05D17FEA236CE4D15FEA05
:10476000412CE1D05DF8040B704700BF8446084639
:104770006146FFE70FB5FFF7C9FF002848BF10F1FA
:10478000000F0FBD4DF808EDFFF7F4FF0CBF01203F
:1047900000205DF808FB00BF4DF808EDFFF7EAFFC9
:1047A00034BF012000205DF808FB00BF4DF808ED84
:1047B000FFF7E0FF94BF012000205DF808FB00BF79
:1047C0004DF808EDFFF7D2FF94BF012000205DF8FF
:1047D00008FB00BF4DF808EDFFF7C8FF34BF01200C
:1047E00000205DF808FB00BF4FEA4002B2F1FE4F27
:1047F0000FD34FF09E03B3EB12620DD94FEA0023A3
:1048000043F0004310F0004F23FA02F018BF40427B
:1048100070474FF00000704712F1610F01D1420262
:1048200005D110F0004008BF6FF0004070474FF016
:104830000000704753B94AB9002908BF00281CBFBF
:104840004FF0FF314FF0FF3000F06CB9ADF1080CC4
:104850006DE904CE00F006F8DDF804E0DDE902239E
:1048600004B070472DE9F047089E0D4604468E4679
:10487000002B40F082808A42174646D9B2FA82F273
:104880004AB1C2F1200105FA02F320FA01F1974082
:1048900041EA030E94404FEA1748230CBEFBF8FC94
:1048A000B9B208FB1CEE43EA0E430CFB01F0984240
:1048B0000AD9FB180CF1FF3580F01681984240F2BE
:1048C0001381ACF1020C3B441B1AA4B2B3FBF8F009
:1048D00008FB103344EA034400FB01F1A14209D96B
:1048E0003C1900F1FF3380F00181A14240F2FE80CB
:1048F00002383C44641A40EA0C4000211EB1D44006
:104900000023C6E90043BDE8F08702B9FFDEB2FA32
:1049100082F2002A4FD1CB1B4FEA174E1FFA87F8BD
:104920000121B3FBFEFC250C0EFB1C3345EA0345BD
:1049300008FB0CF3AB4207D97D190CF1FF3002D212
:10494000AB4200F2E7808446ED1AA3B2B5FBFEF05D
:104950000EFB105543EA054408FB00F8A04507D9B3
:104960003C1900F1FF3302D2A04500F2D78018466F
:10497000A4EB080440EA0C40C0E78B4208D9002EA3
:1049800000F0AF800021C6E900050846BDE8F087C9
:10499000B3FA83F100294BD1AB4202D3824200F239
:1049A000B780841A65EB030301209E46002EAAD02F
:1049B000C6E9004EA7E7C2F1200C01FA02F39740C6
:1049C00020FA0CF04FEA174E21FA0CFC1843BCFBFE
:1049D000FEF1050C0EFB11CC1FFA87F845EA0C45D9
:1049E00001FB08F3AB4204FA02F409D97D1901F185
:1049F000FF3C80F08B80AB4240F2888002393D441E
:104A0000EB1A85B2B3FBFEF00EFB103345EA03450B
:104A100000FB08F3AB4207D97D1900F1FF3C71D2CE
:104A2000AB426FD902383D44EB1A40EA014178E7C6
:104A3000C1F1200C8B4022FA0CF71F4320FA0CF432
:104A400005FA01F34FEA174E25FA0CF51C43230C27
:104A5000B5FBFEF91FFA87F80EFB195543EA054529
:104A600009FB08FAAA4502FA01F200FA01F308D993
:104A70007D1909F1FF3047D2AA4545D9A9F10209AC
:104A80003D44A5EB0A05A4B2B5FBFEF00EFB1055A4
:104A900044EA054400FB08F8A04507D93C1900F199
:104AA000FF352DD2A0452BD902383C4440EA0940BD
:104AB000A4EB0804A0FB02894C45C6464D4619D319
:104AC00016D05EB1B3EB0E0264EB050404FA0CFCE5
:104AD000CA404CEA0202CC40C6E900240021BDE8ED
:104AE000F087314630460EE7AC46EDE6184601E762
:104AF0004345E6D2B8EB020E69EB07050138E0E763
:104B00002846D3E760468FE78146BAE7614677E7F4
:104B100008464BE7ACF1020C3D4415E702383C4433
:104B200026E700BF704700BF014B1868704700BF01
:104B3000180000200A44914200F1FF3300D1704771
:104B400010B511F8014B03F8014F9142F9D110BD96
:104B500002440346934200D1704703F8011BF9E772
:104B60002DE9F04788B0002B1F461446B8BF03F16B
:104B70000043129A109DDDF84CA0B6BF1F460023DB
:104B80002D231370149B23F02008B8F1460F05D095
:104B9000B8F1450F00D10135022300E0032307AA35
:104BA000049206AACDE902A2CDE9003522463B4691
:104BB00000F022FDB8F1470F064602D1119BDB073A
:104BC00022D5B8F1460F06EB050910D13378302B0A
:104BD0000AD10022002320463946FFF7D7FA18B938
:104BE000C5F10105CAF80050DAF8003099440022F6
:104BF000002320463946FFF7C9FA08B1CDF81C90CA
:104C00003022079B4B4507D3079B159A9B1B3046C9
:104C1000136008B0BDE8F087591C07911A70F0E7DF
:104C2000F7B503460029B8BF494203F8022BB4BFC9
:104C30002D222B22092942702ADD0DF10704A446FA
:104C40000A27A6460A4691FBF7F607FB16153035EC
:104C5000632A04F1FF340EF8015C3146F1DC303197
:104C6000AEF1020504F8011C441C294661450AD333
:104C70000DF10902A2EB0E02654588BF0022134424
:104C8000181A03B0F0BD11F8012B04F8012FEDE75D
:104C9000302330318370C170031DF1E72DE9F04FEF
:104CA00091B00C46DDF8688016461F46054601F0B7
:104CB00075FA03680993184600F0CEFB00230E93A3
:104CC000D8F800300A90073323F0070303F10802F5
:104CD00094F81890D4F800B0C8F80020D3E9002365
:104CE000C4E91223D4E9128A2AF000430B930B99EA
:104CF0009C4B4FF0FF32404602F054F870BB994B8A
:104D00000B994FF0FF324046FFF754FA30BB0022B8
:104D1000002340465146FFF743FA10B12D2384F893
:104D20004330914B9148B9F1470F94BF9846804664
:104D3000032323612BF0040323604FF0000A009744
:104D400033460FAA2146284600F0D2F9013040F040
:104D50008F804FF0FF3011B0BDE8F08F42465346D0
:104D60004046514602F01EF840B1BAF1000FBCBFF8
:104D70002D2384F843307E487E4BD4E763685A1C69
:104D800009F0DF0142D106236360002206920EAAD9
:104D9000CDE904920DAA4BF4806303920DF1330226
:104DA000CDE90132236063680093424653462846AA
:104DB0000B91FFF7D5FE0B99472980460D9908D135
:104DC000C81C02DB6368994240DDA9F102095FFA61
:104DD00089F9B9F1650F1FD801394A4604F150002D
:104DE0000D91FFF71DFF0E9A1318012A82462361C9
:104DF00002DC2268D20701D5013323619DF83330EC
:104E0000002B9CD02D2384F8433098E74729BCD150
:104E1000002BBAD10123B7E7B9F1660F18D10029E9
:104E200063680BDD216113B92268D00702D5013315
:104E30000B442361A1654FF0000ADFE713B9226834
:104E4000D20701D50233F4E70123F2E74FF06709F7
:104E50000E9B994205DB23682161D807EAD54B1CDC
:104E6000E7E70029D4BFC1F1020201221344E0E7C1
:104E700023685A0507D42369424631462846B84775
:104E800001302BD165E7B9F1650F40F2DC80D4E940
:104E9000120100220023FFF779F9002833D0364AA7
:104EA000012331462846B84701303FF452AFDDE9CF
:104EB0000D239A4202DB2368D8070FD5DDE90923C9
:104EC00031462846B84701303FF443AF4FF0000861
:104ED00004F11A090E9B013B434509DC23689B073B
:104EE00000F10181E0680F9B9842B8BF184632E795
:104EF00001234A4631462846B84701303FF429AFDE
:104F000008F10108E6E70D9B002B37DC1A4A012364
:104F100031462846B84701303FF41BAFDDE90D2389
:104F2000134302D12368D907D8D5DDE909233146D7
:104F30002846B84701303FF40CAF4FF0000904F1A8
:104F40001A0A0D9B5B424B4501DC0E9B94E7012343
:104F5000524631462846B84701303FF4FAAE09F1CF
:104F60000109EEE7FFFFEF7F406F0008446F000884
:104F70004C6F0008486F0008506F00080E9AA36D30
:104F80009A42A8BF1A46002A914637DC4FF0000B20
:104F900029EAE97904F11A02D4F858A0AAEB090326
:104FA0005B4533DCDDE90D239A423BDB2368DA07FE
:104FB00038D40E9A0D99A2EB0A03A2EB0109994588
:104FC000A8BF9946B9F1000F34DC4FF0000829EA78
:104FD000E97904F11A0ADDE90D239B1AA3EB090311
:104FE00043457FF77BAF0123524631462846B847F9
:104FF00001303FF4AEAE08F10108ECE7134631464C
:1050000042462846B8470130C0D1A2E601233146C6
:1050100028460B92B84701303FF49BAE0B9A0BF138
:10502000010BB9E7DDE9092331462846B8470130CD
:10503000BFD18EE64B4608EB0A0231462846B847F8
:105040000130C2D185E60E9A012A01DCDB0737D593
:105050000123424631462846B84701303FF479AE35
:10506000DDE9092331462846B84701303FF471AEE7
:10507000D4E9120100220023FFF788F8D8B90E9B6B
:1050800008F10102013B31462846B84701300ED1F4
:105090005FE601234A4631462846B84701303FF4CF
:1050A00058AE08F101080E9B013B4345F1DC534625
:1050B00004F15002E1E64FF0000804F11A09F2E7AA
:1050C00001234246DFE701234A4631462846B847D6
:1050D00001303FF43EAE08F10108E3680F995B1A16
:1050E0004345F0DCFEE64FF0000804F11909F4E74F
:1050F0002DE9F047164699468A680B69DDF820804D
:105100009342B8BF1346336091F8432007460C46DC
:105110000AB1013333602368990642BF3368023312
:105120003360256815F0060506D104F1190AE36815
:1051300032689B1AAB4226DC94F84320131E226887
:1051400018BF012392062BD404F143024946384686
:10515000C04701301ED02368E568326803F00603BB
:10516000042B08BFAD1AA36822690CBF25EAE575B8
:1051700000259342C4BF9B1AED1800261A34B5428D
:105180001AD1002008E00123524649463846C0475C
:10519000013003D14FF0FF30BDE8F0870135C6E79D
:1051A000E1185A1C302081F84300224494F845103D
:1051B00082F843100233C7E70123224649463846A6
:1051C000C0470130E6D00136D9E700002DE9FF479E
:1051D0000C469146277E0C99782F80469A4604F11A
:1051E000430207D8622F0AD8002F00F0D880582F2A
:1051F00000F0A38004F1420684F842703AE0A7F17F
:105200006303152BF6D801A050F823F0655200086F
:1052100079520008F5510008F5510008F5510008D1
:10522000F551000879520008F5510008F5510008C1
:10523000F5510008F551000885530008A9520008EF
:1052400067530008F5510008F5510008A7530008FE
:10525000F5510008A9520008F5510008F551000861
:105260006F5300080B681A1D1B680A6004F14206A0
:1052700084F842300123A3E0256808682E0600F177
:1052800004030AD505680B60002D03DA2D236D4257
:1052900084F843305E480A2319E015F0400F056892
:1052A0000B6018BF2DB2EFE70B682568181D08606A
:1052B000280601D51D6802E06906FBD51D88544803
:1052C0006F2F0CBF08230A23002184F8431066685F
:1052D000A660002EA2BF216821F0040121600DB953
:1052E000002E4DD01646B5FBF3F103FB1157C75DF9
:1052F00006F8017D2F46BB420D46F4D9082B0BD191
:105300002368DF0708D5236961689942DEBF30232F
:1053100006F8013C06F1FF36921B2261CDF800A091
:105320004B4603AA21464046FFF7E2FE01304CD12E
:105330004FF0FF3004B0BDE8F087354884F8457081
:1053400023680E681F0656F8045B0E6014D5D90753
:1053500044BF43F0200323601DB9236823F02003DA
:1053600023601023B0E7236843F0200323607823F1
:10537000284884F84530E3E75E0648BFADB2E6E76B
:105380001646BBE70B68266860691D1D0D60350673
:105390001B6801D5186002E07106FBD51880002358
:1053A00023611646BAE70B681A1D0A601E68626818
:1053B0000021304600F004FF08B1801B6060636884
:1053C0002361002384F84330A8E723693246494625
:1053D0004046D0470130ABD023689B0713D4E06828
:1053E000039B9842B8BF1846A4E7012332464946BA
:1053F0004046D04701309BD00135E36803995B1AE2
:10540000AB42F2DCEBE7002504F11906F5E700BF3B
:10541000526F0008636F00080EB400B59CB01DAB5E
:10542000029006906FF000410948079104910949E4
:1054300053F8042B05910068019302A901F02CFB9D
:10544000029B00221A701CB05DF804EB03B0704799
:10545000180000200802FFFF034613F8012B002A62
:10546000FBD1181A0138704730B5141E05469BB0A1
:10547000184605DA8B232B604FF0FF301BB030BD90
:105480004FF40273ADF80C3014BF04F1FF33234620
:10549000029305934FF6FF7300910491ADF80E301F
:1054A00002461E9B6946284601F0F6FA431CBCBF23
:1054B0008B232B60002CE1D0009B00221A70DDE7CB
:1054C00007B5009313460A46014603480068FFF7F4
:1054D000CBFF03B05DF804FB180000202DE9F74F67
:1054E00003690C69A3420746C0F28180013C01F1C7
:1054F000140800F1140505EB8403019358F82430D7
:1055000055F8242001339A424FEA840B08EB8409B2
:10551000B2FBF3F631D34FF0000E4046AC46F246F4
:1055200050F8042B93B206FB03E34FEA134E9BB2F1
:10553000AAEB0303120CDCF800A006FB02E213FA4C
:105540008AF34FEA124E1FFA82FADCF80020CAEB07
:10555000124202EB23429BB243EA024381454CF8DC
:10556000043B4FEA224ADBD255F80B302BB9019BA2
:10557000043B9D421A462ED33C61384601F099F80F
:10558000002824DB013628464FF0000C58F8042B85
:10559000D0F800E093B2ACEB0303120C13FA8EF3D5
:1055A000C2EB1E4202EB23429BB243EA0243C145D7
:1055B00040F8043B4FEA224CE8D255F8242005EB92
:1055C000840322B9043B9D421A460AD33C6130460B
:1055D00003B0BDE8F08F1268043B002ACCD1013C37
:1055E000C7E71268043B002AF0D1013CEBE700203A
:1055F000EEE70000000000002DE9F04F446A99B08A
:1056000016461F46CDE90467DDF8948005463CB98F
:10561000102000F0C7FDC0E9014468620460C46066
:105620006B6A196851B15A684A60012393408B60D4
:10563000284600F049FE6B6A00221A603B1EB9BF83
:1056400023F0004305930023C8F80030DDF81490E0
:10565000A74BBCBF0122C8F8002033EA090319D1C7
:10566000249A42F20F731360C9F31303334300F01B
:105670006D85269B53B99F4B23E09F4B03930833C3
:10568000269A1360039819B0BDE8F08F994B0393E5
:105690000333F5E7DDE90434CDE90C34DDE90C0131
:1056A00000220023FEF772FD804660B1249A012398
:1056B0001360269B002B00F04685904B269A1360C2
:1056C000013B0393DEE716AB019317AB009328462B
:1056D000DDE90C2301F07EF8C9F30A548346002C5F
:1056E0007ED00D9BCDF84C80C3F31303DDE90C0194
:1056F00043F07F5141F44011A4F2FF34804B00226B
:10570000FEF724F974A3D3E90023FEF7D7FA74A3B4
:10571000D3E90023FEF71CF9064620460F46FEF7A4
:1057200063FA71A3D3E90023FEF7C8FA02460B46D9
:1057300030463946FEF70CF906460F46FEF758FD8F
:1057400000228246002330463946FEF729FD48B143
:105750005046FEF749FA32463B46FEF717FD08B9B8
:105760000AF1FF3ABAF1160F57D8664B03EBCA039A
:10577000D3E90023DDE90C01FEF712FD00284ED02D
:105780000AF1FF3A00230F93169B1C1B631E09931B
:1057900045BFC4F101030693002300234CBF0993C6
:1057A0000693BAF1000F3CDB099BCDF838A05344B7
:1057B000099300230A93229B092B00F2B580052B45
:1057C000C4BF043B2293229BA3F10203CCBF00245D
:1057D0000124032B00F2B480DFE803F02D987AA4B3
:1057E000DDE916431C4404F23243202BC3BFC3F14E
:1057F000400304F2124009FA03F3C3F12003C6BFC9
:1058000026FA00F0184306FA03F0FEF7DDF901234B
:10581000A1F1F871013C139370E70123B3E70F90F6
:10582000B2E7069BA3EB0A030693CAF100030A93AF
:1058300000230E93BFE700230B93239B002B00F361
:1058400082804FF00109CDF820904B46CDF88C9026
:105850006E6A00227260042202F11400984271689C
:1058600077D9284600F0FCFC6B6A30601B68039314
:10587000089B0E2B00F2EE80002C00F0EB80BAF1BA
:10588000000F7ADD1F4A0AF00F0302EBC303D3E9CE
:1058900000341AF4807FCDE910344FEA2A145CD02A
:1058A000194BDDE90C01D3E90823FEF731FBCDE903
:1058B000040104F00F040327134E002C4FD1DDE93F
:1058C0001023DDE90401FEF723FBCDE904016EE0BE
:1058D0000123B1E7AFF3008061436F63A787D23F35
:1058E000B3C8608B288AC63FFB799F501344D33FCF
:1058F0000000F07F7D6F0008746F0008516F000892
:105900000000F83FB06F0008886F000800230B9379
:10591000239B0AEB030909F10103012B0893B8BF8C
:10592000012395E70123F2E70124002322930B943E
:105930004FF0FF390022CDF820901223239287E701
:1059400001230B93F4E7DDF88C90CDF820904B46C3
:105950007EE70131716052007EE70227ACE7E10784
:1059600008D5DDE91001D6E90023FEF7A7F9CDE956
:1059700010010137641008369FE700F0A580CAF1D6
:105980000004A44BA44E04F00F0203EBC203D3E9BE
:105990000023DDE90C01FEF791F9CDE904012411A2
:1059A00000230227002C40F08480002B8DD10F9B18
:1059B000002B00F08B80DDE90434CDE91034DDE903
:1059C0001001964B0022FEF7EBFB00287ED0089BCF
:1059D000002B7BD0B9F1000F38DDDDE91001904BD1
:1059E0000022FEF76BF9CDE904010AF1FF38013717
:1059F0004C463846FEF7F8F8DDE90423FEF75EF979
:105A0000884B0022FDF7A4FFA1F15076CDE91001EB
:105A10001196002C5DD1DDE90401834B0022FDF7D6
:105A200095FF02460B46CDE90423109A3346FEF754
:105A3000D5FB002840F09782DDE90401109A06F1B9
:105A40000043FEF7ADFB002840F08B82DDE90C340B
:105A5000CDE90434179B002BC0F25181BAF10E0F2F
:105A600000F34D816B4B03EBCA03D3E90034CDE95E
:105A70000634239B002B80F2DB80089B002B00F375
:105A8000D78040F06D82684B0022DDE90601FEF709
:105A900015F9DDE90423FEF797FB089C264600284C
:105AA00040F04382039F312307F8013B0AF1010ACA
:105AB0003FE2E20705D5D6E90023FEF7FFF80137FC
:105AC0000123641008366DE7022770E7089CD04672
:105AD0008FE703994F4B214412910B9903EBC403B9
